:1008000000380020110C00006D0C0000213C01009C
:1008100000000000000000000000000000000000D8
:100820000000000000000000000000006D0C00004F
:1008300000000000000000006D0C00006D3B010096
:10084000ADDF0000B7DF0000C1DF0000CBDF00003C
:10085000D5DF00006D0C00006D0C00006D0C000079
:10086000D53601006D0C0000E1F50000EBF500004D
:10087000290801006D0C00006D0C000063080100E8
:100880006D0C00006D0C00006D0C00006D0C000084
:100890006D0C00006D0C00006D0C00006D0C000074
:1008A0001B1D0100A1F700004F1F01006D0C00008F
:1008B0006D0C00006D0C00006D0C00006D0C000054
:100C0000FFFFFFFFFFFFFFFFFFFFFFFFFE7FFFFF75
:100C100072B610490F4A0F4B0E4C0E4D0D4E0D4F34
:100C2000B846B946BA46BB46BC460B490B4A521AAF
:100C3000013A05DD0020042308601944043AFBDA78
:100C400007488546074880470748804762B612F044
:100C5000ECFFFEE70000000000FDFF1F0038002051
:100C60000038002051C90000C9C80000D0E7C046C4
:100C700002B4714649084900095C49008E4402BC2F
:100C80007047C046002243088B4274D303098B424D
:100C90005FD3030A8B4244D3030B8B4228D3030C4C
:100CA0008B420DD3FF22090212BA030C8B4202D3EE
:100CB0001212090265D0030B8B4219D300E0090A16
:100CC000C30B8B4201D3CB03C01A5241830B8B421F
:100CD00001D38B03C01A5241430B8B4201D34B0308
:100CE000C01A5241030B8B4201D30B03C01A52416D
:100CF000C30A8B4201D3CB02C01A5241830A8B42F2
:100D000001D38B02C01A5241430A8B4201D34B02DA
:100D1000C01A5241030A8B4201D30B02C01A52413E
:100D2000CDD2C3098B4201D3CB01C01A52418309F2
:100D30008B4201D38B01C01A524143098B4201D32C
:100D40004B01C01A524103098B4201D30B01C01A57
:100D50005241C3088B4201D3CB00C01A52418308D1
:100D60008B4201D38B00C01A524143088B4201D3FE
:100D70004B00C01A5241411A00D20146524110465E
:100D80007047FFE701B5002000F0F0F802BDC04653
:100D90000029F7D076E7704703460B437FD4002243
:100DA00043088B4274D303098B425FD3030A8B42FF
:100DB00044D3030B8B4228D3030C8B420DD3FF2269
:100DC000090212BA030C8B4202D31212090265D037
:100DD000030B8B4219D300E0090AC30B8B4201D3EA
:100DE000CB03C01A5241830B8B4201D38B03C01A31
:100DF0005241430B8B4201D34B03C01A5241030BA8
:100E00008B4201D30B03C01A5241C30A8B4201D358
:100E1000CB02C01A5241830A8B4201D38B02C01A03
:100E20005241430A8B4201D34B02C01A5241030A7A
:100E30008B4201D30B02C01A5241CDD2C3098B425F
:100E400001D3CB01C01A524183098B4201D38B01DC
:100E5000C01A524143098B4201D34B01C01A52417F
:100E600003098B4201D30B01C01A5241C3088B42C4
:100E700001D3CB00C01A524183088B4201D38B00AF
:100E8000C01A524143088B4201D34B00C01A524151
:100E9000411A00D201465241104670475DE0CA0F28
:100EA00000D04942031000D34042534000229C46E8
:100EB00003098B422DD3030A8B4212D3FC228901F2
:100EC00012BA030A8B420CD3890192118B4208D3C8
:100ED000890192118B4204D389013AD0921100E02A
:100EE0008909C3098B4201D3CB01C01A524183093E
:100EF0008B4201D38B01C01A524143098B4201D36B
:100F00004B01C01A524103098B4201D30B01C01A95
:100F10005241C3088B4201D3CB00C01A524183080F
:100F20008B4201D38B00C01A5241D9D243088B4265
:100F300001D34B00C01A5241411A00D20146634608
:100F400052415B10104601D34042002B00D549426C
:100F5000704763465B1000D3404201B5002000F0AB
:100F600005F802BD0029F8D016E770477047C04663
:100F7000D0400B00D1409C46203AD3401843524207
:100F800063469340184370479140030090409C464D
:100F9000203A9340194352426346D3401943704765
:100FA0008446100062468C461900634600E0C04645
:100FB0001FB515F001FE002801D40021C8421FBD55
:100FC00010B515F041FD4042013010BD10B515F0CF
:100FD000F3FD002801DB002010BD012010BDC0463C
:100FE00010B515F0E9FD002801DD002010BD01203D
:100FF00010BDC04610B515F06BFD002801DC0020C7
:1010000010BD012010BDC04610B515F061FD0028CF
:1010100001DA002010BD012010BDC0468446080042
:101020006146FFE71FB514F0B3FA002801D4002190
:10103000C8421FBD10B514F033FA4042013010BD54
:1010400010B514F0A5FA002801DB002010BD012026
:1010500010BDC04610B514F09BFA002801DD002039
:1010600010BD012010BDC04610B514F041FA002893
:1010700001DC002010BD012010BDC04610B514F0E9
:1010800037FA002801DA002010BD012010BDC0464B
:10109000002B11D1002A0FD1002900D1002802D045
:1010A0000021C943080007B4024802A14018029079
:1010B00003BDC046B9FEFFFF03B4684601B5029800
:1010C00013F078FE019B9E4602B00CBC7047C046F0
:1010D0001C2101231B04984201D3000C10391B0A68
:1010E000984201D3000A08391B09984201D300092C
:1010F000043902A2105C40187047C0460403020283
:1011000001010101000000000000000010B50029ED
:1011100003D1FFF7DDFF203002E00800FFF7D8FF22
:1011200010BDC04610B50800202113F0CAFA0020F7
:1011300010BD10B51C00080011009AB213F0F2FAAD
:10114000200010BD10B51C00080011009AB213F069
:101150005DFB200010BD10B50BF0ECFA10BD0000D7
:1011600010B51E2303220549054800F0A8F9002800
:1011700002D10122034B1A7010BDC046C0FDFF1FF3
:10118000600500208805002010B5094B1B78012B55
:101190000BD1084C200000F0CBF9002801D1C0464B
:1011A00010BD200000F098F9FAE701204042F7E76F
:1011B000880500206005002010B5064B01001B7853
:1011C000012B04D1044B180000F054FA10BD01208B
:1011D0004042FBE7880500206005002010B5064B63
:1011E00001001B78012B04D1044B180000F0A6FA73
:1011F00010BD01204042FBE788050020600500206B
:1012000070B5104B06001B78012B18D10E4D2B68C2
:101210009A68EB68013A53438B4210D300290ED0F1
:101220000139280000F0C5FA31000400280000F060
:1012300085FA0443280000F0B5FA204370BD012070
:101240004042FBE7880500206005002010B50B4BED
:1012500001001B78012B0DD1094803689A68C36807
:10126000013A53438B4205D3002903D0013900F0E2
:10127000A0FA10BD01204042FBE7C04688050020CF
:101280006005002010B5054B1B78012B03D10448E5
:1012900000F088FA10BD01204042FBE788050020DD
:1012A0006005002010B5054B1B78012B03D10448C5
:1012B00000F0CEF910BD01204042FBE78805002078
:1012C0006005002010B5054B1B78012B02D100F002
:1012D00023F810BD01204042FBE7C04688050020EE
:1012E00010B5054B1B78012B02D100F059F810BD49
:1012F00001204042FBE7C0468805002010B5054BA1
:101300001B78012B02D100F063F810BD0120404290
:10131000FBE7C04688050020F0B50E00002193B021
:1013200004002E2206A803910591049116F07CFC7E
:1013300009200322FF21684416F076FC0A231E22AE
:10134000210001AD05A803AF01962B7116F082FCB8
:10135000C046A02008222900C000FFF7FCFE00289C
:1013600018D1012405AD11200322290068440396F9
:101370003C7116F06FFCC046082239000748FFF7A1
:10138000EAFE002806D10134E4B203350B2CEAD181
:1013900013B0F0BD01204042FAE7C046010500004D
:1013A00037B505000C000822FF21684616F03CFC0A
:1013B000C0460095C0466B466A461C7103236946C9
:1013C000537102480822FFF7C6FE3EBD0205000029
:1013D000012307B55B420090082269460248019349
:1013E000FFF7B9FE0EBDC0460305000010B5436807
:1013F0004469CB18016859430423A04710BD836892
:1014000010B5046848680433584363680A680830B4
:10141000D21823685343C01810BD37B50468019231
:10142000FFF7EDFF010025690423200001AAA8476A
:1014300037BD70B505681400FFF7E1FF6E69010064
:10144000042328002200B04770BD13B54368019201
:10145000CB18016804695943042301AAA04713BDAE
:10146000FF2270B504000068120643680568CB18B7
:101470005D430E00FFF7E9FF20682900C368984725
:10148000220001CA0423291D0569A8473100024A28
:101490002068FFF7DAFF70BD00FFFFFF4B68C268EE
:1014A00001334B60934209DB002200680B688068BF
:1014B00001334A600B60834200DB0A60704710B55D
:1014C00004000160426083600868191D0838FFF756
:1014D000D9FBE060002010BD70B504000025236832
:1014E0009B68AB420CDC0025236800209B68AB4264
:1014F00013DC20616061A061E0612062606270BD08
:10150000002012F009FC290000222068FFF79DFF4F
:10151000012012F001FC0135E1E712F0FDFB29008A
:101520002000FFF79DFF012012F0F6FB0135DBE7FD
:10153000F0B500250400036889B09F68424B013F65
:10154000039502950495206801938368AB4227DCDC
:10155000029B002B46D0039B5B421F400023A761E8
:10156000E361A369BB425BD0049B236100236361F9
:1015700025002269A36910359A4203D16269E369A3
:101580009A4208D006AA29002000FFF752FF2F4BED
:10159000069A9A4253D1203400200CCD0CC423E08B
:1015A00043680668EB185E434369059605991E007B
:1015B00006AA0823B047069B002B13D0FF22120671
:1015C000934201D0013305D120000599FFF748FF70
:1015D0001D4B0693069B1C4A934207D107996268EC
:1015E000914211D00120404209B0F0BD174A934208
:1015F000F8D1079962689142F4D1019A12498A425E
:101600000CD00122039205E0104A0199914203D0C7
:1016100001220292013596E76F1EF9E70495F0E783
:10162000250018352900200006AAFFF702FF069BB7
:10163000013399D029002000FFF730FF91E72900FE
:101640002000FFF72BFF93E700FFFFFF0000FFFFE5
:1016500010B504000368806999682369C01A4018AE
:10166000FFF780FCE068E3694843C0186369C01A6B
:1016700010BD0000F0B507680400806985B00191D5
:101680000130B968FFF76EFC380003AA0D00294F3E
:10169000FFF7ACFE039BBB421BD02369AB4208D1D2
:1016A000002321686A1C8968636122618A4200DB29
:1016B0002361236AAB4208D1002321686A1C896830
:1016C000636222628A4200DB236229002000FFF766
:1016D000C7FE03AAA1692068FFF788FE039B164A8C
:1016E000BB4221D1A1692068FFF7AFFE2500183564
:1016F000104A29002000FFF790FE29002000FFF784
:101700007EFE2768A368011D019A38003E69B04734
:1017100029002000084AFFF780FE20002900FFF77B
:10172000BDFE002005B0F0BD9342DFD00120404255
:10173000F8E7C04600FFFFFF0000FFFFF0B5040020
:1017400085B001912500226AA36920359A4203D110
:10175000626AE3699A421FD003AA29002000FFF7BA
:1017600068FE0F4B039A9A4211D129002000FFF71F
:1017700046FE2768011DA368019A38007E69B047BC
:1017800020002900FFF78AFE002005B0F0BD2900E7
:101790002000FFF783FED5E701204042F5E7C04671
:1017A0000000FFFF03002033103006C806C30020EE
:1017B000704770B505000E000124B44201D9601EC7
:1017C00070BD290028002031FFF768FE0134F4E7DE
:1017D00070B50D0004000A490A4812F0F3FE12F039
:1017E000DBF9094B0100180012F0ECFE2A00210081
:1017F000064812F0E7FE064812F0E4FE70BDC0464F
:10180000FF7C01007C7C0100897C0100937C01004D
:10181000A07C010037B56A4600230500D01DD371B6
:1018200004F092FA041E07D16B46DB79002B03D03B
:1018300001220D4B1A7028700C490D4812F0C2FE9F
:1018400012F0AAF90B4B0100180012F0BBFE2100A8
:10185000631E9C412A78084812F0B4FE074812F033
:10186000B1FEE0B23EBDC046A50500201F7D0100CF
:101870007C7C0100897C0100A27C0100A07C01002D
:10188000F7B51C4E1C4D3100280012F09BFE12F0E3
:1018900083F91A4C0100200012F094FE184F1948E9
:1018A0003978C9B212F08EFE174B1800019312F06E
:1018B00089FE3100280012F085FE12F06DF901005A
:1018C000200012F07FFE114C11482178C9B212F0AD
:1018D00079FE019812F076FE00220E4B1A7005F088
:1018E00099F9431E98410C4BC0B2387018702070A3
:1018F000F7BDC0460F7D01007C7C0100897C0100A2
:10190000C4120020B77C0100A07C0100670A0020FF
:10191000BF7C0100A4050020C10700200020704703
:101920000020704710B504F0F3FF10BD10B505F0AE
:1019300001F810BD10B505F04DFA10BD70B50500E9
:1019400005F0BBFA0A212800FFF70CFB2800CCB2F7
:101950000A21FFF721FAC0B20A280BD8FFF788F94D
:10196000060B0D0A0A0A0A0A0A0A0F000848210093
:1019700005F0A8FA70BD0748F9E70748F7E70749F7
:10198000682012F0F5F906496A2012F0F1F9F1E742
:10199000C77C0100C97C0100CB7C0100CD7C01002B
:1019A000CF7C010010B505F083FA10BD10B505F02D
:1019B00094FA10BD10B505F094FA10BD10B50400EE
:1019C00005F07BFA632C10D80A212000FFF75AF9A2
:1019D000C1B2682012F0A8F90A212000FFF7D8F957
:1019E000C9B26A2012F0A0F910BD0349682012F0B4
:1019F000BFF90121F5E7C046CB7C010070B50500B9
:101A000004F02CFC2B78064A04001370002B01D044
:101A100004F066FB29780020FFF7DAFE20B270BDE3
:101A2000A405002010B504F05BFA040001000120B9
:101A3000FFF7CEFE20B210BD10B504F089FA040005
:101A400001000220FFF7C4FE002C0ED112F0A4F812
:101A5000084B094A18601368092B08DC591C1160EF
:101A6000064A5B00118E064AD15220B210BD1460A6
:101A7000FBE7C046BC0700208C050020280B002097
:101A80009005002010B504F0C7FA041E03D1054BE1
:101A9000DA6C054B1A6021000320FFF799FE20B293
:101AA00010BDC046280B0020B805002010B504F07A
:101AB00085F9431E9841C0B210BD10B505F016FA65
:101AC000002010BD024B1B785A1E934103707047D3
:101AD000F00B002000220A4B10B50A490A481A7080
:101AE00012F070FD12F058F8084B0100180012F0C7
:101AF00069FD074812F066FD064812F063FD10BD4F
:101B0000F00B0020E87C01007C7C0100897C010056
:101B1000D17C0100A07C010010B505F073F8431ED4
:101B20009841C0B210BD10B505F070F8431E984141
:101B3000C0B210BD10B504F0AFFB10BD10B504F07D
:101B4000BFFB10BD10B504F0C1FB10BD10B504F013
:101B5000CDFE10BD10B504F071FF10BD10B504F03E
:101B600081FF10BD10B504F091FF10BD10B504F059
:101B7000D1FF10BD10B504F0DDFF10BD10B504F0AD
:101B8000E5FF10BD10B504F0EDFF10BD10B504F079
:101B9000FDFF10BD10B505F00DF810BD10B505F036
:101BA00013F810BD10B505F019F810BD10B505F00B
:101BB0001FF810BD10B505F0D9F810BD10B505F02F
:101BC000EFF810BD10B505F05FF910BD10B505F0C8
:101BD0004FF910BD10B504F051FB04F04FFB124B50
:101BE000124A997AC9B21172D97AC9B25172597A24
:101BF000C9B2D171D97B187C01435173997BC9B2A9
:101C000011735979C9B211719979C9B25171997821
:101C1000C9B29170D978C9B2D170197BC9B2917229
:101C20005B7BDBB2D37210BD120B0020A605002037
:101C300010B504F0E9FE10BD10B504F04BFF012013
:101C400010BD10B504F04CFF012010BD10B504F01C
:101C500053FF012010BD10B504F048FF012010BD56
:101C600010B504F04FFF012010BD10B505F056FA75
:101C7000012010BD10B505F07BF910BD10B505F0C1
:101C800093F910BD10B505F0ADF910BD10B5C04603
:101C900005F0C0F9C04610BD10B505F0C5F910BD7E
:101CA00010B505F0CFF910BD10B505F0DFF910BD86
:101CB00010B505F0E7F910BD10B505F0E9F910BD54
:101CC00010B505F0D9F910BD10B505F0E7F910BD54
:101CD00010B505F0E9F910BD002801DBC8407047D8
:101CE000C043C840C043FAE7F7B55B4C5B4FA57CE7
:101CF0001E780195258ABD4201D801352582257DB2
:101D0000002D26D101262675E674554C25700478E1
:101D1000002C04D0524C25780124002D06D01D78CB
:101D20000124002D02D10C78651EAC4101250A9ECC
:101D30006C403470484C267E002E23D12576E57504
:101D4000089DE660A6602E700078002839D000203B
:101D50003AE0E57C012D08D1002ED8D1019F002F5B
:101D6000D5D002272682E774CFE79625268AED0094
:101D7000AE4202D21D78002DC9D00125E5740025A0
:101D8000374CC3E7E67D0578012E15D1002D01D033
:101D90000025A5600D78002D01D00025E560314DAE
:101DA000A668AE42D0D9E668AE42CDD90225E57527
:101DB000013D089E3570C7E7002D18D10D78002D24
:101DC00015D1254880680130A0600878002188423C
:101DD00001D1E1680131E160A17D00290DD101202F
:101DE000A075022061606075099801700DE0002502
:101DF0000126E560A560E675DBE7607D11780128C6
:101E00001AD1002909D0002121601278002A0BD0B4
:101E100000222260626801320AE06425206868437B
:101E20009135FF35A842DCD82268013222600022B9
:101E300062601B78A374F7BD002901D16160E4E7FB
:101E40006420616841439130FF308142E0D9002134
:101E5000216001316175C7E7BC050020FE07000065
:101E6000D8050020E0A50100014B18607047C0466E
:101E7000DC050020F8B51600069A05001278080067
:101E8000002A0ED0684C694FA279002A0AD101239A
:101E9000A37123713B68664A934200DCBDE0079B57
:101EA0001A60F8BD21792A78012911D1002AF1D0D0
:101EB00000226049188822600C235F4A00F0D4F8A1
:101EC0000100B02000F016F95C4B3860A380E1E718
:101ED00063793D68012B5FD1002ADBD12668002E93
:101EE00018DBFA2189008E4211DB3000FEF754FF27
:101EF000002D34DAFA232D189B0058433D60002E44
:101F000042DB4F4BF31883420FDD4E4B236002231D
:101F10006371BFE780231B069E420DD1002D2BDA93
:101F2000494A731B93422BDB3E60FA213000890043
:101F3000FFF718F82160EAE7444B9E42E7DAFA21FE
:101F400030008900FEF728FF002D08DA80231B06E9
:101F50005B1B8342CEDD80231B063B60E5E7002D43
:101F6000C8D0384B5A1B8242C4DA3B60002EDCDA00
:101F7000FA239B00584307E0354BED183D60D4E74A
:101F8000334B3448ED183D6080231B06F318834221
:101F9000CBDA80231B06B9E7002A00D17AE70123B8
:101FA00083216371C905006813F040FB316813F0A9
:101FB0003DFB294913F054F99E21C9052568061CEB
:101FC000FFF73EF8002804D1002D00DB23D11D4887
:101FD0000AE0CF21301C0906FFF750F8002806D18F
:101FE000002D0EDB802000062D18256052E7301CE6
:101FF00013F0FEFD002D08DA80231B065B1B8342D5
:10200000F2DD80231B06236044E7002DECD00D4B4E
:102010005B1B8342E8DA0B4BF5E7002B00DA002369
:10202000079A13603DE7C046E0050020E805002060
:10203000A0208F00607D01002C7D010002020000C5
:1020400001000080FFFFFF7F663BDFFF19FCFFFF01
:10205000653BDFFF8802008000007A44014B186076
:102060007047C046EC050020F7B500920A880D00C5
:1020700082423BD25A00525A824233D900245A0833
:10208000191B012924D86700EE5BED19801B80B273
:1020900013F01AFE01906888801B80B213F014FEC2
:1020A000011C019813F0DCF8051C009BA4001E59CC
:1020B0001C19311C606813F0F7FB291C13F0B6FAE9
:1020C00013F096FD0400301C13F092FD2018FEBDA5
:1020D0005100495B814203D91300E2185208CFE74F
:1020E0001400FAE7FE255C1EAD05DEE7002400259E
:1020F000DBE7000007B501AB6A4600F015F8009B6E
:10210000002B03DC04D1019B002B06DA054805E017
:10211000013304D1019B002B01DA01980EBD802010
:102120000006FBE7FFFFFF7FF7B59C46C317C41807
:102130005C40CB170192CA185A40160C3700230C8A
:10214000A4B2674392B20093534362433C04A41881
:102150001D042D1994429241A542A4415242644269
:102160001219009C3F0C66431B0CFB189B199B1813
:1021700000280DD000290BD0C217101ACA17521A06
:10218000C00FD20F904203D06D42002D05D0DB432B
:10219000019A136063461D60F7BD5B42F8E70000DB
:1021A000002001497047C0460000F07FFF20C005B5
:1021B00070470000002001497047C0460000F0FF52
:1021C00000487047000080FF002001497047C0466A
:1021D0000000F8FF004870470000C0FF10B5FFF78F
:1021E000F3FF0D4B18605960FFF7F4FF0B4B1860BD
:1021F000FFF7D6FF0A4B18605960FFF7D7FF094B6E
:102200001860FFF7D7FF084B18605960FFF7D8FF39
:10221000064B186010BDC04600060020F0050020E7
:1022200010060020F805002008060020F405002014
:10223000FF22D205110000230140914202D1430246
:102240005A1E9341D8B270474B0070B500220D0062
:102250005908184B0400FEF7B9FE002811D00022DF
:1022600020002900144BFEF7CFFE002200280BD0DF
:10227000114B2000290013F069FD12F085FC0400C9
:102280000D002900200070BD200029000B4BFEF737
:10229000B1FE0022002805D000232000290014F000
:1022A000FDFCECE7044B2000290014F0BFFF12F006
:1022B000E1FBE4E7000030430000E03F0000E0BF46
:1022C000F0B585B00292254A06008B189B001B587A
:1022D0000091002B3DDB00240025029B6F01FF18BD
:1022E000009B9D4232DAAB00F05813F0EDFC15F084
:1022F000C7FB3A0012F0C0FA15F00AFC011C201CC2
:1023000012F024FE0135041CE7E7AA00B758013596
:10231000DB1B013B1800019313F0D6FC15F0B0FB5A
:10232000039A12F0A9FA15F0F3FBFF43011C201CDD
:1023300013F0BAFA019B041CBB429B415B42029919
:102340006A0152180392009A9542DEDB201C05B008
:10235000F0BD012300240025F1E7C046FFFFFF3F49
:102360000122024BDA711A727047C046180600202B
:1023700010B5244C23685A1C01D001332360A37983
:10238000002B0BD10122A271921822710B70627185
:1023900023601D48FFF73EFAE07110BD2379012B41
:1023A0000CD10B700278002AF7D002222271002291
:1023B0000A7063712260FFF763FAEEE700230B7087
:1023C0006279012A0BD102789A4203D102336371F8
:1023D0002260DEE722681D2ADFD92360EBE7E2797D
:1023E000002A02D001226271F7E7237A002B04D081
:1023F00023681D2BD1D90223E9E70123A3800B70A9
:10240000CBE7C0461806002020060020014B1860CC
:102410007047C04624060020F0B5ADB00C68349972
:102420001CAF0C6000218C424ADC00218B4200D0A2
:10243000118800220926349B14A85C601CAD9442CC
:1024400046DC349B00259C60E343DB1723401A00E5
:10245000002104A8039315F0E7FBE3B2019314AA4B
:102460009D423FD100230293019B022B01D9EB1E19
:10247000029300218C461CAA04AB009202998C4561
:1024800035DB349B0CAEDC600021039A300015F084
:10249000CBFB04A92A00300015F0DCFB0021019BD6
:1024A0008B4200D0691E330000228A423EDB339B00
:1024B0001C60349BD96800238B4251DB2DB0F0BDEA
:1024C00000264D00B34200D0465B7E530131AAE79F
:1024D00053005B5B5B1A9BB29E429B415B42135471
:1024E0000132ACE7A95C04A841550135B8E70121E8
:1024F0008C4400215956012912D101215956012934
:102500000ED10220185601280AD1568817880021BA
:10251000B74208D29788B74205D21970587099709F
:1025200001330232AAE759700121F8E7002018565A
:10253000013201280DD101255D57012D09D10098E7
:1025400000888446009847880020BC4506D818704B
:102550005D700098013302300090A6E75870F8E7EC
:10256000F256501E82413298C2540133A4E7000053
:102570000122024BDA700023036070472806002016
:1025800084461000F0B585B01C000B9B0A9A1E888B
:102590000C9B00781B78178840B2002B0BD00028CA
:1025A00008D1AF2503002D01AF420AD33A48B0420B
:1025B0005B4106E00023013003D1AF2000018742D8
:1025C000F4D21098DBB20370344B98781E2801D8EF
:1025D000013098705878002812D10424FF341C80F0
:1025E00098702F480F9B1B7802900E9801900D98C1
:1025F00000906046FFF710FFFFF7E8FA05B0F0BD66
:102600001878012818D002283ED098780128F5D9EA
:1026100020780128F2D1109CDD782678AE42EDD1E9
:102620000B9C15882488641B222CE7DD0F9C2070EE
:102630000130187023001CE02078002806D100200B
:1026400003240F9B1870154B1C70C9E70128D5D1C6
:1026500098781328D2D910980578D8788542EED189
:102660000B9814880088001B0928E8DD02201870E8
:102670000F9B0B481B7802900E9801900D980090CC
:102680006046FFF7C9FEB9E701221A7000229A706E
:10269000FFF798FAB2E7C04668100000280600204D
:1026A0002C060020014B18607047C0463C060020F5
:1026B0000222034BFF321A82013AFF3A9A747047A2
:1026C00040060020F0B585B002930A9B03921A7869
:1026D0000C9E0D9F994B00900191002A00D12BE197
:1026E00001221A75DA7A7E2A01D80132DA72934C05
:1026F000A37A002B14D10133A37203336372380021
:10270000FFF738FA60743000FFF738FAA0740B98BE
:10271000FFF73CFA20740E98FFF734FAE07448E0B3
:10272000637A032B54D035D8013B012B38D9009B59
:1027300000211D68281CFEF77DFC002800D07CE0ED
:102740000021281CFEF790FC002847D001227B4B7B
:102750005A72306813F0B8FA291C12F0F7FB9F2167
:10276000C905071CFEF76CFC002834D0381C12F099
:10277000EBFA029B3060186813F0A6FA011C281CC3
:1027800012F06EFD0E9B011C186812F0DFFB0E9B11
:1027900018600EE0042BCAD12369002B06D0AEE7E7
:1027A000019B1B78002B04D10122E2730522E37206
:1027B0006272624DAB7B7E2B01D80133AB736B7BB6
:1027C000002B52D10422FF32AA81AB7305B0F0BDB9
:1027D0000023E373EAE701204042CAE70021281CF6
:1027E000FEF72EFC002828D00222544B5A72802378
:1027F00038681B06EE1813F067FA291C13F054F81A
:102800009F21C905051CFEF71BFC002812D0281CBF
:1028100012F09AFA029B3860186813F055FA011CFE
:10282000301C12F01DFD0B9B011C186812F08EFB72
:102830000B9BADE701204042ECE7404BDA7A632A7C
:10284000B7D9DA7B002AB4D003225A723868FFF76E
:10285000A1F93068FFF7A2F90B9B1868FFF7A2F9FE
:102860000E9B1868FFF7A2F9A3E72A7B012A35D04F
:10287000019B1B78022A36D0002B3CD0009B002104
:102880001E68301CFEF7DCFB002834D002232868C9
:102890002B73311C13F008F8009B28601868802304
:1028A0001B062749C01812F0DBFC9E21C905051C38
:1028B000FEF7C6FB00281CD0281C13F099F913F072
:1028C000B7F9039B196812F0B1FE8321C90512F014
:1028D000ADFE616812F03AFB606077E700232B726F
:1028E00003222A7371E7002B00D06FE701222A72BE
:1028F000F6E71448E3E7AB7B632B00D866E70823D1
:10290000EB56012B00D061E72B730F49286812F0BA
:10291000A7FC2860FFF74EF9002202210B48FFF7C1
:10292000CFFC011C686812F09BFC6860FFF746F959
:1029300000232B606B6049E71A7547E740060020CB
:1029400000007A44FFFFFF7F00BA5B4AA87D0100C8
:10295000014B18607047C0465806002010B52F4B39
:102960005A7C002A06D10424FF349A605A601C82E3
:102970000A7018E01C7C0268012C10D0022C36D0A2
:10298000002464323CDB9C600268642A40DD5A68A3
:10299000322A0BD901221C601A74FE32E8E7312A70
:1029A0001CDD00221A600268312A34DD00221A6020
:1029B00001680022642901DD5A6801325A60016809
:1029C0000022643101DA9A6801329A6001680022BB
:1029D000313101DBDA680132DA6010BD1A68322A5F
:1029E00019D9002203249A605A601C74C0E731325E
:1029F00002DA0022DA60D6E7DA68322AF1D8D2E7C2
:102A00009A68322A04D90222DC601A74013AAFE7CC
:102A100000225A60C7E71A680132C8E75C06002046
:102A2000014B18607047C046700600200222034B1D
:102A3000FF32DA80013AFF3A1A72704774060020BA
:102A4000F8B5414C06002068079D471C01D00130B5
:102A50002060607900280BD10623FF33A380053B5B
:102A60002060FF3B2870E371FEF758FFE0713DE006
:102A700020790138032856D8FEF7FAF8021839529F
:102A8000012028701B78002B03D1069B1B78002B9C
:102A90002CD0032323710023236001332372128877
:102AA00009683068FEF742FF20721FE002222A7098
:102AB000A379002B11D0642123684B43FA218900AC
:102AC0008B4213D30023227123600133A371FEF7DD
:102AD00029FFFEF725FFA07108E02368092B05D91F
:102AE00004232371013B2B70FEF724FFF8BD237AEA
:102AF000002B06D064202368434314488342F5D951
:102B0000C9E7069A1278002A04D0089A13700123A4
:102B1000237106E00223226023712B70013BD5E76D
:102B200003232B70E2E700222A70E3799342EED070
:102B3000642123684B43FA2189008B42D6D30523B5
:102B400022602371043B8EE774060020B70B00005F
:102B5000014B18607047C04680060020F0B5D84C85
:102B6000B7B00E222000D749D74F15F073F8D748D9
:102B7000D74AD84BD8490090200002F0C5FCD74B6B
:102B8000D74819002F93FFF7F3FBD64CD64A23887A
:102B9000106801211A0088423FDC3A8201229042EB
:102BA00044DC7B821422BB5E39003E009C4600253B
:102BB000F28A0135101C12B2624500DD604602B295
:102BC00094460236062DF3D100257884CA8A013551
:102BD000101C12B29A4200DA181C03B20231062D00
:102BE000F4D1C24EB88431002F9801F0B5FFC04A2D
:102BF000C04BD27F002A22D15A610222FF325A846E
:102C0000AC342278511E8A41390033310A703A00BF
:102C100028321278002A23D006E14D00665B351C6D
:102C2000964200D2151CAAB20131B4E75100655A90
:102C3000291C9D4200D9191C8BB20132AFE7DA1C66
:102C4000D07F3178012800D0E1E0002900D0EBE00E
:102C50005869312804D90220D0773A0033321170F4
:102C60005B690133A34CA44D6361A44B2900180098
:102C70003093FFF773FEA24BA24A3193A24B2693E7
:102C8000A24B2593A24B2493A24B2393A24B2293B6
:102C9000A24B32932193A24B33932093A14B1F93CA
:102CA000A14B1E93A14B1D93A14B1C93A14B1B93B6
:102CB000A14B1A93A14B1993A14B15951893A14BB6
:102CC00017932F9B1693A04B1493A04B1393A04BD9
:102CD0001293A04B1193A04B1093A04B0F93A04BBA
:102CE0000E93A04B0D93A04B0C93A04B0B93A04BBA
:102CF0000A93A04B0993A04B0893A04B2F990793DD
:102D00009F4B309806939F4B05939F4B04939F4B8B
:102D100003939F4B02939F4B01939F4B0093319BD7
:102D200000F0C6FF9D4D0021286CFEF783F90123BA
:102D3000002803D0FB1DDB7F5A1E93412C352B70DE
:102D4000637F002B72D181225200A2833A002F327E
:102D50001370FA68924B38681A6012F0B5FF914C04
:102D6000914B20600693914B634E0593904B5D4DC4
:102D700004938A4B320003938E4B28000293614BDD
:102D8000594901935E4B309600932F9BFFF7F8FB58
:102D9000584C894B626A2E001A602A00AC36A53264
:102DA0001278337806A913435A1E9341BD22521854
:102DB0008249137005918249504B04918149484AD8
:102DC0000391814930980291804901918049009195
:102DD0002F9900F057FCBE2233782F9306ABD21800
:102DE0002F9B002B54D02B00A2331B78002B65D1D6
:102DF000137018002B00A3331A780123002A00D186
:102E000013002A00B83211784A1E914144E0AC34D4
:102E10002078002800D1FAE6002900D120E701231C
:102E2000D3773A003332137000231BE7237F012B43
:102E300028D03B0028331B78002B23D07B8A012B22
:102E400020D93A0001232F3223771370614B3200CF
:102E50000793614B32990693604B33980593604B0F
:102E600008970493254B0393234B02935D4B0193E7
:102E70005D4B0093319B02F04FF97B68474ABB6082
:102E8000536266E73B002F331B78002BDED160E7EF
:102E90000123180019001370A21CD27F002A00D051
:102EA000A4E00226FF36E68326843C0032343A86CC
:102EB0002270002800D1BEE00022BFE0012397E786
:102EC00010080020720A0020FC070020E006002005
:102ED000D8060020DC060020BC07002023080020C4
:102EE000C10700201407002010070020240800203C
:102EF000D8070020D4070020F6060020B8050020DF
:102F00000E0800200C080020D2060020D106002068
:102F1000D0060020CF060020CE060020CD060020DF
:102F2000CC060020CB060020CA060020C9060020DF
:102F3000C8060020C7060020C6060020C5060020DF
:102F400022080020250800202F080020B4050020BA
:102F5000B3050020B2050020B1050020B005002017
:102F6000AF050020AE050020AD050020AC05002017
:102F7000AB050020AA050020A9050020A805002017
:102F8000A7050020A6050020B4070020B3070020F5
:102F9000800A0020200800201E080020980600203B
:102FA000940A00208C0A0020F4060020F506002078
:102FB000F8070020C90700209406002026080020FA
:102FC000C8070020C7070020C6070020C40700204C
:102FD000C3070020080800208407002058070020AD
:102FE00090060020820A0020880A0020A27F012A81
:102FF0002BD1002806D00026A6600236A6773C001A
:1030000030342270CE4AD47F012C2CD1002B06D034
:103010000026D6600236D6773A0031321470C94C99
:10302000C74AE67FB446012E00D076E1002900D0E1
:1030300062E1002825D1C24A92680132C04882600C
:10304000002B00D14FE100234FE1002802D00022E5
:10305000A260D7E7A2680C2AD4D90122A2773A004D
:1030600030321070CEE7002B02D00024D460D6E7B7
:10307000D4680C2CD3D90124D4773A0031321370A0
:10308000CDE79160002B00D034E1D3680133D360E9
:10309000AB4B1B69013303E0D3680133D3600023DA
:1030A000A74A13612F9A0123002A03D09C352B785D
:1030B0005A1E9341BF25BE2406AAAD18A418A24AE1
:1030C0002B700192A14AA24B0092A2492A00A24869
:1030D0000294FEF709FE2378002B00D02CE19F49D3
:1030E0009F4A0978002900D027E11300A6331B78F6
:1030F000B732591E8B412B7013785A1E9341994D4C
:1031000023702D95984D994B2C95994D994A2B9557
:10311000994D9A492A959A4D9A4829959A4D2895FC
:103120009A4D27959A4D26959A4D25959A4D249519
:103130009A4D23959A4D22959A4D21959A4D209519
:103140001394BF24994D1F95994D1E95994D1D952A
:10315000994D1C95994D1B95994D1A95994D199519
:10316000994D1895994D1795994D1695994D159519
:10317000994D149506AD64191294984C1194984C7D
:103180001094984C0F94984C0E94BD2464190D948F
:10319000964C0C94964C0B94964C0A94964C09942D
:1031A000964C0894964C0794964C0694964C05942D
:1031B000964C0494964C0394964C0294964C01942D
:1031C000964C009401F034FD954A964C964D974EDE
:1031D0002F92974A974B29002F9801920096220030
:1031E000FEF748FE9449954800F052FB944B2000AE
:1031F0000493944B2A000393934B2F990293934B80
:10320000009601933B00FFF75DFA544B4C4C1B7842
:10321000002B05D03B002B331A780123002A02D162
:10322000A37E5A1E9341BE21894D06AA52181370DF
:1032300088492A006E4800F0C9F9874B874E0193F0
:10324000BE2306A95B18864A21008648009502968F
:10325000FFF7F6FB844ABD201292784A494B11923F
:103260005C4A614D1092814A29000F92804A0E9269
:10327000604A0D92604A0C92604A0B92604A0A9230
:10328000604A0992604A0892604A0792604A069230
:10329000604A0592604A0492604A2E950392334A2E
:1032A00006AD0292334A40190192344A00922F9A95
:1032B00000F07AFB6F482E9901F07AFB3B686E4A6A
:1032C0006360FB6823607B8A23833B0029331B7880
:1032D000A3763378E37693680133092B00D9002372
:1032E000936037B0F0BDC3680133C360002900D0DC
:1032F000D5E6CDE6D160CBE6002616610236E6774C
:103300006646134C2670002800D194E60021916097
:103310008B4200D1C0E60B00C0E6002902D0002499
:103320001461C6E512690C2A00D8C2E50122E277D1
:103330003A0032321170BCE501232B70DFE6C04643
:10334000D4070020D50700202808002027080020E7
:103350002E0800202D0800202C080020C007002087
:10336000140700200F0700200E070020C7060020CA
:103370000D070020C60600200C070020C50600200F
:103380000B070020C40600200A07002009070020C0
:103390000807002007070020060700200507002077
:1033A0000407002003070020020700200107002077
:1033B00000070020FF060020FE060020FD0600207A
:1033C000FC060020FB060020FA060020F90600207B
:1033D000F8060020B8060020D0070020B107002022
:1033E000B8050020700A00202608002023080020CD
:1033F000F6060020D2060020D1060020D0060020CC
:10340000CF060020CE060020CD060020CC060020EE
:10341000CB060020CA060020C9060020C8060020EE
:1034200024080020880A0020BC0600202B08002069
:10343000C00600200E080020D40600200808002046
:10344000F0060020EC060020E8060020E40600203C
:1034500029080020EF070020F70600202A08002096
:10346000EC070020D8070020CA070020C207002070
:10347000C1070020B50700208406002002223B4B34
:1034800010B51A6000223A4C5A609A60394A8CB0E2
:103490002000DA60FEF7BAFF2000FFF759FB20009A
:1034A000FFF700F92000FFF7BBFA2000FEF7DCFC75
:1034B0002000FEF7D3FD200002F0A4F9200001F067
:1034C000A9FB200000F012FA200001F02BFB2000E5
:1034D000FFF73EFA200000F0C9F8200000F0A2FB40
:1034E000200001F055FA200000F0CCF9200001F096
:1034F000FDFD200001F0FEFF1F4A204B12681A60FC
:10350000FEF72EFF01F014FB1D4C1E4B0A941E4CBF
:103510001E4A09941E4C1F4908941F4C1F480794CB
:103520001F4C06941F4C05941F4C04941F4C03948D
:103530001F4C02941F4C01941F4C009400F078FB28
:1035400001F0E0FD1D48FFF713F800F095F801F0D9
:1035500067FBFFF7ADF800F033F8FFF767FA00F00C
:103560001BFA01F01BFA0CB010BDC0463008002059
:103570008406002088060020840A0020900600208F
:10358000D2060020C7060020D1060020C606002073
:10359000D0060020C5060020CF060020220800200B
:1035A000CE060020CD060020CC060020CB06002051
:1035B000CA060020C9060020C8060020F80700201F
:1035C0000122014B9A8070474C08002070B5244CB2
:1035D000150023685A1C01D001332360E379002BC6
:1035E00005D10222FF32E2802B70237214E0A3790E
:1035F000022B1AD0032B20D0012B22D1227A002AB1
:103600000FD000228256002A07D000260233A37171
:103610002660FEF75FFA2E7070BD0422A2712B7037
:10362000FAE71048FEF74EFAF6E70422A35E002BF5
:10363000F2D00123A3710023D6E72368632BF8D8C7
:10364000EAE70B78002BE7D12B700233A371FEF76A
:1036500034FA054A031C904200D9131CA380DBE70F
:103660004C08002054080020FF7F0000014B186028
:103670007047C046580800200222014B5A7170471B
:103680005C080020F8B500260978069F0B9D12788B
:10369000B1420BD0B24209D100228256B24205D1CA
:1036A000C8221B685200C8339A427641704C714A56
:1036B0002388934201D801332380A379002B05D1BD
:1036C0000122A2710A32A270238036E0A07801386C
:1036D0000B2800D9BDE0FDF7CBFA060C1117321309
:1036E00056565A8A8C9E06230420A370FEF7E8FAE9
:1036F000F8BD6379012B10D10733F5E7FEF7E8FA3F
:103700000B23A3700023DFE72379012B05D10220CF
:103710000933A370FEF7CCFAEAE7002B04D0962316
:1037200022885B009A42E3D30520FEF7C9FA0323FF
:103730000020A370FEF7B4FA00232B70D8E7E378DB
:10374000012B07D10220FEF7BFFA0923A370002343
:103750002380CDE7002B04D0962322885B009A4279
:1037600006D30520FEF7ACFA0220FEF7ADFADEE73D
:103770003E78002EBCD10220FEF7A6FA0B2326804D
:10378000A3702E70B4E73B78002BDED1B8E7079B1F
:103790001B78032B07D10F20FEF786FA0C2300209D
:1037A000A3702080A2E70A9B1B78012B07D100237E
:1037B0003148238005336380FEF764FA98E7099B5C
:1037C0001B78002B0AD101330220A370FEF75EFAAA
:1037D000FEF762FA0F20FEF76FFA89E79623228838
:1037E0005B009A42A0D23B78002B89D080E7072368
:1037F0007AE73B78012B00D07AE7002E01D02B70BE
:10380000A3E72388132B00D872E703233000A370AB
:10381000FEF746FAB5E7079B1B78012B0ED0022B6B
:1038200000D07CE700250B330320A3702580FEF732
:103830002DFA0F20FEF738FA280057E70423A3706B
:1038400000230F202380FEF72FFA0C48FEF716FA0C
:103850004EE7089B1B78012B00D060E70133A37073
:10386000002307482380FEF705FA0F2052E7C046E1
:103870005C080020FE0F00005F08002060080020A8
:1038800061080020014B18607047C04664080020A2
:1038900070B504680D00201C1049FDF7E5FB0028F9
:1038A00019D10021201CFDF7CBFB002800D00024FB
:1038B000201C14F0E5F802000B000020084913F06A
:1038C000B5FC084A084B13F0E9F9FEF7BDFC11F00E
:1038D00053FA288070BD014CEAE7C0460000A042C0
:1038E000000054405555555555550940014B186039
:1038F0007047C0466808002010B50024A14246D198
:1039000001780134002942D18179013400293ED166
:103910004178013400293AD101790134002936D1A6
:1039200041790134002932D1817A013400292ED124
:103930008178013400292AD1C1780134002926D1A7
:1039400012780234002A22D1C2790134002A1ED111
:10395000027A0134002A1AD1427B0134002A16D19E
:10396000027B0134002A12D1427A0134002A0ED19E
:10397000029A01341278002A09D11B780134002BF5
:1039800005D1039B03341B78002B00D1153C014B60
:103990009C8010BD6C0800200122024B52429A808C
:1039A0007047C0466C080020F0B51B7891B09C466B
:1039B0000A9262460CAB1A70169A09911178179AFE
:1039C000597012780B909A700292189A1278DA70E5
:1039D0000392199A12781A7104921A9A12785A71EB
:1039E00005921B9A12789A7106921C9A1278079285
:1039F000DA71229A219F1278209E08925A73239A94
:103A00003F7812781F9D9A73089A36781E9C2D78FD
:103A10001F731D9817432478DE723E4300789D7211
:103A200035435C72079A2C43187220430243069870
:103A30000B9B024305981B780243049802430398AA
:103A400002430298024311436246114301220029B6
:103A500011D12499097800290DD1259909780029D7
:103A600009D126990978002905D1002B03D0289A7D
:103A70001278511E8A41684C68482168814201D8F9
:103A800001312160A17A00290CD10123A372644B7A
:103A90002160E380279B186811F056F9C0B2FDF74A
:103AA0008DFF36E059424B41A779DDB2099B1E7864
:103AB000012F0AD0022F00D16AE0002E00D096E03C
:103AC000574B6672E3802660E4E7002E0AD003239A
:103AD0000025A3712572FDF76DFF02232560637237
:103AE000642014E0207A0138032842D84A4CFDF7BC
:103AF000BFF8022A1E2A0423E05E002308280ADCFD
:103B0000052223602272FDF751FF0423E05EFDF7DA
:103B100015FF11B0F0BD032222722360F7E7002ADF
:103B2000F7D13F4BE380002323722360B2E7642286
:103B3000236853439132FF329342EAD30223237224
:103B40000023236021E0642123684B439131FF313E
:103B50008B42E4D3012323720023A380289B2900F6
:103B60000193269B249A00930CA8259BFFF7C4FE83
:103B7000CFE76422236853439132FF329342C8D384
:103B8000042326602372FDF715FFFDF70BFFC0E746
:103B9000002E07D00323E380FDF70CFF002367729C
:103BA00023609DE7002A06D00127E780FDF7FAFE93
:103BB0002772A680D2E7E379012B0DD10A9B1B78EF
:103BC000002BA6D0642123684B439131FF318B42F7
:103BD0009FD3E77122605DE7642123684B439131F5
:103BE000FF318B4295D301232260E371CDE764203E
:103BF000FA222368617A43435200012906D1934295
:103C000000D286E702236372002386E7934200D244
:103C10007FE70123637293E76C080020FEFFFF0338
:103C200002020000014B18607047C046780800206F
:103C300030B500241B4D2C706C70AC70EC702C7186
:103C40006C71AC71EC712C726C72AC72EC722C7386
:103C50006C73AC73047008980470099804700A9827
:103C600004700B9804700C9804700D9804700C701C
:103C700014701C70039B01221C70049B1C70059B1C
:103C80001C70069B1C70079B1C70074B1900D831D9
:103C90000A7006491C701A635A639C63D9625A60A1
:103CA0001A8130BD6009002080080020B80800207B
:103CB000F0B597B00793329B0E921A780700E34B4A
:103CC0001191002A01D100F04BFE1A000121D932D6
:103CD0001170239A12780892249A12780992259AE0
:103CE00012780A92269A12780B92289A12780092E9
:103CF000299A127801922A9A127802922B9A1278B3
:103D000003922D9A127804922E9A127805921D9A97
:103D10000020105E5A7A002A01D000225A72CB4B42
:103D2000DC6A00232268012A0AD0FE2101228905CB
:103D30002260A360E36023616361A161E36122719A
:103D4000A369A5680693E36813AE139323691493DC
:103D500063691593E3690C9311F06AFF291C0F90B6
:103D600011F0F4F80D90069811F042FF0021451E65
:103D70000C98FDF75FF9AD00002800D1DEE0715925
:103D80000D9811F0E3F810900F9B13AEB049069810
:103D90007351FDF74FF9002800D0D2E0FE210698BC
:103DA000890511F0D3F8051C00210C98FDF742F9A4
:103DB000002800D1D4E0FA211098890511F036FCD2
:103DC00006900D9B0021A360139B0C98E360149B4D
:103DD000A5612361159B6361FDF746F9002800D1B9
:103DE000C1E0FE210C98890511F05EFD994AE06161
:103DF0001178964B002901D101311170C0331A8816
:103E000095498A4201D801321A8094488F4B028822
:103E10008A4201D801320280C4331A888A4201D80A
:103E200001321A808E49894B0A78002A00D09CE022
:103E30000120087018001C00A83002600220D03455
:103E400020701C00903422601C00983422601C00FA
:103E5000B83422601C00D33420701C000834E267A0
:103E600004251C00FF35C63425801C007D4DC83458
:103E700025601C007C4DCC347C492580339C1A671E
:103E80009A67DA671A660A714A718A728A70CA700A
:103E9000CA720A724A7222701C00D43420701C004C
:103EA000B43422601C00D23420701C00B034226074
:103EB0001C00D134CA714A73207018009C30026013
:103EC0001800A43002606A48CE330A734A70188022
:103ED0000A70079B1888674B198A5C4B884201D986
:103EE00000F00BFC1A6E01321A660023884202D1E0
:103EF000564B5B6E01330022544C6366319B9A56DD
:103F00000023013201D0A36E0133A3661D9B5A49E1
:103F100000229A5E00238A4201DD00F013FCE16E6C
:103F200023670131E166FA2149008A4201DC00F091
:103F300057FC464A5367002300F010FC00231093FF
:103F400022E7B168706811F001F8011C70601398E5
:103F500010F0FCFFFE2500231390AD050D9323E721
:103F6000002306932DE7002040E7119A11781A00EC
:103F7000C7321078012800D08EE0002907D0022235
:103F80003E4B1A700022334B1A70FDF723FE3C485B
:103F90001D9B04780021595E00222C4B012C00D07F
:103FA00094E0354CA14200DC81E0DA6635481D9B87
:103FB00004780021595E0022244B012C00D0B2E08D
:103FC000F434FF34A14200DC9EE05A672E481E9B69
:103FD000047800229A5E00211C4B012C00D0D2E014
:103FE000E124A400A24200DCBBE0AC331960274806
:103FF0001C9B047800229A5E0021144B012C00D0F7
:10400000F1E0323200DBDCE08C33196020481C9B8D
:10401000047800229A5E00210C4B012C00D011E1A3
:10402000323200DBFCE0943319601A481E9B04789E
:104030000021595E0022054B012C00D06EE11C00CE
:10404000BC34963100DB1BE1226022E180080020B5
:104050000000404056090020FE0F000042090020E9
:10406000550900200202020202020000600900203D
:1040700003030000980A00202602000047090020E0
:104080004809002049090020500900204C0900205F
:104090004D09002053090020002902D1012313708B
:1040A00075E7D6331B78002B00D170E767E70A9AD3
:1040B000002A00D07AE7DA6E632A00D876E70A9AF7
:1040C0001A6702230370C14B1A716FE796208000B4
:1040D000814200DC1A670A9B012B09D0319B1B78B7
:1040E000012B00D962E7BA4B1B6F132B00D85DE799
:1040F00000220124B64B0620DA66C8331C70FDF797
:1041000097FDB24B1C7151E70B9A002A00D05DE776
:104110005A6F632A00D859E70B9A9A6702230370F3
:10412000AA4B5A7152E7AB48814200DC9A670B9B5D
:10413000012B0AD0319B1B785BB2013300D045E7DD
:10414000A34B9B6F132B00D840E700220124A04B08
:1041500007205A67C9331C70FDF76AFD9B4B5C71E1
:1041600034E7039A002A00D041E71A00AC32126803
:10417000632A00D83BE7039AA8331A60022303702E
:10418000924B9A7233E7FA208000824211DCA83306
:104190001960039B012B00D029E7002201248E4BDC
:1041A0000A201A608D4B1C70FDF742FD874B9C72F4
:1041B0001DE7039A012AF0D0A8331B68092BECD81D
:1041C00015E7089A002A00D020E71A008C321268FE
:1041D000632A00D81AE7089A90331A600223037002
:1041E0007A4B9A7012E7643201DB90331960089BB6
:1041F000012B09D0319B1B78012B00D906E7784BA6
:104200001B68132B00D801E700220124754B0820FE
:104210001A60754B1C70FDF70BFD6C4B9C70F5E63E
:10422000099A002A00D000E71A0094321268632A23
:1042300000D8FAE6099A98331A6002230370634B98
:10424000DA70F2E6643201DB98331960099B012BC6
:104250000AD0319B1B785BB2013300D0E5E6634B9B
:104260001B68132B00D8E0E600220124604B0920D4
:104270001A60604B1C70FDF7DBFC544BDC70D4E61D
:104280002168632905D9B8331A60022303704F4BA4
:10429000DA7259480E9B04781A8858494C4B012C05
:1042A0005CD1498991424BD200220433DA67544AE7
:1042B000079B10781988514A454B012869D1D2894A
:1042C0008A4202D9002288331A60029B002B12D145
:1042D0004A4A3F4B14790A2218006243883000682A
:1042E0004849904207D3029ACB33CA6702221A7018
:1042F000364B029A5A724449354B08783F4A012896
:1043000000D187E0022800D198E00798148A00883D
:104310000022A04200D83AE11A668FE01C00B834AF
:10432000C83100DB90E621680929B2D90124BC33E9
:1043300004700B201A60FDF77BFC244BDC72A8E7AD
:10434000019A002AB3D11A1DD26F632AAFD9019AFC
:10435000DA67022303701D4B1A72A8E7098991429C
:1043600010D90022DA67019B012BA0D10022012481
:10437000264B2000DA67204B1C70FDF759FC134BCD
:104380001C7294E7019A012AF0D0DB6F1D2BEDD847
:104390008DE792898A4211D200220833DA67029BA4
:1043A000012BA8D100220124194B02201A60144BC2
:1043B0001C70FDF73DFC054B5C729CE7029A012ADC
:1043C000F0D00833DB6F3B2BECD894E7600900207A
:1043D00080080020260200002C090020500900203F
:1043E000100900200C0900204C09002018090020A9
:1043F000140900204D0900204A090020980A0020D5
:104400004B0900208808002046090020840800206D
:10441000080900203199097849B2013101D1002100
:1044200099660A2110784143986E884200D299E03B
:104430000222C6331A700123339A1370B14AB24B69
:104440001178012900D0ADE0C4331988AF4B5878FA
:104450000A234343994207DB009B002B04D102331C
:104460001370AB4B009ADA71AA49A74B0878A74A98
:10447000012800D0A2E0059800280ED194780A22E5
:1044800018006243C2300088904206DB059AB433BC
:104490001A6002230B709E4B5A739F499A4B0878FF
:1044A0009A4A012800D0A8E0049800280ED1D478B8
:1044B0000A2218006243C0300088904206DB049A4A
:1044C000B0331A6002230B70914B1A73934B8E4CCE
:1044D0001A78012A25D0022A00D0AFE01F9A12785C
:1044E000002A1ED101320E201A70FDF7A1FBE56DE6
:1044F000A46D002220002900894BFCF767FD0028ED
:1045000000D199E00022002320002900FCF77CFD67
:10451000002804D02000290010F02EFC80B2FDF706
:1045200021FB804D784C2B78012B00D1B7E0022B7A
:1045300000D1BDE07C490698FCF796FD2300A4332A
:10454000002800D1CBE01B68092B00D8C1E4FDF79F
:1045500005FB00230122A034236002332B706C4B37
:104560001A70B6E407990888118A0022884201D29D
:104570005A6663E79621586E8900884200D25DE74B
:1045800003211A66C6331970339B1A7056E7186EEA
:10459000C72800D852E79A665A6601230B70FDF7C8
:1045A000D5FA4BE70099012900D05DE71170002290
:1045B000C43303201A80FDF73BFB52E73968126AC7
:1045C000914212DB0022B4331A60059B012B00D00C
:1045D00063E7012400224F4B04201C70534B1A80C8
:1045E000FDF726FB4A4B5C7357E7059A012AF0D08A
:1045F000B4331B68642BECD84FE73968526A914298
:1046000012DC0022B0331A60049B012B00D05DE75E
:1046100001240022404B05201C70454B1A80FDF7F9
:1046200007FB3B4B1C7351E7049A012AF0D0B033CF
:104630001B68642BECD849E73E4870E70E9A3B684C
:104640001088079A1288801A002B04DA802212063A
:10465000934205D05B42384A934201DC962802DC43
:104660000022364B1A601F9B1B78002B09D1334B5D
:104670001B68C82B00D854E7309B1B78002B00D157
:104680004FE70222254B204C1A7013F0A7F9A065C2
:10469000E165FDF75FFA01221D4B5A7041E70022E8
:1046A000A034226002322A70194A1370FFF711FCFD
:1046B0002600209BD7361B783278134307D101247C
:1046C0000F202C70FDF7B4FA3470FFF702FC1C4980
:1046D0000698FCF7B5FC2300A033002802D118602F
:1046E000FFF7F7FB1B68092B01D8FFF7F2FB00234C
:1046F000A434032233702360D5E700221A66FFF743
:10470000F7FBC0465409002080080020980A0020CA
:104710006009002052090020510900204E090020A4
:104720000000F0404F090020008022444209002090
:1047300040090020FFFF0000871300001C09002033
:10474000000011449621E36689008A4201DD236F4F
:104750000133236700236367A36F0133A367824A92
:104760000E9B1589198800238D4201D8E36F013310
:10477000E367538900228B4202D3231DDA6F013293
:104780007A4D7B4BEA67784A95890022854203D3AC
:104790001A000832D26F01321D000835EA67724AEA
:1047A000D5890022854202D888331A680132714DBA
:1047B0006F4B2A601C9A1D000026965F8C353200D4
:1047C000323211DB2A6801322A601A000025903249
:1047D000943315601A680132674B1A60002314E0A5
:1047E000636F0133FFF7A5FB00222A601D0090359F
:1047F000643601DB2A60EFE72E6801362E601D006B
:1048000098331B6894352A6001335C4A584D136015
:104810003A68002A05DA802600233606B2420BD019
:104820005242574E0023B24206DC091A962903DD94
:104830002B009C331B6801332A009C325149069897
:104840001360FCF7FDFB002803D02B00A033186891
:1048500001302B00A03318604B490698FCF704FC8C
:10486000002803D02B00A433186801302B00A43398
:1048700018601E9BFA2100229B5E2A008900A83244
:104880008B425ADD11680131116000222900AC31E0
:104890000A6035493E68486A0022864203DD2A00E4
:1048A000B032126801322800B03002603868096AFC
:1048B0000022884203DA2A00B43212680132290049
:1048C000B4310A602A001900B832C83140DA1368DE
:1048D000013313600023BC3423602C4B34991A78C5
:1048E0000A705A7A3D990A709A7A3E990A70DA7A71
:1048F0003F990A701A7B40990A705A7B41990A7055
:104900009A7B42990A705A7835990A709A78369942
:104910000A70DA7837990A701A7938990A705A79D0
:1049200039990A709A793A990A70DA793B990A703A
:104930001B7A3C9A137017B0F0BD00211160E12280
:1049400092009342A1DC2A00AC32126801329DE74A
:10495000002111609633BDDBBC352B680133BAE70B
:10496000D9331A70E7E7C046980A0020840800206F
:1049700080080020080900201409002018090020E0
:1049800087130000000011440080224460090020C9
:10499000014B18607047C046700900200022034B8D
:1049A000DA709A705A701A707047C0467409002005
:1049B0000B78F7B5584C002B17D0E379002B00D1BA
:1049C0008DE0A379012B00D08DE0FF2223885200D7
:1049D000934201D801332380637A002B00D087E013
:1049E0008122520022812380F7BD0278002AE4D080
:1049F000A2784A4D0192E678571C721CD2B2FFB2DF
:104A000000920B2F33D9052E4CD01F00EB70AB70EA
:104A100022790023561CF6B21F2A08D1404B01937D
:104A20005B78002B03D06B78012B42D101236B7094
:104A30006379312B47D13A4B1B78002B41D02B782F
:104A4000012B3BD132236371202E00D90026009A1E
:104A5000E3792671A770062A3DD90022E2709342BD
:104A60003DD0A379012B40D10223A371ADE7052EE0
:104A700004D1EB78012B17D106230093053E734236
:104A80005E41019A0023EE700A2AC0D1244EB37809
:104A9000002BBCD0AB78012B02D0FDF7D2F87070A0
:104AA0000123B4E71F00E4E7FDF7C6F81C4B98703C
:104AB000E2E7FDF7CBF8019B1870B7E7FDF7CBF8FD
:104AC00001232B70BEE700220133DBB22A70322BA8
:104AD000B9D91300B7E7009AE270002BC1D10223C5
:104AE000FF33E38071E70123BFE7FDF7B9F86CE717
:104AF000237A012B03D101332372002373E764234C
:104B000022885343FA22D200934200DA6CE7012351
:104B10002372FDF7AAF867E77809002074090020DE
:104B200082090020014B18607047C04688090020A8
:104B30000122024B52421A807047C0468C09002065
:104B40000122044B52421A8000225A809A8002703D
:104B50007047C0468C09002070B503780D002B4CBF
:104B6000002B50D0A379002B04D10800FFF7E8FFF9
:104B70000123A371E678002E0ED10123E370FCF728
:104B800095FF02232671A3702E70033B23802048DB
:104B9000FCF734FF208070BDFCF788FFA678012E5B
:104BA00012D16379002B05D102222371A2702B70E0
:104BB000013BEBE7FCF736FF6671FCF73DFF6671E2
:104BC000FCF760FF6671E6E70022A35E002BDED1F2
:104BD0002279002ADBD001222A706371A270FCF7CF
:104BE00021FF431E9841C5B26571FCF725FF0543BF
:104BF0006B1E9D41EDB26571FCF744FF05436B1ED2
:104C00009D416571C7E7A371C5E7C0468C090020C7
:104C100090090020014B18607047C046940900209D
:104C20000122024BDA755A759A7670479C0900206A
:104C3000F0B589B0059200220693199B019002916C
:104C40009A562A9B1E9E1A70129B259D1B782698A9
:104C500027993A9C002B04D10F9B1B78002B00D185
:104C600083E0013A531E9A41D3B21A9A12785742FE
:104C70007A412A701B9A127857427A4102701C9A24
:104C8000289F12780A70209A12783A7000782D784E
:104C90000490002003950D78834221D1119B1B784D
:104CA00083421DD1149B1B78834219D1159B1B781D
:104CB000834215D1169B1B78834211D1179B1B7819
:104CC00083420DD1019B1B78834209D1029B187846
:104CD000049B104328431843039B18434342584105
:104CE0003B9BAB49C7B21F708A7D0123BA4203D1F7
:104CF000CB7D9B1A5A1E9341DAB20792A54A51788E
:104D00004A1E17007A427A419A4203D0032901D001
:104D1000FCF714FF9F4B079A5A700022139B1978D7
:104D20002A9B9A56219B1B78013224D0012922D13B
:104D3000299A13700025964B25701A6896498A4265
:104D400001D801321A605A7E002A43D10621FF3170
:104D50005A601983914B1A701F9B1B78012B00D04E
:104D600026E18B4B5B68013323E1069B1B78002B0C
:104D700000D076E779E7299A1370119A1278002A01
:104D8000D8D10E9A1278002AD4D1059A1278002A26
:104D9000D0D1149A1278002ACCD1159A1278002A10
:104DA000C8D1169A1278002AC4D1179A1278002A0C
:104DB000C0D1019A1278002ABCD1029A127813430A
:104DC0001D43049B2B431D00039B2B431D006B4283
:104DD0005D41B0E7187E0138042800D9BBE06C4A79
:104DE000FBF746FF030C1A2D7B001368042BB3D985
:104DF00000220521664B5A601976ABE796231268AC
:104E00005B009A42A8D3E0221D9B92001B8864336A
:104E10009BB29342ECD39FE72378002BE8D01F9BF3
:104E20001A785B4B002A02D000229A6094E79B68B4
:104E30001D2B00D8BCE00123249A1370D8E72378F7
:104E4000002BD5D06423116855484B4383420ED8BC
:104E5000012905D9937E002B09D0D37E002B06D0E3
:104E60001D9B504A1B886E339BB293420FD902227E
:104E70000024474B20001A761C60484B1C70FCF73E
:104E800059FE0123239A1370249B1C7064E7229B14
:104E900031681A683E4B914209DC0022DA60FCF767
:104EA00042FE3B4CE076FCF737FEA07654E76421E7
:104EB000DA684A432D31FF318A42F0D39A7E002AC4
:104EC000EDD0DA7E002AEAD0344A9039FF391170E9
:104ED00000221A6106321A763EE72378002B00D1B1
:104EE000E9E03368002B12D02A9B1B785BB20133B8
:104EF00000D0E0E03DE03368002BF5D1E1221D9BBE
:104F000092001B8864339BB29342B0D8ECE7E12255
:104F10001D9B92001B8864339BB29342EED8FCF732
:104F2000FBFD1B4DA876FCF7FEFDAB7EE876002B63
:104F30009DD16B8B002B00D0B9E004220120EB60E7
:104F40002A762B60FCF7F6FDFCF7EDFDE876FCF722
:104F5000E3FDA87600E72278002A00D148E71F9AEF
:104F60001278012A20D100221A611F9B1B78012B85
:104F70001ED100240322064B20001A769C60074BAA
:104F8000023A1A70FCF7D6FD239B1C707CE7C046E2
:104F90009C09002098090020FEFF0F00B80900209E
:104FA000250700008D0300001B690A2B00D95EE76E
:104FB00000234B4A53601F9B19780023994201D16B
:104FC000936801339360229B3068196800238842FC
:104FD00001DDD3680133424AD3601F9B1978002357
:104FE000012901D01369013313613E4B117D1878FB
:104FF0000123814203D1537D1B1A5A1E93413A4A21
:10500000DCB211784A1E55426A419A4206D0032901
:1050100004D0431E9841C0B2FCF794FD324B2B9A4A
:105020001C70019B1B781370139B349A1B781370B0
:10503000149B359A1B781370159B369A1B78137046
:10504000169B379A1B781370179B389A1B7813702E
:10505000189B399A1B781370029B1B782C9A13703B
:10506000059B2D9A1B781370069B2E9A1B78137044
:105070000E9B2F9A1B7813700F9B309A1B7813701E
:10508000109B319A1B781370119B329A1B78137006
:10509000129B339A1B7813703B9B1A78104B9A75AE
:1050A000DA75104A12781A755A7509B0F0BD23786E
:1050B000002B00D01FE71F9B1A78094B012A02D052
:1050C00000225A6048E659683B2900D849E6002189
:1050D0001A761960034B1A700223249A13703BE668
:1050E0009C090020B8090020980900200322034BE6
:1050F0001860034B5A701A707047C046BC090020F4
:1051000098090020024B1A68024B1A605A607047D7
:10511000840A0020C0090020F0B599B00093C14B6B
:10512000070015009868C04A1B6810600E00BF4950
:10513000019310F07BFA019910F092F8BB49041C1E
:10514000FBF792FF002807D10021201CFBF778FF16
:10515000002802D0002400E0B44C259BB4481C6019
:105160001F9BB44C19880023239AA14200D8249A8B
:10517000D258C25004332C2BF6D1C36A3A78317816
:105180005C1C01D00133C362A94CAB4E23003078C4
:105190003533002819D10122327003321A70E062CF
:1051A0000021209BA24A59560023994201D1136B3A
:1051B00001331363229B01981A689A4B1A600FF00F
:1051C000C3FD269B186019B0F0BD1E78022E3BD09F
:1051D000032E40D0012E00D08EE0209A127852B2D9
:1051E000002A16D000232363944B2A781978904D17
:1051F0008C4C01291DD1002AD2D10026A068311C77
:10520000FBF71EFF002800D0A660022336352B7066
:10521000C6E7FA22216BD2009142E5D3219A1268A7
:105220006432C82AE0D803221A70A023DB00E38688
:10523000B6E7002AB4D001221A701E9BA068196834
:105240000FF084FEA060ABE7002222630132363407
:105250001A702670A4E77A4B724D18780138052829
:1052600039D8FBF705FD032D2D2D133023003833DE
:105270001A783734002A06D1023222702A68AA60CE
:1052800001221A708CE70723237089E7012A10D1C5
:105290002300002034331856002802D137342270FE
:1052A000EFE701290CD10423373423700023AB60CE
:1052B00076E70129F7D0002A02D1230034331A708F
:1052C00006233734E0E7002323632300012235332C
:1052D0001A700223ABE7AF680021381CFBF7C4FE4D
:1052E0000028EDD0564B57491E702F60381C0FF028
:1052F000B7FFFCF73BFC53E7E26A632A00D84FE7AD
:105300002A78002A00D14BE702221A70009B1888E5
:1053100010F0DAFC4C490FF0A3FF02A90B002200A9
:10532000009061CA61C323CA23C323CA23C303CA2B
:1053300003C319000A00454B61CB61C223CB23C2D2
:1053400023CB23C2002503CB03C2AB00E058FCF7FC
:105350006FFF061E00D0C9E001350B2DF5D1216885
:105360006068FBF76DFE002830D10C9C0099201C72
:10537000FBF766FE00283BD0211C009810F094FA41
:105380000B99061C201C10F08FFA011C301C0FF02A
:1053900067FF179D1699041C281C10F085FA011C44
:1053A000201C10F043F9291C0FF0D0FD041C1F49EC
:1053B000201C0FF029FB00210FF010FB194C216875
:1053C00010F034F919490FF04BFF3BE702A80DA983
:1053D0000B000200976A046880C09F6A94620C68A0
:1053E000013680C1043A9C62043B052EF2D1BCE731
:1053F000029C0099201CFBF737FE002828D0211CB6
:10540000009810F051FA211C061C039810F04CFA79
:10541000011C301C0FF024FF0D9D041C291C0E984C
:10542000BBE7C046C0090020900A00200000C84227
:10543000CC090020790D0000050A0020020A002096
:10544000030A002000BA5B4A00007A447C7D010018
:105450000227012401212819FCF73EFC431E9B0072
:1054600002AA060000999858FBF7F4FD00281FD007
:105470003400771CBD42EDDC651E02ABAD005E5909
:105480000098311C10F010FAA40002AB071C311C6C
:10549000185910F009FA011C381C0FF0E1FE002128
:1054A000061CFBF7C7FD0DAF002803D07C597EE733
:1054B0003500DFE7FE21301C89053C59FBF7BAFDBA
:1054C000002800D073E77D59211C281CFBF7B2FD92
:1054D00000280DD1FE20311C800510F0E5F9291CB3
:1054E00010F0A4F8211C051C301C5AE700245EE7CC
:1054F0002C1C5CE710B504000820FCF76FFE014B84
:105500001C6010BD080A0020F0B504008FB00868C8
:1055100017000191099310F0D7FBB54B051C186AD1
:1055200010F0D2FB011C281C10F0BEF90021FBF783
:105530009BFD002800D14EE1210000240E220AA884
:1055400012F088FB0AAB00269E5F009601346300D0
:105550000AAAD05E10F06CFB0290009810F068FB75
:1055600002990FF03BFA10F043FB0090062CEDD1AE
:105570009F4C281C616810F097F99E4910F056F86E
:10558000149B051C1860300010F052FB0AAB02900F
:105590000220185E10F04CFBA168039010F084F913
:1055A000954910F043F8291C0FF05AFE2168061C9B
:1055B000029810F079F9904910F038F8291C0FF092
:1055C0004FFE311C0FF00AFA0AAB061C0420185ECD
:1055D00010F02EFBE168049010F066F9864910F097
:1055E00025F8291C0FF03CFE011C301C0FF0F6F9C9
:1055F0000AAB061C0620185E10F01AFB2169059004
:1056000010F052F97C4910F011F8291C0FF028FE17
:10561000011C301C0FF0E2F90AAB061C0820185ED2
:1056200010F006FB6169069010F03EF972490FF028
:10563000FDFF291C0FF014FE011C301C0FF0CEF9E9
:105640000AAB061C0A20185E10F0F2FAA169079056
:1056500010F02AF968490FF0E9FF291C0FF000FE4D
:10566000011C301C0FF0BAF90AAB061C0C20185EA6
:1056700010F0DEFAE169089010F016F95E490FF0BB
:10568000D5FF291C0FF0ECFD011C301C0FF0A6F912
:10569000099B051C1860230031331B78002B1AD19D
:1056A000A36263620223FF33238600233B60009BD7
:1056B000952B2BDC0022FE214D4B89055A62281CBC
:1056C000FBF7DCFC002862D1494B9862009B632BFE
:1056D00000DC89E069E0494B00261B78012B39D1B9
:1056E00000233B60009B952B07DCFE218905FBF71F
:1056F000C5FCB042DED1A062DCE7FE21636A890509
:105700000093FBF7BBFC00280DD1A062FE21384CB2
:105710008905636A281C01336362FBF7AFFC00282C
:1057200040D1A06241E06421009B354A4B43934243
:10573000ECD9A36A4B439342E8D902232F4AE6628D
:105740001370FCF70BFA0C20FCF772FAFE239B0592
:105750003B60DBE7FE21009B89053960632B0DDC94
:105760006422E36A5343264A934214D86662281C93
:10577000FBF784FC002834D1A06235E0009BE66290
:10578000952BC3DC6662FBF779FC0028C9D0184B67
:10579000986A013098E70123184AA6621370002323
:1057A0003B60E3E7A36A0133A3620023104CE3628A
:1057B000029B2360019B186810F086FA039B6060CF
:1057C000A360049BE360059B2361069B6361079BC9
:1057D000A361089BE361019B1A68054B1A620FB035
:1057E000F0BDA36A0133A362014BDB6A0133DDE73D
:1057F0000C0A00206F12833ACDCCCC3D3C0A00202D
:10580000B80B0000014B18607047C046400A0020EA
:1058100037B50025040069461348009505F08EFF52
:105820000098124B2100C0180422800005F0B4FF3C
:1058300000990131092900D9290004220A48009160
:1058400005F0AAFF00230193094B01A9E418A40065
:10585000200005F073FF019904220131200001911D
:1058600005F09AFF37BDC046644400000F110000E8
:10587000011100009D4B9E4AF0B51A6000221A717A
:105880009C4A8FB09A6006F0D7FF9B4E9B4D31002B
:10589000070028000EF096FE0EF07EF9984B0100EE
:1058A00018000EF08FFE390096480EF08BFE9648D9
:1058B0000EF088FE05F034FF002800D093E005F0DC
:1058C00038FF041E00D08EE03800FFF7A1FF8820CB
:1058D00007A9C001079405F031FF08A98B4805F01E
:1058E0002DFF089F381C12F0CBF8894A894BFBF733
:1058F00081FB894C00280ED0FF21381C8905FBF75D
:105900009FFB002807D02100804805F017FF83493E
:10591000834805F013FF834920680FF087FE10F0DD
:1059200067F97E4B07007F4918680FF07FFE10F083
:105930005FF93100059028000EF044FE0EF02CF9BE
:105940006F4C010020000EF03DFE390076480EF04D
:1059500039FE6D4F38000EF035FE310028000EF094
:1059600031FE0EF019F9010020000EF02BFE059912
:105970006E480EF027FE38000EF024FE6C4D079B9B
:10598000AB4227D00AAE102230006A4912F062F909
:105990000024630004220021F05A013405F0FCFECB
:1059A000082CF6D1644C20000422002105F0F4FEFE
:1059B000564B04349C42F6D1882004225C49C00135
:1059C00005F0EAFE882007A9C00105F0B7FE079B95
:1059D000AB4275D100F0CEFC584D28702B780B3BB4
:1059E000DBB2F32B0ED80C21554806F039FE0D2101
:1059F000534806F035FEFA20800006F021FE06F03E
:105A0000B5FE5DE000F0CEF900F0BEFC041E5BD1F7
:105A100000F016FF00F060FC4A4B20001C7000F004
:105A2000A1FC09A94848099405F088FE0999474B4B
:105A30000131042244481960099105F0ADFE0AA91C
:105A400043480A9405F07AFE0A984249FBF7A0F908
:105A5000414B89B2198006F081FE012808D10A99CC
:105A6000042201313A480A9105F096FE06F07AFECA
:105A70003A4B002203933A4B08210293394B5020B2
:105A800001936A230093693B0EF032F9002802D09B
:105A90000022354B1A70FBF763FB002811D1324B03
:105AA0001B78002B07D0314968300EF061F96A206D
:105AB0002F490EF05DF9FBF767FB002801D0C046C7
:105AC000012420000FB0F0BD28780A2806D100205C
:105AD00000F048FC01221B4B1A70F1E70130C0B204
:105AE000287000F03FFC01F095F877E7480A0020A5
:105AF000030602009F363D01247E01007C7C0100EC
:105B0000897C0100B07D0100A07C0100D84000002C
:105B10009A9999999999E93F34FEFF1F30FEFF1F2A
:105B2000DC40000000007A44C37D0100CE7D01000E
:105B30009F03EE64667C0100B04000005C0A002018
:105B400000F00F405D0A002004440000580A0020C5
:105B500024400000FFFF0000540A0020CDC70000D1
:105B6000A9C7000085C700004FFEFF1FDB7D0100B5
:105B7000C97C0100F7B5324B1D78002D5FD1FDF7D0
:105B80007DFC14222F4B30491A60304B304C1A6088
:105B90000222304BFF321A800A002F4BC1CBC1C208
:105BA00043CB43C243CB43C203CB03C22B4A2C4B50
:105BB000C1CBC1C2110045CB45C145CB45C105CBC9
:105BC00005C1284E284970690FF030FD274B284940
:105BD000D8672300727940331A702200254BA43213
:105BE0001B7825481370230022009C331D700F235F
:105BF000AF3213702200B03211602200B432137041
:105C00001E4A137053709370D37013715371230035
:105C1000B5331D7023001A4ABC331A606B46DD7120
:105C200023009F331D706B46A034D91D257005F0ED
:105C30009BFD6B46DB79692B01D1683B2370F7BD77
:105C40005D0A00201007002058070020940600205D
:105C500014070020B6070020D8FDFF1F840700208E
:105C600004FEFF1F980A002000BA5B4A300B002098
:105C70000F0F0F0F5E0A0020E84000000C0B002001
:105C800070FEFFFF10B5234C2268531C0A2A04D96A
:105C90000121214806F0F2FC002323601F4B1B78F2
:105CA000002B14D01E491F480EF08CFC0DF074FF21
:105CB0001D4B010018000EF085FC1C480EF082FC04
:105CC0001B480EF07FFC64200DF058FF10BD194BEF
:105CD0001B78002B13D1124912480EF073FC0DF003
:105CE0005BFF114B010018000EF06CFC124B1348C7
:105CF0001978C9B20EF066FC0D480EF063FC104B2B
:105D00001B78002BE2D10F4B1B78002BDED103F068
:105D100035FDDBE7440A002080F00F405D0A0020DB
:105D2000147E01007C7C0100897C0100DD7D010086
:105D3000A07C0100650A0020640A0020ED7D0100BE
:105D4000A0120020A1120020F0B5002787B0077034
:105D50000590012002F010F9114EFC253378012442
:105D600002930823AD051A00022138000195009422
:105D700001F012FD022133780700029308220C2360
:105D800020000195009101F007FD3843C0B20028C2
:105D900001D1059B1C70431E9841C0B207B0F0BDF5
:105DA000F10B002010B5002002F0E6F804000120FD
:105DB00002F0E2F82043C0B210BD0000F7B50020A9
:105DC00001F094FC0400012001F090FC0443E3B2D4
:105DD00000931F4C002B0CD121001E4AAF31537889
:105DE000DB07DB0F0B70537822005B07DB0FAE3253
:105DF0001370194F194E390030000EF0E3FB0DF00F
:105E0000CBFE174D010028000EF0DCFB2300AF3362
:105E100019781448C9B20EF0D5FB134BAE341800F4
:105E200001930EF0CFFB390030000EF0CBFB0DF0EC
:105E3000B3FE010028000EF0C5FB21780B48C9B263
:105E40000EF0C0FB01980EF0BDFB0098FEBDC046F1
:105E5000280B0020220C0020BD7E01007C7C01006C
:105E6000897C01002D7E0100A07C01003D7E0100A7
:105E700037B50025694601200095019501F024FA07
:105E800001A90400280001F01FFA019A009B204399
:105E90009B18024AC0B293643EBDC046280B002046
:105EA000002307B5012001A9019301F02DFA002874
:105EB00002D1019A014B9A620EBDC046280B002008
:105EC000002307B5012001A9019301F03DFA002844
:105ED00002D1019A014BDA620EBDC046280B0020A8
:105EE00073B500266B4600209D1D2A00F1B2288064
:105EF00001F0C6F9041E06D12988144B7200013640
:105F0000D152082EEED1002600232A0001202B803A
:105F1000F1B201F0B5F90443E4B2002C08D132002B
:105F200029880A4B083252000136D1520C2EEBD18F
:105F3000FFF7B6FF0443FFF7C3FFE4B20443FFF7E4
:105F400097FFE4B22043C0B276BDC046280B0020C4
:105F500073B50026284C00236A46D3806B4622780E
:105F60006078991D01F026FA051E11D16B460620B6
:105F7000185E224A00280DD1012128001378994289
:105F800068411B18DBB213708B4201D91C4B19708E
:105F9000280076BD157011F021FD0022194B11F07B
:105FA00045F911F0DFFC2278174900B2092A0AD11D
:105FB0006278012A18D1154AC88710800136023448
:105FC0000B2EC8D1E4E7042A06D16278012A0BD14E
:105FD00002310F4AC887F0E7002A05D162782032E3
:105FE00052008A185080E9E7320018325200885275
:105FF000084972008852E1E738FEFF1F660A002058
:10600000670A00200057A540280B0020800A0020C6
:10601000700A0020720A00200020F0B585B003A9A4
:10602000039001F0B1F9204D041E11D1039800280E
:106030000CD00FF0FDFD1D4B19680FF0F7FA1C4B4B
:1060400019680EF083FF0FF0D3FD0390039BEB6400
:1060500006F0FAFA174F184E3B68C01A306006F087
:10606000F3FA33683860002B02DAFA235B003360FE
:10607000EB6C3068019311F0B1FC060001980F0041
:1060800011F0ACFC02000B003000390010F006FEED
:1060900000220A4B10F0BEF911F03AFD084D2860BD
:1060A000200005B0F0BDC046280B002034FEFF1FC5
:1060B00030FEFF1F680A00206C0A002000408F405D
:1060C000880A0020002110B5080001F015FC00210D
:1060D0000400012001F010FC2043C0B210BD0000FC
:1060E00070B50C4D00242B78DB09012B05D1210064
:1060F0002000072201F0B8FC0400A878C00901289C
:1061000005D10722002101F0AFFC0443E4B22000D6
:1061100070BDC0462C0C002010B50121002001F0FC
:10612000FBF9002828D10121080001F0F5F9002829
:1061300022D1124A137851781B070907C90FDB0FC8
:106140005B18591E8B410E49DBB28B721378547861
:106150005B076407E40FDB0F1B195C1EA341DBB276
:10616000CB7213789B06DB0FCB731378DB06DB0F48
:106170008B731378DB094B7210BDC046380C0020BE
:10618000120B002010B50121002001F021FA002897
:1061900052D10121080001F01BFA00284CD1274BF5
:1061A0001A78597892068906C90FD20F5218511ED3
:1061B0008A412349D2B24A711A785C78D206E40641
:1061C000E40FD20F1219541EA241D2B28A711A786A
:1061D0005C7852066406E40FD20F1219541EA241D5
:1061E000D2B2CA711A785C789207A407E40FD20F72
:1061F0001219541EA241D2B28A701A785C78D20762
:10620000E407E40FD20F1219541EA241D2B2CA7091
:106210001A785C7852076407E40FD20F1219541EE3
:10622000A241D2B20A711A785B78D209DB09D3187D
:106230005A1E9341DBB20B7310BDC046340C0020D4
:10624000120B002010B50121002001F023FA0028D4
:1062500003D10121080001F01DFA10BD10B50400A2
:10626000FFF730FF002805D1034B1A789B781340C5
:10627000DB09237010BDC0462C0C002010B5FFF7C1
:106280004BFF0400FFF77EFF0443FFF7DBFFE4B2A0
:106290002043C0B210BD000070B50500074C0128B6
:1062A00004D1AC3400F02CFF257070BD002000F04C
:1062B00027FF0023AC342370F7E7C046280B0020EB
:1062C00010B50100012001F019FD10BD10B501004D
:1062D000012001F079FC10BD10B588B01422002116
:1062E00003A811F0A1FC0822002101A811F09CFCD8
:1062F000002403AB1919154BE018043405F01EFAFD
:10630000142CF6D101A9124805F018FA114802A977
:1063100005F014FA049B002B01D10F4B04930F4C92
:106320001422200003A911F095FC039B002B06D139
:106330000322227092186270043AA270E37008225D
:1063400001A9074811F086FC08B010BD8440000088
:10635000A4400000A84000009F363D01D00A002064
:10636000C80A00200100812010B50422C00105F0F8
:1063700013FA10BD07B58120002301A9C0010193C4
:1063800005F0DCF901980EBD10B50821002000F0E1
:106390006DFF002806D00821012000F067FF431E92
:1063A0009841C0B210BD000037B500240F4D002346
:1063B000280001A9019305F0C1F9019B013B0333BA
:1063C00006D90B4B0422996A2800019105F0E4F9E3
:1063D000201C01990EF0BAFD064B0435041C9D42A9
:1063E000E5D105490EF03CFF3EBDC046B04000007F
:1063F000980A0020D84000000000204170B598B0F5
:1064000004005422002103A811F00EFC002503AB68
:1064100059198423DB01E818043505F08FF9542D50
:10642000F5D100237A4801A9019305F087F9019B72
:10643000DBB2002B00D13C33764D03A92A002E326B
:10644000137028000122744E06F0DEF90122734811
:1064500004A906F0D9F90122714805A906F0D4F97A
:106460000122704806A906F0CFF901226E4807A95B
:1064700006F0CAF901226D4808A906F0C5F9012203
:106480006B4809A906F0C0F902226A480AA906F079
:10649000BBF9694BAA8D69481A800BA9022206F044
:1064A000B3F9022266480CA906F0AEF9022265484B
:1064B0000DA906F0A9F9022230000EA906F0A4F9F0
:1064C000022261480FA906F09FF904225F4810A933
:1064D00006F09AF95E4968690FF0A8F80EF0E2FB41
:1064E0005B490EF0BDFE0222686111A9594806F011
:1064F0008BF90222584812A906F086F90222574861
:1065000013A906F081F90222554814A906F07CF976
:106510000422544815A906F077F90422524816A916
:1065200006F072F9022C00D06CE0504968690FF057
:106530007DF804004E4EA86230000422210005F0D0
:106540002BF94C4B04369E42F6D1FFF72DFF00236A
:10655000494E02A930604948029305F0EFF8029ACB
:10656000474C484B02A948481A6005F0E7F8230059
:10657000029A94331A6030683C4926000EF070FE8F
:1065800098363060306869690EF06AFE30603068B5
:106590003E490FF04BF80EF0D7FBFA2180B2783469
:1065A0002080AB893A4C643B9BB223802388686A85
:1065B00019339BB263802B89890064339BB2A3801B
:1065C000A388193B9BB2E380FAF7E6FB053080B263
:1065D00020813049286AFAF7DFFB41233C2205304D
:1065E00080B26081A381E2810A3222826382533ABF
:1065F0004C3BA282E382228363830C332377C04621
:1066000018B070BD0422244817A906F0FDF89CE7D5
:1066100054420000980A0020A60A0020990A00208F
:106620009A0A00209B0A00209C0A00209D0A002054
:106630009E0A0020C40A0020820A0020A00A00202E
:10664000A20A0020A40A0020A80A0020AC0A002008
:106650000000C842B00A0020B20A0020B40A00209C
:10666000B60A0020B80A0020BC0A002000BA5B4A23
:10667000B0400000D8400000840A00209C40000088
:10668000280B0020B80B00209840000000D02245C5
:10669000000C002018FCFFFFC00A002073B5842006
:1066A0000023022478213C250122C001019300919E
:1066B00005F08AF8210001224248009405F084F890
:1066C000290001224048009505F07EF829000122AA
:1066D0003E48009505F078F80A2101223C48002642
:1066E000009105F071F80C2101223A48009105F063
:1066F0006BF8310001223848009605F065F8E12179
:10670000220009013548009105F05EF83449220065
:106710003448009105F058F833492200334800917D
:1067200005F052F8AF21220009013148009105F02F
:106730004BF8304922003048009105F045F82F49C8
:1067400022002F48009105F03FF82E4B684601A922
:106750000422019306F063F8009904222A4805F008
:1067600033F82A4922002A48009105F02DF82949DA
:1067700022002948009105F027F83100220027481F
:10678000009605F021F81E2122002548009105F011
:106790001BF8244904222448009105F015F82349E8
:1067A00004222348009105F00FF8224904222248D0
:1067B000009105F009F829000422204804F0ECFFBC
:1067C00073BDC04604420000084200000C420000B5
:1067D0001042000014420000184200001C42000059
:1067E0006810000020420000041000002442000055
:1067F00028420000540B00002C420000C409000095
:10680000304200000000F04134420000520300001A
:1068100038420000260200003C42000040420000D6
:1068200044420000C063FFFF484200001027000000
:106830004C42000060FECD4C50420000544200002B
:10684000F7B56B460027991D23489F71DF7104F04F
:106850008BFF6B462148D91D04F086FF6B46DD791E
:106860001F4E012D24D19C79022C0CD12000FFF762
:10687000C5FD3570C04618482A00290004F08CFF79
:10688000184B1D70F7BD012C09D1220021001248C0
:1068900004F082FF2000FFF7B1FD3470F2E7124BE5
:1068A0001C70FFF7FBFE0220FFF7A8FD3770E9E739
:1068B000FFF7F4FE01220948110004F06DFF0122E8
:1068C0000548110004F068FF0123064A02203370D6
:1068D0001370FFF793FDD5E77C4000002C400000CB
:1068E000650A0020F10B0020640A0020002313B584
:1068F000064C01A92000019304F020FF0199042215
:1069000001312000019104F047FF13BD2040000039
:10691000002313B5064C01A92000019304F00EFFDB
:106920000199042201312000019104F035FF13BDCB
:10693000A040000070B515000E1C042201000E4896
:1069400004F02AFF0422040031000C4804F024FF64
:106950000422044329000A4804F01EFFE4B2204345
:10696000C0B2002804D104220721064804F014FF15
:10697000431E9841C0B270BD504200000840000064
:106980000C4000000440000037B5002504006946B3
:106990001848009504F0D2FE009B022B0ED8164A30
:1069A00021009B189800042204F0F6FE04220099AE
:1069B000013100910F4804F0EFFE37BD01A90F48E7
:1069C000019504F0BBFE042201990D4804F0E4FE99
:1069D00001A90C4804F0B2FE04220199074804F012
:1069E000DBFE04222100074804F0D6FE04220099B1
:1069F000E0E7C0463C4000000C10000034400000BE
:106A0000304000003840000037B5041E12D00A4B59
:106A100001A9C5180023AD002800019304F08EFEE3
:106A20000199042201312800019104F0B5FE2000F3
:106A3000FFF7AAFF37BDC0460F10000007B56A4632
:106A4000FF230748D11DD37104F08EFE6B46DB791E
:106A5000002B04D101229621014804F09DFE07BDC0
:106A6000E440000007B56A46FF230748D11DD371F3
:106A700004F07AFE6B46DB79002B04D101226921F8
:106A8000014804F089FE07BDE840000037B5012544
:106A9000040069460E486D42009504F04FFE009BCD
:106AA000002B0DD104222100094804F075FE08488E
:106AB00001A9019504F042FE019B9C4201D1C04610
:106AC00037BD04222100024804F066FEF8E7C04604
:106AD000EC4000000120014B18707047E80A0020CC
:106AE0000120014B18707047E70A00200120014B7C
:106AF00018707047E60A00200120014B187070479B
:106B0000E50A002010B502F0EDFE431E9841C0B228
:106B100010BD000010B50021041CFAF7A5FA0028EA
:106B200004D004222100024804F04EFE10BDC046ED
:106B300050420000010010B5034804F0FFFD431E61
:106B40009841C0B210BDC04610400000010010B511
:106B5000034804F0F3FD431E9841C0B210BDC04687
:106B600014400000002337B5050001A90648019331
:106B700004F0E4FD0400631E9C412800042201A9E6
:106B800011F068F8E0B23EBD18400000002337B5B0
:106B9000050001A90648019304F0D0FD0400631E1E
:106BA0009C412800042201A911F054F8E0B23EBD36
:106BB0001C40000010B501000422024804F0ECFD66
:106BC00010BDC0461040000010B50100042202486C
:106BD00004F0E2FD10BDC0461440000010B5011CD9
:106BE0000422024804F0D8FD10BDC0461C4000003D
:106BF00010B5011C0422024804F0CEFD10BDC046B1
:106C00001840000010B500F067FA10BD10B500F094
:106C10006DFA10BDF7B5002501A94A48019504F0A9
:106C20008DFD0199042201314648019104F0B4FD23
:106C3000012001F027F90400280001F023F92300C6
:106C40000343DBB20500002B12D13F493F480DF052
:106C5000B9FC0CF0A1FF3E4B010018000DF0B2FC96
:106C60003C480DF0AFFC3C480DF0ACFC0020FEBDF4
:106C7000002C26D1002D22D00024002001F032F972
:106C8000002800D1C046002001F076F92E49031EED
:106C90002F4E2E48304D45D10DF094FC0CF07CFF6A
:106CA000010030000DF08EFC2C480DF08BFC28000C
:106CB0000DF088FCC046631E9C41E0B2D7E7C04699
:106CC000D4E7012001F00EF9002800D1C0460120D0
:106CD00001F052F91C49031E1D4F1C481E4E0ED1D7
:106CE0000DF070FC0CF058FF010038000DF06AFC4C
:106CF0001B480DF067FC30000DF064FCBAE70DF0A6
:106D000061FC0CF049FF010038000DF05BFC1548F8
:106D10000DF058FC30000DF055FC002DADD1C046F3
:106D20000120A4E70DF04EFC0CF036FF010030000E
:106D30000DF048FC0C480DF045FC28000DF042FC1D
:106D4000EDE7C04628400000AD7E01007C7C0100DC
:106D5000897C01004D7E0100A07C0100877E01003E
:106D6000637E0100747E0100987E0100002337B528
:106D7000094C051C01A92000019304F0DFFC0199D6
:106D8000281C0EF0E3F8054B011C1860019004224A
:106D9000200004F001FD37BD9C400000B80B00202E
:106DA000002337B5094C051C01A92000019304F00C
:106DB000C5FC0199281C0EF0C9F8054B011C186090
:106DC00001900422200004F0E7FC37BD9840000049
:106DD000BC0B002070B5012001F01CF8C046FA245D
:106DE0001F4968200CF0C4FF1E4D6A2029000CF0DA
:106DF000BFFF640001200CF08FFF200005F020FC95
:106E000000200CF089FF002001F004F8200005F0BC
:106E100017FC01200CF080FFC046200005F010FC9C
:106E200000200CF079FF200005F00AFC0E496820D4
:106E30000CF09EFF29006A200CF09AFF01200CF054
:106E40006BFF200005F0FCFB00220221074805F043
:106E500003FCC046200005F0F3FB05F087FC70BD85
:106E6000C77C0100AB7E0100CD7C010080F00F40AB
:106E700010B5002000F018FE0400012000F014FE00
:106E80002043C0B210BD000010B508220649002002
:106E900000F022FE0C2204000449012000F01CFE38
:106EA0002043C0B210BDC046780B0020800B0020EC
:106EB00010B500200CF030FF10BD10B501200CF013
:106EC0002BFF10BD10B50C00010068200CF050FF26
:106ED00021006A200CF028FF10BD10B505F04AFC17
:106EE00010BD10B505F04AFC10BD000010B5002023
:106EF000FFF7ECF90020FFF7E3F90CF04DFE04007A
:106F00000CF04AFE001BFA280CD8FEF757FF064A81
:106F1000064B1278002AF3D1AE331B78002BEFD149
:106F200005F086FC10BDC046D70B0020280B0020C2
:106F3000002303700C4B10B50C4ADC6894420BD94B
:106F40009022DC68D201944206D28622DC68D2010B
:106F5000944202D80123037010BDDB689342FBD931
:106F60000029F7D0F8E7C046EC0A002003400000F3
:106F700070B5002401210500FFF7DAFFA5420BD10F
:106F800070BDD868195D2018C9B204F03BFC4342BB
:106F9000584101342870E4B2024B1A899442F0D36C
:106FA000EEE7C046EC0A002037B5002400210500BA
:106FB000FFF7BEFFA5420DD137BD6A460023E86842
:106FC000D11D2018D37104F0CFFB6B46DB792B5514
:106FD0000134E4B2024D2B899C42EED3ECE7C0466B
:106FE000EC0A002070B50500002484230749DB016A
:106FF0006118E018013404F0B7FB502CF5D10222DF
:10700000034B5A7101232B7070BDC046CD0D00207B
:107010000C0B002010B501000122024804F0BCFB5B
:1070200010BDC0467C40000010B50D21044805F09D
:1070300017FBFA20800005F003FB05F097FB10BD5D
:1070400000F00F40002807D1054A1378002B03D029
:107050000121044B19701070034B18707047C04623
:10706000CC0D0020E40A00200C0B0020014B5870CE
:107070007047C0460C0B0020014B98707047C0460B
:107080000C0B0020014BD8707047C0460C0B002041
:10709000014B18717047C0460C0B0020014B587112
:1070A0007047C0460C0B00200F22084B5A709A7094
:1070B000DA701A715A71064A1378002B04D0012134
:1070C000044B1970002313707047C0460C0B00204E
:1070D000CC0D0020E40A002010B50121024805F083
:1070E000C9FAC0B210BDC04640F00F4010B5002133
:1070F000024805F0BFFAC0B210BDC04640F00F40D4
:10710000102110B5002803D0034805F0A9FA10BDDE
:10711000014805F0AAFAFAE780F00F4010B502F036
:1071200099FBC0B210BD000070B505000800190041
:10713000012D0AD105F0B0FA4442E4B2002C02D08D
:107140000122054B1A70200070BD0624002DFAD1D3
:1071500005F0CCFAF0E7C046C412002070B5050077
:1071600008001100012D21D1049A05F0A1FA444232
:10717000E4B2002C38D01F4A052153681E48013361
:1071800053602A0005F068FA0A2005F059FA002237
:107190000521194805F060FA164BAD00EB58042B99
:1071A00002D90122154B1A70200070BD0624002D53
:1071B000FAD1049A05F0A6FA4442E4B2002C13D0A6
:1071C0000C4A022113680E48013313600D4A1368FC
:1071D00001331360012205F03FFA0A2005F030FA6E
:1071E0002A0002210648D5E70024024BAD00EC50EE
:1071F000DAE7C046F80B0020C0F00F40C4120020B0
:1072000040F00F40F40B0020030010B508000121EE
:10721000002B04D005F036FA4042C0B210BD05F094
:107220005BFAF9E710B505F017FA10BD10B505F0D7
:1072300007FA10BD10B505F007FA10BD7047000041
:1072400038234343084870B518180C0002F0D4F8EE
:10725000050002208443902C03D1FFF7E7FF2800AC
:1072600070BD0120F9E7C046440C0020062310B58C
:10727000012802D8FFF7C8FF0300180010BD000066
:10728000030010B50620012B18D80D48C45C062059
:10729000002C13D00F2911D838245C430948041955
:1072A000A488013C8C4200D10F21382463430A3169
:1072B000C9B24900C9B2C01802F016F810BDC046E4
:1072C000400C0020440C002013B503000C000620E5
:1072D000012B13D80A4AD25C002A0FD0694600223B
:1072E00032305843074BCA80C0188A1D342101F040
:1072F000FBFF6B46DA880A235343236016BDC04662
:10730000400C0020440C002013B503000C000620A4
:10731000012B13D80A4AD25C002A0FD069460022FA
:1073200032305843074BCA80C0188A1D362101F0FD
:10733000DBFF6B46DA880A235343236016BDC04641
:10734000400C0020440C002013B503000C00062064
:10735000012B13D80A4AD25C002A0FD000226946BA
:10736000CA8038214B43074818186B469A1D01F014
:10737000BBFF6B46DA880A235343236016BDC04621
:10738000400C0020440C002003000A00062010B529
:10739000012B0AD80549C95C002906D03230584370
:1073A000034B1621C01801F0C9FF10BD400C00208E
:1073B000440C002013B503000C000620012B16D846
:1073C0000B49C95C002912D0092A10D8002168464F
:1073D000C18038205843074B5100C0186B466831B4
:1073E0009A1DC9B201F095FF6B46DB88238016BD5C
:1073F000400C0020440C0020F7B506000620012EAA
:1074000000D982E0414B9B5D002B7ED000236A4671
:1074100032307043D3803E4B911DC01801F0FEFE08
:10742000002872D101216B468E40DA88394B150055
:10743000F45C0D408C432C43550802270D408D40D1
:10744000F454F45CBC432C4395080D40BD40F45407
:10745000F45CFF19BC432C43F454F45CD5080D4094
:107460000437ED00BC432C43F454F45C15090D4083
:1074700008372D01BC432C43F454F45C55090D40EE
:1074800010376D01BC432C43F454F45C95090D4056
:107490002037AD01BC432C437F25F454F45CD7095D
:1074A0000F40FF012C403C430327F4549B195E78A6
:1074B000140ABE433C403700042627435F705C78C3
:1074C000970A0F40BF00B4433C435C705C78D70A16
:1074D0000F40B619FF00B4433C435C705C78170B57
:1074E0000F4008363F01B4433C435C705C78570B57
:1074F0000F4010367F01B4433C435C70D20B0A400E
:107500005978D20129400A435A70FEBD400C002030
:10751000440C00203C0C0020F7B504000E000128AC
:1075200015D8274B1B5C002B11D06B463820DD1D76
:1075300000236043234A2B7080180A00290001F0C1
:1075400025FE002804D1002E03D0012E05D00620F0
:10755000FEBD1D4B2A781A55FAE704271B4B2D78E0
:107560001A5DA90831408900BA430A431A551A5DC9
:10757000E908FF193140C900BA430A431A551A5D98
:107580002909083731400901BA430A431A551A5DDF
:107590006909103731404901BA430A431A551A5D47
:1075A000A909314020378901BA430A437F211A557E
:1075B0001A5DED093540ED010A402A43CBE7C0468C
:1075C000400C0020440C00203A0C0020380C002015
:1075D000F7B504000E00012816D82A4B1B5C002BBF
:1075E00012D06B463820DD1D002360432B70264BE4
:1075F0000A00C0182900012301F0C8FD002804D1A9
:10760000002E03D0012E05D00620FEBD1F4B2A7888
:107610001A55FAE72D78022729001D4B31401A5DD3
:10762000B2430A431A551A5D690831404900BA430A
:107630000A43A9083140B9401A551A5DFF19BA43E7
:107640000A4329093140B9401A551A5D0C37BA432B
:107650000A431A551A5D6909103731404901BA4386
:107660000A431A551A5DA909314020378901BA43E6
:107670000A437F211A551A5DED093540ED010A4094
:107680002A43C5E7400C0020440C0020360C0020A3
:10769000340C002073B504000D00012816D80F4BE0
:1076A0001B5C002B12D06B463820DE1D002360438C
:1076B00033700B4B0A00C0183100022301F066FD45
:1076C000002804D1002D03D0012D05D0062076BD61
:1076D000044B32781A55FAE7034BFAE7400C0020C6
:1076E000440C0020300C0020320C0020F7B50400C0
:1076F0000620012C49D8254B1B5D002B45D00023CB
:107700006A4632306043D371214BD11DC01801F05D
:10771000D7FD002839D16B46DA79012116001D4BBF
:107720000E401D5D02278D43354356080E408E40A6
:107730001D551D5DBD43354396080E40BE401D5589
:107740001D5DFF19BD4335431D551D5DD6080E4017
:107750000437F600BD4335431D551D5D16090E4027
:1077600008373601BD4335431D551D5D56090E4092
:1077700010377601BD4335431D551D5D92090A4002
:107780003F3192018D432A431A55FEBD400C002023
:10779000440C0020220C0020F0B585B001910AA90C
:1077A000097805008C460624012840D80199033C3D
:1077B00002293CD8102B3AD80334082A37D1382173
:1077C0004143454E88557618B38033000021083375
:1077D00071701900B270019A404BF2700A0091CB9F
:1077E00091C213CB13C213CB13C21B6813603300B7
:1077F000624630331A700B9810F042F902000B0009
:10780000374838490EF006FE10F082F97063280000
:10781000FFF7F2FD0123344F902128007B55FFF73D
:107820000FFD041E029005D000210B1C7B5520008B
:1078300005B0F0BD300000F0F1FD041E039001D052
:10784000029BF3E7300000F029FF041E029001D0F4
:10785000039BEBE7300000F0EBFF041E0390EFD139
:10786000300001F033F8041EF2D1300001F0B0F81E
:10787000041E01D00023D9E730001C4901F03CF977
:10788000041E0290F6D1300001F016FC0400061E22
:10789000D6D192212800FFF7D3FC041E01D07E55DB
:1078A000C5E7019B022BC2D1002DC0D19621FFF765
:1078B000C7FC220008210E48FFF7B4FC0D48220047
:1078C0000721FFF7AFFC2000FFF710FF0028AED024
:1078D0003C700400ABE7C046440C0020DC7E010095
:1078E00063EE5A423EE81D40400C0020000C002090
:1078F00080F00F4000F00F40F7B506000D000128A2
:107900001AD8544B1B5C002B16D0C04638200023DD
:107910006A467043D380504B0A00C0186B46991DCD
:1079200001F08FFC041E08D1012D00D184E0022D4E
:1079300000D18AE0002D02D006242000FEBD6B4657
:10794000D988012573000E00444A2E40985C022716
:10795000A84330434E082E40AE409854985CB8433C
:1079600030438E082E40BE409854985CFF19B843AF
:1079700030439854985CCE0804372E40F600B84344
:1079800030439854985C0E0908372E403601B843AE
:1079900030439854985C4E0910372E407601B84316
:1079A00030439854985C8E0920372E40B601B84376
:1079B00030439854985CCE09BC462E403F37F601C0
:1079C000384030439854480A02262840A840D2182C
:1079D0005378B3430343880A2840B0405370537828
:1079E000B619B343034353705378C80A043628408A
:1079F000C000B343034353705378080B0836284044
:107A00000001B3430343537053781036B3436646C3
:107A1000480B28404001034353705378880B28409B
:107A20008001B343034353705378C90B2940C90104
:107A30003B400B43537080E7022209487600301820
:107A40006B46991D10F006F977E7064876002A0084
:107A50003018F5E7400C0020440C00202C0C0020CE
:107A6000280C0020240C00201FB504000620012C47
:107A700013D80B4B1B5D002B0FD0012393406A469C
:107A8000121832309BB26043138003AA1380054B57
:107A90000A00C018039901F0F9FB04B010BDC046FC
:107AA000400C0020440C0020030010B50620012BE0
:107AB0000CD8074AD25C002A08D032305843054B14
:107AC0000022C0188321022301F0A4FC10BDC0468F
:107AD000400C0020440C0020E0B5060017000620F2
:107AE000012E07D800250E4B2A009B5D781EAB4265
:107AF00008D10620E0BD4B5D85420FD1DB031A4360
:107B000092B20135EBB2BB42F5D338207043054B3E
:107B10008321C018022301F07DFCEBE7AB40EEE7C8
:107B2000400C0020440C002070B5160004AA05008B
:107B300014780620012D13D80A4A525D002A0FD06E
:107B4000620032308900684332430A43DB001A4343
:107B5000054B52B2C0189721012392B201F05AFC92
:107B600070BDC046400C0020440C002073B50400DA
:107B7000062501281FD8114B1B5C002B1BD0382079
:107B80000023604301AE33800D4B3200C0185721F3
:107B9000022301F036FC051E0CD16B467278991D4C
:107BA00008483378120264009B18201802220B80C8
:107BB00010F050F8C046280076BDC046400C0020AA
:107BC000440C00201E0C0020F0B504000D0006201F
:107BD00085B0012C25D8454B1B5D002B21D0200002
:107BE000FFF784FD2000FFF7C1FF414B6200D35C2B
:107BF000DA06D60F002A62DA002D14D19321200074
:107C0000FFF71EFB002809D12000FFF76FFD0028B9
:107C100004D1320007213748FFF704FB2000FFF7AB
:107C200065FD05B0F0BD0020FFF760FD00220721D3
:107C300006003048FFF7F6FA9627FFF7FBFA7F00B9
:107C400003902D4D2B789B0609D50020FFF74EFDA4
:107C50000600FFF7EFFA039BC01AB842F1D32000E9
:107C6000FFF744FD021E22D101272B5D2B5D2B5D0A
:107C70002B5D2B5D2B5D2B5D295D2B5D285DC90781
:107C80009B070007C00FC90FDB0F7B4079404740BF
:107C900000972000FFF748FF002808D12000FFF7D9
:107CA00025FD002803D12B5D5B0700D5C046C046EB
:107CB000002EB3D12000FFF719FDC046AEE70E4EEF
:107CC000325D5207D20FAA42A8D05B07DB0FAB424E
:107CD000A4D020212000FFF7B3FA335D1B079DD409
:107CE00022212000FFF7ACFA98E7C046400C0020A4
:107CF0001E0C002000F00F40220C0020F0B5040004
:107D00000D00062087B0012C1ED83E4B1B5D002BBA
:107D10001AD02000FFF7EAFC2000FFF727FF3A4BBC
:107D20006200D35CDA06D60F002A55DA002D0DD199
:107D300094212000FFF784FA320008213348FFF72E
:107D400071FA2000FFF7D2FC07B0F0BD2000FFF76A
:107D5000CDFC00283ED12E4D2B5D2A5D2B5D2F5D85
:107D60000393285D295D2B5D920704930423D20FB2
:107D7000520032430592039A1A401300059A1343A6
:107D80000822174092183B43104018432023049ABE
:107D90001940DB181340014319437F2337002A5D44
:107DA00019402B5D285D52079B070007C00FD20FBB
:107DB000DB0F734072408F4346403900200000962D
:107DC000FFF7B2FE002805D12000FFF78FFC002846
:107DD00000D12B5D0022B0E70D4E325DD207D20FED
:107DE000AA42AED09B07DB0FAB42AAD01F212000D6
:107DF000FFF726FA335D1B07A3D422212000FFF7EB
:107E00001FFA9EE7400C00201E0C002080F00F405F
:107E1000220C0020F7B504000620012C27D81021E1
:107E20002000FFF70DFA002803D110212000FFF7F2
:107E300007FAFFF7FFF93827104E01903B00634324
:107E4000F31820009978FFF711FA0500012807D0F0
:107E5000FFF7F0F9019BC01AFA239B009842EDD37B
:107E6000FFF7E8F9C046002D02D1C0460120FEBD53
:107E7000C0460020024B1855F9E7C046440C0020CC
:107E8000400C002010B504000620012C17D8012258
:107E9000002C15D005211048FFF7C4F96420FFF726
:107EA000C5F9002205210C48FFF7BCF938226243CE
:107EB0000A4B20009B189978FFF7D8F9C04610BDEF
:107EC00002210748FFF7AEF96420FFF7AFF922005F
:107ED00002210348E8E7C046C0F00F40440C0020F0
:107EE00040F00F40F7B504000620012C2ED80122E7
:107EF000002C2CD005211C48FFF794F99620C000D7
:107F0000FFF794F9002205211748FFF78BF9FFF7D7
:107F100091F93827154E01903B006343F318200078
:107F20009978FFF7A3F90500012807D0FFF782F938
:107F3000019BC01AFA239B009842EDD3FFF77AF910
:107F40000120002D02D00020094B1855FEBD022152
:107F50000848FFF767F99620C000FFF767F922008D
:107F600002210448D1E7C046C0F00F40440C002075
:107F7000400C002040F00F4070B505000624012899
:107F800028D8012203211448FFF74CF9C820FFF735
:107F90004DF9002203211048FFF744F996204000D4
:107FA000FFF744F908212800FFF760F90400C046F4
:107FB0000A490B480CF006FB0BF0EEFD094B0100E3
:107FC00018000CF0FFFA210007480CF0FBFA0748F4
:107FD0000CF0F8FA200070BD80F00F40CF7E010059
:107FE0007C7C0100897C0100CA7D0100A07C01002D
:107FF00000234118884202D1D843C0B270470278AA
:1080000001309B18DBB2F5E703004118002010B5E2
:10801000034A1C7801336040105C8B42F9D110BDDB
:10802000047F0100F0B597B003900B201500029378
:108030001CAB1E7804AB3D220191C01800210FF04B
:10804000F3FD019B05A85B000370029B06AC1B7847
:1080500003214570257083706370FFF7D5FF2700FB
:108060000125A0700237AE420CD872000132230005
:1080700001990398D2B2FFF757F8002800D0C04604
:1080800017B0F0BD029B04AA5B5D01217B70D01C80
:10809000D370FFF7B9FF0135B870E3E7F0B50024FE
:1080A0000F001600A9B005932EAB1B783C222100CF
:1080B000049009A8039308940FF0B6FD3C22210018
:1080C00019A818940FF0B0FD04ABDC72039B18AD37
:1080D0005B00320039000498DBB20095FFF73EF8F0
:1080E000A0421ED107A8467001267F0007703743C3
:1080F00087702F780421C770FFF786FF6C78241AE9
:10810000631E9C4104AB1F743700039BB3420AD823
:108110001A00631E9C41059808A90FF09BFD604260
:10812000C0B229B0F0BD1021AB7804AA5218935503
:1081300004AAD3720B239B1818003900FFF764FFC1
:10814000EB7801361B1A5A1E93410235E418DCE71E
:10815000F0B58BB00591049343780400170002201A
:10816000002B31D12278A67808AC2F490392200049
:10817000062207AD2B800FF06DFD059B01202380AB
:10818000A770FFF753F8049B022B1FD0042B32D0AB
:1081900003200700012B17D1009023003E2231005D
:1081A0000398FFF73FFF00280ED139002000FFF7AA
:1081B0001FFF052328706B70033B009360222B0088
:1081C00031000398FFF72EFF0BB0F0BD3F0AE770B8
:1081D000042723003E22310003980097FFF722FF77
:1081E0000028F1D139002000FFF702FF0623287094
:1081F0006B70049BE1E73B0AE3703B0C23710623A1
:108200003F0E67713E220093310023000398FFF771
:1082100009FF0028D8D106212000FFF7E9FE082336
:1082200028706B70063BC8E7767C01001FB50A001A
:10823000417803000220002908D11C78997803AB0B
:108240001A8000903E222000FFF7ECFE04B010BD23
:10825000F0B58FB01D0014AB059204CB04001B7861
:108260000E000993431E9841C0B20892FEF7E6FF44
:1082700063780227002B41D10BAA1380A2780D93BB
:10828000039222780CAC2380F3B20693330A07934F
:1082900008AB04929E82012D40D0BD425BD00137D5
:1082A000002D2BD102263E220399049800960DAB97
:1082B000FFF7B8FE071E21D1FEF7BCFF05900BACFF
:1082C00023003E22039904980096FFF7E7FE05007D
:1082D0000700FEF7AFFF059BC01A05280ED82378CC
:1082E000FF2B02D16278FF2AE9D0069A9A4208D180
:1082F0006378079A934204D1002D05D038000FB05F
:10830000F0BDC0460127F9E7099B4022009303997D
:10831000089B0498FFF7C2FE0700EFE70325059AC4
:1083200008AB9A7503993E22049800950DABFFF7B0
:1083300079FE071EE2D129000DA8FFF759FE05239B
:108340006370033B2070009323006022039904981C
:10835000FFF768FEE0E70426059A08ABDA82039986
:108360003E22049800960DABFFF75CFE071EC5D1B8
:1083700031000DA8FFF73CFE0623207063700095C6
:10838000E2E7F0B587B01E000CAB029204CB04000C
:108390001F78431E9841C0B20D000392FEF74EFFB6
:1083A00063780220002B09D1029A05ABA1782078CE
:1083B0001A80002E04D0012E08D0032007B0F0BD93
:1083C0002A00039B0097FFF769FEF7E72A00009752
:1083D000FFF728FEF2E770B51D1C14000E000DF02B
:1083E00027FC291C0CF03CFF0CF05CFC051C200059
:1083F0000DF01EFC291CF8F723FE00280CD13000DC
:108400000DF016FC291CF8F72FFE3400002803D1CC
:10841000281C0DF0EDFB0400200070BD0300F0B53A
:1084200030331E7804008FB0012E00D1AFE0022E51
:1084300000D1C8E00220002E00D0FEE0C822804B10
:10844000D2010993B02394461B050A937D4B7E4DC0
:108450000B9309AB0C951A8204AA83CB83C26346A3
:1084600093806423156007250F270193593B0393DD
:108470000095F233029323000A2231331A7004ABC1
:108480001A88200002237149FFF762FE00287CD180
:1084900001232000029A6E49FFF75AFE002874D18A
:1084A000012320001A006B49FFF752FE00286CD10F
:1084B0000200012320006849FFF74AFE002864D12A
:1084C0000123320020006549FFF742FE00285CD1FD
:1084D0000123320020006249FFF73AFE002854D100
:1084E00001232000039A5F49FFF732FE00284CD198
:1084F00001232000009A5C49FFF72AFE002844D19E
:108500000200012320005949FFF722FE00283CD138
:108510000123072220005649FFF71AFE002834D114
:1085200093210123072220000902FFF711FE0028F2
:108530002BD101232A0020004E49FFF709FE002815
:1085400023D101233A0020004B49FFF701FE002808
:108550001BD10123062220004849FFF7F9FD00281E
:1085600013D1A388102B66D849D102000E3B2000FE
:108570004349FFF7EDFD002807D101232000019AB0
:108580004049FFF7E5FD002857D00FB0F0BDA0200F
:108590003D4B3E4D09933E4B0C950A93294BC00031
:1085A0000B9304AA09AB1882C2CBC2C20523156083
:1085B0009080019302332A27009300233D00039308
:1085C0000226ED3356E7A022D20094462E4B1E4DD4
:1085D0000993304B0C950A932F4B0B9309AB1A82DE
:1085E00004AA83CB83C263469380052315600725C5
:1085F0000193063300930F270395E2333AE70320F4
:10860000072BC2D91022DBB2591ED31A0022100048
:10861000C9B2DBB206000125002E09D15219013082
:1086200092B28342F6DC8A40D243022392B29EE7A2
:108630006D00013EF0E70320A7E7C046A5E7C0466E
:108640001004FD0107000707070F06003492000021
:10865000369200003792000038920000FA92000033
:10866000FB920000FC920000FD920000FE920000D0
:10867000FF920000019300000293000003930000AA
:1086800004930000079300001004ED012A2A06005D
:1086900000020200000202070B00070730B50500C8
:1086A00089B00D22002168460FF0BEFA2B0030334E
:1086B0001B78012B00D19BE0022B00D198E0022017
:1086C000002B00D091E04B4B04934B4B04A9059336
:1086D0004A4B0D220693752368460B730FF0BAFAC6
:1086E0006B4628001A8846490223FFF731FD00280F
:1086F00000D07BE06B469B7804AC20802370280080
:10870000012322883F49FFF723FD00286ED16B46E5
:10871000DB78208023702800012322883A49FFF764
:1087200017FD002862D16B461B792080237028003A
:10873000012322883549FFF70BFD002856D16B46EF
:108740005B79208023702800012322883049FFF7BD
:10875000FFFC00284AD16B469B79208023702800BB
:10876000012322882B49FFF7F3FC00283ED16B46FA
:10877000DB79208023702800012322882649FFF717
:10878000E7FC002832D16B461B7A2080237028003A
:10879000012322882149FFF7DBFC002826D16B4604
:1087A0005B7A208023702800012322881C49FFF770
:1087B000CFFC00281AD16B469B7A208023702800BA
:1087C000012322881749FFF7C3FC00280ED10B2193
:1087D0000222694420000FF03DFA0223280022887B
:1087E0001149FFF7B5FC002800D1C04609B030BDE3
:1087F0000E4B69E70000FCF700989100E4A20030FE
:108800005F9200006192000062920000639200009B
:108810006592000066920000679200006992000075
:108820006A9200006B920000739200000000BCF797
:10883000030070B530331B780400012B07D0022BE6
:1088400002D00220002B33D101252D2201E000258A
:108850000D22012320001749FFF77AFC002828D1B8
:1088600001232A0020001449FFF772FC002820D1C0
:108870000200022320001149FFF76AFC002818D1EA
:108880000200022320000E49FFF762FC002810D1ED
:1088900001230A2220000B49FFF75AFC002808D1C7
:1088A0000123192220000849FFF752FC002800D1BB
:1088B000C04670BD08930000099300000A930000B1
:1088C0000C9300000E9300000F930000030013B5FB
:1088D00030331B780400012B0CD0022B58D002201F
:1088E000002B53D12E4B01AA13806A46138001231B
:1088F000012105E02B4A01A90A8069460A8000216E
:10890000294AC9020A431B031A436B4627491B889D
:1089100020000B401A436B4625491A80022392B26D
:10892000FFF716FC002832D1FA2202232000214949
:108930005200FFF70DFC002829D1FA220223200063
:108940001D495200FFF704FC002820D10123052215
:1089500020001A49FFF7FCFB002818D10123102240
:1089600020001749FFF7F4FB002810D10423200052
:10897000626B1449FFF7ECFB002808D102000123C9
:1089800020001149FFF7E4FB002800D1C04616BDC6
:108990000E4B01AA13806A4613800023A8E7C04645
:1089A00090DAFFFF90D2FFFF90C2FFFF6F2500001B
:1089B0006D920000109300001293000014930000C9
:1089C00043930000A89100004492000090CAFFFF6A
:1089D0000300F7B530331D780400012D09D0022DB6
:1089E00007D00220002D68D13C234626344F019346
:1089F00003E05026CE25334F0196012308222000A4
:108A00003149FFF7A5FB002858D101232A00200097
:108A10002E49FFF79DFB002850D101232000019A29
:108A20002B49FFF795FB002848D101233200200095
:108A30002849FFF78DFB002840D101231422200094
:108A40002549FFF785FB002838D1012308222000A3
:108A50002249FFF77DFB002830D102233A00200095
:108A60001F49FFF775FB002828D101232822200089
:108A70001C49FFF76DFB002820D1012314222000A0
:108A80001949FFF765FB002818D102233A0020009E
:108A90001649FFF75DFB002810D101232822200092
:108AA0001349FFF755FB002808D1012314222000A9
:108AB0001049FFF74DFB002800D1C046FEBDC0465F
:108AC0003C0F00008813000035930000369300002F
:108AD0003793000038930000399300003A93000068
:108AE0003B9300003D9300003E9300003F93000045
:108AF0004193000042930000F0B50B7F04000D008D
:108B00008DB0002B19D1E54B3C220B80E44B4B8000
:108B1000E44B8B80E44BCB800F230B8169334B817B
:108B2000373B8B81CA810A320A824B82533A4C3BD3
:108B30008A82CB820A834B83C04628885022142124
:108B4000DA4B80B2FFF747FC6F88AB8802009BB21C
:108B50000093EB8806009BB201932B8920009BB207
:108B600002936B89D2499BB20393AB89BFB21BB20C
:108B70000493EB891BB205932B8A1BB206936B8A75
:108B80001BB20793AB8A1BB20893EB8A1BB2099303
:108B90002B8B1BB20A936B8BFF251BB20B932A40C6
:108BA0000123FFF7D5FA002800D062E20423200059
:108BB000C04AC149FFF7CCFA002800D059E2502240
:108BC0001421BA4B3800FFF706FC821B012320005A
:108BD000BA49D2B2FFF7BCFA002800D049E26E22AF
:108BE0001421B24B0098FFF7F6FB020006000123A8
:108BF0002000B3492A40FFF7ABFA002800D038E242
:108C0000F22204232000AF499200FFF7A1FA0028C6
:108C100000D02EE26E221421A44B0198FFF7DBFB5B
:108C2000321A01232000A849D2B2FFF791FA002896
:108C300000D01EE202980EF0D1FE0022A34B0EF0EF
:108C40002DF80EF08FFE80233E220221DB05FFF778
:108C5000C2FB0200012320009D492A40FFF778FA59
:108C6000002800D005E20423592220009949FFF78B
:108C70006FFA002800D0FCE1020002232000964990
:108C8000FFF766FA002800D0F3E103980EF0A6FE85
:108C900000228E4B0EF002F80EF064FE8023642258
:108CA0000221DB05FFF797FB0200012320008B491F
:108CB0002A40FFF74DFA002800D0DAE10423012210
:108CC00020008749FFF744FA002800D0D1E10423AF
:108CD0000B2220008349FFF73BFA002800D0C8E1AF
:108CE0000423772220008049FFF732FA002800D0C1
:108CF000BFE101230B2220007C49FFF729FA00285D
:108D000000D0B6E1012320001A007949FFF720FACC
:108D1000002800D0ADE1012320001A007549FFF7BB
:108D200017FA002800D0A4E102232000724A7349F8
:108D3000FFF70EFA002800D09BE101230222200059
:108D40006F49FFF705FA002800D092E102000223E4
:108D500020006C49FFF7FCF9002800D089E1FE23D0
:108D6000282178229B0549420498FFF734FB012310
:108D700042B265492000FFF7EBF9002800D078E106
:108D80000123042220006149FFF7E2F9002800D006
:108D90006FE1FE23282178229B0549420598FFF7C1
:108DA0001AFB012342B25A492000FFF7D1F90028EB
:108DB00000D05EE1FE23282178229B0549420698D7
:108DC000FFF709FB012342B252492000FFF7C0F927
:108DD000002800D04DE10123042220004E49FFF776
:108DE000B7F9002800D044E1FE23282178229B0512
:108DF00049420798FFF7EFFA012342B247492000A2
:108E0000FFF7A6F9002800D033E101236E222000ED
:108E10004349FFF79DF9002800D02AE101230322EE
:108E200020004049FFF794F9002800D021E10123F8
:108E3000692220003C49FFF78BF9002800D018E197
:108E40000123552220003949FFF782F9002800D07C
:108E50000FE10123022220003549FFF779F90028AC
:108E600000D006E10123502220003249FFF770F9BB
:108E7000002800D0FDE0FE23282178229B054942EE
:108E80000898FFF7A8FA012342B22B492000FFF708
:108E90005FF9002800D0ECE050E0C0468C0A0000EA
:108EA000D70A0000CC1000008110000066664A421C
:108EB0007592000055070000769200007B9200003A
:108EC00078920000799200007C9200000000E03F60
:108ED000809200008192000088920000829200003F
:108EE0008392000084920000859200008692000028
:108EF0008792000094920000D8DCFFFF8A92000065
:108F00008C9200008D9200009A9200009B920000CB
:108F10009C9200009D9200009E9200009F92000093
:108F2000A0920000A1920000A2920000A392000073
:108F3000A4920000A5920000A69200000123042242
:108F400020004D49FFF704F9002800D091E0FE23EE
:108F5000282178229B0549420998FFF73CFA012312
:108F600042B246492000FFF7F3F8002800D080E025
:108F7000FE23282178229B0549420A98FFF72BFA05
:108F8000012342B23E492000FFF7E2F8002870D1E9
:108F90000123042220003B49FFF7DAF8002868D1BA
:108FA000FE23282178229B0549420B98FFF713FAEC
:108FB000012342B234492000FFF7CAF8002858D1F3
:108FC00014220123200031495242FFF7C1F8002842
:108FD0004FD10123022220002D49FFF7B9F80028C4
:108FE00047D10F22012320002A495242FFF7B0F84F
:108FF00000283ED10123022220002749FFF7A8F8CC
:10900000002836D102233C2220002449FFF7A0F893
:1090100000282ED10200012320002149FFF798F8F3
:10902000002826D10223012220001E49FFF790F8D4
:1090300000281ED10223012220001B49FFF788F8D7
:10904000002816D10223FA2220001849FFF780F8E1
:1090500000280ED1E122022320001549D200FFF79B
:1090600077F8002805D1022320001A001149FFF7E4
:109070006FF80DB0F0BDC046A7920000A8920000A6
:10908000A9920000AA920000AB920000AC920000EE
:10909000AD920000AE920000AF920000B2920000CC
:1090A000B4920000B5920000B6920000BA9200009F
:1090B000BC920000BE920000030010B52C331B7858
:1090C00004000220002B4ED11E23E25E264903003D
:1090D0002000FFF73DF8002845D11C23E25E200068
:1090E00002232249FFF734F800283CD11A23E25E1C
:1090F000200002231E49FFF72BF8002833D1182344
:10910000E25E200002231B49FFF722F800282AD143
:109110001623E25E200002231749FFF719F8002802
:1091200021D12623E25E200002231449FFF710F824
:10913000002818D12423E25E200002231049FFF703
:1091400007F800280FD12223E25E200002230D49F8
:10915000FEF7FEFF002806D12023E25E2000022356
:109160000949FEF7F5FF10BDEA910000EC910000FF
:10917000EE910000F0910000F2910000F4910000E7
:10918000F6910000F8910000FA9100007FB50F25DC
:109190000E00110000226D442A70012B1DD0022BFD
:1091A0002CD00624934203D1914204D001290FD040
:1091B000200004B070BD01230A0001930B000221BE
:1091C0000095FFF7DEF8041EF2D12B783370EFE73D
:1091D00001911A0003210095F3E7002903D001292A
:1091E00007D00624E4E70A00019300950B00042150
:1091F000E7E70191130005210095E2E7002906D079
:109200000129EED10191130007210095D9E701232F
:109210000A00019300950B000621D2E700220223E9
:1092200030B585B003AD2A800C00019312211300E4
:109230000095FFF7A6F8002801D12B88238005B000
:1092400030BD7FB51300002203AD0E002A80012B34
:1092500011D0022B15D00224934209D11A006221A9
:1092600001940095FFF78DF8041E01D12B883380FF
:10927000200004B070BD0223642101930095130007
:10928000F0E70193662113000095EBE730B587B056
:1092900003AD2980002105AB1980023104008A4307
:1092A0000620002A0AD12A881030684402800191E1
:1092B0000093200001236031FFF763F807B030BD51
:1092C00030B50F250022012385B06D442A700C00B3
:1092D00001937F2113000095FFF753F8002801D177
:1092E0002B78237005B030BD30B502231500002265
:1092F00085B003AC2280019300941300FFF741F87E
:10930000002804D16278237812029B182B8005B0C4
:1093100030BD30B502231500002285B003AC228099
:10932000019300941300FFF72CF8002804D1627811
:10933000237812029B182B8005B030BDF0B50024B5
:109340002C4D87B002AB03910700160021002022AC
:1093500028009C810EF068FC039B162B18D03A2B3A
:1093600032D00620142B2DD1202322000193752109
:10937000230038000095FEF76BFF002822D16A7D9C
:109380002B7D12021A433B0031331B7812B211E0DD
:109390002023220001937521230038000095FEF759
:1093A00057FF00280ED1EB7DAA7D1B0231371343F6
:1093B0003A781BB2534333603133622B01D8002318
:1093C0003360002007B0F0BD0223019305AB00938A
:1093D0002200230038000399FEF7D3FF0028F1D1C3
:1093E00002AB5B7B02AA127B1B02D21831373B789F
:1093F00012B2DFE7B40C002010B589B2FEF716FFF9
:1094000010BD07B501930023009289B21A00FEF740
:109410001FFF0EBD30B50F24002585B06C442570AC
:10942000012B04D0022B02D0062005B030BD89B23A
:1094300001930094FEF70CFFF7E770477047704701
:109440000022014B1A7070474EFEFF1F704700004C
:10945000034B1878012802D1024802611971704744
:109460000C0B0020EC0A0020034B59619A61012289
:10947000024B5A717047C046EC0A00200C0B0020CA
:1094800010B50AF089FB01F017FC0122014B1A709C
:1094900010BDC046E40A002001280AD100220B4B6F
:1094A0001A700B4B1978914202D00A4908701A7051
:1094B00070470028FCD10122044B1A70054B197823
:1094C0000029F5D01870024BF1E7C0460C0B0020C4
:1094D000CC0D0020E40A0020064810B50478012CC9
:1094E00006D1541E012C02D8034CE3602181427046
:1094F00010BDC0460C0B0020EC0A0020094830B516
:109500000378012B07D1084B084C197000238B42BC
:1095100002DB0123C37030BDD55CE55401335BB27F
:10952000F5E7C0460C0B0020D80C0020EC0A002008
:1095300010B5692801D054280AD10323094C802989
:1095400007D123700AF028FB2178C9B201F07EFA16
:1095500010BD0A001A40194201D02170F2E72270B2
:10956000F0E7C0464EFEFF1FEF2310B51B020C00B4
:1095700086B0984200D1B5E016D8D8231B02984295
:109580000CD00BD8D6231B02984207D00133FF33EF
:10959000984203D0D3231B0298426BD000232100B2
:1095A0001A0001F01BF96EE0554B984200D16CE0B7
:1095B00034D8544B984200D19CE0534B9842EDD1A3
:1095C0000022524B1A70130001F008F90C22504986
:1095D00003A80EF03FFB4F4C03A90C2220000EF015
:1095E00039FB4D4B05224D4901A800930EF032FB8B
:1095F000200014224A4915300EF02CFB2000694649
:10960000042222300EF026FB2000052201A927307B
:109610000EF020FB200001F0F9FA27E0414B9842C0
:10962000BCD100231A0001F0D9F808223E4903A852
:109630000EF010FB3D4C0822200003A90EF00AFB9F
:10964000202301222375DF336375E3750023A275A0
:109650003F326277303A22762000043A2377A377AC
:10966000E3776276A376E37601F0F4FA304B187074
:109670001B7808E000231A0001F0B0F801222D4BFE
:10968000DC612D4B5A7106B010BD00231A0001F0A9
:10969000A5F80B2329481922037003336124437072
:1096A0001B338370063BC370063B0371153B0321DC
:1096B00043710023524264428271447320329734D2
:1096C000C2718473013A07344272C473043A3C3C59
:1096D00001728272C372037304744174837401F063
:1096E000A9FAC3E700231A0001F078F8074B01221A
:1096F0001A70C8E700231A0001F070F8104BF6E763
:10970000DAFE000097F10000C5FD0000E40A002029
:10971000048001007F0D0020426174001080010070
:10972000D00A00200FFF000016800100AC0D0020C1
:10973000E20C0020EC0A00200C0B00205D0D002044
:10974000E10C002010B502F0EDFF002808D10F2237
:10975000054B1A705A709A70DA701A715A7110BDEE
:1097600001204042FBE7C0460C0B002010B502F080
:10977000E1FF431E9841404210BD0000F7B50AF0DA
:109780000BFA00F07FFE051E32D12E4CA378D8B222
:10979000052B0DD8F7F76CFA032E0C0C3134FF2291
:1097A0000021232001F0D4F90F23A370002840D119
:1097B000E378022B27D06379022B19D101210023F2
:1097C000FF262148214D4942EF5C0A0A3140794089
:1097D0008900095801335140502BF5D11C4BC94326
:1097E000D8690022C0B201F0E1F90F2305006371CE
:1097F0002800FEBDFF220121D3E7FF220421D0E78C
:10980000FF220521CDE700260322310001A80096A2
:109810000EF00AFA31000E4B1A8991420BDB1A89BD
:1098200069462320D2B201F0ADF90F23E37000287E
:10983000C1D00500DCE768465A5C4254013149B2A8
:10984000EAE7C0460C0B002020800100CD0D00206F
:10985000EC0A002010B50A4B0A4C1B78002B09D1EA
:10986000094B1B78002B05D1084B1878C0B201F0CA
:10987000B7F9207000232370207840B210BDC04695
:10988000A0120020E20C0020A1120020E40A002017
:1098900010B5024800F0E6FD10BDC04650FEFF1FA7
:1098A00070B50C00CF210906051CF7F7E7FB00286F
:1098B0000BD09E21281CC905F7F7CCFB002804D04B
:1098C000281C0CF095F9206070BDCF21281C0906DA
:1098D000F7F7B6FB431E9841014BC018F3E7C046AB
:1098E000FFFFFF7F0022F0B59E4B91B01B780092E6
:1098F000DEB2012B31D10AF04FF99B4D04220690C4
:1099000006A928000EF0A6F9984C07A9E36C1A0ADC
:109910002B716A711A0C1B0EEB7100230793230045
:109920008C331868AA71FFF7BBFF042207A990487F
:109930000EF090F9280001F0C3F88E4D2870300029
:1099400002F07EFE2B785AB2002B00D14EE12B782C
:1099500000225BB20093834B1A70874B03931B78F2
:10996000DEB2012B49D10AF017F9FF22834C05AB77
:109970001A800690FB3A200006A90EF06BF97B4D89
:109980000422AB6C06A97E4806930EF063F926729A
:1099900000242022210008A807940EF045F907AA08
:1099A0006300E85A0134D052142CF9D10024734ECC
:1099B000744FE019022205A902340EF04BF9242C51
:1099C000F7D107AD2200290038000EF043F930002E
:1099D00001F050F8674C2070012002F031FE23782E
:1099E0005AB2002B00D1DBE2C0462378009A5BB26A
:1099F0001A4300230092039A1370634F5D4C3B7827
:109A0000DAB20192012B2AD10AF0C6F85F4E042285
:109A1000049004A930000EF01DF95D4B0422DB6FA9
:109A200005A95C480593514D0EF014F95A4B0422D8
:109A300006A95A4806930EF00DF9300001F04CF8D3
:109A40002070019802F0FCFD2378002B00D14CE33C
:109A50002378009A5BB21A43002300923B70504B6C
:109A600001931B78012B26D10AF096F84D4B0790F5
:109A70001B883E4D07AEB3802B006C331B88300033
:109A8000F3802B006E331B8833812B0070331B88CF
:109A9000738101F02DF8207023785BB22370237856
:109AA000002B00D13CE32378009A5BB21A430023D9
:109AB0000092019A13703C4E3378DAB20192012B76
:109AC00049D13A4D02223A4928000EF0C3F8022249
:109AD000384939480EF0BEF80422384938480EF0AB
:109AE000B9F80222374938480EF0B4F80222374953
:109AF00037480EF0AFF80222364937480EF0AAF880
:109B000000230793354B07A91868FFF7C9FE042205
:109B100007A933480EF09EF8324F78690BF014F91C
:109B200004AA108106A902222F480EF093F81423EC
:109B30002B757B7928006B750723AB7500F08EFFC2
:109B40002070019802F07CFD2378009A5BB21A43E2
:109B50000023009233702378009B1800237011B00B
:109B6000F0BDC046E80A0020510D0020280B00205F
:109B7000590D0020E20C0020E70A0020240D0020EF
:109B8000280D00202D0D0020E60A0020FA0C0020F0
:109B90002C0B0020FE0C00200000C842020D00200B
:109BA000E50A0020920B0020E10C0020E30C0020CD
:109BB000A00A0020A40A0020E50C0020BC0A002016
:109BC000E70C0020C40A0020EB0C0020B00A0020A3
:109BD000ED0C0020B40A0020EF0C0020B00B002098
:109BE000F10C0020980A0020F50C00202300E54E1F
:109BF000AF333270032219787378114093430B43CB
:109C0000737023000C20AE331978737811408900EB
:109C100083430B4373702300C3331B78AC34012B95
:109C200000D0B6E02378013B5A425341023303226D
:109C300030210124134072781B018A43134373704F
:109C4000D14B10311A7873782240D04D92018B435A
:109C5000134373702B007F20BD331A787378D201C1
:109C60000340134373702B00B7331A78B378224044
:109C7000A3431343B3702B00B4331A780227224056
:109C8000A240B3787738BB431343B3702B00C13382
:109C90001A78B3782240BA40FF19BB431343B3701C
:109CA0002B00C0331A78B3782240D2008343134389
:109CB000B3702B00BB331A78B3782240BA40083017
:109CC00083431343B3702B00BE331A78B37810303C
:109CD0002240520183431343B3702B00BF331A78E1
:109CE000B378224092018B431343B3702B00C433EB
:109CF0001A78B3785F30D20103401343B3702B005E
:109D0000B9331A78F3782240A3431343F3702B003E
:109D1000B6331A78F3782240A2403E398B4313437E
:109D2000F3702B00B8331A78F37822408A40BB4393
:109D30001343F3702B00B5331A78F3787738224049
:109D4000D20083431343F3702B00B2331A784023BD
:109D5000BA405B421343F2780D310A40134331009D
:109D60003A008B48F3700DF075FF8A4B31001800F4
:109D70003A0000930DF06EFF009800F095FE864EBD
:109D80003070200002F05CFC3378002B07D0337871
:109D9000DEE52378013B59424B41134047E72B0056
:109DA0007E4950330C701A784B782240A3431343FA
:109DB0004B702B00022051331A784B78224052000E
:109DC000834313434B702B0052331A784B78224055
:109DD0008240BB4313434B702B0053331A784B78AC
:109DE00006302240D200834313434B702B00543380
:109DF0001A784B78083022401201834313434B708A
:109E00002B0055331A784B7810302240520183438F
:109E100013434B702B0056331A784B782030224076
:109E20009201834313434B702B0057331A784B78BE
:109E30003F30D201034013434B702B0058331A7844
:109E40008B782240A34313438B702B0059331A782D
:109E50008B787D3822405200834313438B702B0054
:109E60005A331A788B7822408240BB4313438B705D
:109E70002B005B331A788B7806302240D200834364
:109E800013438B702B005C331A788B780830224098
:109E90001201834313438B702B005D331A788B7848
:109EA000103022405201834313438B702B005E33EA
:109EB0001A788B78203022409201834313438B70B1
:109EC0002B005F331A788B783F30D2010340134365
:109ED0008B702B0060331A78CB782240A343134356
:109EE000CB702B0061331A78CB787D38224052003A
:109EF00083431343CB702B0062331A78CB78224014
:109F00008240BB431343CB702B0063331A78CB786A
:109F100006302240D20083431343CB702B006433BE
:109F20001A78CB7808302240120183431343CB7058
:109F30002B0065331A78CB781030224052018343CE
:109F40001343CB702B0066331A78CB782030224035
:109F5000920183431343CB7067352A783F30DBB2DD
:109F6000D2010340134300983A00CB700DF072FE0B
:109F7000009800F099FD3070200002F061FB33780A
:109F800005E7C046DD0C0020E40B0020280B002074
:109F9000200D0020D40C0020E20C0020D90C002061
:109FA000022333721600B819022205A902360DF0F9
:109FB00051FE242EF7D1042210A999480DF04AFE33
:109FC000984800F057FD2070012002F039FB2378FB
:109FD0005EB2002B00D008E509F0DEFD924F06903E
:109FE0000422380006A90DF035FE01233B718F4B8A
:109FF00001933300019A18335B009A5A73000136BB
:10A00000EA52072EF5D1F8360E2229008848EE8153
:10A010002E820DF01FFE380000F038FD2070012068
:10A0200002F00EFB23785AB20292002B00D0DCE43F
:10A0300009F0B2FD0422069006A938000DF00AFED0
:10A040001220029B0C2219003B7104ABC0180DF0CA
:10A05000EBFD019B0233DB8F2B80019BDB8F6B8041
:10A06000744B1A880A235343AB80032307AD5A006D
:10A0700001335653092BFAD16F4E0A21F08F6B4CE6
:10A0800000B2F6F76FFFF08F09B200B2052922DCAB
:10A090000A21F6F781FE40B2E8710634E08F0A210A
:10A0A00000B2F6F75FFFE08F09B200B2052917DCB6
:10A0B0000A21F6F771FE40B21222290028725C488C
:10A0C0000DF0C8FD584800F0E1FC5C4C2070012008
:10A0D00002F0B6FA89E40A21F6F75EFE0130DAE70B
:10A0E0000A21F6F759FE0130E5E709F055FD2A008F
:10A0F0000790B032127807AB1A71B1352A78180080
:10A100005A714F4A12789A71FF22DA7100F014FDE9
:10A110002070237801985BB2237002F091FA97E4E3
:10A1200009F03AFD0790E86F0BF0CEFD45490BF0C2
:10A1300097F82B007833071C188880B20BF078FD55
:10A14000011C381C0BF08CF83F490BF06FFA3E49AC
:10A15000071CF6F789FF6423029000280AD100212A
:10A16000381CF6F76DFF029B002803D1381C0AF05B
:10A17000EBFDC3B233712B00112278331B8804A985
:10A18000521813701B0A5370696F304A13009142C2
:10A1900005DC00236A6F9A4201DB6B6F9BB21322CE
:10A1A00004A9521813701B0A5370300000F0ACFC65
:10A1B000207023785BB223702378002B00D072E4E8
:10A1C00009F0EAFC2B00E1219C3307900901186893
:10A1D000F6F758FD2B00E121A033090170601868E3
:10A1E000F6F750FD2B009433B06018680AF0ACFD10
:10A1F0002B00A433F06018680AF0A6FDA835306182
:10A2000028680AF0A1FD7061300000F089FC207020
:10A21000237801205BB2237002F012FA43E4C046B7
:10A220002D0D0020240D0020060D0020280B0020FD
:10A230000B0D0020600A00202C0B0020E20C0020F7
:10A240001E0E0020000061450000C842941100006D
:10A2500010B5064B802806D101221A7009F09CFC2B
:10A26000034B186010BD00221A70FBE71F0E002080
:10A27000DC12002010B5002806D0054B1960054BF4
:10A28000186000F08DF810BD01204042FBE7C04689
:10A29000EC0E0020F00E0020F0B59BB003AD2800BE
:10A2A00000F09CF8011E1ED12B7AAF79AE7A039C88
:10A2B0000193224B224DE218224B1A4215D12B005A
:10A2C00094331C602B00A2331F702B00A3331E702D
:10A2D000019BA0352B800F2302A95B1808221900CF
:10A2E00019480DF0B7FC1BB0F0BD38220BA80DF0DB
:10A2F0009BFC5F2302AA9B181F705E239B181E7095
:10A300001E239B18019A02A9DA870F235B181900F4
:10A31000082209A808940DF09DFCE82301211B02E6
:10A320009C4204D0094BE41863425C4161002B005D
:10A33000CC3328001B6808AA9847D4E70015FFFF14
:10A34000240E0020FFFEFFFFBC0E00200016FFFFC2
:10A35000F0B5124E030034787578B778052085B0D3
:10A36000651BBD4218D00093FF23002501936B4667
:10A3700001A8039502951A730DF06CFC7068230117
:10A3800010226946C01801340DF064FC3900E0B2B7
:10A39000F6F7FEFC2800317005B0F0BD94FEFF1FFB
:10A3A00010B5FFF7CFF910BD010010B503684A7A68
:10A3B000180AC0B28C7A48719206EF2809D88879B9
:10A3C00014431843000220430A7A0B31FFF7CEF9F9
:10A3D00010BD180220431043F6E700007FB51B4E66
:10A3E0000400757833780620AB422CD071682B01BD
:10A3F000C9181022013568460DF02CFCB178E8B27E
:10A40000F6F7C6FC6B46200071701D7B01A92A007F
:10A410000B300DF01FFC009B2572DA00520F6272A8
:10A42000A3721A0C1B0A9903D2B2890B62712160C4
:10A43000A371EF2A02D8064A134023600020236844
:10A440009B039B0F237104B070BDC04694FEFF1F99
:10A4500000FF030010B5FFF70DFF10BD10B5FFF7AB
:10A460001BFF10BD10B5040000F0AEFB034B002134
:10A4700003485C60FFF7EEFF10BDC046F4100020FB
:10A4800069A6000010B5FFF7E9FF002010BD00002D
:10A49000F0B5060004000023463635786E4985B0D5
:10A4A000CA5CAA4228D1D92223681202934200D161
:10A4B00076E038D8D722694F1202934200D182E069
:10A4C0001FD8D3221202934200D1A1E0D622120259
:10A4D000934200D18AE02068604B010AC9B25B68F0
:10A4E000EF2900D9ADE05D69002D08D0A21D3378B9
:10A4F000D28F211DA84702E00133072BD0D105B030
:10A50000F0BDD82212029342E5D1702362792079FE
:10A51000D1001940014378681207A379520F446AA9
:10A520002800A047EBE74E4A934278D020D8DF229C
:10A530001202934227D0EF2212029342CBD1230082
:10A5400047331B782179232BD9D1A379A0680F2415
:10A550001A092340102912D01829D0D1290000F05F
:10A5600097FB0028CBD13D4B5B681B699847C6E73A
:10A570003C4A9342AFD12079FFF76AFEABE729004E
:10A5800000F07CFBBBE7237901201F2B03D03F3B6E
:10A590005A1E93415800314B5B68DB699847AEE720
:10A5A0001F2023896179E2881B0413430A07814332
:10A5B0002079648901432948520F40680094046A55
:10A5C0002800A0479BE700212679032203A80291D7
:10A5D0000DF02AFB3200611D02A80DF03BFB31009B
:10A5E0007B6802AA9B6A2800984788E72179FF22A6
:10A5F0008B1E012B09D8A279637912021A43E379E1
:10A600001B041343227A12061A437B68DB6AEAE7CB
:10A610007B6828001B6BA268616898476FE70F4B47
:10A620005B689B68002B00D169E72179802902D102
:10A630002800984763E761794A1E022AF8D9002169
:10A64000F6E79D69002D00D159E7A31D221D34783E
:10A65000DB8F0094A84752E78CFEFF1FF410002008
:10A660008CFF00008DFF000073B508001400062960
:10A670005ED8F6F7FDFA6F5E53805D5D8000157859
:10A680008D4251D1C0466079A37900021B04184362
:10A6900023791843424B98421ED02CD8D9231B0251
:10A6A000984219D020D8D7231B02984214D019D829
:10A6B000D3231B0298420FD0D6231B0298420BD003
:10A6C00011780023012200F089F831E0354BC118E0
:10A6D000354BCB40DB07F3D5344B11785B685B6BB4
:10A6E000984725E0D823E8E7314B3249C3180B429D
:10A6F000F2D0314BE2E7314B98420DD8304B9842C3
:10A70000E4D8304B9842E7D004D82F4B9842E3D09E
:10A710002E4BD3E72E4BD1E72E4BCFE700232E480D
:10A720004632C15C0029AAD10133072BF9D1C046BA
:10A7300073BD137A232BFBD1A07AE37A00021B04AA
:10A740001843637A52791843184B21795B689B6BE5
:10A750009847EDE71068154B010AC9B25B68EF290D
:10A7600011D85D69002D0AD02300063246331B78CC
:10A77000D28F211DA8472000FFF78AFED8E72000CE
:10A78000FFF786FEF7E79D69002DF8D026004636D4
:10A790003678931DDB8F04320096A847EBE7C0465E
:10A7A000F5FB00005000FFFF21008000F4100020A6
:10A7B0000021FFFFFFEFFFFF97F10000C7FF000040
:10A7C000AFFF00000FFF0000C5FD0000DAFE000033
:10A7D0007EFF0000FCFF00008CFEFF1FF0B51E0096
:10A7E000E82389B01B0203930E4B050004930E4B24
:10A7F0001120059300231700079302AB0222019159
:10A80000C018FF210DF010FA03AC019B2582200037
:10A810002D0CE7722673E373A574FFF7C5FD09B02D
:10A82000F0BDC04600E8FF0008002300F0B5050AAF
:10A830008DB00393EBB20600129F01910292EF2BB1
:10A840005ED8030CDBB20093C3B20493FBB2EDB24B
:10A85000059307AC082F35D9EC231B0207932A4B2D
:10A86000A27138000993A7810DF0E6F8274B00226A
:10A870000BF0D0FD0AF0FEF80AF07EFA1025009BDE
:10A88000A073A3742000E5732682FFF78DFD431C9F
:10A8900016D01F4B1F4A029915709A1DD7871A00B0
:10A8A00047321170019A1E6046331A7003993A00BC
:10A8B00019480DF0CFF91948194909F055FB002046
:10A8C0000DB0F0BD0B2006AB0D220021C0180DF01D
:10A8D000ABF9009B07962371049B0F20A371FBB279
:10A8E0002372019B3A0063722323A37206AB039980
:10A8F0006571C0180DF0AEF92000FFF755FDDFE7D8
:10A9000001204042DCE7C0460807231000001C403D
:10A91000240E00206C0E0020280E0020E40E0020E3
:10A92000E2040000F0B506008BB010000192039124
:10A930000DF082F82E4B00220BF06CFD0AF09AF815
:10A940000AF01AFAC3B20293EC231B020593FF2309
:10A950000025FF271B040693264B05AC0793019B9C
:10A960000995A381029B26822000360CA373E7730E
:10A97000A674FFF719FD013003D1012040420BB04E
:10A98000F0BD1022290006A80DF04EF9EB231B02A2
:10A990000593E123DB0023812323A771A372072101
:10A9A0000198F6F7F5F907240F00029BAB4201DC92
:10A9B0000020E4E70F2004AB0822FF21C0180DF0AF
:10A9C00033F92B006343039901986A1C05AEC9183B
:10A9D00007331500F2723A00984200D3220008A80B
:10A9E0000DF038F93000FFF7DFFC0130DDD1C4E7AE
:10A9F00000001C400807232070B505000E00190058
:10AA00002B0ADCB21000049AEF2C17D92843082A2D
:10AA100002D9FFF787FF70BD0A4C2D0C6371232309
:10AA20002060257122726672A372002A02D0064845
:10AA30000DF010F92000FFF7B7FCECE701204042D1
:10AA4000E9E7C046FC100020071100206922024BF4
:10AA50001A605860996070479CFEFF1F07B5172267
:10AA600003000092062102488032FFF7C5FF0EBDA9
:10AA700097F1000007B52D2203000092062102483D
:10AA80009A32FFF7B9FF0EBDC7FF000007B5FF22DE
:10AA9000C275E73A03000092062102486632FFF7CA
:10AAA000ABFF0EBD7EFF000007B50422030000923D
:10AAB00006210248F132FFF79FFF0EBDF5FB0000B3
:10AAC00007B50C220300009206210248A432FFF7CA
:10AAD00093FF0EBDB0FF000007B50C2203000092EB
:10AAE00006210248A932FFF787FF0EBDB5FF00001F
:10AAF00007B50C220300009206210248C532FFF779
:10AB00007BFF0EBDD1FF000007B5092203000092B4
:10AB100006210248C932FFF76FFF0EBDD2FF0000C9
:10AB200007B518220300009206210248BB32FFF746
:10AB300063FF0EBDD3FF000007B50822030000929B
:10AB400006210248CC32FFF757FF0EBDD4FF0000AC
:10AB500030B54C00112185B002AB9A70FF22082558
:10AB60002143D824DA70064A59701D7003920621D9
:10AB7000020000952002FFF759FE05B030BDC04627
:10AB8000FFFFF1F27FB505000920140002AE684412
:10AB900032700DF05FF8D720013433002A0006210F
:10ABA00000940002FFF742FE04B070BD1FB5D3242D
:10ABB00008230291039200930200062102AB2002B7
:10ABC000FFF734FE04B010BD034B044A1A609A60CC
:10ABD0001A619A611A627047A8FEFF1FFFFF00000A
:10ABE00030B50400092085B00722002168440DF02B
:10ABF0001BF80123FF2002AD2C70FC2200930521DD
:10AC00002B000002FFF7F8FE05B030BD07B52A2281
:10AC1000811C0275CA77C11DCA7725310A700332BB
:10AC200003000092062102489832FFF7E5FE0EBDB0
:10AC3000C5FD000007B52A21821CD177222203001E
:10AC400000920348B8322439FFF7D6FE0EBDC04645
:10AC5000DAFE000007B5FF22C27503001000DF3ADC
:10AC600000920621113A0002FFF7C6FE0EBD000059
:10AC7000014B18607047C0461011002010B5034CFE
:10AC8000606021736373A27310BDC0461011002071
:10AC900030B5084C257B8D4208D1617B994205D1A6
:10ACA000A37B934202D1A060002030BD012040422E
:10ACB000FBE7C04610110020034A116853689268F0
:10ACC0009B185B1A1818704710110020F7B5060082
:10ACD00014001F00002806D180231B01994202D3D3
:10ACE00001204042FEBD00236A460F4D1380937041
:10ACF000137128000B002100D67008F03FF80028DF
:10AD0000EED13B0022003100280008F0D1F80028E5
:10AD1000E6D114226243054B2100D218280008F026
:10AD2000A1F8431E9841DCE7708401003411002033
:10AD300003685B0700D5C04603681B0700D5C04603
:10AD400003685B0600D5C04603681B0600D5C046F5
:10AD50000368DB0500D5C04603689B0500D5C046E7
:10AD600003685B0500D5C0460368DB0400D5C04618
:10AD700003689B0400D5C04603685B0400D5C04649
:10AD800003681B0400D5C0460368DB0300D5C0463A
:10AD900003689B0300D5C04603685B0300D5C0462B
:10ADA00003681B0300D5C04603689B0200D5C0465C
:10ADB00070470000F0B5002689B00C001500049023
:10ADC0000796B1420BD001294BD06B46187C03F09B
:10ADD000CDFE079007A8FFF7ABFF09B0F0BD2A4FE3
:10ADE0002A4A3B6811685B1A012B00D0C0463B68B9
:10ADF000274E1360274A2900136827480133136040
:10AE000014236B4302939B191A00039308F02AF84A
:10AE1000039B0590596880231B01994205D3802329
:10AE200000249B0599426441013414235D43029A36
:10AE300075190832B2182B7C00200092220001F014
:10AE40002DFB2B7A6A7A1B0612049B18AA7A12022F
:10AE50009B18EA7A9B183B60059B002BB5D0C04637
:10AE6000B3E70E4A13680133136008F095FE0C4BEC
:10AE70001B68C01A0B4B18600B4B5E550B4B1A68C6
:10AE80009042A2D91860A0E72C11002024110020C4
:10AE9000341100202811002070840100301100209E
:10AEA0000C12002008120020FC11002004120020C7
:10AEB00007B50122054B1A7003F058FE0190C046F9
:10AEC00001A8FFF735FFC04607BDC046201100208E
:10AED00070B52F4E3368002B02D00120404270BD68
:10AEE0002C4D2D49280007F08FFE041EF5D10200DD
:10AEF0002A49280008F012F868680125220028492C
:10AF0000C0B203F041FE02210B20356006F02AF9A1
:10AF100002210A2006F026F9012309221621200029
:10AF20005B42FFF7D3FE002801D0C046D5E70423DB
:10AF3000C02108225B42C900FFF7C8FE0028F4D1F7
:10AF4000FF238C21072228001B028901FFF7BEFE88
:10AF50000028C2D106222800124B1349FFF7B6FE83
:10AF60000028BAD1FF238C21052228001B02890169
:10AF7000FFF7ACFE0028B0D10123042228000B49C2
:10AF80005B42FFF7A3FE0028A7D1C046A7E7C04653
:10AF900000120020708401003C840100B5AD000067
:10AFA000B1AE0000FFFEFFFF698CFF18548CFF1844
:10AFB00070B50A4D2B68012B02D00120404270BDB4
:10AFC000074807F08BFE041EF7D102222100054836
:10AFD0000CF02AFE20002C60F1E7C0460012002091
:10AFE00070840100FC110020F0B514000D008DB03C
:10AFF00007AE14220021039030000CF015FE039BD5
:10B000002200290009A8736034740CF023FE032386
:10B0100002933A4B1D78002D03D05A78002A3CD178
:10B02000012501215955002380211800039C0901A5
:10B030008C42584105AA138093701371304BD07025
:10B0400029001800019307F061FE320029000198E1
:10B0500007F0CEFE08F0A0FD2A4F386029000198C5
:10B0600007F03EFF041E15D12749284809F0AAFA27
:10B0700008F092FD264B0100180009F0A3FA210008
:10B08000244809F09FFA244809F09CFAC0462000A1
:10B090000DB0F0BD012829D1C046029B013BDBB2B7
:10B0A0000293002BB5D11D4C2378012B07D101F061
:10B0B0003DFB002801D101F035FB00232370C04681
:10B0C0001149124809F07EFA08F066FD104B0100A4
:10B0D000180009F077FA01211148494209F072FA83
:10B0E0000D4809F06FFA01204042D1E708F054FD05
:10B0F0003B68C01A0128B1D9CEE7C046FC11002038
:10B10000708401000C120020268401007C7C010068
:10B11000897C01000E7E0100A07C0100201100202E
:10B1200020840100074B10B51C68002C07D10122B8
:10B13000202005491A6007F00AFC200010BD0120FC
:10B140004042FBE710120020E0FFFF1F10B5D2B213
:10B1500007F01AFC10BD10B50C0007F020FC01230D
:10B16000E040184010BD01238B4010B5190007F0D6
:10B1700014FC10BD284B70B55A68284D8A4227D15F
:10B180001B78834224D101220321254807F0EFFBDD
:10B1900001220321234807F0EEFB0022032121486E
:10B1A000FFF7D4FF00242B789C4205D30322110023
:10B1B0001B4807F0DCFB70BD01220321194807F092
:10B1C000E3FB00220321174807F0DEFB0134EAE726
:10B1D00001220221144807F0CAFB01220221134870
:10B1E00007F0C9FB002202211048FFF7AFFF00243F
:10B1F0002B789C4203D3052202210B48D9E7012278
:10B2000002210A4807F0C0FB00220221074807F08C
:10B21000BBFB0134ECE7C04658120020D0FEFF1FF4
:10B220000090044000F00F4000C00440C0F00F4008
:10B2300013B50B4C2368002B01D0002016BD094A22
:10B24000094901AB09481A804B6107F0A1FE0028AB
:10B2500002D001204042F1E701232360EDE7C04620
:10B260001812002006070000C0FFFF1FD8FFFF1FB5
:10B2700010B5084C2368012B01D0002010BD0648F2
:10B2800007F040FF002801D12060F6E7012040428E
:10B29000F4E7C04618120020D8FFFF1F10B5094C74
:10B2A0002368002B01D0002010BD0749074807F094
:10B2B0006FFE002802D101232360F4E70120404201
:10B2C000F2E7C0461C120020A8FFFF1F5812002002
:10B2D00010B5084C2368012B01D0002010BD064892
:10B2E00007F010FF002801D12060F6E7012040425E
:10B2F000F4E7C0461C120020581200200F4B73B513
:10B300005A680C00C5B291420DD11E78AE420AD1E6
:10B31000FFF7DEFF002803D121003000FFF72AFFEE
:10B32000FFF7BCFF76BDFFF7A3FF002803D1210084
:10B330002800FFF71FFFFFF77BFFF3E758120020FD
:10B34000F0B5160087B000930CAB1B8802900391F8
:10B350000022310002A80193032407F003FF012318
:10B36000019A009902A807F08DFE0023144D059361
:10B37000288008F011FC2B880700002B10D00399BF
:10B380000298013CFFF7BAFFE4B20022310002A8A4
:10B3900007F0E8FE002CE2D10120404207B0F0BDEA
:10B3A00005A902A807F0FAFE2880022804D108F0B7
:10B3B000F3FBC01B6328F3D928880028DFD1EDE711
:10B3C00014120020F0B517260024012789B01D00B3
:10B3D00004900591039208F0DFFB02ABF61834707D
:10B3E000AC4202D3012040420AE001343300039A08
:10B3F000049805990097E4B2FFF7A2FF0028EFD167
:10B4000009B0F0BDF0B58DB0039312AB1B8801926B
:10B41000049314AB1B88069007910022019906A89B
:10B420000593032707F09EFE0AAC06AD23002A0011
:10B4300003CA03C30A21039B49190B80049A002302
:10B44000200007F01FFE214B18800023099308F00D
:10B45000A3FB0600200009A907F0A0FE1B4B1880E3
:10B46000022804D108F098FB801B6328F2D901233D
:10B47000059A1399200007F025FE144B188000232D
:10B48000099308F089FB0290200009A907F086FEC5
:10B490000E4E3080022805D108F07EFB029BC01AB8
:10B4A0006328F1D9308800280ED069680698013FDA
:10B4B000FFF724FFFFB200222800019907F052FE97
:10B4C000002FB2D1012040420DB0F0BD1412002077
:10B4D0001A4B01229B6859080800104011422CD1D8
:10B4E00099080220114228D1D9088018114224D18C
:10B4F00019098018114220D15909801811421CD114
:10B5000099098018114218D1D9098018114214D113
:10B51000190A8018114210D1590A801811420CD111
:10B52000110080185A0508D4DA0A40180A4204D1DA
:10B530005B0B0B400230C01AC0B2704700F00740EE
:10B5400010B5054C2378002B05D10449044807F0B9
:10B5500041FE0123237010BD20120020E8020020CC
:10B56000E002002010B5054C2378012B04D10448DB
:10B5700007F006FF0023237010BDC04620120020F4
:10B58000E002002070B50F4D2E68002E01D0002083
:10B5900070BD01211A2005F0E5FD0B490B4807F0AD
:10B5A00031FF0123040032000321094806F0F6FBB5
:10B5B0000443A4B2002C02D101232B60E7E7012051
:10B5C0004042E5E7241200200C0300206012002016
:10B5D00000C00240F0B5042585B0019002910392AD
:10B5E000154F039B029A0199380007F053FF134C43
:10B5F000208008F0D1FA23880600002B07D0013DF7
:10B60000EDB2002DECD10120404205B0F0BD380074
:10B6100007F060FF208008F0BFFA801B632806D87F
:10B62000380007F057FF20800028F4D1C04620885A
:10B630000028E4D1E9E7C046601200202212002071
:10B6400070B50A4D2C68002C0AD103210C2005F09E
:10B6500089FD0749074808F065F80123002802D052
:10B6600001240023644220002B6070BD28120020BA
:10B67000280300207884010010B500F0FBF910BD0C
:10B6800037B5002300220D4D0092019300216A4638
:10B69000280008F069F9041E0CD1009A019B0021D2
:10B6A0000748F5F7F5FC05210200280008F006F927
:10B6B00020003EBD01204042FBE7C04678840100E7
:10B6C00000E1F50510B5084C2368002B02D00120DD
:10B6D000404210BD0549064808F000FA0028F6D19E
:10B6E00001232360F5E7C0462C120020808401006E
:10B6F0008C84010010B5024808F01AFA002010BD31
:10B700008C840100024B98688006C00F7047C046C9
:10B7100000F00740C046704710B501F02BF910BD8E
:10B7200010B5002000F02AF90338431E9841C0B23A
:10B7300010BD10B5002000F081F810BD37B5002411
:10B74000084B0D0001AAC11820000423019400F049
:10B75000BDF8041E04D10422280001A90CF07AFAD5
:10B7600020003EBD00C0FFFF13B56A46084B0C0029
:10B770001B781371074B01AAC1180123002000F0A8
:10B78000A5F8002802D16B461B79237016BDC04670
:10B79000A17C010000C0FFFF7FB50026040015005A
:10B7A000012001910396042A0AD801A903A80CF0EC
:10B7B00051FA044B3000E11803AA2B0000F0A3F863
:10B7C00004B070BD00C0FFFF30B5002485B0050097
:10B7D0001300012001910394042A0AD801AAD11868
:10B7E00003AA01399C4206DB05490020691800F0D4
:10B7F0008AF805B030BD087810550134F1E7C0462D
:10B8000000C0FFFF37B5012205000C00FFF7C4FFA1
:10B81000002801D001203EBD6A46074B28001B7856
:10B8200001A91371FFF7A0FF0028F4D16B461B7923
:10B83000A342EFD1EFE7C046A17C0100034B185CA7
:10B840000138431E9841C0B27047C04630120020F4
:10B85000F0B5134F06012021F059C1B008F031FFB7
:10B8600000240500BB19DB6800219C4205D30800B9
:10B8700001E0C046012041B0F0BDFC2201A80091CA
:10B880000CF0D2F9802269462002520008F04AFFEB
:10B8900005436DB2002DECD10134E4B2E2E7C046BD
:10B8A00034120020084B00011B1810B55C68022000
:10B8B0008C4208D89B688B4205D3521801339342BF
:10B8C00080414042400010BD34120020F8B51D00F8
:10B8D00006000C001700FFF7B1FF03000120002B4A
:10B8E00007D12A0021003000FFF7DCFF002801D03B
:10B8F000C046F8BD2A003900200008F087FF431E2B
:10B900009841C0B2F5E7F0B506000C000021C3B0C5
:10B91000019203A8FC221D0002910CF085F9300071
:10B92000FFF78CFF03000120002B07D12A00210024
:10B930003000FFF7B7FF002802D0C04643B0F0BD8B
:10B94000FF2726008022BE43520002A9300008F0E3
:10B950005DFF3C4002ABE0182A0001990CF07AF937
:10B960008121300008F0ADFE80223000520002A993
:10B9700008F0D8FE431E9841C0B2DFE7F0B585B0AD
:10B98000002802D0042005B0F0BD354D354B012212
:10B99000AB601023EB6002AB190018802860686070
:10B9A00008F034FF012202AB04009918A86808F0DF
:10B9B0002DFF044364B2002CE4D102AB1B78AA2B08
:10B9C0000FD102AB5B78552B0BD10122264B1A709D
:10B9D0002B689A18254903205B1821494A608B601F
:10B9E000D1E70020FFF734FF061ECBD10125204B05
:10B9F00003AA1B4F13801C4B396801931D702B0049
:10BA0000FFF781FF02AA04002B003000B96805325D
:10BA1000FFF779FF019B0443E4B21E70002CB1D103
:10BA200002AB19002A0038681C8008F0EFFE02AB58
:10BA300004002A00B868591908F0E8FE044364B20B
:10BA4000002C9FD102AB1B78AA2B9BD102AB5B7859
:10BA5000552B97D1019B1D703B685A19BAE7C04618
:10BA600034120020FF0F000030120020FE0F0000F3
:10BA7000AA550000F0B5F4498FB0F44808F0A2FDD3
:10BA800008F08AF8F24B0100180008F09BFDF1481D
:10BA900008F098FDF04808F095FD002608F07CF8C5
:10BAA000EE4BEF4C1E70049000F054FEED4BEE4D4B
:10BAB0001A78EE4BEE4F1A702A00663212785A70DE
:10BAC0002A00623212789A702A0064321278DA7090
:10BAD0002A00653212781A712A00633212785A717C
:10BAE0002A00773212789A712A0076321278DA7147
:10BAF0007300DA5B0136E252142EF9D12200DD4BDD
:10BB0000AF321978DC4E117022005978B0321170C2
:10BB100022009978B13211702200D978B2321170B6
:10BB200022001979B332117022005B79B43213709C
:10BB3000D24B1B785A1E93412200A5321370D04B72
:10BB40001A782300B6331A703378012B09D100F02C
:10BB50007BFDCC4B1B68C01ACB4B984201D900230C
:10BB6000337023003278B5331A702B005D331A78A6
:10BB7000C64BC74E1A70C74B1A782300A1331A70F0
:10BB800022000023A63213702200B7321370220065
:10BB9000C14BAE321B7813703B00AE331A782300D2
:10BBA0009D331A703B00AF331A78230031789E33EF
:10BBB0001A700123B94A002901D11378DBB22100A0
:10BBC000AD310B701178B64A13780B431370B54A38
:10BBD000317813780B43591E8B41DBB21370B24A94
:10BBE000337811780B4313703B00B04AC3331B7892
:10BBF00011780B431370F6F7B1FFBB6C002B00D12B
:10BC0000D7E1BA6CAA4B9A4200D9D2E13121B86C83
:10BC1000F5F738F80BF010FFA64AA74B0BF03EF8EB
:10BC20000022A64B0AF092F8802300900191009A1E
:10BC30001B061000019AD1180BF094FE0023BC34AF
:10BC400020608B4CE95CE218503201331170142BE8
:10BC5000F8D15E222300AA56B0331A705F22230067
:10BC6000AA56B1331A702200954B6A32198A686A53
:10BC700011802200598A6C3211802422995E2200A0
:10BC80006E32118022229A5E230070331A8009F0EE
:10BC9000AFFF8C4B60671A68231DDA678A4B1A68FE
:10BCA000230088331A60AB6AE367884B1A68230065
:10BCB0008C331A6023002A6D9C331A6023006A6D4E
:10BCC000A0331A602300AA6DA4331A602300EA6C23
:10BCD000A8331A602B002C331B785A1E9341220084
:10BCE000DBB2B23213702B002D331B785A1E9341F6
:10BCF0002200DBB2B33213702B002E331B785A1E96
:10BD000093412200DBB2B43213702B002F331B7827
:10BD10005A1E93412200DBB2B53213702B00303330
:10BD20001B785A1E93412200DBB2B73213702B00EE
:10BD300031331B785A1E93412200DBB2B8321370A4
:10BD40002B0032331A782300BA331A702B003333A6
:10BD50001B785A1E93412200DBB2BB3213702B00BA
:10BD600034331B785A1E93412200DBB2BC3213706D
:10BD70002B0035331B785A1E93412200DBB2BD32B3
:10BD800013702B0036331B785A1E93412200DBB20E
:10BD9000BE3213702B0037331B785A1E934122009A
:10BDA000DBB2BF3213702B0038331B785A1E93411D
:10BDB0002200DBB2C03213702B0039331B785A1EBD
:10BDC00093412200DBB2C13213706B1CDA7F230077
:10BDD000C3331A702200314BC4321B786035DBB29A
:10BDE000137033785A1E93412200DBB2C5321370B0
:10BDF00023002A78C6331A70354A197813780B4312
:10BE0000137007F0C9FE334E334D3368C01A334BFD
:10BE10001A78FA239B005343984205D90122304BEC
:10BE20001A6007F0B9FE30602E4B15491A782E4E75
:10BE30000091012A66D100221A70F5F733FA2B4BD4
:10BE40001860009B54E0C046B58401007C7C010072
:10BE5000897C010094840100A07C0100C0070020BF
:10BE600014070020F906002098060020BC120020CC
:10BE7000280B00200C0B00201F0E0020650A00205C
:10BE8000A0120020DC1200203F9C00001E0E0020AB
:10BE9000C4120020E40A002096120020670A002045
:10BEA000210E0020200E00208B1200208A1200207C
:10BEB0008F5F0100EC51B81E85EBC13F0000694067
:10BEC000FC070020940A00208C0A0020900A002021
:10BED0001D0E0020B4120020980A0020C60A00207F
:10BEE000B8120020B0120020A1120020A8120020D9
:10BEF0001B78012B06D03378012B03D02E352978FF
:10BF0000F5F7EEF9C0463378324D012B1BD10021F5
:10BF10001E2206A829700BF087FE2F4F2F4B396881
:10BF20001B68994247D8002945D02300B0331B78BD
:10BF3000002B47D0C0462A4B1868F5F7DFF90023DD
:10BF4000337001332B70009B254A1B78002105922A
:10BF5000012B00D081E21E2206A829700BF064FE9E
:10BF60001F4F204E3A6833689A4200D97AE01E4B40
:10BF70001D781E4B1B780393012B0AD11C4B1868AC
:10BF8000F5F764F9013000D003950022174B039DAB
:10BF90001A70124A33681268934201D8002B2BD1D1
:10BFA000C046B0342378002B00D0C046C046386865
:10BFB00048E0104842E6C0462300B0331B78002B0F
:10BFC000B8D1B8E706A8F5F71BF9396806A8F5F760
:10BFD00079F9B0E744030020A4120020A812002041
:10BFE0009C120020AC1200208D1200209412002020
:10BFF0009012002070FEFFFF2300B0331B78002B4F
:10C00000D3D1002D00D016E21E22290006A80BF085
:10C010000BFE06A8F5F7E2F8E54B06A81968013112
:10C020001960F5F74FF9E34B002800D0F0E11A68EA
:10C0300001321A60E04A1570C046186833689842A9
:10C0400000D201E2F5F75AF90023059A1360DB4AA2
:10C050001360009A1370D64A1360F5F713F90122A2
:10C06000D74B1A70D64B1B78012B00D070E1D54B03
:10C070001E68012E00D06BE10022D34C1A60002113
:10C080001E3220000BF0D0FDE121D04D0901E86FF8
:10C09000F4F7F8FD09F018FE2B007833071C188818
:10C0A00080B209F0C5FD011C381C09F0D9F8C84957
:10C0B00009F0BCFA2B000390B2331A78637D32404A
:10C0C000B343134363752B000227B3331A78637DA0
:10C0D00032405200BB43134363752B00B4331A78CC
:10C0E00004213240BA40637D08208B4313436375BB
:10C0F0002B00B5331A78637D3240D200834313435B
:10C1000063752B00B7331A78637D32408A400C3157
:10C110008B431343AF4A63752B001278B833511E1B
:10C120008A411B7892015B011A43AB4B00931B7849
:10C13000591E8B411F21DB011343627D0A401343CB
:10C1400063752B00BA331A781B39531E9A41A37DAD
:10C15000B3431343A3752B00BB331A78A37D32403E
:10C160005200BB431343A3752B00BC331A78A37D45
:10C170003240BA408B431343A3752B00BD331A786A
:10C18000A37D3240D20083431343A3752B00BE33FB
:10C190001A78A37D32408A400C318B431343A37538
:10C1A0002B00BF331A78A37D1031324052018B43EC
:10C1B0001343A3752B00C0331A78A37D203132407E
:10C1C00092018B431343A3752B00C1331A78A37DCF
:10C1D0003F31D2010B401343A37507F0DDFCFA2178
:10C1E000030A20706370030C000EA370E0708900D6
:10C1F000E86CF4F7D1FD83B21B0A63742B00207442
:10C200006A331B880421A3711B0AE3712B006C3372
:10C210001B8823711B0A63712B006E331B88A3726A
:10C220001B0AE3722B0070331B8823721B0A637294
:10C23000EB8F23731B0A6373EB19DB8FA3731B0A4A
:10C24000E3732B00AE331A78E37D3240B3431343DC
:10C25000E3752B00AF331A78E37D32405200BB43C5
:10C260001343E3752B00AC331A78E37D3240BA40B8
:10C270008B431343E3756B18D86F08F065FD2B00F3
:10C280002A0008338832A0741068D96F08F0E8FFDC
:10C290004F4909F0CBF908F057FDE074039808F016
:10C2A00053FDFA2120758900A86CF4F7EBFC83B2EA
:10C2B0001B0A637600232076A676E676A27E5800D7
:10C2C000013A52002E5AAA5A591CC9B2964201D2BA
:10C2D000A176C046E27E285A013A5200AA5A9042FC
:10C2E00001D9E176C0460133142BE7D1133B6377C4
:10C2F000237700233448190018314A00AF5A627F6F
:10C300003FB217325200AE5A5A1C36B2D2B2B742BE
:10C3100001DD6277C04649006E5A017F36B217319F
:10C320004900695A09B28E4201DA0277C0460133E8
:10C33000072BE0D1C046F4F73FFF284B002800D17F
:10C3400098E001221A70264A137801331370C04610
:10C3500007F022FC049B234AC41A1168224B1C607C
:10C36000224B8C4203D91968002900D11460204A5D
:10C37000186811688C4202D9032800D914601D4A3C
:10C3800011688C4200D21460461C1B4D1E6009F0DF
:10C390009BFC296809F04AF9071C200009F094FC6D
:10C3A000011C381C08F0D2FD041C300026E0C046F9
:10C3B000981200209C1200208C120020AC12002049
:10C3C00044030020B81200206C120020280B00202B
:10C3D0000000C8428A1200208B1200209612002012
:10C3E00095120020D4120020CC120020C812002088
:10C3F000D812002048030020D012002009F064FC6D
:10C40000011C201C08F02CFF2860C0460FB0F0BDB6
:10C410001D4930680A780A250132D2B20A706428B0
:10C4200000D8093D1949AA4201DB1860C046C04640
:10C4300018680B6803E6C04638683368984200D332
:10C4400000E6012D00D1FDE507F0A6FB049BC01A14
:10C450005A2800D884E5C04604E6059B19600B4BBA
:10C460001960009B19700A4B1960F4F70BFF012348
:10C470002B70F7E5009A18701070064A1070064A83
:10C4800013680133136063E78C120020AC120020A4
:10C49000981200208A12002068120020F7B50D00C3
:10C4A0004848494916001F00089C08F08BF807F01F
:10C4B00073FB464B0100180008F084F8290044483B
:10C4C00008F080F8434808F07DF800233A00210086
:10C4D0006846009301930BF0BDFBEF223E4B120424
:10C4E0002B40934210D16B461B78102B07D0012EA6
:10C4F00004D1082269462800FDF72AFFF7BD07F09E
:10C500004BFBFEF7B5FBF2E7012E04D1082269468A
:10C510002800FDF71DFF314BE81803284DD8F4F72C
:10C52000A7FB020A38472E4B1B78002BE6D12D4B78
:10C5300001221A70E2E72A4B1B78002BDED1C0469D
:10C54000294D0422210028000BF084FB274E0422F1
:10C550003000211D0BF07EFB33682A689342CDD852
:10C5600001219942A4412248644201701D48017092
:10C5700020480470002B00D10B000132D21A336026
:10C5800000232A601C4A13601C4A13601C4A137063
:10C59000B4E7C046164B1B78002B09D104222100BA
:10C5A00018480BF057FB0122174B1A700D4B1A70ED
:10C5B000E379FF2BA2D1124BBAE7162D9ED1134B74
:10C5C000B6E7C0467C7C01009F840100897C0100A5
:10C5D00099840100A07C01000000FF0300FAFFFF26
:10C5E000D80B0020B0120020AC12002090120020C6
:10C5F000A012002094120020981200209C1200200B
:10C600008D120020A4120020A1120020F00B0020A7
:10C6100010B500230121044A044801F033F8002139
:10C62000080001F03BF810BD54120020D4FEFF1F9B
:10C6300010B5FFF7EDFF012007F0A0FA002010BDB4
:10C6400010B507F09BFA10BD10B507F0A5FA10BDA4
:10C6500010B5FEF767FD10BD10B5FEF777FD10BDF4
:10C6600010B50122FEF772FD10BD10B50022FEF7D5
:10C670006DFD10BD10B5FEF76EFD10BD10B5FEF7D7
:10C6800072FD10BD10B5034C02000B0003CCFEF789
:10C6900099FE10BDD8FFFF1F13B5044C00920B008C
:10C6A000020003CCFEF74CFE16BDC046D8FFFF1FAC
:10C6B0001FB502930123054C0192009302000B0069
:10C6C00003CCFEF79FFE04B010BDC046D8FFFF1F8D
:10C6D00010B5FEF7E3FD10BD10B5034C02000B00D2
:10C6E00003CCFEF76FFE10BD5812002013B5044CAA
:10C6F00000920B00020003CCFEF722FE16BDC046DE
:10C70000581200201FB502930123054C019200939B
:10C7100002000B0003CCFEF775FE04B010BDC0464E
:10C720005812002010B5FEF7D3FB10BD10B5FEF770
:10C730003FFC10BD10B5FEF757FC10BD10B5FEF75D
:10C740007FFF10BD10B5FEF79BFF10BD10B5FEF7C3
:10C75000B9FF10BD10B5FEF7CDFF10BD10B5FEF747
:10C76000D1FF10BD10B5FEF7D5FF10BD10B5FEF717
:10C77000D3FF10BD10B5FEF7E3FE10BD10B5FEF7F8
:10C78000F1FE10BD10B5002804D10B210548FFF7BC
:10C790006CFF10BD0128FCD10B210248FFF760FFA0
:10C7A000F7E7C04600F00F4010B5002804D10C2177
:10C7B0000548FFF75AFF10BD0128FCD10C210248A3
:10C7C000FFF74EFFF7E7C04600F00F4070B5094D88
:10C7D000002228000B2106F0CEF828000B21FEF7DE
:10C7E000BAFC0400012228000B2106F0C4F8E0B2D4
:10C7F00070BDC04600F00F4010B5FEF7C3FE10BD7F
:10C8000010B5FEF7E7FE10BD002310B589180139F9
:10C810009A4200DC10BD0C78C4540133F7E70023C2
:10C8200010B59A4200DC10BDCC5CC4540133F8E76B
:10C8300010B500F09FF810BD10B5FEF749FE10BD11
:10C8400010B5184CFFF7F4FEFFF780FFFFF700FF6D
:10C85000200001220221FFF7FFFE002201211248E1
:10C86000FFF7FAFE012205211048FFF7F5FE01222D
:10C8700009210F48FFF7F0FE200000220821FFF7F2
:10C88000EBFE002207210B48FFF7E6FE01220E21F6
:10C890002000FFF7E1FEFFF71BFFFFF74FFFFFF759
:10C8A000ABFF10BD80F00F40C0F00F4040F00F40D4
:10C8B00000F10F4000F00F4010B5FFF743FF10BD2F
:10C8C00010B5FCF7E5FF10BD1249134A70B5521AB6
:10C8D00012480BF0BFF91249124A1348521A0BF0D2
:10C8E000B9F9124A12480021121A0BF09DF91149A8
:10C8F000114A1248521A0BF0ADF9114C1149124D60
:10C900008C4205D0114A2000920892000BF0A2F947
:10C910002C6070BD34880100848E0100C0FDFF1FB3
:10C92000848E0100848E010010040020D81B00209A
:10C9300060050020848E01002C8F010000FCFF1F89
:10C9400000FDFF1F0008000008ED00E0C00000002F
:10C95000044B054A5A605A68044A1A60044A9A60AD
:10C960007047C0460020054020C528D9202100007E
:10C97000FFFF000003480449044B425892B213439E
:10C980004350704700E000E00C0D00000400FA0581
:10C99000064B02205B69DBB2042B06D00130802BF2
:10C9A00003D01800012B00D00420704700E007409E
:10C9B000054B5A68802310005B0418401A4201D0CE
:10C9C000024B18687047C046FC400640E012002049
:10C9D0008022094B9200995880220800520410408E
:10C9E000114208D0822292009A5801231000184068
:10C9F0001A4200D0014870470040064000127A00F9
:10CA0000C022074B9200995880220800520410401F
:10CA1000114203D0C22292009B5802487047C04680
:10CA200000400640006CDC0270B5144C0500236920
:10CA30001B011B0F022B12D0032B13D00020012B44
:10CA400001D1FFF7B5FF0F262169090C31400131F3
:10CA5000F4F718F9012D08D0022D0DD070BDFFF7A5
:10CA6000B7FFF0E7FFF7CCFFEDE721690909314097
:10CA70000131F4F707F9F1E72169F8E700400640D2
:10CA800010B501291ED0052807D0062814D0FFF7BD
:10CA90009FFF81230200184904E0FFF7B1FFC12383
:10CAA000020015499B00C85807231840002802D0EF
:10CAB0000138C240100010BDFFF77AFF0F4B020093
:10CAC0009868F1E7052807D006280FD0FFF780FF08
:10CAD00081230200084904E0FFF792FFC12302000E
:10CAE00005499B00CB585B05580FDFE7FFF760FF58
:10CAF000024B02009B68F6E700400640FC400640FF
:10CB00000C4A13691B079B0F022B07D0032B0DD078
:10CB10000020002B09D1FA20400206E01269100023
:10CB200018401A4201D0FA20C0017047022312694E
:10CB3000F5E7C046008004400C4B00201B6A10B58E
:10CB40001B011B0F032B07D81800F4F791F80206FE
:10CB5000090C0220FFF768FF10BDFFF729FFFBE774
:10CB6000FFF736FFF8E7FFF74BFFF5E70040064019
:10CB70000F4A10B513699B069B0F022B11D0032B94
:10CB800012D0012B04D000210620FFF779FF07E027
:10CB900012690223100018401A4201D0FA20C00185
:10CBA00010BD044B1868FBE700210520EDE7C046E7
:10CBB00000800440E412002010B51E4C80236268FF
:10CBC0001B01100018401A4216D060680006000FC2
:10CBD0000E282CD8F4F74CF8112B142B192B1C1FF2
:10CBE0002B23082B252B2800FA20400261684905D9
:10CBF000490F0131F4F746F810BDFFF79DFFF5E747
:10CC000001210620FFF73CFFF0E701210420F9E7AE
:10CC100001210520F6E70020FFF706FFE6E70120E7
:10CC2000FAE7FFF76DFFE1E7FFF7A2FFDEE700207D
:10CC3000DCE7C04600800440154B4000C35A154A4B
:10CC40009B0070B59B1801260F221C681D682409E3
:10CC5000002034401540A54214D31A68920F324286
:10CC600010D01B685B015B0F022B0CD0032B0CD088
:10CC7000B34202D10630FFF703FF691CF4F702F854
:10CC80000134604370BD0420F5E70520F3E7C0469A
:10CC9000AE85010000500640F0B5060085B00029C1
:10CCA0000AD16B4619732F4B6A4600932E4B694687
:10CCB00001930223FF3313812C4B01245A68022075
:10CCC000520E1700274022420BD15A682848294D9E
:10CCD00002405A608022D2045A602F60002E02D196
:10CCE000002005B0F0BDE02007264A7AC0001202FD
:10CCF0000240087A3040024330209A60CA790136F7
:10CD0000120102408879C000304002434879043E55
:10CD1000800030400243DA600A79012A12D0022AE8
:10CD200016D0002A03D10A7BD20514435C600B683D
:10CD3000114C2B60FFF73CFE00280FD1002C0BD1CB
:10CD40000330CEE7087B0D4AC00502435A60EEE788
:10CD5000087B0B4AC005F8E7013CEBE7002CBFD18C
:10CD60000320BEE700127A0000010002FC400640EA
:10CD7000FFFF7FFFE012002088E730000100010084
:10CD800001000300F7B5060000290BD180236A4695
:10CD90005B009380022391716946FF331380013B4E
:10CDA000FF3B937080221F4B92009D5801246D0E13
:10CDB0002F0002202740254207D198581A4D2840BD
:10CDC00098509F50002E01D10020FEBDE020072585
:10CDD0008A78C0001202024048782840024381202D
:10CDE00080001A500A78043022401A5048798A7913
:10CDF0000979002900D003248021D2058000024354
:10CE00002243642489005A50FFF7E2FD002805D12F
:10CE1000002C01D10330D8E7013CF5E7002CD3D139
:10CE20000320D2E700400640FFFF7FFF37B5040034
:10CE3000002908D16A460123917153718022694605
:10CE400052000A808B70C0221E4B92009D58022017
:10CE5000AD0109D498581C4D284098508020C0043A
:10CE60009850002C01D100203EBDE02007248A7894
:10CE7000C00012020240487820400243C1208000D6
:10CE80001A5003200A780240C22080001A504879C4
:10CE90008A790921002800D00839D2050A43C02127
:10CEA000142489005A50FFF7ABFD002805D1002C4F
:10CEB00001D10330D8E7013CF5E7002CD3D10320A2
:10CEC000D2E7C04600400640FFFF7FFFF0B585B0C7
:10CED00001930AAB1C78019B07005E1C1300013311
:10CEE000734302934B1C73430D0000920393022C77
:10CEF0003ED0032C3FD0012C06D0012856D0002074
:10CF0000022F10D0002049E0FFF752FD0009012F49
:10CF100034D0022FF6D10C2262432F4BD3581B0979
:10CF20005E43B04239D80C2262432B4B02999B18C6
:10CF30005A681209514381422FD39B68039A1B09F7
:10CF40005A43824229D3F02324061B051C400F2399
:10CF5000FF221D40009B2C431B011340F0221C4369
:10CF6000019B12031B0413401C431C4B9C61C9E72B
:10CF7000FFF72EFDCAE7FFF743FDC7E70C2161432A
:10CF8000174BCA5812097243904206D85B185A6868
:10CF9000029912095143884202D9012005B0F0BD1F
:10CFA0009B68039A1B095A439042F6D8F023240643
:10CFB0001B051C400F23FF222B401C43009B1B0121
:10CFC0001340F0221C43019B12031B0413401C431B
:10CFD000024B5C6196E7C046C084010000400640F9
:10CFE0001485010037B50400FFF7D2FCE578A3787B
:10CFF000627821780095FFF769FF00280FD10A2297
:10D000000F25E178064C2369013A1B0E2B408B4219
:10D0100003D0002AF7D1032001E0002AFBD03EBD57
:10D0200000400640F0B50700A7B0002823D0CE4E40
:10D030003C0033691B011B0F032B0FD0FFF7E0FCF3
:10D04000011E04D10120FFF7F1FE051E10D1C74BD0
:10D0500007A80793FFF7C6FF051E09D1FB7821003B
:10D0600018000393FFF78EFE051E4ED0FFF790FCCD
:10D07000280027B0F0BD8024012208AB6400099489
:10D080009C83BB4C14AD0C94BA4C2A700D9412AC1A
:10D0900022700AACE777C02424031094B64C04AD88
:10D0A0001594B64C02211694B54CFF319C87B54CB3
:10D0B0009A812494162423943D3464192270B24C2E
:10D0C0009A731A941BAC22707B24641922701CACD6
:10D0D0001992227021AA11807622AC485219139716
:10D0E0001D971E971F970890198119839984209086
:10D0F000118022AA17807A225219177025AA11804E
:10D100008622521917701F0091E739007B7F10317A
:10D1100018000493FFF7C0FD3C0005000590FFF7E1
:10D1200037FC3634012803D00434022800D0002410
:10D13000059B002B9CD1E378032B00D001E1049BDD
:10D14000002B00D0EFE0039B0125002B00D18FE7DF
:10D150008F4B07A80793FFF745FF0500002D00D070
:10D1600086E7B87BF91DFFF761FE051E00D07FE75B
:10D17000032307A8C370A378837063784370237870
:10D180000370FFF72FFF051E00D071E73B0030331F
:10D190001B78002B02D07F4BFA6A1A603B003533B4
:10D1A0001B78002B0BD0326A7B4BF0211A403B00DE
:10D1B00034331B7809051B060B40134333623B00D5
:10D1C00043331B78002B00D0F4E03B6F002B00D0E2
:10D1D00017E13B0044331A78002A12D0FF246F482D
:10D1E0006F4A416811405A78D2020A43997809017E
:10D1F0002140E0241143DA78E400120222400A437D
:10D2000042601A79002A13D03F210C246348026936
:10D210008A43197A1143DA7952000A4399798900CD
:10D22000214011435A792434120122400A430261F9
:10D230001A7F002A26D00121584A106C8843597F52
:10D24000014311640221106C8843997F4900014316
:10D2500011640421106C8843D97F89000143116453
:10D260000821106C884339004531C97FC90001434A
:10D2700011641021106C884339004631C97F0901BF
:10D28000014311641B7B002B06D0464B7A6D1A605C
:10D29000BA6D5A60FA6D9A603B004733DB7F002B12
:10D2A00023D000203D4A8024936E906651683E4B07
:10D2B000640119403B004933DB7F1B0323400B43D0
:10D2C00053603B0090664833DB7F83420DD03B00C8
:10D2D0000E214A33DB7F5B000B4039004B31C97FA5
:10D2E0000B43802149050B43936638007430037863
:10D2F000002B00D1BCE67F212C4A447893780B4068
:10D300007E396140C9010B43DBB293700223C356DF
:10D31000002B01DA20335BB21F20117903408143D7
:10D320000B431371A4E6224B07A80793FFF75AFE9D
:10D33000039B0500002B00D110E7012800D00DE76A
:10D3400006E707A8C370A3788370637843702378D7
:10D350000370FFF747FE051E00D089E6B87BF91D74
:10D36000FFF764FD0FE7C0460040064003010003DD
:10D3700000127A0000010002030101010003030012
:10D38000010200004C030020010000010101010125
:10D3900001000002E4120020FFFFFFF000800440C3
:10D3A0000FF0FFFFE8120020FFEFFFFF00D0074063
:10D3B0000101000138003B003A00390039300078A3
:10D3C0003833373236311B781278097800900120D3
:10D3D000FFF77CFD002812D138003B003A003900ED
:10D3E0003D3000783C333B323A311B781278097873
:10D3F00000900220FFF76AFD002800D1E5E6050055
:10D4000036E605211026FA6E4A439A189446114AC8
:10D4100003929C4500D1DCE61A7803995200515AD8
:10D420000D4A890089180A680C48E02402400F2040
:10D430000A601A79E4040240587880070243987819
:10D44000000620400243D8780533000130400243F3
:10D450000A60DEE7AE85010000500640FFFFFFBF17
:10D46000F8B506000D00112835D80F2800D9ABE01B
:10D47000F3F7FEFB080D0F55111417AA1A1D2025EE
:10D48000272A2C2F0020FFF7CFFA00243EE00120AE
:10D49000F9E70220F7E7FFF79BFAF6E7FFF7B0FAA4
:10D4A000F3E7FFF785FAF0E76E4B1868EDE7FFF753
:10D4B00043FBEAE700210420FFF7E2FAE5E7012158
:10D4C000F9E700210520F7E70121FBE7002106200D
:10D4D000F2E70121FBE7212800D978E015380C2874
:10D4E00000D971E0F3F7C4FB07171B1E212B3D4F3A
:10D4F000596165696D005C4BDB689B0100209B0FE7
:10D500000400032B02D0594A9B009858002D00D0EC
:10D5100028602000F8BD544BDB681B01EEE7FFF7E5
:10D520004BFBB2E7FFF724FBAFE70020504B0400B2
:10D530009B78DB09012BE9D0FFF7E2FAE6E7002050
:10D540004B4B04009B78DB09012BDFD0464B1A695B
:10D5500001231000184004001A42D7D0FA2080009E
:10D5600093E70020424B04009B78DB09012BCDD0D0
:10D570003D4B1A690223100018401A4200D184E77B
:10D58000FA20C00181E70020394B04009B78DB09B9
:10D59000012BBBD0FA204002B8E7334B1B6C1B09B0
:10D5A00001249C4300202402B0E72F4B1B6CDB08B6
:10D5B000F6E72D4B1B6C9B08F2E72B4B1B6C5B08B3
:10D5C000EEE7294B1B6CEBE7002004249EE70424C4
:10D5D00043289ED80020222E98D03200323AD2B270
:10D5E000112A04D8234BD340DB0700D58EE7224B0A
:10D5F0007200D35A214A9B009B585B0003D48024BD
:10D600000020640082E71E4B9F5D202338001840F5
:10D610001F4218D00120FFF707FA0028EFD0182387
:10D62000380018401F4200D12FE710243C403F072C
:10D6300010D4002CE3D001213000FFF7FDFA444262
:10D640004441240262E77B06E5D47BB2002BE6DA94
:10D650000220E0E700213000FFF7EEFA002CEED0C8
:10D66000E9E7C046E412002000800440E8120020F0
:10D6700000D0074029010200AE850100005006409D
:10D680006885010010B5044C206021710020A26063
:10D690002373637310BDC046F4120020F0B585B04B
:10D6A00003AE009001913070717003F053FD2E4D68
:10D6B00000242B7B6B730123B3702B7BA34214D804
:10D6C000009A2B689200D058FFF7ACFC009B071E15
:10D6D0006B7121D102230400B3702B7BA3422AD8A3
:10D6E00003F02CFD380005B0F0BDAB68A200D358A4
:10D6F000002B02D10134E4B2DFE71A79022AF9D013
:10D7000030001A68996890470028F3D0019B6C7329
:10D71000002BEFD10427FF370023A400B370AB68C0
:10D720001B59002B03D030001A6899689047043CBD
:10D73000231DF4D1D4E7AB68A200D358002B02D14B
:10D740000134E4B2C9E71A79012AF9D030001A6825
:10D75000996890470028F3D0019B6C73002BEFD1A0
:10D7600082277F00BCE7C046F412002010B5FFF707
:10D7700077FE10BD10B50A0000210AF055FA10BD61
:10D7800010B5054C83002068C01803685960036811
:10D7900000209A6010BDC04604130020094B82008F
:10D7A0001B6810B5D35803221040074A1077D07772
:10D7B000002B06D05A68002A03D0197B9868C9B29A
:10D7C000904710BD041300200080004070B5032472
:10D7D00005000D4E044000222100300000F0D0FA78
:10D7E0000A4BAD001B68EB58002B0BD0012234779D
:10D7F000F477B4771A735A68002A03D0197B9868B3
:10D80000C9B2904770BDC04600800040041300209C
:10D81000F0B501248BB0099310AB1B7808920593E7
:10D820002300059A0690934004936B460791119844
:10D83000197CF3F7ADFA20000D1E5CD10323069A84
:10D84000334F1A4011003800039200F09FFA8021F4
:10D85000039B09025C012F4BE619E218138838007C
:10D860009B049B0C0B43138080223B6803999343DA
:10D870003B608023089A5B01F250274B099AE3181A
:10D880001A60059B2A00019300932B0000F0B6FA62
:10D89000079B032B17D81800204AF3F7E9F9020B6E
:10D8A0002E346B461B7CB5525BB29BB21C4AA2184D
:10D8B000138008E06B461B7C5BB29BB2B352002224
:10D8C000174BE3181A80119A0399114800F0AEFA29
:10D8D00001220F48039900F029FB0E4B0020E418A9
:10D8E000022322889A43134323800E4B1A68069B17
:10D8F0009B009B5818730BB0F0BD6B461B7C5BB252
:10D900009BB2B352D2E7064BB552E3181D80DAE75B
:10D91000008000401C900040109000400410000067
:10D92000149000400413002073B5040009AD06A84C
:10D9300000782E78079D009001952000FFF768FF82
:10D94000051E0FD103231C402100089A064800F051
:10D95000EDFA0822054B6401E4182388F60093438E
:10D960001E432680280076BD008000401C900040A9
:10D97000032110B501400122024800F001FA002005
:10D9800010BDC04600800040032110B501400022B8
:10D99000024800F0F5F9002010BDC04600800040AC
:10D9A00070B57F253F260B4B31401C5C92012C400B
:10D9B0001C541C5CB4430C431C544024195CA1430C
:10D9C0001143C9B2195480211A5C2A400A431A54DF
:10D9D000002070BD0010024003231840024B40019C
:10D9E00089B2C0188180704700900040032318401E
:10D9F000024B4001C01801607047C0460C900040C7
:10DA000003231840024B400189B2C01801807047BF
:10DA100014900040032110B50140024800F0B0FA14
:10DA200010BDC04600800040032308221840044B6C
:10DA30004001C0180388C90093430B43038070471B
:10DA40001C90004070B504000D00002835D000295E
:10DA500033D020212800FFF78DFE0721637A227E34
:10DA60000B40E021D2021343227AC90012020A407D
:10DA7000FF211343627ED2000A4013432200EB8051
:10DA8000236828322B606389AB80E369AB6023692C
:10DA9000EB6063682B61A389AB82E36A1968631C3E
:10DAA00089B2E982DB7F002B08D0636AAB61102367
:10DAB000127852001343AB83E98370BD6069A8619B
:10DAC00012785200F6E70000F0B5032606400C007D
:10DAD00085B03100504800F059F980224E4B750155
:10DAE000EF184E4B1202EB1803931B884A489B0415
:10DAF0009B0C1343039A1380802322685B01FA5026
:10DB0000474B6268EB181A60617A637E227E01914E
:10DB1000217A0091310000F071F96289414BFA528B
:10DB2000414BA289EB181A80404B2269EB181A600E
:10DB3000631CDA7F384F1023002A5CD0039A31002F
:10DB4000128838009A431343039A1380626A00F0E4
:10DB5000B3F90222314BE9180B8893432200283293
:10DB6000127852001343E26A0B80002A4DD03B68C2
:10DB70001B0608D52E4BE9180868137940004008A9
:10DB8000DB0703430B603B681B0608D5284BE818EE
:10DB90000168284B194053799B070B430360310000
:10DBA00092681D4800F066F9E26931001A4800F0F9
:10DBB0003DF9E26A3100137B1748527B00F084F98B
:10DBC000E26AF024154B2401ED18D37B28881B0250
:10DBD0002340194C917B2040034320202B802B882D
:10DBE000490183430B43126831000B482B8000F03E
:10DBF0009DF905B0F0BD039A12889A43039B1A80E1
:10DC00000E4B6269EB181A60A3E73100E269024823
:10DC100000F00CF9EDE7C046008000401C90004089
:10DC20001090004004100000149000400C90004040
:10DC300008900040FFFFFFBFFFF0FFFF189000407B
:10DC4000F0B50024012799B0039320AB1B78160090
:10DC50000793434B82001B680690D35803981C73AC
:10DC60003B00B34001936B4602919988F3F790F81B
:10DC70000CAD280005913021FFF77CFD102108A88C
:10DC8000FFF778FD039B08AA139316AB1F701123AF
:10DC900017929B189480147394731F22DF772700C8
:10DCA000029B2E721F3393436E722C83203B1E9E69
:10DCB0001F9D109411940293079B9F4240D1059899
:10DCC000431E984180B248E02A7A337A04929A42FD
:10DCD00042D10399F2F7D6FF049B0890032B08D892
:10DCE0001800F2F7C5FF021D212600236381019B66
:10DCF000A381079B00215A1ED2B2FBB29A4201D0E7
:10DD0000029920311591002F15D106980CA9FFF723
:10DD1000DBFE029B0137203302930C360C35CBE738
:10DD2000019B63810023E3E76B4604229B5E6381D2
:10DD3000DEE70023FBE702990CA8FFF783FEE8E784
:10DD4000059B002B08D133680CAC0C932B687068D2
:10DD500063606B689842B7D0012019B0F0BDC0462F
:10DD600004130020034B80001B68C358187BC0B20B
:10DD70007047C046041300200048704700800040F0
:10DD8000002A01D0C17670478176FCE7114B49012A
:10DD90004018C218002313608022520183500E4A9B
:10DDA00083520E4A83520E4A821813600D4A82181B
:10DDB00013600D4A821813800C4A821813800C4A93
:10DDC000821813600B4A821813800B4A8018038054
:10DDD0007047C04608100000041000000610000044
:10DDE0000C100000101000001410000016100000AD
:10DDF000181000001C1000001E10000070B5FF2657
:10DE000004AC257805AC2478DB003340F83E344080
:10DE10001C43E023D202DB002D021D40144380315D
:10DE20002C434901A4B24018C48070BD036810B5EA
:10DE300049011B0617D50E4C43181B191C68002CF2
:10DE400006DB1C68640003D4920092081A6010BDBF
:10DE5000074B4118C9180B6892059B0A9B02920D4B
:10DE60001A430A60F3E7024B4018C0180260EEE75D
:10DE700008100000036810B51B0609D50B4C4901BA
:10DE800043181B191C681B68002C02DB5B0000D4C4
:10DE900010BD064B4018C0180368054992020B409C
:10DEA00004490A401A430260F2E7C0460810000025
:10DEB000FF0300C000FCFF3F024B49014018C0189F
:10DEC000026070471810000049014018134930B52E
:10DED00045182C8812496404640C4018002B17D094
:10DEE000104B52021C43A4B22C8001884904490CF7
:10DEF0000B43F0219BB2038049012B880A400A4959
:10DF00000B4013432B8003880B401A43028030BD23
:10DF10002C8003885B045B0C0380F8E71E10000074
:10DF2000161000000080FFFFFFE1FFFF124B4901C8
:10DF3000401810B5C418218813B2104A09B28018CD
:10DF4000228800290BDADB05520AD90D52020A4356
:10DF5000228003885B0A5B020B43038010BDD20B57
:10DF60005B045B0CD2031A4322800288D20BD203DB
:10DF70001A430280F2E7C0461E100000161000008F
:10DF8000084B49014018C3181B88074A1BB2801868
:10DF90000088002B02DAC005C00D70474004400C19
:10DFA000FBE7C0461E1000001610000010B5002050
:10DFB000FFF7F4FB10BD10B50120FFF7EFFB10BD1C
:10DFC00010B50220FFF7EAFB10BD10B50320FFF7E4
:10DFD000E5FB10BD70B50020FFF7CEFE0024012642
:10DFE000C56A354202D02000FFF7F0FB0134E4B2ED
:10DFF0006D08042CF5D170BDF0B5374B87B0059294
:10E000008200D45803902700049161373E78012E96
:10E0100016D16379032B13D1304D2B6B5B0933423F
:10E020000CD0280000F0D2FF20232D492E630A686F
:10E030002A6B1A42FBD1294800F0B6FF0023637116
:10E0400063790220002B20D1244D2B689B0029D519
:10E050000126059B6671A371049B23603B78002B0E
:10E060000ED132000621280000F05AFF32000721AD
:10E07000280000F055FF32000521280000F050FF75
:10E080003B780493012B02D0002007B0F0BD25009F
:10E09000603514492878039AFFF772FB071E03D0F6
:10E0A000002363710120F0E71023022128780193F7
:10E0B000009123680C4AFFF7ABFB061E01D0677185
:10E0C000F0E728780499FFF7AFFC2878FFF750FCB9
:10E0D0000028D9D06671E5E708130020004002400F
:10E0E0008C4002408DE1000080400240F8B5254B95
:10E0F0008200D4580600270061373D78002D28D1D2
:10E100002A000521204800F00BFF2A0006211E48A6
:10E1100000F006FF2A0007211B4800F001FF002243
:10E1200063792260032B0AD0256D6271954206D077
:10E130003B78012B03D1230008213000A847A379A5
:10E14000002B05D06379002B02D1201D05F030FD96
:10E15000F8BD6379032BE2D023002568603318787B
:10E16000FFF712FC2B689A0202D46A68920C6A606C
:10E170001B031B0F2B74AB681BBAAB60EB681BBA9D
:10E18000EB60CCE7081300200040024070B5C4B239
:10E1900001290BD10322074B8000C3581D6D5A7112
:10E1A000002D03D0002220000831A8472000FFF7EF
:10E1B0009DFF70BD0813002070B50C00094B800056
:10E1C000C558E400002208482E1900F0A9FEB379D2
:10E1D000002B03D00434281905F0EAFC00237371E6
:10E1E00070BDC04608130020004002401F2803D81D
:10E1F00001238340014A13637047C0460040024038
:10E20000F0B58BB0039310AB150004CB80001B78E6
:10E210000E0005931A4B0492C4581A4800F032FDC0
:10E2200086422AD20227F300E41863793800002BD3
:10E2300021D13000FFF7DAFF059B6771A371E97AFE
:10E240002B7806AA6868E1711371AB7A906028890F
:10E25000937390810C23002900D01033002506937E
:10E26000049B310000930748039B019500F0C8FF11
:10E27000A84200D065710BB0F0BDC0208000FAE765
:10E2800008130020004002401149124A70B58B5813
:10E29000114C07262340F8248B500368E4019B02AD
:10E2A000234084688D5834402C43FF252343446821
:10E2B00064012C402343C468084D24052C402343AB
:10E2C000E0240069E4020004204003438B5070BD49
:10E2D00000400240040C0000188308C00000F03F1A
:10E2E00030B51F250F4A136DDB0FDB0713658168FF
:10E2F000146D29402143F8240368A4009B061B0CDD
:10E300000B434168490121400B43C168064C490554
:10E3100021400B430169F8200904400301400B43ED
:10E32000136530BD004002400000E07F104A1149F3
:10E33000536810B50B4007215360036854680B40C5
:10E34000C16809060B432343E0248168E402090401
:10E350002140E0240B434168A403C90421400B433E
:10E360000169C0208905000401400B43536010BDC2
:10E3700000400240F8FF0000F7B5164E0193164B1F
:10E380008000C75830000C00150000F07BFC844270
:10E390001DD233689B0006D5736B1B011B0F5B00FE
:10E3A00007339C4213D9E600BE1973790220DFB20D
:10E3B000002B0BD10122019B2100064872713560B0
:10E3C000B37100F0ADFD002800D07771FEBDC02014
:10E3D0008000FBE7004002400813002070B5114C9C
:10E3E0000D002368DB0106D5002916D123680E4AEB
:10E3F000134023600BE0200000F0E8FD002D07D162
:10E400002368094A13400748236000F0CDFD70BD22
:10E41000802322685B021343F5E7802322685B02B6
:10E420001343E6E700400240FFFFFEFFF7B5394E19
:10E43000140032681D0080230F0011005B04194096
:10E4400001911A4209D07F2233681340A34201D3BD
:10E450001F2C10D9C020800037E0300000F0B6FD3E
:10E460007F22336813409C4201D81F2C03D92948CE
:10E4700000F09AFDEEE733689B000AD4002F3FD1ED
:10E48000254BAD041D4088239B00E418A4003551A2
:10E4900017E01E22736BDB0D134007339C42EDD84F
:10E4A00033689B05D340882200939200013BA41857
:10E4B000022B0BD92A000021380000F0BBFBA4007E
:10E4C0003051019B002B20D00020FEBD6B462A005E
:10E4D0001978380000F0AEFB009B012B05D0022B11
:10E4E00008D00123A4005B4202E0030C0343A40014
:10E4F0003351E6E7030E020C13430343000AF5E72A
:10E50000012FDED1ED00ED08BDE7024800F04CFD23
:10E51000DAE7C046004002400000FC1FF0B55E4E46
:10E5200089B033680C0015000190002B05DB30002A
:10E5300000F04CFD300000F0C9FB80216B7A8901AE
:10E540005B0372680B40554953480A40134373609C
:10E5500000F0A2FB504800F039FD4F4800F0C4FB2A
:10E560002B7A002B02D0012009B0F0BDAB79022B31
:10E5700004D0802233689202134333606B79002BFE
:10E580005AD12B00343300931B78012B5BD13368B5
:10E590009B00E8D580223368120213433360E97987
:10E5A0003D4800F0F5FD29683B4800F0D9FF002800
:10E5B000DAD12B0032680C3303AE120549D5320094
:10E5C00083CB83C203CB03C23000FFF789FE2B004D
:10E5D0003200203383CB83C203CB03C23000FFF76A
:10E5E00053FEA9792C4800F087FDAB79032B02D0AC
:10E5F000294800F0D9FC0A2002F088FD0A2002F028
:10E6000085FD0A2002F082FD0B2002F07FFD0B2029
:10E6100002F07CFD260000270021301D05F0D9FA0C
:10E62000FB0000281ED004341D19A5429BD02000F9
:10E6300005F0D9FA0834F8E72979174800F088FB83
:10E6400000289ED090E7002BA9D13368144A1340CC
:10E65000A4E7320083CB83C203CB03C23000FFF7B1
:10E6600065FEBEE7E3180137B071306058710836B7
:10E670000A2FD1D12300009A6133127835351A70F0
:10E680002A78013B1A70019A064B9200206560655A
:10E69000A065E065D45067E700400240FFDFFFFF60
:10E6A000FF7FFFFF0813002070B5104886B00D00F3
:10E6B00014001E0000F058FD002813D1237802AA90
:10E6C0001371A37A6168937308239160218902937F
:10E6D00091813300019000902900044800F090FDE2
:10E6E00006B070BDC0208000FAE7C046004002407E
:10E6F000F7B505000D480C0016001F0000F034FDB2
:10E70000002810D1089B0190009332003B002100AB
:10E710002800FFF775FD002804D1012221000348DD
:10E7200000F0FEFBFEBDC0208000FBE70040024081
:10E730007FB51C480D0014001E0000F015FD0028D8
:10E740002CD16A4663682800029323781371237AD8
:10E750001373FFF74BFD0F236A4600932900330024
:10E76000104800F031FE041E15D1009033006A46B7
:10E7700029000C4800F028FE041E0CD104236A4630
:10E78000009329003300074800F01EFE041E02D14A
:10E790002800FFF72BFD200004B070BDC024A400AA
:10E7A000F9E7C0460040024070B50B4C0D002368ED
:10E7B0001600DB0103D5200000F0FAFA70BD20003E
:10E7C00000F004FC20003200290000F0F1FA2000E3
:10E7D00000F0EAFBF2E7C0460040024070B50500D9
:10E7E00007480C00160000F0BFFC031E05D13200E4
:10E7F00021002800FFF7C0FD70BDC0208000FBE7AE
:10E800000040024010B50022FFF7F6FB10BD0000EB
:10E81000F7B5284B8600F5580193002D1AD0AB6D43
:10E82000002B17D0802100222348C90100F088FB6B
:10E83000802100222048C90000F082FB80210022B4
:10E840001D48090100F07CFB802100221A480902C2
:10E8500000F076FB0A2002F065FC0A2002F062FC60
:10E860000A2002F05FFC144C0B2002F05BFC0B2032
:10E8700002F058FC2368002B05DB200000F0A6FB0B
:10E88000200000F023FA002D04D10024019B9C51AC
:10E890002000FEBD00242F1D5435380005F0A3F9DB
:10E8A000002800D001240837BD42F6D1002CECD05E
:10E8B000EEE7C0460813002000400240064B8200ED
:10E8C000D25810B5936D002B01D00A219847034808
:10E8D00000F0CAFB10BDC0460813002000400240F3
:10E8E000F7B5154B154C8200D658236801905B0490
:10E8F00020D5134D63599B030CD5802362599B028D
:10E9000013436351336D1F1E04D0330000220521D1
:10E910000198B8476359DB030CD5802362595B0229
:10E9200013436351346D002C04D0330000220621C0
:10E930000198A047F7BDC0460813002000400240E0
:10E94000080B0000F0B57C4B7C4D8200D658AA6ABB
:10E950002B6B00241340012289B000901340002B40
:10E9600067D02B689B0000D46FE0072C00D96CE0C7
:10E97000052C00D0A7E07379DAB20192012B14D1F3
:10E9800031686E4800F078FB20230022376D2B633E
:10E990007271974203D0330001990098B847737998
:10E9A000002B02D10098FFF7A1FBE700F3190193B8
:10E9B0005B79022B28D1019BDB79002B0ED0210043
:10E9C0005E4800F067FD21005C4803AA00F067FD87
:10E9D000AB68039B1B011B0F042B02D12000FFF728
:10E9E00005FC0023019A5371336D1F1E04D03300C0
:10E9F000220004210098B847019B5B79002B03D1CA
:10EA000021000098FFF7D8FBAA6A2B6B1340E34064
:10EA1000DB070CD52B689B0000D471E0072C00D9D4
:10EA20006EE07379002B02D12000FFF7DFFB09B005
:10EA3000F0BDA96A2B6B01340B40E34013400A2C54
:10EA400000D08CE7002B5ED02B68E700F319019310
:10EA50005B79012BA9D12100384800F01BFD019BF7
:10EA600021001A68354800F01AFD2000FFF7BEFBB0
:10EA70002B689B0042D5019B1B681B681B011B0F69
:10EA80003CD121002D4800F0A2FB2D4A0368134021
:10EA9000036080230268DB04134303600021019BB1
:10EAA0005971336D1F008B4203D033002200009850
:10EAB000B847019B5B79002B00D076E721000098D6
:10EAC000FFF77AFB71E7062C0BD14023376D2B63E0
:10EAD000002F00D169E73300002202210098B847D7
:10EAE00063E7072C00D060E78023376D2B63002F8E
:10EAF00000D15AE7330000220321EFE7AB68CDE7EE
:10EB0000019B5B798EE7009B002B0AD10D4BE958E6
:10EB1000EB58490C1B0C0B43134202D00098FFF733
:10EB2000DFFE0221EA692B6A0B40134300D17EE726
:10EB30000098FFF7C3FE7AE7081300200040024068
:10EB4000FFFFFFF0080B0000074A8000CB00815850
:10EB50000020C9184B79834204D048790338431EFA
:10EB6000984101307047C04608130020014B186AD5
:10EB70007047C04600400240024B8000C3581965F0
:10EB80005A65704708130020224B8000C358224862
:10EB900070B5DA6502689965802315005B040C0086
:10EBA0001D401A4201D100F011FA002C1DD0802125
:10EBB00001221948C90100F0C3F980210122164839
:10EBC000C90000F0BDF9802101221348090100F0BD
:10EBD000B7F9012280211048090200F0B1F9002D97
:10EBE00002D10D4800F0E0F970BD802122000A48F2
:10EBF000C90100F0A5F9802122000748C90000F0F2
:10EC00009FF9802122000448090100F099F92200AF
:10EC1000E0E7C0460813002000400240082806D95B
:10EC20000938C3B20020062B01D8014AD05C7047D6
:10EC3000388601000300012912D00020022918D0D3
:10EC400081420CD1900F8007002B03D10B4BD204D3
:10EC50001A4003E0012B02D1D20092081043704702
:10EC6000900F8007002BF1D0012BF8D1044B120438
:10EC7000EEE7012BF3D81006F1E7C0460000F83F9D
:10EC80000000FF3F034A0023904200D10A331800DE
:10EC90007047C046004002400368DB0210D503689D
:10ECA000084A5B005B080360036813400360036865
:10ECB000054A1340036080231B0502681A42FCD1F9
:10ECC0007047C046FFFFFFBFFFFFFFEF0368002B49
:10ECD00009DB802302681B061343036080235B0368
:10ECE00002681A42FCD07047802370B504000268A5
:10ECF0009B041A430260226815001D401A42FAD193
:10ED0000802322685B01134323602000FFF7BAFFD2
:10ED10002300020180339A18934212D188230022E3
:10ED20001B01E3188000181883420CD10123002234
:10ED30005B4223616361A361A2622363034B23628D
:10ED400070BD20C3E8E704C3EEE7C04606003B0001
:10ED50000268802370B516001B0104000D0001201D
:10ED60001E401A4218D12000FFF78CFF8023226832
:10ED70009B051343F022236012052D06636B15409B
:10ED8000094A80B213401D430123084A5B42656370
:10ED9000A364864201D3002070BD88239B00F31832
:10EDA0009B001A510136F4E7FFFFFFF0FFFFFF1F42
:10EDB000F7B50400636B08001B011B0F03291ED865
:10EDC000F1F756FF02215A9F2168514880250140E2
:10EDD0002000013321609B014E4CE030D318ED053B
:10EDE000167857785168F607002F09D0C9008908AE
:10EDF0002E4389190832016004309342F0D1F7BDE7
:10EE0000C9042140F5E72068414980260840802157
:10EE100049000143802720000133DB01D318216022
:10EE2000E0300193F605FF011378147A55785168A4
:10EE3000DB07E403002D16D0374D4900294033434A
:10EE4000C9180160517AD368002910D0DB0001682D
:10EE50009B0C3C431B190B430360019B1032043095
:10EE60009342E1D1CBE72B4DC9042940E8E72B4D74
:10EE7000DB0001682B40EDE720682549FF250840AD
:10EE800080218900014321602000FF2401331B02FF
:10EE9000E030D318240456785168002E25D0066837
:10EEA000490D09063143567A0160D168002E1FD002
:10EEB0000668490921403143567C01605169002EA2
:10EEC00019D00668490D0906090C3143567E0160C8
:10EED000D169002E12D00668490D294031432032F5
:10EEE000016004309A42D6D189E70668C908D8E79C
:10EEF00006684903DEE70668C908E4E70668C9084A
:10EF0000EBE7C02322689B001343236077E7C046EA
:10EF1000FFFCFFFF0000F83F0000FF3FF83F00004C
:10EF20001F2906D801238B40002A04D0826A13438C
:10EF3000836200207047826A9A438262F9E7000088
:10EF4000002A1AD08023DB00994208D1802302686E
:10EF50009B031343036043680B4343607047802364
:10EF60001B019942F2D08023DB019942F3D1802327
:10EF7000426B1B0613434363EDE743688B434360D7
:10EF80008023DB01994203D1436B5B005B08436341
:10EF9000C02342681B011A42E0D10368014A1340B2
:10EFA0000360DBE7FFFFDFFF0368064A13400360EF
:10EFB0000368054A1340036080235B0402681A4219
:10EFC000FCD17047FFFFFFEFFFFFFFBF8023026808
:10EFD000DB0513430360802302685B051343036072
:10EFE0000368012230B5002B04DA03689340D34054
:10EFF0000022036000238360056880242900240127
:10F000002140254222D180235B0404681C4201D1A7
:10F01000B32925D90368DB010BD48021856A0468F4
:10F02000036889040B43036003680B42FCD18562CB
:10F030000460002A09D1802302681B061343036081
:10F0400080235B0302681A42FCD030BD802405494E
:10F05000640405682542DDD18B42DBD88368F8E77C
:10F060008168D2E7D9020000026A024B1A4200D03E
:10F070000362704706003B000300F0B5071D040063
:10F08000F86F85B000038833000F0D000E00019368
:10F09000FFF7C4FD2874FB6F083600902B6008341E
:10F0A0009B0212D5E36F03226B60330013401642BC
:10F0B00020D1009A9A421BD901999A089200891886
:10F0C000096809BAB1500433F3E7E36F9B0CEAE730
:10F0D000019AA3089B00D3181B681BBA042230199D
:10F0E00003A9039308F0B6FD0434009BA342EFD8B4
:10F0F00005B0F0BD0024F8E7030010B508000429AE
:10F1000007D8F1F7B5FD0D1A1E0307001800FFF729
:10F110005DFF10BD8022196812060A431A60F8E7E5
:10F120001A680E490A4008211A605A688A435A60D0
:10F130005A680B490A405A60EBE7082259680A43AB
:10F14000F9E78022596852010A4308215A605A6837
:10F150008A435A601A6803490A40DFE7FFFF7FFFCE
:10F16000FFEFFFFFFFFFFDFF026803007F2002406B
:10F170007E388A420BD31A680020920007D55B6B59
:10F180001B011B0F5B0007338B424041C0B270472D
:10F19000036810B51B0507D5C02212018358034C24
:10F1A000090423401943815010BDC046FFFFFCFFF6
:10F1B00002680823120508D5C0231B01C35801208B
:10F1C0009B039B0F033398400300D8B2704770B580
:10F1D0000E000400FFF7ECFF0830C5B280202900C4
:10F1E0008000F1F74FFDC1B23000F1F7D1FDAD085D
:10F1F0006943C001091820318900601870BD000002
:10F20000F0B585B001930AAB150004CB06001B785E
:10F21000009202930F00FFF7DAFF7F2233680400A9
:10F22000134080229205BB423BD33368134249D13D
:10F2300033681B0509D5AB7B002B06D0C022802389
:10F240001201B1581B060B43B350AB68FF27DAB26B
:10F25000402A02D8594A3B40D75C009B002B33D14F
:10F260000023236063602B79012B7CD163685B0FE3
:10F270005B076360019B6268DB00DB081343C0220D
:10F280006360D2032B680F2B00D193E0F0213F0481
:10F2900009030F4017431C2B75D1802252031743DB
:10F2A00074E0336813420AD0C0229200736B1B01D2
:10F2B0001B0F5B0007339F4201D9002AB8D0C02042
:10F2C000800078E00022F1E7F8B2FFF7A7FC260003
:10F2D00003900320009B009A08360340024238D175
:10F2E000AA688243934225D29A089200B1188C46AC
:10F2F00000998A5812BA614604330A60F0E700990F
:10F30000009A8C469C4461464978D25C09021143BC
:10F3100062469278120411436246D27812060A437A
:10F3200099088900711812BA0A600433AA688243E6
:10F330009342E4D30321AA689A420CD80321039B89
:10F3400093428DD90B00687B5340F318187001323B
:10F35000F5E70023EAE70A0000985A40C05CB218BB
:10F3600010700133E7E7002B01D000228AE76368C1
:10F37000134A144913406360019B62689B040B406D
:10F3800013436360F1E7029A002A86D1F0221B063C
:10F39000120513402A7B3B43002A02D0802212062A
:10F3A0001343AA7B002A02D08022D205134322688D
:10F3B00013432360002005B0F0BDC0463F86010026
:10F3C000FFFF03E00000FC1FF8B5050016001C005D
:10F3D0000F00FFF7FCFE7F222B681340802292056E
:10F3E000BB422BD32B68134239D100230360436007
:10F3F0003379012B35D1802302689B0313430360CB
:10F4000003681F4AE400134003604368E4085B0F8D
:10F410005B07436043681C43446033680F2B0BD089
:10F42000F0210368174A0905134003603368026836
:10F430001B060B40134303600020F8BD2B681342EA
:10F440000AD0C02292006B6B1B011B0F5B000733BD
:10F450009F4201D9002AC8D0C0208000EDE70022D9
:10F46000F1E7002BD9D10368074AA40413400360D5
:10F470004368064A1340064A436043681440CAE79B
:10F48000FFFFBFFFFFFFFFF0FFFF9FFFFFFF03E056
:10F490000000FC1F10B5FFF79AFE036810BDF0B521
:10F4A000150085B00400FFF792FE2B0007000068EE
:10F4B00008330003000F0193FFF7B0FB06002000A4
:10F4C000FFF776FEB04203D22000FFF771FE060080
:10F4D0002E743B682B609B0217D57B686B600323FF
:10F4E000019C019A1C401A422CD1310099438C4254
:10F4F00021D2A3089B001A000832BA18126812BA67
:10F5000001980434C250E4B2F1E77B689B0CE5E754
:10F51000A3089B000833FB181B681BBA20000830A7
:10F520000422281803A9039308F094FB0434E4B2DE
:10F53000019B9C42ECD303222D190135B44206D322
:10F5400005B0F0BD32009A4300240192F0E71300A9
:10F5500063400833FB181B780134EB71E4B2ECE72D
:10F56000F8B50E000400FFF723FE751E0700290002
:10F570002000FFF72CFEA023C0199B00E3180830E1
:10F5800083422AD32000FFF77DFBB04225D37F239F
:10F5900021681D409943294321602268802315007A
:10F5A0009B051D401A4212D00020F8BD2900200002
:10F5B000FFF70DFE082100220300494202600833D4
:10F5C0004260081AC1188F4204D80135EDB2B54225
:10F5D000ECD3E9E71A700133F4E7C0208000E4E7D8
:10F5E00010B50020FFF7AEF910BD10B5FFF7F8FF1A
:10F5F00010BD0000F7B5104B8700FD580C000193BB
:10F60000002D16D1481C04F0D1FA02220B4E19200D
:10F61000B3681343B360B56001F078FD0122B368AD
:10F620001343B360019B25706560A560E5602561AB
:10F63000FC500020FEBDC0460C13002000A0054079
:10F64000F0B501243E4E87B0830003909859019392
:10F6500003783C4D05930B7A0F0002936B680121F0
:10F66000DBB20493029B01309C40494204F09AFAB9
:10F67000029B049A013CE4B2934230D80023059ADD
:10F6800014420CD0029A0133DBB2D2180499640000
:10F69000D2B2E4B28A42F2D9039B9B0020E07B7293
:10F6A000019BF05803781C430470013004F07CFA8D
:10F6B000019BF258131D14321968002917D11F60DD
:10F6C00003223B7A787A019394460300019A8218C8
:10F6D000934210DB0020039B38607B6005E0019BB8
:10F6E000F058013004F060FA012007B0F0BD043397
:10F6F0009A42E1D1E4E7072412499A0056181249C8
:10F700005218D16FA1438024D1676146E400325979
:10F710008A43325101229A402E6AD1B28E432E6220
:10F720006E6A01338E436E62AE6ADBB28E43AE62A6
:10F730002E6B8E432E632A616A61AA61C6E7C046BA
:10F740000C13002000A0054004A0054070B54568DA
:10F75000124EAD000300A8590100021D14311468B7
:10F760009C4216D10021116001241A7A0121944093
:10F770005B7A013CE4B29C404942013004F012FA49
:10F7800070590378A3430370013004F00DFA002090
:10F7900070BD04329142E2D1E6E7C0460C1300206E
:10F7A000F7B50127134B196A1A695D6A11405A6946
:10F7B0009E6A9B6900911E400F4B15401B681C1DE3
:10F7C00014330193206800280FD00268002A0CD05F
:10F7D0003900037A99400B00417A013B8B40009934
:10F7E00029433143194200D09047019B04349C4285
:10F7F000E8D1F7BD00A005400C130020F7B5426822
:10F80000434B477A9200D458BB00E3181A1DD16FBE
:10F8100006004048019301400720D167D16F814322
:10F82000D167791CC9B28A00A218151DEB6F8343FA
:10F830008020EB67019BC0001D5803239C469D431D
:10F84000019B1D50634615589D43155001252B0003
:10F850008D40BB4030216361FC3265612561A3614D
:10F8600050681F0088438446202063461843019B4C
:10F870005060FC335A688A431143596033002C337B
:10F88000256101931B78002B1FD0022B2AD0330057
:10F89000012232331A7002331B78002B03D0300060
:10F8A000333004F085F9B369002B0DD0F38D002BB4
:10F8B0000AD1330030331B78002B05D0019B1B7815
:10F8C000022B01D0144BF385F7BD236A3D43EDB203
:10F8D000AB432362636AFFB2AB436362A36ABB4379
:10F8E000A362D4E7FF232900626A19408A43626257
:10F8F000A26A3B409A43A262707FFEF745F8307FD0
:10F90000FEF742F83D43236BEDB2AB432363BEE702
:10F9100088860100FFFFFCFF0202000070B542680C
:10F920002C4B0400457A9200407FD658FEF71AFA15
:10F93000012802D10123E38541E0207FFEF712FA7E
:10F940000128F7D071696B1CDBB2D940012211424A
:10F9500004D09A40802372619B00ECE7B369EB40CE
:10F96000134212D0AA40638D013B9BB26385B26102
:10F97000022B0BD1A021AD007519C9003E346A5885
:10F980002378D2B21B0213436B5070BD012B09D1F7
:10F990009021AD007519C9000F4B6A581A40802399
:10F9A0009B01F0E7002BF0D19021AD007619C90042
:10F9B0007258094802407250E28D022ABBD02000E2
:10F9C000FFF71CFF236A002BDFD00420616A9847F1
:10F9D000DBE7C04688860100FF8FFFFF724BF7B55B
:10F9E0009C466246436804009B009A58437A5069DB
:10F9F0000121D840084203D099406C48E08551610C
:10FA00005569591CC9B2CD400120054214D0156971
:10FA1000DD4005420CD180239B00E3852000FFF7E9
:10FA2000EDFE236A002B6DD00420616A984769E0DF
:10FA300088405F4DE585506110690125C840284226
:10FA400039D0A02089005118800008582600019064
:10FA500020003136377830300578002F1DD1012055
:10FA60003070002D27D0302598001018FC304668E3
:10FA7000AE43103D35434560A06901281BD19D0070
:10FA80005519FC356E682F30864306436E60FC3195
:10FA90004D688543284348600DE0A669013EA66194
:10FAA000002D08D02569019E2E702569013525613C
:10FAB00000780028E0D11169D940C9070DD560460A
:10FAC0006168890045586069617A00281BD101216D
:10FAD0009940106AC9B28843106291690120D940E7
:10FAE00001420FD021003231097800292CD0902119
:10FAF0009B00D318C9005A582E4802405A50200083
:10FB0000FFF77CFEF7BD01386061A031002809D104
:10FB10002600353636788900002E01D1FF200006F8
:10FB20004851D4E7200030300078002804D0FF206E
:10FB3000890000064851D0E7E06889000678013066
:10FB40003606E0604E51C8E79840618D013989B2B0
:10FB50006185906102290BD1A0209B00D318C000C1
:10FB60003E3419582278C9B212020A431A50C9E722
:10FB7000012909D190209B00D318C0000D4A1958C3
:10FB8000114080229201F0E70029BBD190209B0018
:10FB9000D218C0001358074D2B401350E38D022B91
:10FBA00000D03BE7E18539E78886010001020000CB
:10FBB00002020000FF8FFFFFF0B5B7B00992426864
:10FBC0000893A84B9200D55801220300059111001B
:10FBD00036331B78040099400B0001003731097857
:10FBE0008A401343EA68DBB21A40934200D0ECE14A
:10FBF000437A12260793059B002183615A1C022336
:10FC0000C38503005643426109983233B71CD8704C
:10FC1000FF37089819703F0A023B01361870597077
:10FC2000F0193900F1F72EF8A022079BD2009B00B3
:10FC3000EB189A589446421E120211006246D2B244
:10FC400011438AB2A021C9005A507A1E4243B61A03
:10FC500022003E3267851670012F08D19020C00027
:10FC60001958814A1140802292010A431A500726EE
:10FC700002221F1DF96FB1430A43FA67079A013246
:10FC8000D2B20A929200AA18101DC16FB143063E6B
:10FC90003143C1678021C90058588C4603218843ED
:10FCA0006146304358505058032188430143604611
:10FCB0001150F96F6D4A1140802252020A43FA67CF
:10FCC00022002C321278B24226D0022A2DD0002AED
:10FCD0001FD101F03FFA2200238D3032B340127859
:10FCE0009B18627A3400A0321B0692005351079B86
:10FCF0000A9A9C4096402B6A2643F6B233432B6205
:10FD000001F01CFA6B6AE4B233436B62AB6A1C43CA
:10FD1000AC62002037B0F0BD228D089952008A18DD
:10FD2000A021120689005A50F3E723001F225E33F8
:10FD300093430693089B002B00D08DE0E368129359
:10FD4000059B079A13930123A03292000598270080
:10FD5000AA18033224AE24922590337227920222ED
:10FD6000099812A9013839370B7238701693289305
:10FD7000159733750B75607F0292009100220699EA
:10FD80000196FDF75DFF230030331B78002B03D075
:10FD90000021607FFDF720FE069BA6699A8B082351
:10FDA0001343069A938362682E4B9200D3580893AC
:10FDB000237F0B933A239C46A44463460593637ABE
:10FDC0000C930133DBB20E93A0339B000F930F9A79
:10FDD000089B944663440993230030331F78012322
:10FDE000002F45D1F618390003930193099A059B1A
:10FDF0000B9802960097FDF797FD39000B98FDF7D9
:10FE0000FFFD01273E00607FFDF7B2FD207FFDF77B
:10FE1000AFFD0A9B696A9E40FF2332001A400A43E5
:10FE20006A62079A9740AA6A3B401343AB6201F0AB
:10FE300091F92200238D303212785B009B18627A90
:10FE40001B06A032920053512A6B3E43F3B2134378
:10FE50002B6301F073F95CE72300FF2238331A703B
:10FE60006DE7C04688860100FF8FFFFFFFFFFCFFA4
:10FE70000020059F099A2497771E0D9727691292F3
:10FE800012A924AA13932593087210721097059350
:10FE9000012E3FD90C9B30279E00089B9E19FC36F3
:10FEA000736811962026BB4333431B36B446A444E3
:10FEB00066463370059B159616930C9B089E40333F
:10FEC0009B00F318059E08752896099E279318969F
:10FED0000D9E0493199611260EABF618F077109E1E
:10FEE00010752A960D9E1DA92B965926F618F077A7
:10FEF000119E7668BE433E4327003C373E70059E08
:10FF00001B971C960870049B2E962D932FAB187090
:10FF100004230593069B089A20330C930E9B12A88A
:10FF200040339B009A583023134322003D32137014
:10FF30000C239C466146059B01264B431A50002228
:10FF4000C1180A724E600F99089A8139FF39511809
:10FF5000002224AFD951FB181A7262465E60059BDD
:10FF60009B195343099AC1181A5000220A720D9A1C
:10FF70004E609446002210996144D951FB181A72C0
:10FF80005E60059B0090023302930C9933000B983E
:10FF90000197FDF755FE069B069A9B8F3343938787
:10FFA000A369B34208D96032938B33439383069B92
:10FFB00080339A8B16439E83059B0C9A5B01D31862
:10FFC0000822998B0A439A831BE70148A2E6C046A0
:10FFD00005020000F0B55D4B8BB003900D00185C7E
:10FFE00009A91400FDF7C2FB022321000398237224
:10FFF000FFF726FB0490002800D086E0AB78012BA9
:020000021000EC
:1000000004D001002000333003F0E3FDAB7801277A
:1000100001932300019A2C331A702B8809982385A9
:1000200023002E7A36331E706B7A05932300059ACF
:1000300037331A70EB68002223622B6969686362A8
:10004000230034331A70023B1F70E2856268404B14
:100050009200D35808180693637AB9400293F0F7D8
:100060009BFE0238FF2853DDFF20029B069A9B006F
:100070009C46624413003221FC335960029BC02726
:100080000133D9B20791E021BF04C90036021B0633
:100090003B400E401E438023171D3343FB67079BE5
:1000A000069F9B00FB181F002021FC3779608027EA
:1000B0003F043E431F1DFE67A026F600905190208E
:1000C0006146244FC00017504F1CF021090508005D
:1000D00005993F0638400F02E021C9003940C12789
:1000E000014380203F04C0000F4317500F22844675
:1000F0009A51194A80301A50184A0A4361465A5098
:10010000019B002B08D0022B09D004980BB0F0BD46
:100110000028AADC3800A8E7114B2360F5E7687DCA
:10012000039A60772B7D920023770E4B9B18079ADA
:100130009E5C029A995C0022FDF732FC002231009D
:10014000287DFDF72DFC084BE7E7C04684860100BB
:100150008886010022020201121120008000C000E6
:10016000DDF90000808601001DF90000030010B5D4
:1001700032331B7804000220002B0BD023002C33D9
:100180001B78012B03D02000333003F02CFD20001E
:10019000FFF7DCFA10BD02003232127803000220B1
:1001A000002A01D000201985704770B50D0011009C
:1001B0001A00030032331B7804000220002B04D005
:1001C00000232000E560FFF7F7FC70BD70B50D005F
:1001D00011001A00030032331B7804000220002BA8
:1001E00004D0012320002561FFF7E6FC70BDF8B5BF
:1001F000070032373B7804000D008669002B18D1C8
:1002000003002C331B78012B04D0022B0CD00029C7
:1002100004D107E0FFF7E2FB002D00D02E603B7811
:10022000002B08D10220F8BD007FFDF7F3FB06008C
:10023000F2E70029F2D1E08DF5E70000044B10B59C
:100240008400E05800F046FA0020024BE05010BD58
:10025000A48601001013002070B55A4B4C78800022
:10026000C3580A78002C03D18878002800D172E0A6
:100270000120002A6ED11A0080258C321068ED0210
:1002800028438025106010682D03284380251060C6
:1002900010686D032843802510601068AD02284364
:1002A0001060C87A1568461EB041474E00043540BC
:1002B000284380251060106828431060002C00D16E
:1002C00074E01022986D02439A65887820220028F5
:1002D00000D16FE0986D02439A65C87840220028EB
:1002E00000D16BE0986D02439A650224986D0A79FB
:1002F000A0435200024301209A659A6D4C798243D3
:1003000022439A650A7A9C6D551EAA410825D2009F
:10031000AC4322439A658A798C331C686D191201AB
:10032000AC432A4022431A60CA791C681035520136
:10033000AC432A4022431A604A7A1C681C3D920052
:100340002A40AC4322431A601A68897A824300200B
:100350000A431A6070BDC878002800D088E70130D1
:10036000002AF7D01A0080248C321068E400204361
:1003700080241060106824012043802410601068DD
:10038000640120438024802510601068A40020436D
:100390001060C87A6D000002146828400B4D2C4094
:1003A00020438024106010682043106010209A6D54
:1003B000824389E7986D904398658EE7986D9043E6
:1003C000986592E7A4860100FFFFFEFFFFFEFFFF96
:1003D000F8B51E4B820005000E00D458CFB28B0535
:1003E00008D580222368520013432360184B185607
:1003F00000F08CFEF30507D58022636D134363651F
:10040000144B585700F082FE760507D5402223682A
:1004100013432360104B585700F078FE0026002F3E
:1004200001D13800F8BD01231F420BD04021F30059
:10043000E318DA680A43DA60084BEA009B18985719
:1004400000F064FE0136F6B27F08E8E7A4860100FA
:1004500090860100928601008E860100948601003C
:10046000F8B51D4B820005000E00D458CFB28B05A5
:1004700007D52368194A13402360194B185600F01A
:1004800051FEF30507D58022636D93436365154BD9
:10049000585700F047FE760507D54022236893435E
:1004A0002360114B585700F03DFE0026002F00D16D
:1004B000F8BD01231F420BD04021F300E318DA6896
:1004C0008A43DA60094BEA009B18985700F02AFE2D
:1004D0000136F6B27F08E9E7A4860100FFFEFFFFC0
:1004E00090860100928601008E86010094860100AC
:1004F000114B8000C15830B508684B6DC005C00F66
:1005000040021B0602D580235B0018430B685B0684
:1005100002D58023DB0018430723402401255A1C01
:10052000D2008A185268224202D02A009A40104310
:10053000013BF4D230BDC046A48601008022154B99
:100540008000C35892001868596F1040813AFF3AF2
:1005500070B5114202D08021490008431968114248
:1005600002D08022D2001043DA6E120602D5802219
:1005700012011043002280250126541CE100591865
:100580004968294202D03100914008432200082CDA
:10059000F3D170BDA48601000F4A13B581008A58BB
:1005A000030014680722002014400C4A01908A5866
:1005B0001278022A08D0032A03D0012A08D101A9FF
:1005C00004E0074AD05CFAE7182001A9FDF7CEF84D
:1005D0000198E04016BDC046A4860100101300201B
:1005E0008C860100F7B50D0001211600294A830011
:1005F0009F5800900191002F44D1300026490C30C3
:100600005C58A97B77703170B78039009E505822B2
:1006100007F00AFB200000F05DF82000697B00F085
:100620004DF80098FFF7B8FFB0602B7B9A1E022AA6
:1006300002D90197082B04D129000098FFF70CFE7E
:1006400001904021E26E6B7C8A439B0113432200A0
:10065000FF20E366EB7B0832D16F9B0103403F38FC
:1006600081430B43D3670D4B009A0D4998562B7C61
:10067000002B09D0802322685B000A4013432360CB
:1006800000F044FD0198FEBD23680B40236000F09C
:1006900049FDF7E710130020A486010090860100B1
:1006A000FFFEFFFF044B8000C35810B59868F0F7B9
:1006B000E9FA80B210BDC046101300200122436D3C
:1006C0001343436503680632934311400B430360B1
:1006D00070470000436F04220023436742650268AD
:1006E000036043608360C364026D03658365C36513
:1006F000036643668366C26E021DC36630B5036738
:10070000043283671049C3679367D36780321360ED
:1007100053609360D36013615361884202D1802299
:100720009200835000231C00DA008218D568D46040
:100730001461884204D11A008032920082185460F9
:100740000133082BF0D130BD009003401023012964
:1007500003D9052908D8012302398B40002A07D084
:10076000C26E1343C3667047802306395B00F4E70B
:10077000C26E9A43C266F6E7F8B5294B8000C358AB
:100780005A78012A01D0082A36D1264A1458042260
:100790004800C9008A401100656EC0B2421C0D427B
:1007A0002BD0D2B2C500D2006519A2182F691669E4
:1007B000BFB2B6B2F11B8C4689B2B74202D3598898
:1007C000614489B2061D76009E19B1808026E968D1
:1007D000B143E960D168B143D160A2685A80820018
:1007E0009A18D46B002C07D01B185C331B78002B95
:1007F00002D00020D169A047F8BDD1006118496836
:10080000090600D4D0B2C1006118021D0D69520062
:100810009A1895808025CA68AA43CA60DDE7C04659
:1008200010130020A4860100F8B50020FFF786FE13
:1008300005000020FFF75CFE0024060001273300BE
:100840002B4018006200511CC840D34003433B4278
:1008500003D00020E1B2FFF78FFF0134042CEED16A
:10086000F8BDF8B50120FFF769FE05000120FFF78C
:100870003FFE00240600012733002B4018006200D1
:10088000511CC840D34003433B4203D03800E1B27F
:10089000FFF772FF0134042CEED1F8BDF0B5464AE3
:1008A00083009A5885B00E0001200092002A36D0AD
:1008B0005578002D33D1414A9C5818222368934320
:1008C0002360236808329343236023683C4A134023
:1008D0002360E36C1B0C1B04E364A3684A881B0CB5
:1008E0001B041343A3606368221D1B0C1B0463607D
:1008F000D36F8343D3673378AB4212D88022182159
:100900000020A36D1343A3657378009A5370009B76
:1009100022681B788A43DB000B401343236005B039
:10092000F0BD062380206B4372680135D118019118
:10093000D15C626E4B08DB009840824301209840F6
:100940006266626EEDB28243042084469840674638
:100950006266626ECB0082436266E318DA680292D6
:10096000019A527890003840039002989200B84360
:100970000700039838430827D860D8683A40B8433E
:1009800002431020DA60DA680243DA60DA6800189D
:100990008243DA60019A1F3852881A610B001033C3
:1009A000984003002268200013432360019B1A79BA
:1009B000FFF7CCFE9FE7C04610130020A48601007D
:1009C000FFFDFFFFF0B50F4D8000405905AC4768B3
:1009D00024788568002B09D11600ABB2D219BFB2BA
:1009E00092B2DB1B9E4201DD521B92B20131C90063
:1009F00041188A608022836DE40193432343836519
:100A00000020F0BDA486010010B50424C9004018E0
:100A1000C1689300A14323400B430821C360C3680E
:100A200052088B43D2001A43C26010BD01238B4091
:100A3000002A03D1026F9A4302677047026F134383
:100A40000367FAE7F7B518220026364B8000C45832
:100A5000354BC35801932368934323600023F70069
:100A6000E719F5B21A00290020003B61FFF7CCFF1F
:100A70001022FB689343FB60FB6892189343FB6072
:100A800023689343236001231900B140226F1800AB
:100A90008A433100DD40103188402021ED00A9401B
:100AA00022672268AB4082432260626E01368A432D
:100AB000626680221000A840616E81436166616EAB
:100AC000994361661021A940636E8B43636640239E
:100AD0001800A840616E81436166082EBED1A16EE8
:100AE00012480140C020A166A16E81430B433F2103
:100AF000A366A36E8B430021A366E167636D0800C4
:100B000093436365636D203A93436365A3681B0C4D
:100B10001B04A36063681B0C1B046360019B59707A
:100B2000FEBDC046A486010010130020FFFFF0FFA9
:100B3000F0B585B08C460AA90D880BA9097880000C
:100B40000391354944583549415801910198A168AC
:100B5000467889B2042E46D14900002089B2002A85
:100B600048D180263602B34248D8B54246D80A005A
:100B70004D435A43ED13D21392B2ADB2B3423FD1BB
:100B8000013293B200282CD16246666E5208009260
:100B90003200009EF7000126BE40324232D080264D
:100BA000BE40626E0292009A52000092571C029A56
:100BB000324203D02668F606B60F02D1FF00E719CD
:100BC000BB60009A0132D2B20132D200A218956005
:100BD0008022A36D9343039AD2011343A365019B23
:100BE000998005B0F0BD032E02D00120082EB6D1A9
:100BF0000131B2E7994201D3A942C3D20120F0E703
:100C00001300BFE7624625680132AD0600D55B08D8
:100C1000D200A2189360DBE7A48601001013002025
:100C2000F0B5BD4B8200D3588DB006900F00012067
:100C30000593002B00D1CBE05B780493002B00D010
:100C4000C6E0B64BD4581822236893432360236828
:100C5000B34A134023600423626D134363658B78AA
:100C6000059A5370049B0393039A3B78934200D9EF
:100C7000B0E0002307937B78079A934200D953E1B1
:100C80000222636D134363657B69DA780392002A5D
:100C900050D01A78002A00D1F3E18022E16F1202CD
:100CA0000A43F020E2679A7800011202E16F0240E5
:100CB0009C4801400A43E26704220792069A032AED
:100CC00001D9022207920120250000228446191D25
:100CD00088350878002818D060469040E66F02906A
:100CE00006436046E667161DB0404E78002E00D1E0
:100CF000CBE1E66F30430600E6678E78012E00D028
:100D0000C6E12E68029886432E600132079ED0B25B
:100D10000331B042DDD35B78002B03D08022636DBA
:100D2000134363656021039B626D5B010B408A4343
:100D300013436365BB782268043B59424B41202131
:100D40005B018A4313432360B9680698FFF7AAFC46
:100D5000059B9880E36C1B0C1B04E364BB78042B9D
:100D600000D09AE1A36840081B0C1B04002518431F
:100D7000A0600A2628003B78AB4200D993E17B783B
:100D8000049A934200D99DE1002800D0ACE13F21B4
:100D9000A26EFB788A430B401343A3663B79A26E95
:100DA000C0319B010B403F398A4313430122A366A4
:100DB000636DA83913436365636D0732134363653D
:100DC000059B22681B788A43DB000B40134323609A
:100DD0000DB0F0BD0A23039A200053430793079AEE
:100DE000FB689A180292079A9E5C029B31005B791D
:100DF000750808935A1E9341DBB21A000A93FFF755
:100E000015FE029B089A5B78934277D1012231004C
:100E10002000FFF7F9FD0223ED00AB400B93029B8E
:100E20009B79002B6FD01022029BAA401B7A002BCB
:100E300066D0636E13436366731CDBB20222190033
:100E400020000993FFF7E0FD636E0B9A134363667E
:100E5000029B0A9ADB79012B03D0089A53425A412C
:100E6000D2B220000999FFF7E1FD0422AA40636E87
:100E7000102193430122AA406366636E934380224C
:100E8000AA406366636E9343F2006366A218D36858
:100E90008B430B43D360D36849180B43D360402383
:100EA0007A69AB40D278002A32D0626E134363660F
:100EB0002023AB40626E310013436366029B200027
:100EC0001A79FFF743FC01213300080010339840E2
:100ED0000300226813432360079AFB689B189B79E1
:100EE000002B07D07318DBB2103399400B00226837
:100EF00013432360039B0133DBB2B4E6022286E78F
:100F0000636E934397E7636E0B9A93436366ACE714
:100F1000626E9A436266CBE710130020A48601003C
:100F2000FFFDFFFFFFF0FFFF079B20001B01089361
:100F3000089A3B699E189B5C02935D08737B02993B
:100F40001A000993531E9A41D2B2FFF76FFD337A0C
:100F5000099A934242D1012202992000FFF754FDE1
:100F6000EA00039204220399636E8A40102193439E
:100F70006366029BDA00A218D3688B430B43D360ED
:100F8000D36849180B43D3600123029922681031BA
:100F90008B4013432360737A002B2CD0029B2000DC
:100FA0005D1CB37BEDB21A000A93531E9A412900CF
:100FB000D2B2FFF73BFD022229002000FFF724FDFB
:100FC0000223039A09990A989340B27A814207D181
:100FD000002A07D1626E9A43626606E00222BBE7EE
:100FE000002AF7D1626E1343636601231035AB40CC
:100FF0002268134323604023039A93407A69D2788E
:10100000002A33D0626E1343636620230399626E15
:101010008B401343636601238B40626E1343636608
:101020008023F2798B40002A24D0626E13436366DA
:101030001022039B9A40B379002B1FD0636E134399
:1010400063660123029DF27A9D4329002000FFF789
:101050007DFB089A3B6901359B181A7B2000E9B299
:10106000FFF774FB079E0136F3B203E6626E9A4304
:101070006266CAE7626E9A436266D9E7636E93431B
:10108000DEE7E26F1A490A400BE6E66F864333E675
:101090002E6802983043286037E6A36801381B0C9D
:1010A0001B0480B262E633006B43FA680698D218DC
:1010B000538811780022013501920092FFF738FD24
:1010C000EDB258E60022049B38691B01C018438822
:1010D00001780192808800900698FFF729FD049B13
:1010E0000133DBB204934AE60023059A53706FE69E
:1010F000FF7FFFFF044B10308000C018002A01D092
:10110000036813600160704700FDFF1F1F22430941
:1011100010401E3A824002499B005A507047C04618
:1011200000E100E01F22430910401E3A82400249BC
:1011300020339B005A50704700E100E0044A1368D6
:10114000002B04DD013B1360002B00D162B6704719
:101150001813002072B6024A1368013313607047F7
:101160001813002070B5FF2489012140002816DAE9
:101170000F220240100003231825083883429B41A8
:101180000420D2002A409440914003400D481B188F
:101190001868A043186018680143196070BD1826CC
:1011A000094A83089B009B18C022C000304084403D
:1011B000814092009D58A5439D509C5821439950D1
:1011C000ECE7C0461CED00E000E100E030B50D7C2E
:1011D00003000C00087885B0002D13D1114A5B0084
:1011E000995C2A00FCF7DCFB617820780395E368C2
:1011F00000950293012301936368A268FCF794FBB6
:1012000005B030BD00222C21FCF7CAFB0023617819
:1012100020780393E2680093029201220192A3686E
:101220006268EBE7AC86010030B51A4B8200D558F6
:1012300087B02A7F6B6801AC2270002B1ED0012280
:101240006270154A6260EA68A2600022227421007E
:10125000E360FFF7BBFF2478696820004942FCF790
:10126000C5FB2000FCF784FB6A680C4B002A0ED0FB
:1012700001211A6A0A431A6207B030BD6370084B35
:1012800063602B69A36001232374AB68DFE702214D
:101290001A6AEFE71C13002060610640FC600640FC
:1012A000706106400E4B0F49DA690A40DA61C27E6E
:1012B000002A06D18268002A0FD002211A6A8A43C6
:1012C0001A6201215A698A435A61002383700361BB
:1012D0008360C3604360C375704701211A6AEEE7FB
:1012E000FC600640F8F0FFFF10B5C37E0400002B41
:1012F00002D1007FFCF748FB637D002B09D1200061
:10130000FFF7D0FFA37E002B03D02000193002F09E
:101310004FFC236A002B02D00420616A984710BD5D
:1013200070B5C27A0E4C857AE36D616895420BD137
:101330000F2211400E3A07258A402B4092B2816954
:10134000002901D09A4200D870BD436901391E7846
:101350000133266681614361E36D2B40EFE7C046B0
:10136000006006400F2370B50A4CE56D66681E40AC
:101370000E3BB34007269BB235409D4203D2090283
:101380008918216670BD837AC154C11801334A712E
:101390008372F7E700600640F8B5431D048CDB7FDD
:1013A00005000E00E7B2002B12D00623E4091C4012
:1013B0002200103A0421D2B2FFF7D4FF0F3C3A00CA
:1013C00000212800FFF7CEFFE2B2002E03D1F8BDC6
:1013D0007F00CA19D2B204212800FFF7C3FFF6E745
:1013E0002D4B8200F0B5D55889B02B0001902833E1
:1013F0001F78AA6903A9294C0F70002A35D00F2342
:10140000032660681840A36DB3439C4601238340C4
:10141000934200D913006046013B33400343A36568
:10142000012300264B701E4B0E744B606B698B6062
:101430000198CA60FFF7CAFE01213800FCF7F4FAF0
:101440001849019A3800FCF79BF93800FCF790FA2C
:1014500031002800FFF7A0FFAB69002B12D001225A
:10146000E3691343E36109B0F0BD0126A36D0E48A3
:101470000340A3650D4B4A704B60EB682A698B6093
:101480000E74D5E72A690121013AD2B22800FFF78C
:1014900069FF0222E369E4E72013002000600640B0
:1014A0006060064025150100FFFFFCFF70600640EC
:1014B000F8B51A4D1700AB69194A04001340AB6127
:1014C00003000833DB7F0E00002B0BD10300283311
:1014D0001878FCF759FA2369002B1CD00222EB691B
:1014E0009343EB61002F08D080222B6952001343F5
:1014F0002B612B69921813432B61002E02D080239D
:101500009B002B6600236361A361E36023610334C6
:101510000133E377F8BD0122EB69E1E700600640A3
:10152000FCE3FFFF194B800070B5C4580D00A369A0
:10153000002B10D001290ED000230321A361144BEE
:101540009A6D8A439A650122D9699143D961996953
:101550000A439A6170BD231DD97F00222000FFF746
:10156000A7FFE31DDB7F002B03D02000253002F016
:101570001FFB012D07D1A583E36A002BEAD00420CD
:10158000216B9847E6E70023A383F5E720130020AB
:101590000060064070B5094C8500285900262530AA
:1015A00002F021FB0121064A2E51136918208B43BA
:1015B0001361FFF7B7FD300070BDC0462013002057
:1015C00000600640F0B5444B87B00193830002935E
:1015D0001600019B029A0391D35802200333DB7F4C
:1015E000002B76D001273D4C05A93B30FCF7BEF817
:1015F00023695F21BB432361002E2FD0059B7143DC
:10160000581E0093EFF73EFBC0190025B84206D9DB
:101610000135072D03D03B00AB408342F8D33100A6
:10162000A940009B4808C018EFF72CFB06005F2874
:1016300017D8012817D9023E03213000EFF722FB0B
:10164000021E00D10122301A032800D2032011000B
:101650005308052E0BD80023012107E00E000725B3
:10166000E9E75F26E7E7002301210320022207279D
:10167000666ABE4335436562A66C194D3540002B42
:1016800000D101331B062B43A364A36C154D120438
:101690002B401A43A264A36C134A090213403F2251
:1016A0001943A164A36C104093431843029A019B11
:1016B000A0649A580D49636A00200B406362636A14
:1016C0000B490B406362039B937701222369134309
:1016D000236107B0F0BDC046201300200060064023
:1016E000FFFFFFC0FFFFC0FFFFC0FFFFFFFFFFF8CE
:1016F000FFFDFFFFF0B514000D000026012787B0A5
:10170000019005A93D20FCF731F8019A214B920088
:101710000293D450E31CE66026616661A661A6834D
:10172000DF772B8803922384AA78631DDA772A7ADD
:101730000333DA776A7A20331A70EB682000E362A9
:101740002B6931002363E31DDE776B682530A363CB
:10175000230034331E7002F03CFA66810E4C1820D0
:10176000FFF7D4FC200000F0C9FA6A68E978019814
:10177000FFF728FF30000399029BAA78CB582988ED
:1017800019840533DA772369BB433B43236107B0F0
:10179000F0BDC0462013002000600640134BF7B593
:1017A0001E00002301250C00114F8200915101926F
:1017B000CA1C4B618B61CB600B610090D577380000
:1017C0004B8100F09BFAA17FA26B0098FFF7FAFE15
:1017D000019B218C9B590534E27F19840533DA770C
:1017E0003B69AB431D433D61F7BDC046201300205C
:1017F00000600640034B8000C35819840533DA7734
:101800007047C04620130020F8B5174C85002C59AE
:101810000225E61CF77F002F14D0A261221D616112
:10182000D37700212300F1770833A583DB7F0F4DA9
:101830008B4209D1E023AA695B011343AB61FFF737
:10184000CFFD00252800F8BD2000FFF7A5FD2000F2
:10185000FFF766FD0322AB6D9343AB65AA69044BAA
:101860001343AB61EDE7C046201300200060064043
:10187000011C0000F8B51700244A8400A558022274
:10188000EC1CE67F002E15D000222F61E2772A1D86
:10189000D3770223AB832B00E9600833DB7F1C4E38
:1018A000002B09D1E023B2695B011343B361FFF759
:1018B00097FD00221000F8BD01212800FCB2FFF7BF
:1018C0006BFD621ED2B201212800FFF74BFD012201
:1018D00073681B051B0F9A40974200D394B2B36DF7
:1018E0000C4A013C1340C0222404920214401C43C1
:1018F000B465AA7AEB7A9A4204D0B269064B1343D4
:10190000B361D6E7B269054BF9E7C0462013002062
:1019100000600640FFFFFCFF031C0000021C0000EB
:101920000F4B800010B5C05800290DD003000833BC
:10193000DB7F012B08D18269002A08D00724094BDC
:10194000DB6D23409B180B60808B80B210BD036958
:10195000002BF8D0034AD26D5203520F9B1AF2E7C4
:101960002013002000600640F8B5794B8200D4585F
:101970000122784D06006B69134212D0A07AE37AF7
:10198000834200D187E007210F27EB6D0B40696888
:1019900039408A4092B2E17A884200D178E09A4296
:1019A00069D86B699B0714D5230034331B78072152
:1019B000002B00D19DE0E31DDB7F002B03D0200036
:1019C000253002F0F5F8032321003000A383FFF750
:1019D000E5FE6B690122DB0415D580235B016B6199
:1019E00000212000A283FFF763FDE31DDB7F002BB6
:1019F00003D02000253002F0DBF8E36A002B02D090
:101A00000420216B98476B691B0517D580231B01A8
:101A10006B61012200212000FFF74AFDE31DDB7FFF
:101A2000002B03D02000253002F0C2F84A4BA383DC
:101A3000E36A002B02D00420216B98476B695B0599
:101A400018D5E31DDB7F002B03D02000253002F0EA
:101A5000AFF880239B00A383012200212000FFF721
:101A600027FDE36A002B02D00420216B98478023D6
:101A7000DB006B61F8BD67187F79635CBC461B02B5
:101A8000634401312B66E1720721EB6D0B4082E765
:101A90000023638185E76369002B1DD0A269002ABA
:101AA00016D1231DD97F2000FFF702FDE31DDB7F48
:101AB000002B03D02000253002F07AF80023A38306
:101AC000E36A002B00D16CE70420216B984768E79C
:101AD0002000FFF725FC64E7AB699343AB6160E747
:101AE000E3682A6F1A70E3680133E3602369013BFE
:101AF0002361EA6D2369120C0A4219D0002BEFD141
:101B0000231DD97F00222000FFF7D2FCE31DDB7FDD
:101B1000002B03D02000253002F04AF80023A383D5
:101B2000E36A002B00D154E70420216B984750E76B
:101B3000002BE5D0AA6D9203920F9A4200D248E79B
:101B4000AA6D0649013B0A401B041343AB6540E7FD
:101B5000201300200060064003020000FFFFFCFF8E
:101B600070B55B4B5B4D8200D458AB690600012217
:101B70005B0716D5696D236A114200D172E0002B14
:101B800005D0627D002A02D00220616A9847E37E78
:101B9000012B5CD1EA691343EB6100232376022316
:101BA00023800123AA691A4217D0EA691A4214D085
:101BB000237E002B01D0484B23806368002B05D186
:101BC000236A002B02D00120616A98476368002BCA
:101BD00059D101332376FE336B66AB699B070BD576
:101BE000EB699B0708D5A068002859D1236A002B10
:101BF00051D13A4B23806B6F0121AB69AA695B0A13
:101C0000120A0B400A4255D1002B11D08023012229
:101C10009B00AB61013BFF3BAB61EB699343EB6125
:101C20002388022B01D1002323802000FFF75CFBD7
:101C3000AB6901225B0509D58023DB002280AB6103
:101C4000EB6920009343EB61FFF74EFB70BD002270
:101C500022769342A3D1637D9342A0D03000FFF758
:101C6000E3FA9CE7002B05D0627D002A02D0032016
:101C7000616A9847E37E002B00D090E7637D002BDC
:101C800000D18CE7EAE7E268013B1178013269662E
:101C9000E2606360A1E7616A9847A368002BA8D05F
:101CA00023696A6F1A70236901332361A368013BBA
:101CB000A360A1E7E27D0132D2B2E275012AA5D18B
:101CC000A27D002AA2D080225200AA619CE7C046D1
:101CD0001C130020FC60064001020000020200000C
:101CE000054B8200D35810B5002B02D1FFF73CFE04
:101CF00010BDFFF735FFFBE71C130020022302692C
:101D00009A431A4302610200FC32516999430B4322
:101D10005361002303615361704710B50020FFF742
:101D2000DFFF10BD02230361002303617047426996
:101D30000121120E10B5140003000C4002200A42CB
:101D400003D120001A698A431A6110BD0122436A37
:101D500093430B43436200207047036952021A43C6
:101D600009020A4302617047FC239B01994204D196
:101D70004369194341610020704701238B40426948
:101D800013434361F7E710B5012408318C408A40C2
:101D9000436AA3431A434262002010BD30B5456A2E
:101DA000064C9206254001246340DB0613430906D6
:101DB0000B432B434362002030BDC046FFFFFFF0C2
:101DC000FF22036C114093431943016400207047C4
:101DD000F0B58BB008930023012507000C00029397
:101DE00006930493444B07926D420993029B099A10
:101DF0009B00D358059380235B000393002301933A
:101E0000019B039A07989E18FF2376081E40059BA6
:101E1000B11C5943EEF736FF2B1BA54200D2631BC2
:101E2000A0424DD2221A03969A4200D20500039B8B
:101E3000019A9B1A012BE3D8059B911C59430798E3
:101E4000EEF720FF0600039B0798991C059B59435A
:101E5000EEF718FF331BB44200D9A31B021B8442C8
:101E600000D9221A9A4202D20600039B01932B1B2F
:101E7000AC4200D9631BA64229D2A21B9A422FD999
:101E8000A54232D13A6C049B12029B081906120A31
:101E90000A433A64396C194A380011401A040A435B
:101EA0003A643A6C16491B020A4013433B64049996
:101EB000FFF786FF2800089B069A1A600BB0F0BD5A
:101EC000021B934201D80196B1E70500FBE7321BE4
:101ED0009A42D5D8029B35000693019B0493CFE725
:101EE0003500029B0693019B0493029B01330293EE
:101EF000082B00D07AE7C5E7B0860100FFFF00FF9E
:101F0000FF00FFFFCB680A68DB06013A13434A7CF7
:101F1000D20713430A7C92071343CA7A120613436B
:101F20008A7AD20513434A7A920513430A7A5205F4
:101F30001343CA79120513438A79D20413434A79A9
:101F4000920413430A79120413430366704710B5D1
:101F5000002000F075FA10BDF0B58BB00991022198
:101F60001F00674B05928200D458012663690890D0
:101F70000691DB0160D463691B0E33425CD1614B77
:101F80003800D5586988EEF703FF8BB20693002B13
:101F900000D0B3E0320031002000FFF7DEFE320057
:101FA00031002000FFF7D9FE2B79002B04D08023CD
:101FB000226E5B03134323660022FC21EB1DDA77BC
:101FC00020008901FFF7D0FE8023A2691B01134383
:101FD000A361059B002B32D16B838023226E1B03F0
:101FE00013432366A36D484A1340A3650323A26DE0
:101FF0009A43013B1343A3656B1DDB7F012B28D163
:10200000099B2B61059B6B610023AB83EB832B79D1
:102010002F83002B03D02B8B01339BB22B83012307
:102020002B73059B002B03D00223A2691343A361EA
:102030000123A2691343A36106980BB0F0BD80236E
:10204000A2695B011343A3616F83236E2F4A134080
:10205000C7E76B880026012B03D0023B5A1E934131
:102060005E1C01210A00B2402B1DD87FF7402300DF
:102070000792099A643303910297002A37D0079A8E
:1020800000960192099AFBF74FFC059B002B17D095
:10209000EB1CD87F012322000393079B00210193AF
:1020A0007432059B02970096FBF73EFCEB1CD87F31
:1020B0001749089AFBF764FBEB1CD87FFBF758FC29
:1020C0002E1D1449089AF07FFBF75AFBF07FFBF7AF
:1020D0004FFC01232B73059B002B03D00222E369E5
:1020E0001343E3610122E3691343E361A4E7079A21
:1020F000032101922A0000963032C4E706969BE73E
:10210000BC03002024130020FFFFFCFFFFFFF7FFAC
:1021100071230100292301001B4B820070B5D558A3
:102120001A4BD45800232B736B1DDB7F0222002B2C
:1021300021D1E3699343E361E369013A9343E361A6
:1021400000F01EFAA369124A0A211340A36120007D
:10215000FFF70AFE6B79002B05D02800253001F02F
:1021600027FD00236B71AB6A002B03D000212800F0
:10217000EA6A984770BDA36993430122A361A369EA
:102180009343A361DCE7C04624130020BC03002076
:10219000FFFBFFFF364BF0B58000C558354B89B0CB
:1021A000C6580C0030000192FFF7C1FD071E03D096
:1021B0000127380009B0F0BD23892F491A00083AD9
:1021C00092B28A42F4D8E2682B80AA60A2790733DF
:1021D0002A71A17C6A1CD177E17C6A1D9BB2D17700
:1021E000DB0828736871032B3AD0042B3AD89BB2D2
:1021F0006B80227DEB1CDA77627D2B1DDA77A36979
:102200003000AB62E369EB6262792179FFF7BBFDD5
:10221000E26802AB30002168FFF7DAFD0222736A40
:102220001343736201233269134333610028BFD023
:10223000019B002B00D018602B8803A90393002377
:102240000493A2794B720A72A37C30008B722379BB
:10225000CB72029BCB60238A0B82FFF753FEA8E769
:102260000423C5E7013B9B0801339B00C0E7C04640
:1022700024130020BC030020F80F0000F8B5194B10
:1022800014008200D658184B07003000D1500D00C2
:10229000FFF748FD01213000FFF758FD0022012320
:1022A00011003000FFF77AFD01217368AA1CDBB230
:1022B00099403800D17721000022FFF76BFF041E00
:1022C0000ED1286328002100253001F082FC074B45
:1022D0000400D857FEF71AFF012233691343336114
:1022E0002000F8BDBC03002024130020BA03002006
:1022F00010B5002B02D0FFF72FFE0300180010BD11
:10230000084B10B58200D458FFF706FF01222000C9
:102310001100FFF722FD012220001100FFF71DFD33
:10232000002010BDBC0300200E4B820070B5D458B5
:102330000D4B0D00D358012904D10734FFF7E0FFFE
:10234000E57770BD2279002A03D01A6E07490A404A
:102350001A6600222283628380229969D2000A438E
:102360009A61EEE724130020BC030020FFFFEFFF7B
:1023700070B50C00012906D1034B8200D558FFF738
:10238000BFFF0735EC7770BD241300202A4B820075
:1023900070B5D458294B0600D5586B691B050CD570
:1023A0002369002B09D0FFF7ABFF0B212800FFF7B3
:1023B000DBFC01230734E37770BD6B69DB040CD5CC
:1023C0006369002B09D03000FFF79AFF0C21280029
:1023D000FFF7CAFC07340223EDE76B699B0705D5BD
:1023E000638B3000002B21D000F08EF86B69DB0787
:1023F00005D5238B002B02D0300000F035F8238B5D
:10240000002BD9D10122AB699343AB618023A96929
:10241000DB000B43AB61638B002BCDD16B699B0A57
:102420001342C9D03000FFF777FEC5E7FFF768FF1A
:102430000222E31DDA77D9E724130020BC03002031
:1024400010B5002809D1074B1B685A6A01231100F7
:1024500019401A4202D0FFF799FF10BD080000F0A2
:10246000E1F8FAE7BC030020F7B50721234B800011
:10247000C458234BC758A31CFA6DDB7F0A409B1A34
:10248000DBB20193019B002B0BD02379002B09D0E9
:10249000238B012B06D13B6E1A4A13403B66002367
:1024A0002383F7BD6188A28B23698A1A042A04DD7D
:1024B00004251E1E17D040CB0EE0A58B1E004D1B21
:1024C000ADB2002B0FD0012904D00229F3D11E8810
:1024D000023301E01E780133A08B23614019EEF72F
:1024E00041FD89B2A1837E66238B5B1B9BB2238354
:1024F000238B002BD5D0019B013BC1E72413002087
:10250000BC030020FFFFEFFFF8B51B4B8000C45851
:102510001A4BC758FD6D6D036D0F002D00D1F8BD2E
:102520000426796F6388E28B9A1AB24202DCE28B4E
:102530009B1A9EB200239AB2964210D8E08B618813
:102540008019EEF70FFD89B2E183638B9B1B9BB271
:102550006383638B002BE2D0013DEDB2DDE762695E
:10256000D80094460A00C2401000624610706269AA
:10257000013301326261DEE724130020BC03002036
:102580000A4B800010B5C458094AA3690B211340B7
:10259000A361A369074A20001340A361FFF7E4FB8E
:1025A0000C212000FFF7E0FB10BDC046BC0300205B
:1025B000FFF7FFFFFFEFFFFF184B820070B5D45805
:1025C000174BD5586B1DDA7F012A1ED1A36993439F
:1025D000A361A36901329343A361FFF7D1FF0026F2
:1025E0000122200011002E73FFF7B7FB012220000B
:1025F0001100FFF7B2FB6B79B34204D028002530FD
:1026000001F0D6FA6E71002070BD0222E369934397
:10261000E361E369013A9343E361DEE7BC03002031
:10262000241300202F4B820070B5D5582E4B060086
:10263000D4586B691B0508D52369002B05D0FFF71B
:10264000BBFF01230734E37770BD6B69DB0408D55A
:102650006369002B05D03000FFF7AEFF073402237B
:10266000F1E76B699B0705D5638B002B02D0300027
:10267000FFF74AFF6B69DB0705D5238B002B02D0E0
:102680003000FFF7F1FE238B002B03D10122AB6951
:102690009343AB61638B002B03D10222AB6993435D
:1026A000AB61638B002BCFD1238B99B2002BCBD1A5
:1026B000AB690E4A1340AB61AB690D4A1340AB6185
:1026C000A36A002B02D02000E26A98476379002BAE
:1026D00005D02000253001F06BFA00236371002340
:1026E0002373B1E7BC03002024130020FFF7FFFF92
:1026F000FFEFFFFF07B50138C0B2022806D8054B2F
:1027000001A9185CFBF732F801980EBD0B2001A956
:10271000F8E7C046D0860100F0B58D68CB7889B067
:102720000393ABB24C798F790093039B0E00002B7F
:1027300033D10B7B04930879FFF7DCFF049B020085
:10274000012B2AD1039B2800190002F0CFFA0025A3
