:1008000000380020110C00006D0C000093830100E3
:1008100000000000000000000000000000000000D8
:100820000000000000000000000000006D0C00004F
:1008300000000000000000006D0C0000F1820100CB
:10084000413001004B300100553001005F300100A4
:10085000693001006D0C00006D0C00006D0C000093
:10086000597E01006D0C0000754601007F460100B5
:10087000895801006D0C00006D0C0000C358010088
:100880006D0C00006D0C00006D0C00006D0C000084
:100890006D0C00006D0C00006D0C00006D0C000074
:1008A0008F66010035480100C36801006D0C00002F
:1008B0006D0C00006D0C00006D0C00006D0C000054
:100C0000FFFFFFFFFFFFFFFFFFFFFFFFFE7FFFFF75
:100C100072B610490F4A0F4B0E4C0E4D0D4E0D4F34
:100C2000B846B946BA46BB46BC460B490B4A521AAF
:100C3000013A05DD0020042308601944043AFBDA78
:100C400007488546074880470748804762B617F03F
:100C5000A5FBFEE70000000000FDFF1F003800209C
:100C600000380020E51901005D190100D0E7C046F9
:100C700002B4714649084900095C49008E4402BC2F
:100C80007047C046002243088B4274D303098B424D
:100C90005FD3030A8B4244D3030B8B4228D3030C4C
:100CA0008B420DD3FF22090212BA030C8B4202D3EE
:100CB0001212090265D0030B8B4219D300E0090A16
:100CC000C30B8B4201D3CB03C01A5241830B8B421F
:100CD00001D38B03C01A5241430B8B4201D34B0308
:100CE000C01A5241030B8B4201D30B03C01A52416D
:100CF000C30A8B4201D3CB02C01A5241830A8B42F2
:100D000001D38B02C01A5241430A8B4201D34B02DA
:100D1000C01A5241030A8B4201D30B02C01A52413E
:100D2000CDD2C3098B4201D3CB01C01A52418309F2
:100D30008B4201D38B01C01A524143098B4201D32C
:100D40004B01C01A524103098B4201D30B01C01A57
:100D50005241C3088B4201D3CB00C01A52418308D1
:100D60008B4201D38B00C01A524143088B4201D3FE
:100D70004B00C01A5241411A00D20146524110465E
:100D80007047FFE701B5002000F0F0F802BDC04653
:100D90000029F7D076E7704703460B437FD4002243
:100DA00043088B4274D303098B425FD3030A8B42FF
:100DB00044D3030B8B4228D3030C8B420DD3FF2269
:100DC000090212BA030C8B4202D31212090265D037
:100DD000030B8B4219D300E0090AC30B8B4201D3EA
:100DE000CB03C01A5241830B8B4201D38B03C01A31
:100DF0005241430B8B4201D34B03C01A5241030BA8
:100E00008B4201D30B03C01A5241C30A8B4201D358
:100E1000CB02C01A5241830A8B4201D38B02C01A03
:100E20005241430A8B4201D34B02C01A5241030A7A
:100E30008B4201D30B02C01A5241CDD2C3098B425F
:100E400001D3CB01C01A524183098B4201D38B01DC
:100E5000C01A524143098B4201D34B01C01A52417F
:100E600003098B4201D30B01C01A5241C3088B42C4
:100E700001D3CB00C01A524183088B4201D38B00AF
:100E8000C01A524143088B4201D34B00C01A524151
:100E9000411A00D201465241104670475DE0CA0F28
:100EA00000D04942031000D34042534000229C46E8
:100EB00003098B422DD3030A8B4212D3FC228901F2
:100EC00012BA030A8B420CD3890192118B4208D3C8
:100ED000890192118B4204D389013AD0921100E02A
:100EE0008909C3098B4201D3CB01C01A524183093E
:100EF0008B4201D38B01C01A524143098B4201D36B
:100F00004B01C01A524103098B4201D30B01C01A95
:100F10005241C3088B4201D3CB00C01A524183080F
:100F20008B4201D38B00C01A5241D9D243088B4265
:100F300001D34B00C01A5241411A00D20146634608
:100F400052415B10104601D34042002B00D549426C
:100F5000704763465B1000D3404201B5002000F0AB
:100F600005F802BD0029F8D016E770477047C04663
:100F7000D0400B00D1409C46203AD3401843524207
:100F800063469340184370479140030090409C464D
:100F9000203A9340194352426346D3401943704765
:100FA0008446100062468C461900634600E0C04645
:100FB0001FB51AF0ABFB002801D40021C8421FBDA9
:100FC00010B51AF0EBFA4042013010BD10B51AF01E
:100FD0009DFB002801DB002010BD012010BDC04694
:100FE00010B51AF093FB002801DD002010BD012090
:100FF00010BDC04610B51AF015FB002801DC00201A
:1010000010BD012010BDC04610B51AF00BFB002822
:1010100001DA002010BD012010BDC0468446080042
:101020006146FFE71FB519F05DF8002801D40021E3
:10103000C8421FBD10B518F0DDFF4042013010BDA1
:1010400010B519F04FF8002801DB002010BD012079
:1010500010BDC04610B519F045F8002801DD00208C
:1010600010BD012010BDC04610B518F0EBFF0028E0
:1010700001DC002010BD012010BDC04610B518F0E5
:10108000E1FF002801DA002010BD012010BDC0469C
:10109000002B11D1002A0FD1002900D1002802D045
:1010A0000021C943080007B4024802A14018029079
:1010B00003BDC046B9FEFFFF03B4684601B5029800
:1010C00018F022FC019B9E4602B00CBC7047C04643
:1010D0001C2101231B04984201D3000C10391B0A68
:1010E000984201D3000A08391B09984201D300092C
:1010F000043902A2105C40187047C0460403020283
:1011000001010101000000000000000010B50029ED
:1011100003D1FFF7DDFF203002E00800FFF7D8FF22
:1011200010BDC04610B50800202117F0A8FE002011
:1011300010BD10B51C00080011009AB217F0D0FEC7
:10114000200010BD10B51C00080011009AB217F065
:101150003BFF200010BD10B510F040FB10BD00009B
:1011600010B51E2303220549054800F0A8F9002800
:1011700002D10122034B1A7010BDC046C0FDFF1FF3
:10118000600500208805002010B5094B1B78012B55
:101190000BD1084C200000F0CBF9002801D1C0464B
:1011A00010BD200000F098F9FAE701204042F7E76F
:1011B000880500206005002010B5064B01001B7853
:1011C000012B04D1044B180000F054FA10BD01208B
:1011D0004042FBE7880500206005002010B5064B63
:1011E00001001B78012B04D1044B180000F0A6FA73
:1011F00010BD01204042FBE788050020600500206B
:1012000070B5104B06001B78012B18D10E4D2B68C2
:101210009A68EB68013A53438B4210D300290ED0F1
:101220000139280000F0C5FA31000400280000F060
:1012300085FA0443280000F0B5FA204370BD012070
:101240004042FBE7880500206005002010B50B4BED
:1012500001001B78012B0DD1094803689A68C36807
:10126000013A53438B4205D3002903D0013900F0E2
:10127000A0FA10BD01204042FBE7C04688050020CF
:101280006005002010B5054B1B78012B03D10448E5
:1012900000F088FA10BD01204042FBE788050020DD
:1012A0006005002010B5054B1B78012B03D10448C5
:1012B00000F0CEF910BD01204042FBE78805002078
:1012C0006005002010B5054B1B78012B02D100F002
:1012D00023F810BD01204042FBE7C04688050020EE
:1012E00010B5054B1B78012B02D100F059F810BD49
:1012F00001204042FBE7C0468805002010B5054BA1
:101300001B78012B02D100F063F810BD0120404290
:10131000FBE7C04688050020F0B50E00002193B021
:1013200004002E2206A80391059104911BF048FAAF
:1013300009200322FF2168441BF042FA0A231E22DF
:10134000210001AD05A803AF01962B711BF04EFAE9
:10135000C046A02008222900C000FFF7FCFE00289C
:1013600018D1012405AD11200322290068440396F9
:101370003C711BF03BFAC046082239000748FFF7D2
:10138000EAFE002806D10134E4B203350B2CEAD181
:1013900013B0F0BD01204042FAE7C046010500004D
:1013A00037B505000C000822FF2168461BF008FA3B
:1013B000C0460095C0466B466A461C7103236946C9
:1013C000537102480822FFF7C6FE3EBD0205000029
:1013D000012307B55B420090082269460248019349
:1013E000FFF7B9FE0EBDC0460305000010B5436807
:1013F0004469CB18016859430423A04710BD836892
:1014000010B5046848680433584363680A680830B4
:10141000D21823685343C01810BD37B50468019231
:10142000FFF7EDFF010025690423200001AAA8476A
:1014300037BD70B505681400FFF7E1FF6E69010064
:10144000042328002200B04770BD13B54368019201
:10145000CB18016804695943042301AAA04713BDAE
:10146000FF2270B504000068120643680568CB18B7
:101470005D430E00FFF7E9FF20682900C368984725
:10148000220001CA0423291D0569A8473100024A28
:101490002068FFF7DAFF70BD00FFFFFF4B68C268EE
:1014A00001334B60934209DB002200680B688068BF
:1014B00001334A600B60834200DB0A60704710B55D
:1014C00004000160426083600868191D0838FFF756
:1014D000D9FBE060002010BD70B504000025236832
:1014E0009B68AB420CDC0025236800209B68AB4264
:1014F00013DC20616061A061E0612062606270BD08
:10150000002016F0C3FF290000222068FFF79DFF8E
:10151000012016F0BBFF0135E1E716F0B7FF290007
:101520002000FFF79DFF012016F0B0FF0135DBE73B
:10153000F0B500250400036889B09F68424B013F65
:10154000039502950495206801938368AB4227DCDC
:10155000029B002B46D0039B5B421F400023A761E8
:10156000E361A369BB425BD0049B236100236361F9
:1015700025002269A36910359A4203D16269E369A3
:101580009A4208D006AA29002000FFF752FF2F4BED
:10159000069A9A4253D1203400200CCD0CC423E08B
:1015A00043680668EB185E434369059605991E007B
:1015B00006AA0823B047069B002B13D0FF22120671
:1015C000934201D0013305D120000599FFF748FF70
:1015D0001D4B0693069B1C4A934207D107996268EC
:1015E000914211D00120404209B0F0BD174A934208
:1015F000F8D1079962689142F4D1019A12498A425E
:101600000CD00122039205E0104A0199914203D0C7
:1016100001220292013596E76F1EF9E70495F0E783
:10162000250018352900200006AAFFF702FF069BB7
:10163000013399D029002000FFF730FF91E72900FE
:101640002000FFF72BFF93E700FFFFFF0000FFFFE5
:1016500010B504000368806999682369C01A4018AE
:10166000FFF780FCE068E3694843C0186369C01A6B
:1016700010BD0000F0B507680400806985B00191D5
:101680000130B968FFF76EFC380003AA0D00294F3E
:10169000FFF7ACFE039BBB421BD02369AB4208D1D2
:1016A000002321686A1C8968636122618A4200DB29
:1016B0002361236AAB4208D1002321686A1C896830
:1016C000636222628A4200DB236229002000FFF766
:1016D000C7FE03AAA1692068FFF788FE039B164A8C
:1016E000BB4221D1A1692068FFF7AFFE2500183564
:1016F000104A29002000FFF790FE29002000FFF784
:101700007EFE2768A368011D019A38003E69B04734
:1017100029002000084AFFF780FE20002900FFF77B
:10172000BDFE002005B0F0BD9342DFD00120404255
:10173000F8E7C04600FFFFFF0000FFFFF0B5040020
:1017400085B001912500226AA36920359A4203D110
:10175000626AE3699A421FD003AA29002000FFF7BA
:1017600068FE0F4B039A9A4211D129002000FFF71F
:1017700046FE2768011DA368019A38007E69B047BC
:1017800020002900FFF78AFE002005B0F0BD2900E7
:101790002000FFF783FED5E701204042F5E7C04671
:1017A0000000FFFF03002033103006C806C30020EE
:1017B000704770B505000E000124B44201D9601EC7
:1017C00070BD290028002031FFF768FE0134F4E7DE
:1017D00070B50D0004000A490A4817F0D1FA16F056
:1017E0009DFD094B0100180017F0CAFA2A002100DC
:1017F000064817F0C5FA064817F0C2FA70BDC04691
:1018000099C8010016C8010023C801002DC80100B5
:101810003AC8010037B56A4600230500D01DD371D0
:1018200009F0CAF8041E07D16B46DB79002B03D000
:1018300001220D4B1A7028700C490D4817F0A0FAC0
:1018400016F06CFD0B4B0100180017F099FA2100FF
:10185000631E9C412A78084817F092FA074817F04F
:101860008FFAE0B23EBDC046A5050020B9C8010010
:1018700016C8010023C801003CC801003AC8010095
:10188000F7B51C4E1C4D3100280017F079FA16F000
:1018900045FD1A4C0100200017F072FA184F194844
:1018A0003978C9B217F06CFA174B1800019317F08A
:1018B00067FA3100280017F063FA16F02FFD0100D7
:1018C000200017F05DFA114C11482178C9B217F0C9
:1018D00057FA019817F054FA00220E4B1A700AF0CA
:1018E000BDF8431E98410C4BC0B238701870207080
:1018F000F7BDC046A9C8010016C8010023C80100F1
:10190000E013002051C801003AC80100700B00200C
:1019100059C80100A4050020A1080020002070473C
:101920000020704710B509F08BFE10BD10B509F00E
:1019300099FE10BD10B50AF0BDF910BD70B50500D7
:101940000AF09BF90A212800FFF70CFB2800CCB213
:101950000A21FFF721FAC0B20A280BD8FFF788F94D
:10196000060B0D0A0A0A0A0A0A0A0F000848210093
:101970000AF08AF970BD0748F9E70748F7E7074911
:10198000682016F0B5FD06496A2016F0B1FDF1E7B2
:1019900061C8010063C8010065C8010067C8010093
:1019A00069C8010010B50AF063F910BD10B50AF05E
:1019B00077F910BD10B50AF0F1F910BD10B50400AB
:1019C0000AF05BF9632C10D80A212000FFF75AF9BE
:1019D000C1B2682016F062FD0A212000FFF7D8F995
:1019E000C9B26A2016F05AFD10BD0349682016F0EE
:1019F0007FFD0121F5E7C04665C8010070B505000F
:101A000009F06AFA2B78064A04001370002B01D003
:101A100009F0A0F929780020FFF7DAFE20B270BDA6
:101A2000A405002010B509F095F80400010001207C
:101A3000FFF7CEFE20B210BD10B509F0C3F80400C8
:101A400001000220FFF7C4FE002C0ED116F066FC48
:101A5000084B094A18601368092B08DC591C1160EF
:101A6000064A5B00118E064AD15220B210BD1460A6
:101A7000FBE7C0469C0800208C050020300C0020AD
:101A80009005002010B509F001F9041E03D1054BA3
:101A9000DA6C054B1A6021000320FFF799FE20B293
:101AA00010BDC046300C0020B805002010B508F06D
:101AB000BDFF431E9841C0B210BD10B50AF078F9C1
:101AC000002010BD024B1B785A1E934103707047D3
:101AD0000C0D002000220A4B10B50A490A481A7062
:101AE00017F04EF916F01AFC084B0100180017F019
:101AF00047F9074817F044F9064817F041F910BDB7
:101B00000C0D002082C8010016C8010023C8010086
:101B10006BC801003AC8010010B509F097FF431ED9
:101B20009841C0B210BD10B509F094FF431E984112
:101B3000C0B210BD10B509F0EDF910BD10B509F037
:101B4000FDF910BD10B509F02FFA10BD10B509F060
:101B500065FD10BD10B509F009FE10BD10B509F006
:101B600019FE10BD10B509F029FE10BD10B509F021
:101B7000D1FE10BD10B509F065FE10BD10B509F01D
:101B80006DFE10BD10B509F075FE10BD10B509F061
:101B900085FE10BD10B509F095FE10BD10B509F019
:101BA0009BFE10BD10B509F0A1FE10BD10B509F0E7
:101BB000A7FE10BD10B509F0FDFF10BD10B50AF06D
:101BC00013F810BD10B50AF035F810BD10B50AF0C5
:101BD00025F810BD10B509F08FF909F08DF9124BF9
:101BE000124A997AC9B21172D97AC9B25172597A24
:101BF000C9B2D171D97B187C01435173997BC9B2A9
:101C000011735979C9B211719979C9B25171997821
:101C1000C9B29170D978C9B2D170197BC9B2917229
:101C20005B7BDBB2D37210BD1A0C0020A60500202E
:101C300010B509F081FD10BD10B509F0E3FD0120DC
:101C400010BD10B509F0E4FD012010BD10B509F07C
:101C5000EBFD012010BD10B509F0E0FD012010BD25
:101C600010B509F0E7FD012010BD10B50AF0FCF930
:101C7000012010BD10B50AF003F910BD10B50AF02F
:101C80001BF910BD10B50AF035F910BD10B5C046EE
:101C90000AF048F9C04610BD10B50AF04DF910BD64
:101CA00010B50AF075F910BD10B50AF085F910BD30
:101CB00010B50AF08DF910BD10B50AF08FF910BDFE
:101CC00010B50AF07FF910BD10B50AF08DF910BDFE
:101CD00010B50AF08FF910BD002801DBC84070472D
:101CE000C043C840C043FAE7F0B5234B87B0234D4B
:101CF00005933823EA5E0D230400416800680393CE
:101D00001F4B02931F4B01931F4B0093059B00F049
:101D1000D1FB00221D4B06000F00FFF76BF90028D6
:101D200024D1002230003900194BFFF74FF9002869
:101D30001FD1206861683823EA5E0D230393104B9E
:101D40000293144B0193104B0093059B00F0B2FBE0
:101D50002A686B6819F04CFD32003B0018F0A0FDBA
:101D6000A268E36818F09CFD07B0F0BD0026074F9D
:101D7000DFE70026064FDCE74CCA0100980600208A
:101D800068CA010048C901008ACA010000CCB040FD
:101D900000408F40C6C80100F0B50D26464F8BB0FD
:101DA00004000D0038217A5E416800680396434EB6
:101DB000434B0296434E0196434E009600F07AFB49
:101DC0000022424B069007913868796819F010FD9F
:101DD0001AF06AFC3E49061C386B18F0D1F9011C58
:101DE000301C17F0E7FF1AF017FC0022394B19F0EE
:101DF000FFFC2268636818F053FD0022334B060095
:101E00000F00FFF7F7F800280AD100220023300066
:101E10003900FFF7DBF8002804D00026002701E096
:101E200000262A4F80222E606F600D27A3681206BD
:101E30000493E368204E9B1805933821725E206856
:101E4000616803971D4F1E4B0297234F01971E4F4A
:101E5000009700F02FFB002208900991306871680C
:101E60001E4B19F0C5FC069A079B19F07DF81C4A19
:101E700006000F00089809991A4B19F0B9FC069A48
:101E8000079B19F0B5FC02000B000498059919F0A6
:101E90006BF802000B003000390018F001FD002241
:101EA0000C4B19F0A5FCA268E36818F0F9FCA860D7
:101EB000E9600BB0F0BDC0469806002068CA01007A
:101EC0004CCA01009ECA01008ACA010000005940A4
:101ED000000061450000E03FCAC9010000408F409A
:101EE000FCA9F1D24D62503FF7B55B4C5B4FA57C2E
:101EF0001E780195258ABD4201D801352582257DB0
:101F0000002D26D101262675E674554C25700478DF
:101F1000002C04D0524C25780124002D06D01D78C9
:101F20000124002D02D10C78651EAC4101250A9ECA
:101F30006C403470484C267E002E23D12576E57502
:101F4000089DE660A6602E700078002839D0002039
:101F50003AE0E57C012D08D1002ED8D1019F002F59
:101F6000D5D002272682E774CFE79625268AED0092
:101F7000AE4202D21D78002DC9D00125E57400259E
:101F8000374CC3E7E67D0578012E15D1002D01D031
:101F90000025A5600D78002D01D00025E560314DAC
:101FA000A668AE42D0D9E668AE42CDD90225E57525
:101FB000013D089E3570C7E7002D18D10D78002D22
:101FC00015D1254880680130A0600878002188423A
:101FD00001D1E1680131E160A17D00290DD101202D
:101FE000A075022061606075099801700DE0002500
:101FF0000126E560A560E675DBE7607D11780128C4
:102000001AD1002909D0002121601278002A0BD0B2
:1020100000222260626801320AE064252068684379
:102020009135FF35A842DCD82268013222600022B7
:1020300062601B78A374F7BD002901D16160E4E7F9
:102040006420616841439130FF308142E0D9002132
:10205000216001316175C7E7BC050020FE07000063
:10206000D8050020E0A50100014B18607047C0466C
:10207000DC05002070B5002905D1124BC0171840AF
:10208000114BC01870BD06000D00002808DA46424A
:10209000002908DA30004942FEF7F4FD00B2F1E70A
:1020A0000029F9DA4D4229003000FEF7EBFD290046
:1020B00004003000FEF76CFE4B1E9941641860422C
:1020C000ECE7C0460100FFFFFF7F0000F8B51600F7
:1020D000069A050012780800002A0ED0684C694F55
:1020E000A279002A0AD10123A37123713B68664AB1
:1020F000934200DCBDE0079B1A60F8BD21792A7885
:10210000012911D1002AF1D00022604918882260EB
:102110000C235F4A00F089F90100B02000F0DCFBDD
:102120005C4B3860A380E1E763793D68012B5FD1A8
:10213000002ADBD12668002E18DBFA2189008E42A6
:1021400011DB3000FEF728FE002D34DAFA232D18BB
:102150009B0058433D60002E42DB4F4BF3188342F7
:102160000FDD4E4B236002236371BFE780231B0604
:102170009E420DD1002D2BDA494A731B93422BDB73
:102180003E60FA2130008900FEF7ECFE2160EAE7AC
:10219000444B9E42E7DAFA2130008900FEF7FCFD4D
:1021A000002D08DA80231B065B1B8342CEDD8023D3
:1021B0001B063B60E5E7002DC8D0384B5A1B824216
:1021C000C4DA3B60002EDCDAFA239B00584307E0B8
:1021D000354BED183D60D4E7334B3448ED183D6086
:1021E00080231B06F3188342CBDA80231B06B9E752
:1021F000002A00D17AE7012383216371C9050068B1
:1022000017F0BEFF316817F0BBFF294917F0D2FD68
:102210009E21C9052568061CFEF712FF002804D17F
:10222000002D00DB23D11D480AE0CF21301C090618
:10223000FEF724FF002806D1002D0EDB80200006CB
:102240002D18256052E7301C18F07CFA002D08DAB2
:1022500080231B065B1B8342F2DD80231B06236069
:1022600044E7002DECD00D4B5B1B8342E8DA0B4BAF
:10227000F5E7002B00DA0023079A13603DE7C0461C
:10228000E0050020E8050020A0208F0054CB0100CD
:1022900020CB01000202000001000080FFFFFF7F51
:1022A000663BDFFF19FCFFFF653BDFFF8802008014
:1022B00000007A44014B18607047C046EC050020CE
:1022C000F7B50E008F21C9051D00071C0192FEF70E
:1022D000B7FE002846D00021381CFEF7CFFE0028AC
:1022E00042D0381C17F0DAFA83B20093308818F025
:1022F00095FA391CFEF7B8FE041E42D16B00985BBC
:1023000018F08CFA391CFEF7AFFE002824D02A0002
:102310006B08111B012929D86300F35A1800009398
:1023200018F07CFA011C381C18F068F86300F618E5
:10233000071C009B7088C01A80B218F06FFA011C4D
:10234000381C17F037FD071C019B6600985B18F0DE
:1023500065FA0090AC4217D1019B6D00E85A18F065
:102360005DFAFEBD104BC0E70090BFE75900895BE6
:102370000098814203D91A00A3185B08C9E71C0022
:10238000FAE700240027DFE7019B9B19588818F023
:1023900045FA009918F032F8391C17F0F1FE00994F
:1023A00017F07EFBDDE7C046FFFF0000F8B5002414
:1023B000150000228E5E2200864213DA5A00525E19
:1023C000824228DD00245A081E1B012E19D8620003
:1023D0008B5A89184988C01AC91A000489B2FEF7B5
:1023E00051FC0200013464002B5B2D19023D298849
:1023F0008B4214D35B1A98B25043000C081880B279
:10240000F8BD5600765E864203DD1300E2185208DE
:10241000DAE71400FAE780225C1E5202E2E7CB1AE8
:102420009BB25A43120C881AE9E7F7B500920A8862
:102430000D0082423BD25A00525A824233D90024C4
:102440005A08191B012924D86700EE5BED19801B7F
:1024500080B218F0E3F901906888801B80B218F010
:10246000DDF9011C019817F0A5FC051C009BA400D8
:102470001E591C19311C606817F0C0FF291C17F089
:102480007FFE18F05FF90400301C18F05BF920188B
:10249000FEBD5100495B814203D91300E218520886
:1024A000CFE71400FAE7FE255C1EAD05DEE7002449
:1024B0000025DBE7F0B589B01F0004928D4B0022A8
:1024C00005000E00FEF782FD002800D1E9E00022A1
:1024D000002328003100FEF797FD041E04D02800D9
:1024E000310017F0F3F984B2109B38881B68019310
:1024F0001AF06EF82A003300FEF77CFD00900028E9
:1025000000D0DBE0019B5B00D85B1AF061F8330080
:102510002A00FEF76FFD019B002800D1CFE0019A51
:102520005B080099511A012900D9BCE0009B5B00AF
:102530000693FB5A180002931AF04AF802000B00A7
:102540002800310019F01CFC069B0400FF18788855
:10255000029B0D00C01A80B21AF03AF802000B007C
:102560002000290018F000FD02900391109B5B6889
:1025700006930E9B00229B5E049A934200DBB0E020
:10258000069B0E9A5B009B5E049A934200DCAEE0D1
:102590000024069B069A5B08111B012900D994E0D0
:1025A0000E9B62009D5A049B581B80B21AF010F8D3
:1025B0000E9A630094466344060058880F00401B3F
:1025C00080B21AF005F802000B003000390018F054
:1025D000CBFC04900591119B009A63439B180793D1
:1025E0005D000F9B585B19F0F3FF009B019A0600FA
:1025F0000F00934214D00F9B5D19688819F0E8FF13
:1026000032003B0019F0BCFB029A039B19F0F0F872
:1026100002000B003000390018F042F906000F00EC
:10262000069B9C4239D0119A079B944663445B00F9
:102630000693069A0F9B985A19F0CAFF009B019ABD
:1026400004000D00934216D00F9A069B94466344F3
:10265000588819F0BDFF22002B0019F091FB029A57
:10266000039B19F0C5F802000B002000290018F0A8
:1026700017F904000D0032003B002000290019F07A
:102680007FFB049A059B19F0B3F802000B003000A1
:10269000390018F005F906000F003000390009B0C4
:1026A000F0BD154C20E75900C95BA14204D91A00BE
:1026B000009B9B185B0834E70093F9E70023002494
:1026C000009300230293039450E70E985900095E8B
:1026D0000498814203DD1A00A3185B085CE71C0024
:1026E000FAE70024002200230492059373E7069C76
:1026F000F8E7C0460000F040FFFF0000F0B587B0EB
:1027000005918F21C9051500061C0393FEF798FC5F
:10271000002800D1B9E00021301CFEF7AFFC071EF5
:1027200003D0301C17F0BAF887B20D9B28881B68BD
:10273000019318F073F8311CFEF796FC041E00D0CC
:10274000AFE0019B5B00585B18F068F8311CFEF7A6
:102750008BFC002800D1A8E0019B019A5B08111BAB
:10276000012900D993E06700EB5BEF191800029391
:1027700018F054F8011C301C17F040FE029B061C98
:102780007888C01A80B218F049F8011C301C17F084
:1027900011FB04900D9B5B680293039B00229B5EE0
:1027A000059A934200DB8EE0029B039A5B009B5EDE
:1027B000059A934200DC8AE00025029B029A5B089E
:1027C000511B012900D972E0039B6F00DE5B059B62
:1027D000981B80B218F022F8039B0590DF197888C7
:1027E000801B80B218F01AF8011C059817F0E2FA65
:1027F00003900E9B6B431B1905935F000C9BD85BEA
:1028000018F00CF8019B061C9C420FD00C9BDF19A2
:10281000788818F003F8311C17F0F0FD049917F0D0
:10282000AFFC011C301C17F03BF9061C029B9D42BB
:1028300028D00E9A059B944663445D000C9B585B20
:1028400017F0ECFF019B071C9C420FD00C9B5B19FF
:10285000588817F0E3FF391C17F0D0FD049917F0E2
:102860008FFC011C381C17F01BF9071C311C381C8D
:1028700017F0C4FD039917F083FC011C301C17F0FE
:102880000FF9061C301C07B0F0BD124F4DE7590080
:10289000495BB94203D91A00A3185B085FE71C0023
:1028A000FAE700240023049374E7019CFAE70398F5
:1028B0005900095E0598814203DD1A00AB185B08D8
:1028C0007EE71D00FAE700250023039391E7029DB0
:1028D000FAE7C046FFFF000007B501AB6A4600F00B
:1028E00015F8009B002B03DC04D1019B002B06DABA
:1028F000054805E0013304D1019B002B01DA019862
:102900000EBD80200006FBE7FFFFFF7FF7B59C466A
:10291000C317C4185C40CB170192CA185A40160C52
:102920003700230CA4B2674392B20093534362432F
:102930003C04A4181D042D1994429241A542A441BF
:10294000524264421219009C3F0C66431B0CFB1858
:102950009B199B1800280DD000290BD0C217101A04
:10296000CA17521AC00FD20F904203D06D42002DE9
:1029700005D0DB43019A136063461D60F7BD5B42DF
:10298000F8E70000F0B5B9B00991109201004022BB
:1029900028A819F02BFF00240023209321942493CE
:1029A00025942293239426932794022300240D93A5
:1029B0000523634328AA0C93DB00D5182A686B68AB
:1029C0000A920B930C9B20AA02330693E300D318C0
:1029D0000021002219605A6003231B1B1800069A6D
:1029E00028A9119307F0ACFA0022002306000F007B
:1029F000FEF7E6FA002800D061E128686968320035
:102A00003B0000F0F7FA2E686F68049005910022F1
:102A1000002330003900FEF7F7FA00280BD080229F
:102A200012069446049B1493059B63441593149AD1
:102A3000159B049205930C9B00221B1B04330F93E0
:102A4000049B1693059B5B005B081793D423169891
:102A500017999B04FEF7BAFA002800D1FCE00C9B02
:102A600028AADB00D51800230E932E000E9B069F8C
:102A700001330E930F9B002208369F4200DCD6E004
:102A800004980599BC4B18F0B3FE00220490059100
:102A90000A980B99B84B18F0ABFE049B0A900B9167
:102AA0001893059B00225B005B081993D4231898A8
:102AB00019999B04FEF78AFA002802D00E9B142B6A
:102AC000D3D1069A119828A907F03AFA02000B0010
:102AD0000A980B9900F08EFA0022049005910A984A
:102AE0000B990023FEF790FA00280BD080221206E3
:102AF0009446049B1A93059B63441B931A9A1B9B51
:102B0000049205930498059920ABE4001C190A9AD5
:102B10000B9B19F035F9049A059B18F025FA049AD5
:102B2000059B206061600A980B9919F029F9020051
:102B30000B000020914918F017FA06000F00069BC1
:102B40000F9A0835934200DC7AE000240498059936
:102B5000D42300229B0418F04BFE0E9B01340490FA
:102B60000591A342F2D10C9B28AADB00D31804994B
:102B7000059A19605A600D9B012B00D0A4E0082231
:102B800028A9109819F032FE109B00240025180087
:102B90009C60DD601022103030A92494259519F036
:102BA00025FE0223269427950D9F0A9305237E1C5C
:102BB0005E43731F0C93002F00D0E8E000206F49A4
:102BC00028AADB00D31818605960209B219C04932D
:102BD00005940498059900220023FEF7F1F90028D6
:102BE00000D0D4E00424664B28AAF318DB00D518E3
:102BF0000022286869680023FEF7E2F9002800D067
:102C0000C0E0350033190693069BAB4200DC0BE1B4
:102C1000EB00083B28AAD118086849680022002365
:102C2000FEF7CEF9002800D121E10135ECE730684C
:102C30007168514B18F0DCFD01373060716019E7A5
:102C40003B0028686968320018F0D2FD069B2860B6
:102C500069600133069372E720ABE4003200049808
:102C600005991C193B0019F08BF8049A059B18F084
:102C70007BF9049A059B206061603000390019F0EF
:102C80007FF802000B0000203C4918F06DF90400A9
:102C90000D000C9B28AADB00D6180F9B069A08365D
:102CA000934200DA5FE7306871682B00220018F069
:102CB0009FFD069B3060716001330693EDE70A9B30
:102CC0000B9C049305944EE700222C4B28922993E9
:102CD000209B219C069307940698079900220023C5
:102CE000FEF76EF900281BD128AD2F000426B86925
:102CF000F96900220023FEF763F9041E0CD1B442E7
:102D000016D0286A696A002200230835FEF758F9B0
:102D100000282FD00134F2E7013E083F002EE6D113
:102D2000049B059C2893299401231C000D933FE6E6
:102D30000024012524AF28AB21003000009328AAED
:102D400005230297019506F0C5FF802212069446DE
:102D5000069B21001C93079B300063441D930523B1
:102D6000039328AB0293019700951C9A1D9B07F0D3
:102D700096F8D5E70124DCE70000907C0000F03FE6
:102D8000FEFFFF1F013C083D002C00D030E7F31B85
:102D9000013B0693414B28AAF318DB00D418FF002F
:102DA00020ABDB191A685B6804920593049B059AB3
:102DB0001293802394461B066344F51E1393069BCF
:102DC0009D4256DD0C9B28AADB00D4180020049AF3
:102DD000059B334918F0D4FF0A9B20606160012BEA
:102DE00050D1289A299B09990A604B602A9A2B9BFB
:102DF0008A60CB602C9A2D9B0A614B612E9A2F9B87
:102E00008A61CB61309A319B0A624B62329A339B62
:102E10008A62CB62349A359B0A634B63369A379B3E
:102E20008A63CB6339B0F0BD0023069324AB351F12
:102E3000029328AB20000699009328AA330001953D
:102E400006F048FF802212069446049B20001E9341
:102E5000059B069963441F9328AB029324AB01930F
:102E6000039600951E9A1F9B07F019F88FE7012320
:102E7000DBE720686168129A139B18F0B9FC0135F2
:102E800003C49CE7B31F28AADB00D318002100224B
:102E900019605A600D9B00270A9387E6FCFFFF1F0D
:102EA0000000F03FF0B516001F00002204000D00E6
:102EB00000233000390089B0FEF782F80022002894
:102EC00000D067E0002320002900FEF779F80028F1
:102ED00000D065E079004B08009601936B0020005C
:102EE0005908009A019B17F0DBFC02000B000490CC
:102EF00005912000290018F037F8049A059B0690E8
:102F000007913000390018F02FF8069B0F001C00C5
:102F1000079B49005B005D08060002004B0820008B
:102F2000290000F067F802000B00009001912000DA
:102F3000290018F019F822002B000290039106983E
:102F4000079918F011F804000D0002000B00300082
:102F5000390018F04DFC009A019B18F005F8009A12
:102F6000019B06000F000498059918F041FC22000F
:102F70002B0018F03DFC04000D000299039A0E9BF3
:102F800019605A600F9B1E605F60109B1C605D6043
:102F900009B0F0BD074B0026002702920393ECE72F
:102FA0000022002334003D00002602920393014FCB
:102FB000E3E7C0460000F03F002001497047C046EB
:102FC0000000F07FFF20C00570470000002001498D
:102FD0007047C0460000F0FF00487047000080FFC7
:102FE000002001497047C0460000F8FF00487047C4
:102FF0000000C0FFF0B585B00090019102920393EC
:10300000009B1E00019B30005B005F08029B3900A3
:103010001C00039B22005B005D082B00FDF7D6FF20
:10302000002814D0029A039B0098019917F09CFF86
:1030300002000B0018F0DCFB00221A4B17F030FCEA
:1030400015F0F8FF22002B0018F0D2FB23E022003D
:103050002B0030003900FDF7CDFF002812D0009A78
:10306000019B0298039917F07FFF02000B0018F0F4
:10307000BFFB00220B4B17F013FC15F0DBFF3200F7
:103080003B00E1E72000290000F05AF8002804D0B6
:10309000054B1868596805B0F0BD30003900034A87
:1030A000034BD1E70000F03F00060020CD3B7F66D8
:1030B0009EA0F63F10B5FFF793FF0D4B18605960C7
:1030C000FFF794FF0B4B1860FFF776FF0A4B186071
:1030D0005960FFF777FF094B1860FFF777FF084B40
:1030E00018605960FFF778FF064B186010BDC046A6
:1030F00000060020F005002010060020F805002042
:1031000008060020F405002070B50D000A490200F1
:103110002B00040008684968FDF752FF03000120F6
:10312000002B08D105492B00086849682200FDF7EB
:1031300047FF431E984170BD10060020080600207E
:10314000064A10B5140000230C40944204D10B032E
:103150001B0B03435A1E9341D8B210BD0000F07FF1
:103160004B0070B500220D005908184B0400FDF704
:103170002DFF002811D0002220002900144BFDF75C
:1031800043FF002200280BD0114B2000290017F02C
:1031900087FB16F05BFA04000D002900200070BDCB
:1031A000200029000B4BFDF725FF0022002805D049
:1031B00000232000290018F01BFBECE7044B200043
:1031C000290018F0DDFD16F0B7F9E4E70000304300
:1031D0000000E03F0000E0BFF0B585B00292254A54
:1031E00006008B189B001B580091002B3DDB002430
:1031F0000025029B6F01FF18009B9D4232DAAB0055
:10320000F05817F00BFB19F007FA3A0015F03AFFE7
:1032100019F04AFA011C201C16F042FC0135041C6E
:10322000E7E7AA00B7580135DB1B013B1800019303
:1032300017F0F4FA19F0F0F9039A15F023FF19F0DA
:1032400033FAFF43011C201C17F0D8F8019B041C23
:10325000BB429B415B4202996A0152180392009A59
:103260009542DEDB201C05B0F0BD012300240025C3
:10327000F1E7C046FFFFFF3F10B50423054A0C00ED
:103280000549FFF793F817F0C9FA044916F092FDC3
:10329000206010BD94CA01008ACA01000030234595
:1032A00000220023002070B50849094E094D0A4C40
:1032B00030637163B464F564B263F363326473645E
:1032C00030657165B265F36570BDC0460000494068
:1032D00018060020584C0940535BDA3AF0B5184CF8
:1032E000A5441D921793174A174B1C9016911978F5
:1032F0001300989C7833002912D1812200200021EC
:1033000052001A80114B9861D961186259621048B5
:1033100010491861596100200F499862D96209E08B
:103320001D7800212068012D01D000F069FE88423F
:1033300014D011672368002B26D0002327E0C04655
:10334000B4FDFFFF1806002091060020980600201B
:1033500048AFBC9AF2D77A3E00002440FA21126F9F
:10336000C9008A4210D30222002000211A70E84BC3
:103370009861D96118625962E648E7491861596154
:103380000020E6499862D962E54B1B6F0133E44D9A
:103390002B67E44B1A68E44BD2685B689B009B5830
:1033A000002B20D1DA4B1869596928606960529066
:1033B00053919869D969A860E96054905591186A49
:1033C000596A9A6ADB6AAA61EB6158925993169B13
:1033D0002861696156905791188819F0F9F82862A8
:1033E000696220902191206819F0C4F8CF4AD04B2F
:1033F00018F0FEF99A9B040018780D0019F0E8F80F
:1034000002000B002000290017F0AEFD999BC04E72
:103410001A003060716000200E320024195F023300
:1034200040189342F9D1072100B2FEF723FEB84BB2
:103430001887BC4B1A68BC4BD2685B689B009C58D1
:10344000002C01D000F0B3FDBA48FEF74DFCB44D9E
:10345000B94ABA4B286B696B802618F0C9F9360651
:103460008B1962906391B44A6A906B93A86BE96B75
:10347000B24B18F0BDF98B1964906591AE4A6C900F
:103480006D93286C696CAD4B18F0B2F98B1966908E
:103490006791A94A6E906F93A86CE96CA74B18F0DE
:1034A000A7F98B1971932A6D6B6D04920593AE6D1C
:1034B000EF6D62AB1D00229023916890699170902E
:1034C0000693049A059B2868696817F0E9F93200A9
:1034D00028606960A868E9683B0017F0E1F90134E9
:1034E000A860E9601035042CEBD162A8FEF7FCFB64
:1034F0004A904B9166A8FEF7F7FB4C904D916AA855
:10350000FEF7F2FB4E904F916EA8FEF7EDFB509048
:1035100051918848FEF7E8FB06000F0002000B00FF
:103520004A984B992496259718F02AFC32003B00C4
:1035300017F0B6F9002204900591002330003900FD
:1035400018F056F9002204000D00049805997C4BF0
:1035500018F04EF902000B002000290017F0A0F926
:10356000320004000D004C984D993B0018F008FC07
:1035700032003B0017F094F90022714B089009913A
:1035800018F036F922002B0017F08AF932000400F7
:103590000D004E984F993B0018F0F2FB32003B00B3
:1035A00017F07EF90022664B1090119118F020F967
:1035B00022002B0017F074F9320004000D0050981F
:1035C00051993B0018F0DCFB32003B0017F068F922
:1035D00000225B4B1290139118F00AF922002B0085
:1035E00017F05EF902000B000A900B910498059900
:1035F00018F0C6FB0022534B04000D0018F0F8F839
:1036000002000B000C900D91089809994292439387
:103610000A9A0B9B4A944B9518F0B2FB0022494B37
:1036200004000D0018F0E4F80A9A0B9B06000F0046
:103630004C944D95449645971098119918F0A0FB1D
:103640000022404B04000D0018F0D2F802000B00DD
:103650000890099112981399469247930A9A0B9BE6
:103660004E944F9518F08CFB0022364B129013911C
:1036700018F0BEF803000C00489349940C9B0D9C75
:103680001E931F947B005D08E62310901191002289
:10369000300029005B053400FDF7ACFC002801D0A8
:1036A00000F0C4FC002230002900274B18F0A0F8DD
:1036B00002000B0018F09CF8E62506000F0000241D
:1036C0006D05089B20000493099B29005B005B08A3
:1036D0000593049A059BFDF779FC002801D100F0C1
:1036E000A9FC049A059B2000290017F03DFC04006A
:1036F0000D0032003B0018F07BF822002B0018F080
:1037000077F80022114B17F0CBF8089009911FE0D1
:103710009806002048AFBC9AF2D77A3E00002440B9
:1037200018060020DC060020E0060020FCA9F1D2EB
:103730004D62503F68060020CD3B7F669EA0F63F5D
:103740000000D03F0000E03F000020630000F03F99
:1037500004980599109B1E00119B32005B005F08C6
:103760003B00FDF733FC002801D100F077FC049802
:10377000059932003B0017F0F7FB089A099B0400FB
:103780000D0018F035F822002B0018F031F8002257
:10379000E04B17F085F82294239515F04BFC32008E
:1037A0003B0018F025F804000D00002200232694A9
:1037B0002795FDF705FC002800D01FE10C980D9916
:1037C00022002B00FFF716FC04000D0042984399DD
:1037D0000022002326942795FDF716FC002804D02C
:1037E00080231B06EB1826942793269C279D6B00AD
:1037F0005908D423200000229B04FDF7E7FB002892
:1038000001D100F070FC469A479B449E459F04926C
:103810000593489A499B089209931E9A1F9B109200
:10382000119300230C930C9B0022013330003900CC
:103830000C93B94B17F0DCFF0022B74B06000F00CA
:103840000498059917F0D4FF002204900591089878
:103850000999B14B17F0CCFF002208900991AE4BAB
:103860002000290017F0C4FF0D00040010981199E2
:103870000022A94B17F0BCFF6B005B081593D42303
:103880001494109011911498159900229B04FDF73F
:103890009DFB002802D00C9B142BC4D1049B059CDB
:1038A00046934794089B099C48934994109B119C0C
:1038B0001E931F94E62400236405229323947B0027
:1038C0005D08E6230022300029005B0544964597F9
:1038D000FDF790FB34000022002801D100F0D2FB5C
:1038E0008C4B2294239526922793229C239D049B04
:1038F00020001E00059B29005B005F08269A279B7D
:103900001492159332003B00FDF760FB002801D1B3
:1039100000F0C5FB32003B002000290017F024FB1B
:10392000149A159B04000D0017F062FF22002B0073
:1039300017F05EFF0022774B16F0B2FF2296239716
:1039400026902791229C239D089B20001E00099B06
:1039500029005B005F08269A279B0492059332009A
:103960003B00FDF733FB002801D100F0AAFB320039
:103970003B002000290017F0F7FA049A059B040089
:103980000D0017F035FF22002B0017F031FF002249
:10399000604B16F085FF2296239726902791269854
:1039A000279915F047FB229A239B17F021FF02006D
:1039B0000B0010981199FFF71DFB04000D001E98D5
:1039C0001F990022002326942795FDF71DFB002850
:1039D00004D080231B06EB182694279300242698F6
:1039E0002799D42300229B0417F002FF0C9B01347B
:1039F000A342F6D1269027911E901F910A9A0B9B05
:103A00002498259918F0BCF922AC02941EAC0194BC
:103A100026AC0094002402000B001E981F99FFF7AB
:103A200041FA3E4B196D5A6D049105929E6DDF6D02
:103A3000049A059B069901340868496818F0A0F9B2
:103A4000069B32001860596006993B008868C96877
:103A500018F096F9069B9860D96010330693042CF1
:103A6000E6D14A9E4B9F4C9B4D9C3000049305949D
:103A70004E9B4F9C390006930794629A639B17F004
:103A8000B7FE0022002316F00BFF669A679B040026
:103A90000D000498059917F0ABFE02000B00200002
:103AA000290016F0FDFE6A9A6B9B04000D00069833
:103AB000079917F09DFE02000B002000290016F068
:103AC000EFFE6E9A6F9B04000D001298139917F089
:103AD0008FFE02000B002000290016F0E1FE0022FC
:103AE0000F4B3290339117F083FE649A659B2A90B6
:103AF0002B913000390017F07BFE0022002316F0D6
:103B0000CFFE689A699B04000D000498059917F090
:103B10006FFE07E00000F03F0000907C18060020D8
:103B20000000D03F02000B002000290016F0B8FE74
:103B30006C9A6D9B04000D000698079917F058FECB
:103B400002000B002000290016F0AAFE709A719B5B
:103B500004000D001298139917F04AFE02000B00A2
:103B60002000290016F09CFE0022CE4B34903591A7
:103B700017F03EFE0022CC4B2C902D9122982399D9
:103B8000309231931E901F91FFF734FA04000D001C
:103B9000229823990022002324942595FDF734FAD6
:103BA000002804D080231B06EB1824942593249C22
:103BB000259D6B005908D423200000229B04FDF7AB
:103BC00005FA002861D0309A319B1E9E1F9F0692F5
:103BD000079300230493049B00220698079901335E
:103BE0000493B24B17F004FE002206900791AF4BEE
:103BF0002000290017F0FCFD0D0004000022300019
:103C00003900AA4B17F0F4FD6B005B081993D4231D
:103C1000189406000F001898199900229B04FDF7CC
:103C2000D5F9002802D0049B142BD4D1069A079B07
:103C30003000390030923193249425951E961F97B9
:103C4000FFF7D8F904000D001E981F9900220023E9
:103C500024942595FDF7D8F9002804D080231B066D
:103C6000EB18249425930026249C259DD423200022
:103C700029009B04002217F0BBFD049B01360400C1
:103C80000D00B342F2D1249425950A9A0B9B2098FB
:103C900021991E941F9518F073F82A9A2B9B209057
:103CA0002191329233932C9A2D9B2000349235939C
:103CB000290032AA02F0A0FC329A339B1E981F9969
:103CC0002A922B93349A359B2C922D932AAA02F098
:103CD00093FC1E9E1F9F764C3000A26BE36B390055
:103CE0002264636404920593229223932A9A2B9B65
:103CF00017F07EFD02000B000A900B912E922F937D
:103D00002C9A2D9B3000390017F072FD02000B0039
:103D10003092319300220023A263E363226B636B32
:103D2000109211930C900D9110981199002300227C
:103D3000FDF746F9A36CE46C06930794002800D0C5
:103D4000FAE10698079900220023FDF739F90028C7
:103D500000D0F1E1109A119B0A980B9917F004F921
:103D600003000C0002003E933F94089009910B0061
:103D70000498059917F03CFD02000B000C980D9972
:103D800017F0FEFF069A079B17F0EEF803000C00F1
:103D900040934194089B129013911C00099B0022B0
:103DA0005B005D08E623200029005B05FDF722F992
:103DB0000022002800D099E1089809993D4B17F09E
:103DC00017FD02000B0017F013FDE62500241490E8
:103DD00015916D05129B22001E00139B30005B00A5
:103DE0005F0839002B00FDF705F9002800D181E1BB
:103DF00032003B002000290017F0B6F8149A159BFA
:103E000004000D0017F0F4FC22002B0017F0F0FC6A
:103E10000022294B16F044FD15F00CF932003B004E
:103E200017F0E6FC06000F000022234B2896299786
:103E3000FDF7EAF8041E00D07EE132003B003000BE
:103E4000390017F0D5FC0026002702000B000020E7
:103E5000194917F095FF15F0EDF83CAB28AD01932B
:103E600038AB02950093129A139BFFF71BF8289822
:103E700029993AAB019336AB02950093089A099BB6
:103E800040964197FFF70EF80C4B3E963F973EAD9C
:103E9000129363001093631C069304932E686F685B
:103EA0000EE0C0460000D03F000024400000907C9F
:103EB00018060020000020630000F03F48060020A4
:103EC000049A109B9C18013C129BE400E4182268A1
:103ED000636808920993049B3AAA013B0493DB00B0
:103EE000D218116852680A910B920898099936AA5B
:103EF000D3181A685B680C920D9317F079FC0A9A34
:103F00000B9B149015913000390017F071FC0200E2
:103F10000B001498159917F033FF0C9A0D9B206035
:103F200061603000390017F063FC0A9A0B9B0600B1
:103F30000F000898099917F05BFC0B00020039008C
:103F4000300016F0ADFC049B06000F00002BB7D12B
:103F5000069B0124C0C5022B9BD1209E219F6E4C45
:103F6000206C616CA26BE36BA063E1632264636409
:103F70002A9A2B9B3000390017F03AFC226D636DB2
:103F800016F08EFC2C9A2D9B206561652A902B9152
:103F90003000390017F02CFCA26DE36D16F080FCA8
:103FA0005E4BA065E165A06AE16A9860D9605B4BF1
:103FB0009868D96818F078FB9C9B594918601D9B3C
:103FC000051C1B6806939B9B186816F0D9F8554A88
:103FD0005A901378504C071C1E2B01D801331370D4
:103FE0002300260076331A787436002A00D089E33D
:103FF0004A4A576302223270013A1A8000F0B7FB36
:10400000002801D1FFF7C0F911670122002000212B
:104010001A70424B9861D96118625962424843490B
:104020001861596100204249FFF777F90026404F97
:10403000FFF747FB2200089809992B0016F094FF20
:1040400002000B0017F0D4FB32003B0016F028FCF6
:104050000494059508900991FFF77AFB049A059B53
:104060003000390016F080FF02000B0004000D0044
:1040700017F0BEFB089A099B16F012FC049E059FE0
:10408000FFF789FB2B4B3000390017F0B1FB020022
:104090000B0017F0ADFB26902791FFF726FC2200BE
:1040A000049805992B0016F05FFF02000B0017F033
:1040B0009FFB149A159B16F0F3FB26902791FFF7B0
:1040C00041FC2200089809992B0016F04DFF0200D0
:1040D0000B0017F08DFB049A059B16F0E1FB269070
:1040E0002791FFF75CFC1E941F9587E4104B1492F8
:1040F00015936FE62200129813992B0016F034FFE7
:1041000002000B0017F074FB149A159B16F0C8FB05
:1041100026002F0080E6C0461806002098060020E2
:104120007D2195348F06002048AFBC9AF2D77A3EA5
:104130000000F03F00002063109A119B100019004E
:1041400017F056FB0022002316F0AAFB03000C0018
:1041500012901391729373940A9A0B9B100019009A
:1041600017F046FB03000C00149015910498059974
:1041700082938394109A119B17F03AFB002200233C
:1041800016F08EFB002204000D000698079900230C
:1041900017F02EFB02000B002000290016F080FB18
:1041A0000C9A0D9B06000F000A980B99769677974C
:1041B00017F01EFB03000C0008900991849385946E
:1041C00086938794049A059B10001900749675973E
:1041D00017F00EFB0022002316F062FB069A079BE5
:1041E00004000D001000190017F002FB02000B0084
:1041F0002000290016F054FB03000C0004900591E8
:10420000789379940C9A0D9B1000190017F0F0FA2E
:1042100003000C00069007911298139988938994D3
:10422000149A159B17F0ACFD089A099B04000D0029
:10423000300039005A945B9517F0A2FD069A079B4F
:104240005C905D915E905F910498059917F098FDE0
:104250006090619120002900FEF756FF002800D0F1
:10426000A8E15A985B99FEF76BFF002800D0A1E106
:104270005C985D99FEF748FF002800D09AE15C98B1
:104280005D99FEF75DFF002800D093E15E985F998D
:10429000FEF73AFF002800D08CE15E985F99FEF7A8
:1042A0004FFF002800D085E160986199FEF72CFF50
:1042B000002800D07EE160986199FEF741FF002858
:1042C00000D077E172AB3AAA82A95AA800F090FE1A
:1042D0003A983B9914F0AEFE002204000D003C9881
:1042E0003D99002382948395849285938692879347
:1042F00014F0A0FE02000B0088928993729A739BBF
:1043000004920593769A779B089009910A920B93F1
:10431000049A059B2000290017F06AFA0022002366
:1043200016F0BEFA002206000F000A980B9900232F
:1043300017F05EFA02000B003000390016F0B0FAF8
:1043400006000F00E04B20001E635F630693749A23
:10435000759B0C920D93789A799B2900109211937A
:104360000C9A0D9B17F044FA0022002316F098FADD
:10437000002204000D0010981199002317F038FA5C
:1043800002000B002000290016F08AFA03000C003E
:10439000069A1290139104980599136454640022AC
:1043A000002317F025FA0022002316F079FA0A9A62
:1043B0000B9B04000D000898099917F019FA0200E8
:1043C0000B002000290016F06BFA03000C00069A7F
:1043D000049005910C980D999363D46300220023F7
:1043E00017F006FA0022002316F05AFA109A119BD1
:1043F00004000D000898099917F0FAF902000B0063
:104400002000290016F04CFA04000D0004980599CC
:10441000069B00229C64DD640023FCF7D1FD00288C
:1044200000D09AE5049A059B0498059960946195DB
:104430005C925D93129A139B00245E925F9300231B
:1044400036933794389339943E933F94049B0022DB
:104450001C00059B5A965B975B005D08002328941F
:104460002995FCF7ADFD002847D122002B00300034
:104470003900FEF7BFFD5A9A5B9B04000D000692BF
:104480000793069807990022002328942995FCF7A2
:10449000BBFD002800D024E15C9A5D9B289C299DEF
:1044A000049205936B005908D423200000229B043A
:1044B000FCF78CFD002800D08CE0069A079B2000BA
:1044C000290017F05DFC22002B0016F04DFD2200A4
:1044D0002B003E903F910698079917F051FC02007F
:1044E0000B000020794916F03FFD049A059B17F058
:1044F0007FF926002F005C905D910022734B289677
:1045000029975A925B933E9B3F9C04930594049891
:10451000059900220023FCF753FD002838D15C9850
:104520005D9900220023FCF74BFD002200230028A8
:1045300000D0DFE05E985F99FCF742FD002800D1D3
:10454000D5E06098619900230022FCF739FD02252F
:1045500044424441012636AF5AAB21002800009363
:104560005AAA03230297019605F00AFC8020000650
:104570008446049928000A000599019761440B00BC
:10458000032103915AA902910096210005F034FC01
:10459000289829994C4B002218635963002199638C
:1045A000DA635E985F9918645964609861999864B9
:1045B000D964D2E4464B1A685B683A923B933C92CA
:1045C0003D937292739374927593769277937892E7
:1045D00079937DE600230693069B002204980599B3
:1045E000013306933B4B17F003F900220490059129
:1045F000384B2000290017F0FBF80D0004000022C2
:1046000030003900334B17F0F3F86B005B081B9355
:10461000D4231A9406000F001A981B9900229B04B9
:10462000FCF7D4FC002857D10499049A059B5C92AE
:104630005D930A000599300049004B083900289421
:104640002995FEF7D7FC002204000D00002330005E
:104650003900FCF7D9FC002830D132003B002000A3
:10466000290017F08DFB22002B0016F07DFC2200A4
:104670003E903F912B003000390017F081FB020083
:104680000B000020114916F06FFC02000B005C9833
:104690005D9917F0ADF826002F0000245C905D9125
:1046A000D423300039009B04002217F0A1F8069BA8
:1046B000013406000F009C42F2D11EE7802109065A
:1046C0006B181D00C9E7C046180600200000F03F27
:1046D000000600200000907C069B142B00D07BE796
:1046E000A2E780231B06EB1828942993D4E6022521
:1046F00001242FE75E985F99FCF762FC0125444294
:10470000444127E733780493012B13D0022B00D1C7
:104710000AE30027179B0649281CDF57FCF79AFC81
:10472000002824D0002F00D124E30023A3661EE03C
:104730000000A0410026179B9E57012E00D1D5E214
:10474000DD49281CFCF79AFC002804D0002E00D17B
:1047500090E20023E3661C9BD84C1A78D84B19785A
:10476000012900D0C9E2002A01D102321A70179B38
:104770001B785BB2002B00D015E3D04B9A6E013250
:104780009A66DB6E0133CD4CCE4DE3669A9B18786A
:1047900016F044F8011C686B15F00CFBCA4B28633B
:1047A0001A68CA4BD2685B689B009D58002D00D0E8
:1047B00027E2C7482EA9FDF7EFFA206B616BC54AC7
:1047C000C54B802617F014F836068B19629063915A
:1047D000C04A6A906B93A06BE16BBF4B17F008F86F
:1047E0008B1964906591BB4A6C906D93206C616CE1
:1047F000B94B16F0FDFF8B19669067916E906F9321
:10480000A06CE16CB44BB34A16F0F2FF22902391F6
:10481000689069918B197193266D676D7090A36D87
:10482000E46D0493059462AC2068616832003B003B
:1048300016F036F8049A059B20606160A068E16874
:1048400016F02EF80135A060E1601034042DEBD194
:1048500072A962A8FDF7A0FA76A966A8FDF79CFAEE
:104860007AA96AA8FDF798FA7EA96EA8FDF794FACE
:1048700097482EA9FDF790FA2E982F990022002331
:1048800016F0B6FF309B319C089309940490059173
:10489000089809990023002216F0AAFF72AC0023A1
:1048A00006000F00250006930022286869688B4BDC
:1048B00016F09EFF02000B000498059915F0F0FF1A
:1048C000002204900591A868E968844B16F090FFD7
:1048D0000B0002003900300015F0E2FF069B0600D5
:1048E00001330F0006931035042BDDD1049A059B8C
:1048F0003292339302000B00089809993496359749
:1049000017F03EFA00250A900B91049A059B206847
:10491000616817F035FA320020606160A068E168D4
:104920003B0017F02DFA0235A060E1601034082D2D
:10493000EBD1729873990022694B16F059FF00224F
:104940008290839176987799654B16F051FF0022FB
:10495000849085917A987B99614B16F049FF0022EB
:10496000869087917E987F995D4B16F041FF0022DB
:104970008890899174987599594B16F039FF0022E7
:104980008A908B9178987999554B16F031FF0022D7
:104990008C908D917C987D99514B16F029FF504B4E
:1049A00000228E908F918098819916F021FF002629
:1049B000002742AC22009090919162A982A8FDF755
:1049C000E1FF329A339B2E982F99A660E76017F08B
:1049D000D7F924AD019520AD02000B004298439910
:1049E00002940095FEF75EFA209A219B04920593AB
:1049F000049805992269636906920793249A259B76
:104A0000089209930A9A0B9B16F0F2FE089A099BEA
:104A10000C900D910698079916F0EAFE02000B0023
:104A20000C980D9917F0ACF902000B000C900D9149
:104A30000498059922922393069A079B16F0D8FEB4
:104A40000A9A0B9B049005910898099916F0D0FEDC
:104A500002000B000498059915F022FF48AB206175
:104A60006161A069E16902931EAB009301950C9A04
:104A70000D9BFEF717FA429A439B049205932092EE
:104A800021932269636906920793069807992292F7
:104A90002393A268E3680892099324922593A2695C
:104AA000E3690A920B9300220E4B4C964D974A9263
:104AB0004B935092519317E00000A042180600203B
:104AC0008D06002098060020DC060020E00600206D
:104AD00068060020CD3B7F669EA0F63F0000D03FD9
:104AE0000000E03F0000F03F32003B004E964F9741
:104AF00016F07EFE049A059B15F0D2FE32003B00B4
:104B0000429043910A980B9916F072FE089A099BFD
:104B100015F0C6FE0022AA4BA060E160049805993A
:104B20001E921F9332003B0016F062FE069A079B0E
:104B300015F0B6FE320020616161089809993B00CA
:104B400016F056FE0A9A0B9B15F0AAFEA061E161D1
:104B50004AA952A800F072F9429A439B62A9729244
:104B600073934A9A4B9B72A876927793A268E368F4
:104B7000749275934E9A4F9B7892799322696369E8
:104B80007A927B934C9A4D9B7E927F93A269E369C4
:104B90007C927D93509A519B809281932200FDF7E5
:104BA000F1FE42984399874B0022186359632069AC
:104BB00061699863D9633298339918655965A0681B
:104BC000E16818645964A069E1699864D96434980B
:104BD00035999865D9652A9B2B9C0E930F940E9856
:104BE0000F99794BFCF706FA002800D0DFE00E9809
:104BF0000F9932003B00FCF7E9F9002801D00E962E
:104C00000F97724C7249606B15F0BAFA14F046FEB9
:104C10009D9B704A18603820215E0D2002906E48DE
:104C20006E4B01906E4800909C980068FDF766FD01
:104C30006C49041CFCF718FA002800D0BCE06A4953
:104C4000201CFCF7FDF9002800D0B7E09E9B1C60FB
:104C5000664B1A68664BD2685B689B009B58002BBA
:104C600004D10E990F9A574B9962DA6293239B00F5
:104C70009D44F0BD5F4BE26E9A4200D86BE5169BF7
:104C8000544E5D4D188815F0C9FD290032000C23E3
:104C9000FDF716FB266E051C011C301CFCF7D0F935
:104CA000002823D0311C281C15F0A8FB5349051CF3
:104CB000606E15F065FA291C15F07CF85049041C4B
:104CC000381C15F05DFA211CFCF7CEF900280DD038
:104CD0004C49381C15F054FA211CFCF7B1F9002896
:104CE00004D0201CFCF742FF384B58630022354BA0
:104CF0009A6674330332FFF780F9002A00D136E553
:104D000001221A70314B5AA93820185EFEF7B4FA06
:104D10003D49069815F034FA5A9915F04BF8616E32
:104D200014F0BEFE606622E5230077331B781D2B4E
:104D300000D81CE53549281CFCF78CF9002815D053
:104D40000023E36601333370169B224E2A4D1888E8
:104D500015F064FD0C2332002900FDF7B1FA0023A1
:104D60006366049B20667534237000E50323A06608
:104D70003370FCE41F4BA26E9A4200D8FDE401237D
:104D80003370169B134E1C4D1888E76615F046FDD0
:104D90000C2332002900FDF793FA00232066636696
:104DA00002237534E0E70023064A9366EBE4002310
:104DB000054C0E930F9424E70A4C47E70A4C45E74D
:104DC0000000F03F1806002000005940980600201F
:104DD00000BA5B4A4CCA010068CA01008ACA0100D5
:104DE00048C90100006086450000C844DC06002078
:104DF000E0060020B80B000070CA01000000C842A5
:104E00009A99993FCDCC4C3F7D2195340000A0412B
:104E1000F8B51E0017000D0004000820FEF74AF93F
:104E2000034B1F605E60034B1D60034B1C60F8BDAD
:104E3000E0060020DC060020D8060020F0B50500C2
:104E40000C00416800689FB0FEF75EF9002800D0B2
:104E5000BCE028686968FEF773F9002800D0B5E067
:104E6000A868E968FEF750F9002800D0AEE0A8680D
:104E7000E968FEF765F9002800D0A7E028696969AC
:104E8000FEF742F9002800D0A0E028696969FEF722
:104E900057F9002800D099E0A869E969FEF734F9CC
:104EA000002800D092E0A869E969FEF749F90028D6
:104EB00000D08BE0280016AB0AAA0EA900F0E6FE8F
:104EC0000A980B9914F0B6F806000F000C980D998B
:104ED00014F0B0F8169A179B029203931A9A1B9B30
:104EE0000090019104920593029A039B30003900CF
:104EF00016F07EFC0022002315F0D2FC0022069062
:104F0000079104980599002316F072FC02000B002B
:104F10000698079915F0C4FC189A199B06920793F6
:104F20001C9A1D9B2060616008920993069A079B5A
:104F30003000390016F05CFC0022002315F0B0FCB4
:104F4000002206000F0008980999002316F050FC73
:104F500002000B003000390015F0A2FC0022A06016
:104F6000E16002980399002316F042FC002200231E
:104F700015F096FC049A059B06000F000098019915
:104F800016F036FC02000B003000390015F088FCEA
:104F900000222061616106980799002316F028FC21
:104FA0000022002315F07CFC089A099B06000F00E4
:104FB0000098019916F01CFC02000B00300039002B
:104FC00015F06EFCA061E1611FB0F0BD074B1A68DF
:104FD0005B680A920B930C920D931692179318929A
:104FE00019931A921B931C921D9369E700060020E7
:104FF000F0B5C3B0269201930400026843680091A3
:105000003A923B938268C3683C923D93026943693C
:105010003E923F938269C3694092419305F00CF838
:105020000022002306000F00FBF7E4FF002800D158
:10503000DEE02268636802920393029803990022DB
:105040000023FBF7C3FF002803D0802109067B184B
:105050001F00A368E468069307947B005908D423D3
:1050600000229B043000FBF7CFFF32003B000028FA
:1050700000D1B0E00020DA4915F076FF02000B0005
:10508000089009910298039916F0B2FB069A079BC3
:1050900004000D000898099916F0AAFB00223C9024
:1050A0003D91CF4B2000290015F0FAFB80243A9067
:1050B0003B9124063AA93B1908003393329604F039
:1050C000F0FD3A9A3B9B15F04FFF3AAA091904F0FC
:1050D000C1FD409A419B00200021349235933E9BB4
:1050E0003F9C02930394369337943A9A3B9B009CDF
:1050F0003890399120616161226063603C9A3D9BE8
:105100002100A260E3600024B54D00228C61CD61D6
:10511000329833990023FBF753FF009900286CD194
:10512000080004F0BEFD3A9A3B9B15F01DFF802657
:1051300006900791069A079B360610009919009A67
:1051400004F088FD009920008A68C9688B190099CD
:105150008A60CB600A684B68290016F011FE009B3C
:10516000002218605960002301990A614B618A602E
:10517000CB608C61CD610C604D60329C339D002210
:10518000002320002900FBF71BFF00283CD16B0007
:105190005F0822003B002000290015F0E5FE2600F4
:1051A00002000B0004000D000298039915F0DCFECC
:1051B0002A962B9732963397009E029003913700E0
:1051C0001037B74220D03068716822002B0016F0EB
:1051D0000FFB03C6F5E70298039915F0C5FE3200F0
:1051E00004000D00069807993B0015F0BDFE55E739
:1051F00000230024329333946BE700220023200025
:105200008A60CB602900AAE7002202980399002354
:10521000FBF7D6FE00282ED1349B359C06930794CD
:10522000029B1E00039B30005B005F083900029A5E
:10523000039B2A962B9715F097FE069A079B04006E
:105240000D0016F0D5FA34903591019922000869C5
:1052500049692B0016F0CCFA019B220018615961B4
:1052600001992B008869C96916F0C2FA019B029660
:1052700003979861D961349C359D0022002320005A
:105280002900FBF79DFE002815D16B005F08220066
:105290003B002000290015F067FE26000D000400E9
:1052A0002A962B9734963597009E009F103620370C
:1052B000B74200D08CE0029B039C349E359F02993C
:1052C000309331940A00369337940399339C490004
:1052D00064004B083298610813F086FF0022002317
:1052E00013F082FF7B0004000D00002259083000FB
:1052F000002313F079FF0B0002002900200013F0B7
:1053000073FF022328902991069300231693069B8E
:10531000329C339D013B0293069B012B01D100F08F
:10532000D0FB369A379B0A920B930A9B1A940493EC
:105330000B9B5B005B080593049A059B2A922B93B9
:10534000349B1893359B5B005B0819936B005B08DB
:105350001B931A9A1B9B1898199915F0A1FA002211
:10536000204B16F045FA02000B0004980599FBF754
:1053700037FE002838D00023002436933794029B50
:1053800032AADB00D3181C685D68002200232000CD
:105390002900FBF71BFE002818D0029B32AADB0075
:1053A000D31880221206AA185A601C60029B01982A
:1053B0005A001B01511CC31802328A4201DB00F063
:1053C00057FC029B002B01D100F0A6FB029B9BE740
:1053D0003068716822002B0016F00AFA03C667E7EE
:1053E0000000F03F0000B03CD4230498059900224F
:1053F0009B04FBF7F5FD0028BDD1169B142B0DDD9A
:10540000289829990022874B16F0F2F902000B0028
:1054100004980599FBF7E4FD0028ACD1069C002C0C
:1054200000D101E1069B9C420EDB002200232A9260
:105430002B932A982B99049A059B15F031FA2A9000
:105440002B9107E03400EAE7049A059B2A922B93FC
:10545000012CEED12A982B99661EF50032AB5B1910
:105460001A685B680C925B005B080D930C9A0D9BAD
:105470003092319300226B4B16F0BAF902000B0008
:105480000C980D99FBF7ACFD002808D10C980D99EC
:10549000D42300229B04FBF7A3FD0028D2D032AB1B
:1054A0005B19002600251D605E60069B9C4225D08E
:1054B000631EDA0036A98A181068516815605660B4
:1054C0001A0113002A902B91009908338918129120
:1054D00000991032CB18179336A9E300CB1810931C
:1054E000009B9B180893069A631C2793934200DC49
:1054F00015E3169B4B2B00D009E702E30A9B0B9C9C
:105500002A932B940023002436933794029B1D0189
:10551000019B5D19029B1C01019B08341C192CABDB
:1055200030AA2AA932A804F0F1FD019B1E685F6829
:10553000309A319B089209932A686B6808980999F8
:10554000109211932C9A2D9B0A920B93109A119BF7
:1055500016F04EF90A9A0B9B129013913000390005
:1055600016F046F902000B001298139916F008FC89
:10557000089A099B286069603000390016F038F9F4
:105580000A9A0B9B06000F001098119916F030F93B
:1055900002000B003000390015F082F9019B186001
:1055A00059600A980B992268636812921393019BC1
:1055B0009A68DB6810921193129A139B16F018F9EF
:1055C000109A119B06000F000898099916F010F91F
:1055D00002000B003000390015F062F9129A139B9B
:1055E00006000F00089809992E962F9716F000F9DB
:1055F000109A119B089009910A980B9916F0F8F8E7
:105600000B0002000898099916F0BAFB019B206074
:1056100061609E60DF60029B013B0293002B00D023
:105620007DE774E60000B03C029B32AADB00D31891
:105630001E685F68329B339C02930394029B1C9606
:105640000E93039B5B005B080F937B005B081D932D
:105650001C981D990E9A0F9B13F0C6FD02000B00BB
:105660000498059913F0C0FD02000B000E980F99E5
:1056700013F0BAFD02000B000498059913F0B4FD75
:1056800004000D0002000B003000390015F06CFC26
:1056900022002B00109011910298039915F064FCE0
:1056A00022002B00029003910A980B9915F05CFCE4
:1056B000029B039C08900991109811991A002C9351
:1056C0002D94230015F0ECF8109A119B04000D00A6
:1056D0000298039916F054FB02000B0020002900E9
:1056E00016F086F8089A099B129013911000190081
:1056F00016F07EF8129A139B15F0D2F800220E4B8A
:1057000016F076F806000F002E962F97089A099B40
:105710001098119916F06CF802000B0016F068F85A
:10572000002210901191002330003900FBF748FC53
:10573000002800D090E201E00000E03F32003B0092
:105740003000390016F054F8109A119B15F0A8F8A3
:1057500013F070FC002204000D000023300039001B
:10576000FBF734FC002806D080231B06EB1820949E
:105770002193209C219D22002B003000390015F040
:105780008FF802000B001098119915F0EDFB020044
:105790000B001298139915F083F8089A099B2A9028
:1057A0002B910298039916F023F82EAB309031918B
:1057B0002CAA30A92AA804F0A9FC2C9B2D9C329E6F
:1057C000339F029303942E9B2F9C300008930994DF
:1057D000029A039B390016F00BF8089A099B040003
:1057E0000D000A980B9916F003F802000B00200038
:1057F000290015F055F803000C00109011910A983B
:105800000B992A932B94029A039B15F0F1FF089AA7
:10581000099B04000D003000390015F0E9FF02007B
:105820000B002000290016F0ABFA349C359D129035
:1058300013910898099922002B0015F0D9FF220036
:105840002B00309031910298039915F0D1FF019B04
:10585000349035911E685F68029803995C691B69F2
:105860001A000A930B94230015F0C2FF32000400C3
:105870000D00089809993B0015F0BAFF02000B00D3
:105880002000290016F07CFA019B32001861596152
:10589000029803993B0015F0ABFF0A9A0B9B04009A
:1058A0000D000898099915F0A3FF02000B002000D5
:1058B000290014F0F5FF019B9E68DF6818605960AD
:1058C000DC699B69029803991A000A930B942300E0
:1058D00015F08EFF320004000D00089809993B0076
:1058E00015F086FF02000B002000290016F048FA90
:1058F000019B32009861D961029803993B0015F031
:1059000077FF0A9A0B9B04000D000898099915F07F
:105910006FFF02000B002000290014F0C1FF019B63
:105920002CAA9860D960109B119C30A932933394B3
:1059300032A82EAB04F0EAFB2C9B2D9C12981399F5
:10594000349E359F089309942E9B2F9C02930394B9
:10595000089A099B15F04CFF029A039B04000D0066
:105960003000390015F044FF02000B002000290030
:1059700014F096FF03000C002A932B94029B039AC9
:105980002293802394461B06634423931090119125
:10599000129A139B2298239915F02AFF32000400D3
:1059A0000D00089809993B0015F022FF02000B003A
:1059B0002000290014F074FF389C399D34903591F3
:1059C0000298039922002B0015F012FF22002B00F1
:1059D000309031910898099915F00AFF009B389092
:1059E00039911E685F68089809995C691B691A00FB
:1059F0000A930B94230015F0FBFE320004000D0007
:105A0000029803993B0015F0F3FE02000B00200002
:105A1000290016F0B5F9009B320018615961089809
:105A200009993B0015F0E4FE0A9A0B9B04000D0057
:105A30000298039915F0DCFE02000B0020002900FB
:105A400014F02EFF009B9E68DF6818605960DC69C7
:105A50009B69089809991A000A930B94230015F082
:105A6000C7FE320004000D00029803993B0015F0B8
:105A7000BFFE02000B002000290016F081F9009BF8
:105A800032009861D961089809993B0015F0B0FE81
:105A90000A9A0B9B04000D000298039915F0A8FECA
:105AA0000B0002002900200014F0FAFE009B986011
:105AB000D960109B119C36933794169B0133169333
:105AC00017E50022002320002900FBF77FFA0028B9
:105AD00001D0FFF762FC349E359F200032003B006E
:105AE0002900FBF773FA00280BD001982A942B9514
:105AF000329633973494359504F064FC009804F0A2
:105B000061FC329A339B26990A604B60349A359B2C
:105B10008A60CB6043B0F0BD329C339DDBE7E4008C
:105B200032ABE01830AA2CAB2AA904F0EFFA109B94
:105B30001C685D682C9A2D9B02920393029B039A2A
:105B40001E93802394461B0663441F9322001E98D5
:105B50001F992B0015F04CFE309A319B2A902B9107
:105B6000200029000A920B9315F042FE109B03C3FC
:105B70000A980B991093089B1E685F68129B5C68DB
:105B80001B681A0014931594230015F031FE32009F
:105B900004000D00029803993B0015F029FE020055
:105BA0000B002000290016F0EBF8129B3200186061
:105BB00059600A980B993B0015F01AFE149A159B30
:105BC00004000D000298039915F012FE02000B006C
:105BD0002000290014F064FE089B18605960179B90
:105BE0005C681B6814931594089B9E68DF68149A80
:105BF000159B0A980B992E962F9715F0F9FD3200F8
:105C000004000D00029803993B0015F0F1FD02001D
:105C10000B002000290016F0B3F8179B3200186023
:105C200059600A980B993B0015F0E2FD149A159BF8
:105C300004000D000298039915F0DAFD0B00020034
:105C40002900200014F02CFE089B279C9860D96046
:105C500010330893FFF747FC002210981199002396
:105C6000FBF7AEF9002800D168E50022002390E59B
:105C70008024186824062490586801310019259062
:105C8000249C259D30C3FFF798FBC046F0B5C7B0F4
:105C90001B92079304000268436806913E923F936B
:105CA0008268C36840924193026943694292439378
:105CB0008269C3694492459304F0BEF9002200232F
:105CC00006000F00FBF796F9002800D1DEE02268FD
:105CD0006368049205930498059900220023FBF75A
:105CE00075F9002803D0802109067B181F00A368DE
:105CF000E4680A930B947B005908D42300229B0488
:105D00003000FBF781F932003B00002800D1B0E001
:105D10000020AE4915F028F902000B000C900D91FF
:105D20000498059915F064FD0A9A0B9B04000D0078
:105D30000C980D9915F05CFD002240904191A34B09
:105D40002000290014F0ACFD80243E903F912406F1
:105D50003EA93B1908003793369603F0A2FF3E9AFE
:105D60003F9B15F001F93EAA091903F073FF449A0D
:105D7000459B0020002138923993429B439C049319
:105D800005943A933B943E9A3F9B069C3C903D91F0
:105D90002061616122606360409A419B2100A260A2
:105DA000E3600024894D00228C61CD6136983799DB
:105DB0000023FBF705F9069900286CD1080003F0D1
:105DC00070FF3E9A3F9B15F0CFF880260A900B910A
:105DD0000A9A0B9B360610009919069A03F03AFFAF
:105DE000069920008A68C9688B1906998A60CB6079
:105DF0000A684B68290015F0C3FF069B0022186053
:105E00005960002307990A614B618A60CB608C61FD
:105E1000CD610C604D60369C379D00220023200030
:105E20002900FBF7CDF800283CD16B005F08220069
:105E30003B002000290015F097F8260002000B0017
:105E400004000D000498059915F08EF82E962F97F2
:105E500036963797069E0490059137001037B74263
:105E600020D03068716822002B0015F0C1FC03C6F9
:105E7000F5E70498059915F077F8320004000D0055
:105E80000A980B993B0015F06FF855E700230024A2
:105E9000369337946BE70022002320008A60CB60A2
:105EA0002900AAE70022049805990023FBF788F847
:105EB00000282ED1389B399C0A930B94049B1E001A
:105EC000059B30005B005F083900049A059B2E9605
:105ED0002F9715F049F80A9A0B9B04000D0015F056
:105EE00087FC3890399107992200086949692B008D
:105EF00015F07EFC079B22001861596107992B0061
:105F00008869C96915F074FC079B04960597986128
:105F1000D961389C399D0022002320002900FBF71D
:105F20004FF8002814D16B005F0822003B002000CE
:105F3000290015F019F826000D0004002E962F9761
:105F400038963997069E069F10362037B74234D1CF
:105F5000049B059C389E399F0499349335940A001C
:105F60003A933B940599379C490064004B08369856
:105F7000610813F039F90022002313F035F97B0092
:105F800004000D00002259083000002313F02CF902
:105F90000B0002002900200013F026F901232C90A9
:105FA0002D910493369B379C1093119400231A93E0
:105FB000049B1D1E00D0A6E0D7E030687168220067
:105FC0002B0015F015FC03C6C0E7C0460000F03FEB
:105FD000D4230898099900229B04FBF701F80028B4
:105FE00000D0BDE01A9B142B0EDD2C982D990022B9
:105FF000844B15F0FDFB02000B0008980999FAF795
:10600000EFFF002800D0ABE00225002D00D1FBE01F
:106010006C1E012D00D1D3E00898099900220023BD
:1060200014F03EFC189019911898199936AAE300BB
:10603000D3181A685B680E925B005B0800220F930E
:10604000704B15F0D5FB02000B000E980F99FAF774
:10605000C7FF002809D10E980F99D42300229B0472
:10606000FAF7BEFF002800D1A8E00E9A0F9B002689
:10607000002734923593E30036AAD2181660576091
:10608000022D00D1A3E03AAAD31864001868596819
:106090001E605F60631C2E902F910C9334AA32AB6C
:1060A0002EA938A804F032F8329C339D3C9E3D9FC7
:1060B00080231B06EB1824942593320024982599FD
:1060C0003B003096319715F093FB349A359B2E9018
:1060D0002F91300039000A920B9315F089FB3C9008
:1060E0003D910321029403950A9B0B9C009301941C
:1060F0000C9A069804F0C4F81A9B4B2B53D0369B8D
:10610000379C109311943A9B3B9C12931394129BCF
:106110000893139B5B005B080993089B099C2E93D3
:106120002F94109B1493119B5B005B081593389B75
:106130001C93399B5B005B081D931C981D99149A56
:10614000159B14F0ADFB00222E4B15F051FB020005
:106150000B0008980999FAF743FF002800D137E7A8
:10616000002300243A933B94049D049B36AADB0051
:10617000D418266867680022002330003900FAF737
:1061800025FF002800D0FAE1369E379F049B36AAEF
:10619000DB00D418049B002B00D10BE200230493F6
:1061A0009D4200D0FEE61B99369A379B0A604B60F1
:1061B000389A399B8A60CB6047B0F0BD250024E750
:1061C0003A9B18933B9B5B005B0819932CE73A9A28
:1061D0003B9B00242E922F93002334AA3A933B94A6
:1061E0002EA932AB36A803F091FF329A339B0121DE
:1061F00002920393349A359B0798009201930322ED
:1062000078E7C0460000B03C369E379F3A9B3B9CE7
:1062100016931794389C399D7B005B081F936B0085
:106220005B081E9620942193209821991E9A1F9B0B
:1062300012F0DAFF169B2293179B5B005B082393F7
:10624000229A239B12F0D0FF02000B00149815999C
:1062500012F0CAFF02000B000898099912F0C4FF5F
:1062600002000B000A900B912000290014F07CFE24
:106270000A9A0B9B0C900D913000390014F074FEBB
:106280000A9A0B9B06000F001698179914F06CFEE3
:106290000A9A0B9B169017911098119914F064FEAE
:1062A00003000C00320032933394109011910C983B
:1062B0000D993B0014F0F4FA0C9A0D9B04000D00AC
:1062C0003000390015F05CFD02000B0020002900B1
:1062D00015F08EFA169A179B04000D001000190095
:1062E00015F086FA02000B002000290014F0D8FAFD
:1062F0000022C04B15F07CFA06000F003096319753
:10630000169A179B0C980D9915F072FA02000B0063
:1063100015F06EFA00221690179100233000390014
:10632000FAF74EFE002800D01DE132003B0030009D
:10633000390015F05DFA169A179B14F0B1FA12F0B5
:1063400079FE002204000D00002330003900FAF726
:106350003DFE002806D080231B06EB1826942793C9
:10636000269C279D22002B003000390014F098FA5B
:1063700002000B001698179914F0F6FD06000F00A6
:10638000109A119B0C980D9914F08AFA0C9A0D9B97
:1063900004000D001098119915F0F2FC02000B009A
:1063A0002000290015F024FA32003B0014F078FA9E
:1063B0000A9A0B9B2E902F911298139914F0D4FDEA
:1063C000109A119B15F014FA049B34903591012B0F
:1063D00000D0C0E030AB32AA34A92EA803F096FE5C
:1063E000369B379C329E339F0C930D940C980D99DD
:1063F000309A319B0A920B933A9C3B9D32003B00B2
:1064000015F0F6F90A9A0B9B1090119120002900C3
:1064100015F0EEF902000B001098119914F040FAF3
:1064200022002B002E902F913000390015F0E0F95A
:106430000A9A0B9B04000D000C980D9915F0D8F9E1
:1064400002000B002000290015F09AFC03000C004C
:106450000C900D910A980B993A933B94389C399D76
:1064600022002B0015F0C4F922002B003490359146
:106470003000390015F0BCF90A9B0B9C389039911B
:10648000029303940322009601970499079803F05E
:10649000F7FE2E9A2F9B34A93692379336A830AB4D
:1064A00032AA03F033FE329B339C0C980D99309E38
:1064B000319F0A930B94389B399C109311940A9A3C
:1064C0000B9B15F095F9320004000D0010981199FE
:1064D0003B0015F08DF902000B002000290014F09C
:1064E000DFF980231B06FB18299328962E902F9105
:1064F0000C9A0D9B2898299915F07AF9109A119BFE
:1065000004000D000A980B9915F072F902000B00B7
:106510002000290014F0C4F93C9C3D9D389039912D
:1065200022002B003000390015F062F922002B0008
:10653000349035910A980B9915F05AF90A9B0B9CE7
:106540003C903D9103220296039700930194049995
:10655000069803F095FE2E9A2F9B3A923B931A9B36
:1065600001331A93C8E50022169817990023FAF709
:1065700027FD002800D1D8E60026002700E7802369
:106580001B06FB186360049B07985A001B01511CF3
:1065900026600232C3188A4200DAF5E580241868C2
:1065A00024062A905868013100192B902A9E2B9FAF
:1065B000C0C3F0E7A268E3680492059304980599C4
:1065C00032003B00FAF716FD002800D1E6E5049AF8
:1065D000059B07983692379301210322A660E76056
:1065E0002E962F9703F0CCFE03220121069803F08C
:1065F000C7FED3E50000E03FD3B5166857680090AA
:10660000019114000023002230003900FAF7D8FC71
:10661000002807D1009A019B3000390014F0A4FC37
:1066200020606160A668E76800220023300039001E
:10663000FAF7C6FC002807D1009A019B3000390008
:1066400014F092FCA060E160D3BD00000122024B77
:10665000DA711A727047C046E806002010B5244C63
:1066600023685A1C01D001332360A379002B0BD17E
:106670000122A271921822710B70627123601D4871
:10668000FBF7C8F8E07110BD2379012B0CD10B701A
:106690000278002AF7D00222227100220A70637168
:1066A0002260FBF7EDF8EEE700230B706279012A18
:1066B0000BD102789A4203D1023363712260DEE784
:1066C00022681D2ADFD92360EBE7E279002A02D095
:1066D00001226271F7E7237A002B04D023681D2B77
:1066E000D1D90223E9E70123A3800B70CBE7C04691
:1066F000E8060020F0060020014B18607047C046F5
:10670000F4060020F0B5ADB00C6834991CAF0C60F5
:1067100000218C424ADC00218B4200D011880022EB
:106720000926349B14A85C601CAD944246DC349B63
:1067300000259C60E343DB1723401A00002104A8D6
:10674000039316F03DF8E3B2019314AA9D423FD1A2
:1067500000230293019B022B01D9EB1E029300211F
:106760008C461CAA04AB009202998C4535DB349B05
:106770000CAEDC600021039A300016F021F804A969
:106780002A00300016F032F80021019B8B4200D025
:10679000691E330000228A423EDB339B1C60349B1F
:1067A000D96800238B4251DB2DB0F0BD00264D008F
:1067B000B34200D0465B7E530131AAE753005B5BD6
:1067C0005B1A9BB29E429B415B4213540132ACE781
:1067D000A95C04A841550135B8E701218C4400218A
:1067E0005956012912D10121595601290ED10220F1
:1067F000185601280AD1568817880021B74208D2B6
:106800009788B74205D219705870997001330232D7
:10681000AAE759700121F8E7002018560132012833
:106820000DD101255D57012D09D1009800888446BE
:10683000009847880020BC4506D818705D70009805
:10684000013302300090A6E75870F8E7F256501E68
:1068500082413298C2540133A4E700000122024B66
:10686000DA70002303607047F806002084461000A9
:10687000F0B585B01C000B9B0A9A1E880C9B007813
:106880001B78178840B2002B0AD0002807D13C4D56
:106890000300AF4209D93B48B0425B4105E0002309
:1068A000013002D136488742F5D81098DBB2037028
:1068B000354B98781E2801D80130987058780028F8
:1068C00012D10424FF341C80987030480F9B1B7831
:1068D00002900E9801900D9800906046FFF712FF0D
:1068E000FBF774F905B0F0BD1878012818D002281C
:1068F0003ED098780128F5D920780128F2D1109C53
:10690000DD782678AE42EDD10B9C15882488641B77
:10691000222CE7DD0F9C20700130187023001CE052
:106920002078002806D1002003240F9B1870164BF6
:106930001C70C9E70128D5D198781328D2D91098AE
:106940000578D8788542EED10B9814880088001B12
:106950000928E8DD022018700F9B0C481B78029074
:106960000E9801900D9800906046FFF7CBFEB9E7B6
:1069700001221A7000229A70FBF724F9B2E7C04690
:10698000DD0D000054100000F8060020FC06002079
:10699000014B18607047C0460C0700200222034BD1
:1069A000FF321A82013AFF3A9A74704710070020AA
:1069B000F0B585B002930A9B03921A780C9E0D9F46
:1069C000994B00900191002A00D12BE101221A7508
:1069D000DA7A7E2A01D80132DA72934CA37A002B3C
:1069E00014D10133A372033363723800FBF7C2F88A
:1069F00060743000FBF7C2F8A0740B98FBF7C6F880
:106A000020740E98FBF7BEF8E07448E0637A032B1D
:106A100054D035D8013B012B38D9009B00211D688B
:106A2000281CFAF707FB002800D07CE00021281C76
:106A3000FAF71AFB002847D001227B4B5A723068C4
:106A400013F0ECFE291C13F02BF89F21C905071C3D
:106A5000FAF7F6FA002834D0381C12F01FFF029B18
:106A60003060186813F0DAFE011C281C13F0A2F93C
:106A70000E9B011C186813F013F80E9B18600EE0B3
:106A8000042BCAD12369002B06D0AEE7019B1B78EB
:106A9000002B04D10122E2730522E3726272624D7F
:106AA000AB7B7E2B01D80133AB736B7B002B52D1B8
:106AB0000422FF32AA81AB7305B0F0BD0023E3735B
:106AC000EAE701204042CAE70021281CFAF7B8FA99
:106AD000002828D00222544B5A72802338681B06A3
:106AE000EE1813F09BFE291C13F088FC9F21C905AA
:106AF000051CFAF7A5FA002812D0281C12F0CEFEC9
:106B0000029B3860186813F089FE011C301C13F0DA
:106B100051F90B9B011C186812F0C2FF0B9BADE7EB
:106B200001204042ECE7404BDA7A632AB7D9DA7B9E
:106B3000002AB4D003225A723868FBF72BF8306869
:106B4000FBF72CF80B9B1868FBF72CF80E9B1868CA
:106B5000FBF72CF8A3E72A7B012A35D0019B1B7891
:106B6000022A36D0002B3CD0009B00211E68301C2E
:106B7000FAF766FA002834D0022328682B73311CF8
:106B800013F03CFC009B2860186880231B062749F3
:106B9000C01813F00FF99E21C905051CFAF750FA29
:106BA00000281CD0281C13F0CDFD13F0EBFD039B37
:106BB000196813F0E5FA8321C90513F0E1FA616859
:106BC00012F06EFF606077E700232B7203222A73B6
:106BD00071E7002B00D06FE701222A72F6E7144814
:106BE000E3E7AB7B632B00D866E70823EB56012B6A
:106BF00000D061E72B730F49286813F0DBF8286099
:106C0000FAF7D8FF002202210B48FCF7E5FA011C35
:106C1000686813F0CFF86860FAF7D0FF00232B60A4
:106C20006B6049E71A7547E71007002000007A44B7
:106C3000FFFFFF7F00BA5B4A70CB0100014B186079
:106C40007047C0462807002010B52F4B5A7C002AF9
:106C500006D10424FF349A605A601C820A7018E03E
:106C60001C7C0268012C10D0022C36D00024643227
:106C70003CDB9C600268642A40DD5A68322A0BD9EA
:106C800001221C601A74FE32E8E7312A1CDD002262
:106C90001A600268312A34DD00221A60016800227D
:106CA000642901DD5A6801325A60016800226431AA
:106CB00001DA9A6801329A6001680022313101DB01
:106CC000DA680132DA6010BD1A68322A19D9002256
:106CD00003249A605A601C74C0E7313202DA002241
:106CE000DA60D6E7DA68322AF1D8D2E79A68322A2F
:106CF00004D90222DC601A74013AAFE700225A601C
:106D0000C7E71A680132C8E72C070020014B18605A
:106D10007047C046400700200222034BFF32DA8052
:106D2000013AFF3A1A72704744070020F8B5414C07
:106D300006002068079D471C01D001302060607963
:106D400000280BD10623FF33A380053B2060FF3BC7
:106D50002870E371FAF7E2FDE0713DE02079013837
:106D6000032856D8F9F784FF0218395201202870F9
:106D70001B78002B03D1069B1B78002B2CD0032300
:106D8000237100232360013323721288096830685D
:106D9000FAF7CCFD20721FE002222A70A379002BA3
:106DA00011D0642123684B43FA2189008B4213D30D
:106DB0000023227123600133A371FAF7B3FDFAF7C0
:106DC000AFFDA07108E02368092B05D904232371C6
:106DD000013B2B70FAF7AEFDF8BD237A002B06D0ED
:106DE00064202368434314488342F5D9C9E7069ACF
:106DF0001278002A04D0089A13700123237106E048
:106E00000223226023712B70013BD5E703232B70F3
:106E1000E2E700222A70E3799342EED064212368EE
:106E20004B43FA2189008B42D6D30523226023717C
:106E3000043B8EE744070020B70B0000014B1860AD
:106E40007047C04650070020F0B5DC4DBBB00E22A5
:106E5000DB492800DB4C15F0C9FCDB4BDB48190093
:106E60003693FFF7FBFBDA4A28000292D94ADA4B45
:106E70000192DA4ADA490092369A02F073FDD94F4C
:106E8000D94A3B88106801211A00884241DC2282DD
:106E90000122904246DC63821422A35EA4462500B0
:106EA0001E000020EA8A0130111C12B2B24200DD3D
:106EB000311C0EB202350628F4D1002061846246EE
:106EC000D28A0130111C12B29A4200DA191C022235
:106ED0000BB294440628F2D1C44E3698A1843100F6
:106EE00002F022FAC248C34DC17F2B1D002922D1D6
:106EF00001226961C277DA77AC373B785A1E934139
:106F000022003632137023002A331B78002B22D044
:106F100025E14D007E5B351C964200D2151CAAB2BD
:106F20000131B2E751007D5A291C9D4200D9191C3C
:106F30008BB20132ADE7D97F3278012900D001E16F
:106F4000002A00D00BE16969312904D90221D977DF
:106F5000230036331A706B690133A74EA74F3000F8
:106F600039006B61FFF770FEA54BA64A3793A64B1D
:106F700030003593A54B3493A54B3393A54B3293F7
:106F8000A54B3193A54B3093A54B2F93A54B2E9337
:106F9000A54B2D93A54B2C93A54B2B93A54B2A9337
:106FA000A54B2993A54B2893A54B2793A54B269337
:106FB000A54B2593A54B2493A54B2393A54B229337
:106FC000A54B2193A54B2093A54B1F93A54B1E9337
:106FD000A54B1D93A54B1C93A54B1B93A54B1A9337
:106FE000A54B1993A54B1893A54B1793369B159753
:106FF0001693A44B1493A44B1393A44B1293A44B3A
:107000001193A44B1093A44B0F93A44B0E93A44B3A
:107010000D93A44B0C93A44B0B93A44B0A93A44B3A
:107020000993A44B0893A44B0793A44B0693A44B3A
:1070300036990593A34B0493A34B0393A34B02935D
:10704000A34B0193A34B0093379B01F027F9A24B6D
:10705000AA7EA24E1A700021306CF9F7EBFF0123D3
:10706000002803D0E31DDB7F5A1E93412C3633707A
:10707000604B9A7F002A74D101219977491859777A
:10708000230032331A70E268954B20681A6013F0BF
:10709000C5FB944D944B28600693944B574F059332
:1070A000934B504E04938D4B3A000393914B300019
:1070B0000293544B4C490193514B37970093369BA5
:1070C000FFF7D4FB4B4D8C4BAA6A37001A60320095
:1070D000AC37A53212783B7802A913435A1E93416C
:1070E000DD2252188549137005918549424B049160
:1070F0008449364A03918449379802918349019122
:1071000083490091369900F011FDDE223B783693D9
:1071100002ABD218369B002B00D105E13300A2331D
:107120001B78002B00D016E1137019003300A33335
:107130001A780123002A00D11300B8363278501E85
:107140008241F5E0AC373978002900D1DBE6002A2E
:1071500000D100E70122DA77230036331A700023CA
:10716000FBE65A7F012A23D022002A321278002A15
:107170001ED0628A012A1BD901225A77230032339A
:107180001A70644B644A0693644B18480493644B2A
:1071900037990393634B05940293084B0193164B65
:1071A00000933B00FCF79AF84C4BA2685A626AE7DE
:1071B000230032331B78002BE3D164E7F40800206E
:1071C0007E0B0020E008002009090020A108002013
:1071D000E4080020B0070020A8070020AC0700202A
:1071E0009C080020F4070020F00700200A09002076
:1071F000B9080020B4080020B8050020C607002008
:10720000F2080020F0080020EE070020ED07002023
:10721000EC070020EB070020EA070020E907002028
:10722000E8070020E7070020E6070020E507002028
:10723000E4070020E3070020E2070020E107002028
:1072400008090020A2070020A1070020A0070020B5
:107250009F0700209E0700209D0700209C0700201C
:107260009B070020070900209907002098070020AD
:1072700097070020960700209507002006090020A8
:107280000B09002016090020B4050020B3050020DA
:10729000B2050020B1050020B0050020AF05002098
:1072A000AE050020AD050020AC050020AB05002098
:1072B000AA050020A9050020A8050020A705002098
:1072C000A605002094080020930800208C0B0020C5
:1072D00004090020020900209A0700206807002006
:1072E0009C0B0020980B0020C4070020C50700203D
:1072F000DC080020A9080020640700200C090020F9
:10730000A8080020A7080020A6080020A408002044
:10731000A3080020E8080020940B0020EC080020BF
:1073200060070020340800200123137019001A00A0
:107330003448C07F002810D102260127FF36EF779E
:107340002E84304D304EEF77304D3070A8860029B6
:1073500026D0002127E00123E6E6E87F012829D195
:10736000002906D00026AE600236EE7726003336BE
:107370003070681CC67F012E2AD1002B06D0002752
:10738000EF600237C7772000343006702048C77F8F
:10739000012F00D0B4E1002A00D0A0E1002925D1BE
:1073A0001C49896801311B488160002B00D18DE1A7
:1073B00000238DE1002902D00020A860D9E7A86849
:1073C0000C28D6D90120E877200033300170D0E7AF
:1073D000002B02D00020E860D8E7EE680C2ED5D94B
:1073E0000126C677200034300370CFE7AA60002B57
:1073F00000D072E1EB680133EB60064B1B6901338F
:107400000EE0C046B708002013090020E008002065
:10741000B6080020B4080020EB680133EB600023BD
:10742000C14AC24D1361369A0123002A04D02B00B1
:107430009C331B785A1E9341DF27DE2602AABF1811
:10744000B618BB4A3B700192BA4ABB4B0092BB498B
:107450003A00BB480296FAF747FD3378002B00D07C
:107460005EE12A00AC321278002A00D059E12B00EC
:10747000A6331B78B7355A1E93413B702B785A1EA2
:107480009341B04D33702F95AF4DB04B2E95B04D0D
:10749000B04A2D95B04DB1492C95B14DB1482B95C1
:1074A000B14D2A95B14D2995B14D2895B14D2795EE
:1074B000B14D2695B14D2595B14D2495B14D2395EE
:1074C000B14D2295B14D13962195B14D02AE209547
:1074D000B04D1F95B04D1E95B04D1D95B04D1C95EE
:1074E000B04D1B95B04D1A95B04D1995B04D1895EE
:1074F000B04D1795B04D1695B04D1595B04D1495EE
:10750000DF25AD191295AF4D1195AF4D1095AF4DCB
:107510000F95AF4D0E95DD25AD190D95AD4D0C9523
:10752000AD4D0B95AD4D0A95AD4D0995AD4D0895F9
:10753000AD4D0795AD4D0695AD4D0595AD4D0495F9
:10754000AD4D0395AD4D0295AD4D0195AD4D0095F9
:1075500001F05EFFAC4AAD4DAD4EAE4F3692AE4A35
:10756000AE4B31003698019200972A00FAF7AEFD33
:10757000AB49AC4800F0E0FBAB4B28000493AB4BAD
:1075800032000393AA4B36990293AA4B00970193BA
:107590002300FFF70DFAA84B634D1B78002B05D095
:1075A00023002D331A780123002A02D1EB7E5A1EC4
:1075B0009341DE27A14E02AABF18A1493200864896
:1075C0003B7000F057FA9F4B290002939E4B9F4A55
:1075D0009F48019300963B00FFF7A8FB00216068DD
:1075E000F9F728FD0123002804D0230028331B7855
:1075F0005A1E9341974A9849137021919749594BC4
:1076000020919749724E1F919649DD201E9196490F
:1076100002AF1D919549C0191C9195491B9195493F
:107620001A9195491991954918919549179195493C
:10763000169195491591954914911392944A3100E8
:107640001292784A11925C4A1092924A0F92924A90
:107650000E92624A0D92624A0C92624A0B92624A00
:107660000A92624A0992624A0892624A0792624A00
:107670000692624A0592624A0492624A0392334A2F
:107680000292344A0192354A0092369A00F0EEFB9B
:107690003100824801F074FD23002F331B78804AAB
:1076A000AB7623686B60E3682B60638A2B832300CF
:1076B0002B331B783134EB7623782B7793680133A7
:1076C000042B00D9002393603BB0F0BDC3680133A5
:1076D000C360002A00D0A2E68FE6EA608DE60020B3
:1076E000704E28610230F07713480770002900D1EE
:1076F00056E60022AA60934200D18DE613008DE683
:10770000002A02D00020286121E62D690C2D00D826
:107710001DE601256348C57720003530027016E666
:1077200001233B70ADE6C046B4080020F4070020FA
:107730000E0900200D090020150900201409002061
:10774000130900200F090020DF0700209707002001
:10775000DE07002096070020DD07002095070020A7
:10776000DC07002094070020DB070020DA07002058
:10777000D9070020D8070020D7070020D60700200F
:10778000D5070020D4070020D3070020D20700200F
:10779000D1070020D0070020CF070020CE0700200F
:1077A000CD070020CC070020CB070020CA0700200F
:1077B000C9070020C8070020880700209208002081
:1077C000B008002091080020B80500207C0B0020A4
:1077D0000C09002009090020C6070020A20700208C
:1077E000A1070020A00700209F0700209E0700207F
:1077F0009D0700209C0700209B0700209A0700207F
:1078000099070020980700200A090020940B002007
:107810008C0700201209002090070020F2080020A9
:10782000A4070020EC080020C0070020BC070020AF
:10783000B8070020B4070020A0080020100900208D
:10784000D008002011090020C7070020CC08002024
:10785000B8080020E0070020EE070020ED07002018
:10786000EC070020EB070020EA070020E9070020D2
:10787000E8070020E7070020E6070020E5070020D2
:10788000E4070020E3070020E2070020E1070020D2
:10789000AA080020A2080020A108002095080020C6
:1078A00054070020B6080020022370B500264A4D78
:1078B0004A4C2B604A4B9AB02000EB606E60AE6081
:1078C000FEF71AFF2000FFF7B9FA2000FFF760F873
:1078D0002000FFF71BFA2000FAF7C6FB2000FAF79A
:1078E000E9FC200002F0B0F9200001F07BFD20004F
:1078F00000F050FA200001F0FDFC2000FFF79EF997
:10790000200000F007F9200000F054FC200001F0F6
:1079100027FC200000F00AFA200002F017F82900E6
:10792000200032000123FDF773FA2E4A2E4B126815
:107930001A60FEF78BFE01F0E3FC2C4C2C4B1994E3
:107940002C4C2D4A18942D4C2D4917942D4C2E4813
:1079500016942E4C15942E4C14942E4C13942E4C9D
:1079600012942E4C11942E4C10942E4C0F942E4C9D
:107970000E942E4C0D942E4C0C942E4C0B942E4C9D
:107980000A942E4C09942E4C08942E4C07942E4C9D
:1079900006942E4C05942E4C04942E4C03942E4C9D
:1079A00002942E4C01942E4C009400F009FCFBF73D
:1079B00077FC2C48FEF752FF00F0B2F801F018FDFA
:1079C000FEF7ECFF00F050F8FFF7A6F900F046FADA
:1079D00001F0CCFB1AB070BD18090020540700203C
:1079E00058070020900B002060070020EE070020C1
:1079F00097070020ED07002096070020EC070020E5
:107A000095070020EB07002006090020EA07002068
:107A1000E9070020E8070020E7070020E60700202C
:107A2000E5070020E4070020E3070020E20700202C
:107A3000E107002008090020A2070020A10700207C
:107A4000A00700209F0700209E0700209D07002020
:107A50009C0700209B0700200709002099070020B1
:107A600098070020DC0800200122014B9A80704713
:107A70003409002070B5244C150023685A1C01D02D
:107A800001332360E379002B05D10222FF32E2802B
:107A90002B70237214E0A379022B1AD0032B20D071
:107AA000012B22D1227A002A0FD000228256002AEE
:107AB00007D000260233A3712660FAF70BF82E7068
:107AC00070BD0422A2712B70FAE71048F9F7FAFF93
:107AD000F6E70422A35E002BF2D00123A37100235A
:107AE000D6E72368632BF8D8EAE70B78002BE7D1B9
:107AF0002B700233A371F9F7E0FF054A031C904293
:107B000000D9131CA380DBE7340900203C090020C6
:107B1000FF7F0000014B18607047C04640090020FD
:107B20000222014B5A71704744090020F8B5002623
:107B30000978069F0B9D1278B1420BD0B24209D151
:107B400000228256B24205D1C8221B685200C833B7
:107B50009A427641704C714A2388934201D801338E
:107B60002380A379002B05D10122A2710A32A270D1
:107B7000238036E0A07801380B2800D9BDE0F9F762
:107B800077F8060C1117321356565A8A8C9E062324
:107B90000420A370FAF794F8F8BD6379012B10D193
:107BA0000733F5E7FAF794F80B23A3700023DFE718
:107BB0002379012B05D102200933A370FAF778F855
:107BC000EAE7002B04D0962322885B009A42E3D395
:107BD0000520FAF775F803230020A370FAF760F880
:107BE00000232B70D8E7E378012B07D10220FAF7A6
:107BF0006BF80923A37000232380CDE7002B04D06A
:107C0000962322885B009A4206D30520FAF758F89B
:107C10000220FAF759F8DEE73E78002EBCD10220A8
:107C2000FAF752F80B232680A3702E70B4E73B7846
:107C3000002BDED1B8E7079B1B78032B07D10F2061
:107C4000FAF732F80C230020A3702080A2E70A9BE9
:107C50001B78012B07D10023314823800533638033
:107C6000FAF710F898E7099B1B78002B0AD101332B
:107C70000220A370FAF70AF8FAF70EF80F20FAF7C5
:107C80001BF889E7962322885B009A42A0D23B78B2
:107C9000002B89D080E707237AE73B78012B00D0BF
:107CA0007AE7002E01D02B70A3E72388132B00D88E
:107CB00072E703233000A370F9F7F2FFB5E7079BE3
:107CC0001B78012B0ED0022B00D07CE700250B3354
:107CD0000320A3702580F9F7D9FF0F20F9F7E4FFFF
:107CE000280057E70423A37000230F202380F9F70F
:107CF000DBFF0C48F9F7C2FF4EE7089B1B78012B0E
:107D000000D060E70133A370002307482380F9F710
:107D1000B1FF0F2052E7C04644090020FE0F0000CB
:107D2000470900204809002049090020014B18603C
:107D30007047C0464C09002070B504680D00201C37
:107D40001049F9F791F9002819D10021201CF9F701
:107D500077F9002800D00024201C14F05DFC0200FC
:107D60000B000020084914F00BF8084A084B13F0E8
:107D70003FFDFBF7F5F911F0A9FD288070BD014C1E
:107D8000EAE7C0460000A042000054405555555552
:107D900055550940014B18607047C04650090020F6
:107DA00010B50024A14253D10178013400294FD1EC
:107DB000117800294CD181790134002948D14178CA
:107DC0000134002944D101790134002940D11179CD
:107DD00000293DD141790134002939D15279002A55
:107DE00036D1827A0134002A32D182780134002AD5
:107DF0002ED1C2780134002A2AD1C27A002A27D192
:107E00001B780234002B23D1C3790134002B1FD1FE
:107E1000037A0134002B1BD1437B0134002B17D193
:107E2000037B0134002B13D1437A0134002B0FD193
:107E3000039B01341B78002B0AD1029B01341B7871
:107E4000002B05D1049B03341B78002B00D1153C7B
:107E5000014B9C8010BDC046540900200122024BFA
:107E600052429A807047C04654090020F0B51B78F2
:107E70009BB09C461192624616AB1A70209A0C90E9
:107E8000127810915A700592219A12789A7006927F
:107E9000229A1278DA700792239A12781A7108924D
:107EA000249A12785A710992259A12789A710A9234
:107EB000269A12780B92DA7127992898299C2A9D84
:107EC0002B9E2C9F2D9A0978007824782D7836786F
:107ED0003F781278197258729C72DD721E739A7311
:107EE0005F733E430C9B35431B782C430B9A204316
:107EF0000C9301430A9B0A431343099A1343089ABC
:107F00001343079A1343069A1343059A1343624691
:107F1000134301220F92002B14D12E9B1B78002BB0
:107F200010D12F9B1B78002B0CD1309B1B78002B82
:107F300008D10C9B002B05D0329B1B781A00531ED6
:107F40009A410F92339B12A91B78974D0B700593A2
:107F5000349B1B784B700693359B1B788B70079373
:107F6000369B1B78CB700893379B1B780B7109935A
:107F7000389B1B784B710A93399B1B788B710B9341
:107F80003A9B1B78CB710D933B9B3E9C3C9A267889
:107F90003F9C3D982778409C1B78247812784C733E
:107FA000A446419C007824780B728C737F4C4A72F3
:107FB0008872CE720F7321680E93A94201D80131E5
:107FC0002160A17A00290CD10123A372784B216092
:107FD000E380319B186811F061FCC0B2F9F7EEFC48
:107FE0005DE00C9D6B4669424D413C215B18197860
:107FF00063461F433E4330430E9B024313430D9A97
:10800000A7791A4313000B9AEDB21A4313000A9A88
:108010001A431300099A1A431300089A1A431300CB
:10802000079A1A431300069A1A431300059A1A4333
:1080300013005A1E9341109ADBB21678012F0AD012
:10804000022F00D16BE0002E00D097E0584B6672F3
:10805000E3802660BDE7002E0AD003230025A3712C
:108060002572F9F7A7FC022325606372642014E0EF
:10807000207A0138032843D84C4CF8F7F9FD02293F
:108080001E290423E05E002308280ADC0522236061
:108090002272F9F78BFC0423E05EF9F74FFC1BB06A
:1080A000F0BD032222722360F7E70B43F7D1404B68
:1080B000E3800023237223608BE764222368534309
:1080C0009132FF329342EAD302232372002353E01A
:1080D0006420226842439130FF308242E5D301237D
:1080E00023720023A380329B29000293309B12AAA3
:1080F00001932F9B16A800932E9BFFF751FECEE70E
:108100006422236853439132FF329342C7D304233E
:1081100026602372F9F74EFCF9F744FCBFE7002E06
:1081200007D00323E380F9F745FC0023677223603F
:108130009CE70B4306D00127E780F9F733FC277251
:10814000A680D0E7E279012A0CD1119A1278002A90
:10815000A5D0642122684A439131FF318A429ED3DF
:10816000E771A8E7642122684A439131FF318A42CE
:1081700000D294E70122E2712360CDE76420FA2265
:108180002368617A43435200012906D1934200D209
:1081900085E702236372002385E7934200D27EE7DE
:1081A0000123637292E7C046FEFFFF0354090020DB
:1081B00002020000014B18607047C04660090020B1
:1081C00030B50024324D2C706C70AC70EC702C719A
:1081D0006C71AC71EC712C726C72AC72EC722C73B1
:1081E0006C73AC73EC732C746C74AC74EC742C7591
:1081F0006C75AC75EC752C766C76AC76EC762C7771
:108200006C77047008980470099804700A980470D8
:108210000B9804700C9804700D9804700C70147016
:108220001C70039B01221C70049B1C70059B1C701E
:10823000069B1C70079B1C700E9B1C70179B1C7070
:10824000189B1C70199B1C701A9B1C701B9B1C702C
:108250001C9B1C700F9B1C70109B1C70119B1C7036
:10826000129B1C70139B1C70149B1C70159B1C7024
:10827000169B1C70074B1900EA310A7006491C70E6
:108280001A635A639C63D9625A601A8130BDC04632
:10829000580A002068090020A0090020F0B597B016
:1082A0000793329B0E921A780700DC4B1191002A3B
:1082B00001D100F044FF1A000121EB321170239A22
:1082C00012780892249A12780992259A12780B92C1
:1082D000269A12780C92289A12780092299A12788B
:1082E00001922A9A127802922B9A127803922D9A6E
:1082F000127804922E9A127805921D9A0020105E30
:108300005A7A002A01D000225A72C44BDC6A002338
:108310002268012A0AD0FE21012289052260A36079
:10832000E36023616361A161E3612271A369A568D0
:108330000693E36813AE139323691493636915934B
:10834000E3690A9312F01EFA291C0F9011F0A8FBA2
:108350000D90069812F0F6F90021451E0A98F8F7DC
:1083600069FEAD00002800D1E2E071590D9811F0CE
:1083700097FB10900F9B13AEA94906987351F8F71D
:1083800059FE002800D0D6E0FE210698890511F09C
:1083900087FB051C00210A98F8F74CFE002800D145
:1083A000D8E0FA211098890511F0EAFE06900D9B9D
:1083B0000021A360139B0A98E360149BA5612361CD
:1083C000159B6361F8F750FE002800D1C5E0FE213F
:1083D0000A98890512F012F8924AE06111788F4BE1
:1083E000002901D101311170D0331A888E498A4297
:1083F00001D801321A808D48884B02888A4201D800
:1084000001320280D4331A888A4201D801321A809C
:108410008748824A03888B4201D8013303801100C8
:10842000E7310B78002B00D099E001200870100094
:108430001400B83003600220E23420701400A0342D
:1084400023601400A83423601400C834236014008F
:10845000E534207014008C342360140094342360BD
:10846000141DE3671400734DD83425601400724D59
:10847000DC3472492560339C536653670B71CB74AF
:108480004B710B758B728B70CB70CB720B724B7206
:1084900023701400E63420701400C43423601400E8
:1084A000E43420701400C034CB714B73236014008B
:1084B000E33420701000AC3003601000B030036073
:1084C0005F48E0320B734B7010800B70CB738722C8
:1084D0001D9B92000021595E504B914201DD00F03E
:1084E00077FC1A6E002001321A669A6E58660132C5
:1084F0009A66F522D8665200914201DC00F001FD37
:108500000020FA24454B64001867A14201DA00F00C
:10851000FBFC5A6F01325A67A14201D100F0F7FC0F
:108520009867484B994201DC00F068FC00F0E1FCE0
:10853000002310931EE7B168706811F0B1FA011CB6
:108540007060139811F0ACFAFE2500231390AD056E
:108550000D931FE70023069329E700203CE7119BBA
:1085600019781300DB331878012828D1002907D0A7
:108570000222354B1A7000222A4B1A70F9F72AFB97
:1085800032481D9B04780021595E0022234B012CA8
:108590001FD0022C70D09624A400A14200DC80E001
:1085A0000B9A012A75D1002201241C4B06209A66E1
:1085B000D8331C70F9F73CFB204B1C710DE00029EF
:1085C00002D101221A70DBE7E8321378002BD7D0F2
:1085D000CEE71C4881423DDD9A661D481D9B04780C
:1085E0000021595E00220D4B012C71D0022C00D1CC
:1085F000C4E0144CA14200DCD8E00C9A012A00D05F
:10860000CBE000220124054B07209A67D9331C7068
:10861000F9F70EFB094B5C715FE0C046680900206A
:1086200000004040500A0020FE0F00003A0A0020DF
:108630003E0A00200202030102020202580A002040
:108640000304000026020000430A0020400A002024
:10865000410A00200B9A002ABFD19B6E632BBCD924
:1086600000220321A34BDA661A66D8331970A24B95
:108670001A710132DA74B0E7A048814200DC5A6610
:10868000319B1B78012BA8D89A4B5B6E092BE7D83E
:10869000A3E7319A1278012A15D90022954B1A6660
:1086A0009BE70B9CDA66012C00D17CE78724A400B1
:1086B000A142F2DC196E09298FD95A660223037090
:1086C0008D4B1A71D6E7DB6E132B00D96BE7E4E70D
:1086D000FA20400081423FDD9A6789481E9B04785A
:1086E00000229A5E0021834B012C00D085E0E1241A
:1086F000A400A24271DDBC33196082481C9B04783F
:1087000000229A5E00217B4B012C00D0A5E0323282
:1087100000DB90E09C3319607B481C9B04780022AE
:108720009A5E0021734B012C00D0C5E0323200DB91
:10873000B0E0A433196075481E9B04780021595E8F
:1087400000226C4B012C00D039E11C00CC34963156
:1087500000DBE7E02260EEE00C9A002ABDD19B6FBF
:10876000632BBAD900220321624BDA671A67D93327
:108770001970614B5A7101321A75AEE7FA20400048
:10878000814200DA5A67319B1B785BB20133A4D176
:10879000584B5B6F312BE5D89FE7319A127852B274
:1087A000013215D00022534B1A6796E70C9CDA670A
:1087B000012C00D125E7F5246400A142F2DC196FF9
:1087C00031298AD95A67022303704B4B5A71D3E778
:1087D000DB6F132B00D914E7E4E7039A002A8CD14E
:1087E0001A00BC321268632A87D9039AB8331A6018
:1087F00002230370404B9A727FE7FA208000824286
:1088000011DCB8331960039B012B00D075E70022FF
:1088100001243F4B0A201A60394B1C70F9F708FA03
:10882000354B9C7269E7039A012AF0D0B8331B6874
:10883000132BECD861E7089A002A00D06CE71A00E5
:108840009C321268632A00D866E7089AA0331A603F
:1088500002230370284B9A705EE7643201DBA03379
:108860001960089B012B09D0319B1B78012B00D983
:1088700052E7284B1B68132B00D84DE70022012438
:10888000254B08201A601F4B1C70F9F7D1F91A4BC1
:108890009C7041E7099A002A00D04CE71A00A432E4
:1088A0001268632A00D846E7099AA8331A6002239F
:1088B0000370114BDA703EE7643201DBA8331960B4
:1088C000099B012B0AD0319B1B785BB2013300D08E
:1088D00031E7124B1B68132B00D82CE70022012430
:1088E0000F4B09201A60084B1C70F9F7A1F9024BD5
:1088F000DC7020E768090020580A002025020000EB
:108900004A0A0020460A0020470A00204D0A00209B
:10891000240A0020080A0020040A0020100A00206F
:108920000C0A00202168632905D9C8331A60022384
:108930000370C64BDA72C6480E9B04781A88C54984
:10894000C54B012C5DD1498991424AD20022903316
:108950001A60C24A079B10781988BE4ABE4B01288C
:108960006CD1D2898A4202D9002298331A60029BC4
:10897000002B11D1B74ABA4910790A22424309683B
:10898000B54B914208D31A00029994321160022229
:10899000DD331A70AD4B5972B249AF4B0A78012AD8
:1089A00069D0022A00D181E0AA4A0798148A008877
:1089B0001A1DA04200D817E10023D36776E01C00FF
:1089C000C834C83100DBC5E621681329B3D90124B6
:1089D000CC3304700B201A60F9F72AF99B4BDC7238
:1089E000A9E7019A002AB4D11A0090321268632ACA
:1089F000AFD9019A8C331A6002230370934B1A7219
:108A0000A7E70989914211D900228C331A60019B92
:108A1000012B9ED100220124934B20001A608C4B25
:108A20001C70F9F705F9894B1C7292E7019A012A2B
:108A3000F0D08C331B681D2BECD88AE792898A42D0
:108A400011D2002294331A60029B012BA4D1002280
:108A50000124834B02201A60804B1C70F9F7E8F860
:108A60007A4B5C7298E7029A012AF0D094331B6823
:108A70001D2BECD890E7319A127852B2013203D113
:108A80001A000021883211600A251C001900714863
:108A90008834027824686A430831944200D28CE01A
:108AA0000222DA331A700123339A13706F4A6A4B29
:108AB0001178012900D0A6E0D6331988654B587883
:108AC0000A234343994207DB009B002B04D1023366
:108AD00013705E4B009ADA7165495F4B08785D4A06
:108AE000012800D09BE0059800280ED194780A2236
:108AF00018006243D4300088904206DB059AC433E4
:108B00001A6002230B70514B5A735A49524B087822
:108B1000504A012800D0C1E0049800280ED1D47832
:108B20000A2218006243D2300088904206DB049A81
:108B3000C0331A6002230B70444B1A734E4B464CE1
:108B40001A78012A25D0022A00D0C8E01F9A12788C
:108B5000002A1ED101320E201A70F9F769F8E56D6E
:108B6000A46D002220002900444BF8F72FFA0028BA
:108B700000D1B2E00022002320002900F8F744FAD7
:108B8000002804D02000290010F0A0FE80B2F8F7E1
:108B9000E9FF3B4D304C2B78022B00D1D0E0032B6A
:108BA00000D1DEE0012B00D0F6E00022B4342260D8
:108BB00003322A70254A137089E4079A1488028ABE
:108BC000944202D20023CB6770E79622C96F9200CD
:108BD000914200D26AE70022191DCA670321DA33E5
:108BE0001970339B1A7061E7D26FC72A00D85DE70E
:108BF0000022180088331A6001230830C2670B7006
:108C0000F8F7A4FF52E70099012900D064E711703A
:108C10000022D63303201A80F9F70AF859E7396899
:108C2000126A914230DB0022C4331A60059B012B8B
:108C300000D06AE7012400220D4B04201C70114B68
:108C40001A80F8F7F5FF014B5C735EE7580A0020C5
:108C5000440A0020A00B002068090020450A0020DB
:108C6000000A0020420A0020F80900204E0A0020D5
:108C70004C0A00204B0A0020480A00200000F04067
:108C8000490A00203C0A0020059A012AD2D09622E7
:108C9000C4331B6852009342CCD836E73968526A15
:108CA000914212DC0022C0331A60049B012B00D0D9
:108CB00044E7012400229E4B05201C709D4B1A8026
:108CC000F8F7B6FF9C4B1C7338E7049A012AF0D0E2
:108CD000C0331B68642BECD830E7984857E70E9AEE
:108CE0003B681088079A1288801A002B04DA8022C9
:108CF0001206934205D05B42914A934201DC9628CA
:108D000002DC00228F4B1A601F9B1B78002B09D1BD
:108D10008C4B1B68C82B00D83BE7309B1B78002B83
:108D200000D136E70222884B884C1A7013F022FCDF
:108D3000A065E165F8F70EFF01227F4B5A7028E726
:108D40002300D0331B88632B01D8FFF7C0FB00231F
:108D50000122B434236003332B70774B1A70FFF772
:108D6000B6FB2600209BE9361B783278134307D1E7
:108D700001240F202C70F8F75BFF3470FFF7A7FB7E
:108D800073490698F8F75CF9002801D0FFF79FFBBC
:108D9000B4342060FFF79BFB6E490698F8F764F93E
:108DA0002300B033002802D11860FFF790FB1B6846
:108DB000092B01D8FFF78BFBF8F7D0FE02232B70AD
:108DC00000230122D03423805B4BDA73FFF77FFB53
:108DD000002261481A66814200DC78E0586E01305A
:108DE00058665E48814200D078E0996EDA660131BB
:108DF0009966596F1A67013159679A670023534C76
:108E0000E367079B1988564B188A231D814200D9B6
:108E100082E0DA6F0132DA670022814203D1230057
:108E20000833DA6F01324F48484BC2670020319A4D
:108E300010560022013003D01A0088321268013225
:108E4000180088300260464D0E9A2E891288002044
:108E5000964202D88C3318680130434E3B4B306049
:108E60006D890020954203D31800903000680130CE
:108E70001D00903528603A4D0020AE898E4202D305
:108E8000943318680130394E304B3060ED89002042
:108E90008D4203D818009830006801301D009835C5
:108EA00028601C981D000026865F9C3530003230FB
:108EB00035DB28680130286018000025A030A43375
:108EC0000560186801302A4B186000235BE0986E3B
:108ED0005A6601309866DA66FFF712FB9624586FDF
:108EE0009A66A4000130A14207DCDA661A67586767
:108EF0009A67164BDB6F013381E7D96E0131D96672
:108F0000F4E71A6F01321A670022104B5A670F4AB2
:108F1000936F0133936771E70022DA677FE70020E0
:108F200028601D00A035643624DB2860CBE7C046EE
:108F30004B0A00203A0A0020580A0020FFFF0000D8
:108F400087130000140A0020480A00206809002046
:108F50000000114400802244250200002602000087
:108F6000A00B002070090020F4090020FC0900205B
:108F70000C0A00202E6801362E601D00A8331B68E5
:108F8000A435286001336F486F4D036038680028AE
:108F900005DA802600233606B0420BD040426B4EE5
:108FA0000023B04206DC521A962A03DD2B00AC33B4
:108FB0001B6801332A00AC32654906981360F8F744
:108FC00053F8002803D02B00B033186801302B0071
:108FD000B03318605F490698F8F732F8002803D0DC
:108FE0002B00B433186801302B00B43318601E9B7B
:108FF000FA2100229B5E2A008900B8328B4200DCF5
:1090000088E011680131116000222900BC310A603A
:1090100051493E68486A0022864203DD2A00C03278
:10902000126801322800C03002603868096A0022E4
:10903000884203DA2A00C432126801322900C4319E
:109040000A602A001900C832C83100DB6EE01368DC
:10905000013313600023CC342360404B34991A78D9
:109060000A705A7A3D990A709A7A3E990A70DA7AA9
:109070003F990A701A7B40990A705A7B41990A708D
:109080009A7B42990A705A7835990A709A7836997B
:109090000A70DA7837990A701A7938990A705A7909
:1090A00039990A709A793A990A70DA793B990A7073
:1090B0001A7A3C990A70DA7B43990A701A7E4C99A5
:1090C0000A705A7E4D990A709A7E4E990A70DA7E1D
:1090D0004F990A701A7F50990A705A7F51990A70F5
:1090E0001A7C44990A705A7C45990A709A7C469970
:1090F0000A70DA7C47990A701A7D48990A705A7D7D
:1091000049990A709A7D4A990A70DB7D4B9A1370CF
:1091100017B0F0BD00211160E1229200934200DD02
:1091200072E72A00BC32126801326EE7002111603A
:10913000963300DA8EE7CC352B6801338BE7EB33BF
:109140001A70E5E7100A0020680900208713000064
:109150000080224400001144A00B0020580A002087
:10916000014B18607047C046780A00200022034B6C
:10917000DA709A705A701A707047C0467C0A0020E4
:109180000B78F7B5584C002B17D0E379002B00D1A2
:109190008DE0A379012B00D08DE0FF2223885200BF
:1091A000934201D801332380637A002B00D087E0FB
:1091B0008122520022812380F7BD0278002AE4D068
:1091C000A2784A4D0192E678571C721CD2B2FFB2C7
:1091D00000920B2F33D9052E4CD01F00EB70AB70D3
:1091E00022790023561CF6B21F2A08D1404B019366
:1091F0005B78002B03D06B78012B42D101236B707D
:109200006379312B47D13A4B1B78002B41D02B7817
:10921000012B3BD132236371202E00D90026009A06
:10922000E3792671A770062A3DD90022E2709342A5
:109230003DD0A379012B40D10223A371ADE7052EC8
:1092400004D1EB78012B17D106230093053E73421E
:109250005E41019A0023EE700A2AC0D1244EB378F1
:10926000002BBCD0AB78012B02D0F8F7EAFC707071
:109270000123B4E71F00E4E7F8F7DEFC1C4B98700D
:10928000E2E7F8F7E3FC019B1870B7E7F8F7E3FCB7
:1092900001232B70BEE700220133DBB22A70322B90
:1092A000B9D91300B7E7009AE270002BC1D10223AD
:1092B000FF33E38071E70123BFE7F8F7D1FC6CE7E8
:1092C000237A012B03D101332372002373E7642334
:1092D00022885343FA22D200934200DA6CE701233A
:1092E0002372F8F7C2FC67E7800A00207C0A00209E
:1092F0008A0A0020014B18607047C046900A00207F
:109300000122024B52421A807047C046940A002044
:109310000122044B52421A8000225A809A80027025
:109320007047C046940A002070B503780D002B4C9E
:10933000002B50D0A379002B04D10800FFF7E8FFE1
:109340000123A371E678002E0ED10123E370F8F714
:10935000ADFB02232671A3702E70033B23802048AF
:10936000F8F74CFB208070BDF8F7A0FBA678012E23
:1093700012D16379002B05D102222371A2702B70C8
:10938000013BEBE7F8F74EFB6671F8F755FB6671AA
:10939000F8F778FB6671E6E70022A35E002BDED1CA
:1093A0002279002ADBD001222A706371A270F8F7BB
:1093B00039FB431E9841C5B26571F8F73DFB054383
:1093C0006B1E9D41EDB26571F8F75CFB05436B1EAA
:1093D0009D416571C7E7A371C5E7C046940A0020A7
:1093E000980A0020014B18607047C0469C0A002074
:1093F0000122054B0549CA77991CCA771900293300
:109400002A310A701A707047A40A0020A90A0020A5
:10941000F0B589B0069200220793199B0190029142
:109420009A562B9B1E9F1A70129B269C1B7827987E
:1094300028993B9D002B04D10F9B1B78002B00D15A
:1094400091E0013A531E9A41D3B21A9A12785642C9
:10945000724122701B9A12785642724102701C9A15
:10946000299E12780A70209A127832700078097852
:109470000490002024780591C1490394CE7F834253
:1094800023D1119B1B7883421FD1149B1B788342ED
:109490001BD1159B1B78834217D1169B1B788342E7
:1094A00013D1179B1B7883420FD1019B1B788342FA
:1094B0000BD1029B1B7833431A431000059B1843C2
:1094C000049B20431843434258413C9BC2B21A704C
:1094D000AC4BDC7FA41A631E9C41AB4BDB7F9B1A19
:1094E0005A1E93411C43A94B5A78531E59424B4173
:1094F000A34203D0032A01D0F8F720FB0022A34B9C
:109500005C70139B19782B9B9A56219B1B78013218
:109510002FD001292DD12A9A137000269C4B2E7032
:10952000DA689C498A4201D80132DA6019001A00CF
:1095300028310C780832002C4DD101201C61052304
:109540000870D377944B20001C705C70F8F7F2FA27
:10955000249B1C701F9B1B78012B00D049E18C4B76
:109560001B69013346E1079B1B78002B00D068E79D
:109570006BE72A9A1370119A1278002ACDD10E9AAD
:109580001278002AC9D1069A1278002AC5D1149AF5
:109590001278002AC1D1159A1278002ABDD1169AE4
:1095A0001278002AB9D1179A1278002AB5D1019AF7
:1095B0001278002AB1D11E43029B1B781E43059BE3
:1095C00033431E00039B33431E00049B33431E00A2
:1095D00073425E41A2E7D07F0138042800D9E7E05A
:1095E0006B4BF7F745FB030D1B2E8800DB68042B44
:1095F000B0D900240522664B1C610833DA77A1E755
:109600009622DB6852009342A4D3E0221D9B920075
:109610001B8864339BB29342EBD39BE72B78002BE0
:10962000E7D01F9B1A785A4B002A02D000225A61B9
:1096300090E75B691D2B00D8DBE00123259A1370AE
:10964000D7E72A78002AD4D06422D96853484A43FD
:10965000824211D8012908D91A002A321278002A28
:109660000AD02B331B78002B06D01D9B4C4A1B883D
:109670006E339BB2934211D900240221444B494AD4
:10968000454D2000D177DC602C70F8F753FA0123A8
:10969000249A1370259B1C706C705BE7229B3968C1
:1096A0001A683B4B91420BDC00229A61F8F73BFAB7
:1096B0003D4B374C1870F8F72FFA2A34207049E7E1
:1096C00064219A694A432D31FF318A42EED31A0050
:1096D0002A321278002AE9D01A002B321278002A96
:1096E000E4D02D4A9039FF391170002208335A61B5
:1096F0000632DA772EE72B78002B00D106E13B68A3
:10970000002B12D02B9B1B785BB2013300D0FDE005
:109710005CE03B68002BF5D1E1221D9B92001B8889
:1097200064339BB29342A7D8ECE7E1221D9B9200E1
:109730001B8864339BB29342EED8F8F7EDF91B4EC9
:10974000134C3070F8F7EFF9174B18703378002B83
:1097500092D1628D002A00D0D4E001200E4B04216A
:10976000587023000833D977A261E260F8F7E2F974
:10977000F8F7D9F90C4B1870F8F7CEF93070E9E624
:10978000A70A0020A80A0020A90A0020A00A002099
:10979000A40A0020FEFF0F00D00A002025070000C9
:1097A0008D030000AC0A0020CF0A0020CE0A002062
:1097B0002A78002A00D11CE71F9A1278012A14D1B6
:1097C0000022DA611F9B1B78012B12D10024032297
:1097D0005A4B5B4D5C610833DA77012320002B7014
:1097E000F8F7A8F9249B1C7054E7DB690A2B00D911
:1097F00042E70023514A13611F9B197800239942C5
:1098000001D1536901335361229B386819680023E1
:10981000884201DD93690133484A93611F9B19789F
:109820000023012901D0D3690133D361444B187857
:10983000531CD97F0123814204D10232D37F1B1AEA
:109840005A1E93413F4ADCB211784A1E55426A4182
:109850009A4206D0032904D0431E9841C0B2F8F7BB
:1098600071F9384B2C9A1C70019B1B781370139B59
:10987000359A1B781370149B369A1B781370159BBE
:10988000379A1B781370169B389A1B781370179BA6
:10989000399A1B781370189B3A9A1B781370029BA5
:1098A0001B782D9A1370069B2E9A1B781370079BBA
:1098B0002F9A1B7813700E9B309A1B7813700F9B96
:1098C000319A1B781370109B329A1B781370119B7E
:1098D000339A1B781370129B349A1B7813703D9B3C
:1098E0001978164B184AD1773C9A191D1278CA7705
:1098F000591DCA77124A591C12780233CA77DA778F
:1099000009B0F0BD2B78002B00D002E71F9B1A781E
:109910000A4B012A02D000221A611BE619693B2971
:1099200000D81CE619000831CA770021D960044B21
:109930001A700223259A13700CE6C046A40A002070
:10994000D00A0020A00A0020A70A00200322034B0F
:109950001860034B5A701A707047C046D40A002032
:10996000A00A0020F0B51E0013788FB00500AE4CA1
:109970000991002B00D154E12300012234331A70E5
:10998000086810F04BFF0190206A10F047FF011C9F
:10999000019810F033FD0021F7F766FB002800D195
:1099A000C6E00E2229000AA812F020FF6168019883
:1099B00010F024FD9D4910F0E3FB159B051C186079
:1099C0000AAB0020185E10F0DDFE0AAB0290022008
:1099D000185E10F0D7FE0AAB03900420185E10F05A
:1099E000D1FE0AAB04900620185E10F0CBFE0AAB45
:1099F00005900820185E10F0C5FE0AAB06900A20FC
:109A0000185E10F0BFFE0AAB07900C20185E10F035
:109A1000B9FEA1680890039810F0F0FC844910F09A
:109A2000AFFB291C10F0C6F92168071C029810F042
:109A3000E5FC7F4910F0A4FB291C10F0BBF9391C90
:109A40000FF022FCE168071C049810F0D7FC78495D
:109A500010F096FB291C10F0ADF9011C381C0FF01A
:109A600013FC2169071C059810F0C8FC704910F020
:109A700087FB291C10F09EF9011C381C0FF004FC18
:109A80006169071C069810F0B9FC694910F078FB71
:109A9000291C10F08FF9011C381C0FF0F5FBA1698F
:109AA000071C079810F0AAFC614910F069FB291CFB
:109AB00010F080F9011C381C0FF0E6FBE169071C6F
:109AC000089810F09BFC5A4910F05AFB291C10F022
:109AD00071F9011C381C0FF0D7FBFE21149B89057E
:109AE0001860F7F7CBFA431E98410025514C2071BE
:109AF000029C01356B000AAAD05E10F043FE211CC7
:109B00000FF0C2FB041C062DF3D14A4B029A1860D9
:109B1000454B1A60019A5A60039A9A60049ADA6077
:109B2000059A1A61069A5A61079A9A61089ADA6147
:109B30003D4C414A238E934201D8013323862300B2
:109B400033331B783B4D002B27D1A3626362022382
:109B5000FF33638600233360169A13602E683749FB
:109B6000301CF7F78BFA002801D0606A013000231F
:109B700060622A799A4201D0A36A01333049A36214
:109B8000301CF7F75DFA002801D0E06A0130099B2C
:109B9000E0621B6823620FB0F0BD230032331A78F5
:109BA000012A13D0FE27BF05022A31D0169A17606A
:109BB000228E632AD2D90022E26202321A70F7F7AB
:109BC000CDFF0C20F8F734F83760C7E70023169A6A
:109BD0003360136019492868F7F750FA002800D15C
:109BE00060622B79002B00D1A3626421636A154A5D
:109BF0004B439342B2D9A36A4B439342AED923005D
:109C0000032232331A7000232386FE239B05A3E729
:109C100037600B492868F7F713FA00289ED1E062F5
:109C20009CE734342370B6E7D80A00206F12833AD9
:109C3000CDCCCC3D100B0020FE0F000000001643E1
:109C40000000C842B80B0000014B18607047C046C6
:109C5000180B0020D0B500231400002206000F00CE
:109C6000F7F7AEF900281BD122686368300039008D
:109C700011F0BEFD02000B002069616910F010FEBA
:109C8000A268E368206161613000390011F0B0FD25
:109C900002000B00A069E16910F002FEA061E16121
:109CA000D0BDF8B50A694B690D0004004168006831
:109CB00011F09EFDAA69EB6906000F00A068E1683B
:109CC00011F096FD02000B003000390010F0E8FDA5
:109CD000F8BD0000F0B589B00C001D00039006929D
:109CE000002818D0002916D0CA43D2170A40013CD8
:109CF000D200A4000021109812F062FD63192C001C
:109D00001E4A05930F9B9B180E9ADB00D3180493F1
:109D1000059B9C4227DD09B0F0BD069BF100083988
:109D20005918086849680CCF11F062FD02000B0059
:109D30000098019910F0B4FD009001910136079B45
:109D40009E42EADD0221601BF7F7C6FF109BC000B0
:109D50001E1830687168009A019B10F0A1FD043450
:109D600030607160D4E70023002200920193039BCE
:109D70002600013B1B19049F0793E0E7FFFFFF1F2D
:109D8000F7B51E00019200291FD0002400250A9B70
:109D900030181C605D60431E164A0093099B9B1897
:109DA000089ADB00D718009B9E420FDD012100209E
:109DB000F7F792FF0A9BC6009E193068716822006F
:109DC0002B0010F06DFD30607160F7BD019BF1005C
:109DD00008395918086849680CCF11F009FD0200CC
:109DE0000B002000290010F05BFD013604000D007F
:109DF000D9E7C046FFFFFF1FF0B58BB0009201937B
:109E00000E0007900022009801990023139CF7F799
:109E1000D7F800280DD1F6B2760033190593109BC0
:109E2000119DDB000493129B083B0993059B9C4208
:109E300001D10BB0F0BD2E686F6800220023300006
:109E40003900F7F7BDF8002802D002340835EDE7F5
:109E50003200009801993B0011F0CAFC2700E30092
:109E60000693099BE2009E18079B029003911B1921
:109E70000893089B9F42E8DA02980399069B049A8C
:109E8000F31A9B181A685B6811F0B2FC02000B0011
:109E90003068716810F004FD013703C6E9E7F0B5DA
:109EA0008BB00092019306900791002200980199CF
:109EB0000023F7F785F8041E08D1109BDB000593FB
:109EC000129B083B0993079B9C4201DB0BB0F0BD42
:109ED000119AE300D3181E685F6800220023300047
:109EE0003900F7F76DF8002804D0139B01340433D0
:109EF0001393E8E73B0000980199320011F078FCD9
:109F0000139E139BB446DF00099B02900391DD1959
:109F1000069B63440893089B9E42E6DA02980399E5
:109F2000059AEB1B9B181A685B6811F061FC020034
:109F30000B002868696810F0B3FC013603C5EAE736
:109F4000F0B589B006910192002800DC6CE0012890
:109F50000AD1374B14009C466444E4000C1909CC28
:109F60005B00590809B0F0BDE62700260024002553
:109F7000019B7F05C018431E0793019B079A9342DC
:109F800008DD200029000FF055F832003B0011F0E9
:109F90002FFCE7E7019B069ADB00083BD3181A6801
:109FA0005B6804920593049B30000293059B390083
:109FB0005B005B080393029A039BF7F707F80028FE
:109FC0001DD0029A039B3000390010F0CDFF06002F
:109FD0000F0002000B002000290011F009FC3200E4
:109FE0003B0011F005FC0022124B10F059FC04005C
:109FF0000D00029E039F019B01330193BDE73200D8
:10A00000049805993B0010F0AFFF02000B0011F01F
:10A01000EFFB02000B002000290010F041FC02962B
:10A02000039704000D00E4E7002000219AE7C046F2
:10A03000FFFFFF1F0000F03FF0B5066847687B0098
:10A040005D08E62385B000220090290030005B0502
:10A05000F6F7D0FF3400002200283DD1294B300014
:10A06000390011F0C5FB02000B0011F0C1FBE62521
:10A070000024029003916D05009B20009A68DB6824
:10A0800000920193009B29001E00019B32005B009F
:10A090005F083B00F6F79AFF002821D032003B0012
:10A0A0002000290010F060FF04000D0002000B00EA
:10A0B0000298039911F09CFB22002B0011F098FBF1
:10A0C0000022114B10F0ECFB0EF0B4FF32003B000D
:10A0D00011F08EFB05B0F0BD0B4B02920393CBE762
:10A0E0002200009801992B0010F03EFF02000B00A7
:10A0F00011F07EFB029A039B10F0D2FB26002F008A
:10A10000E2E7C046000020630000F03FF0B50E68B3
:10A110004F6891B00D930368446800930194009BCD
:10A1200004960293019B09905B005B0803937B00FC
:10A130005B08059308910C9202980399049A059B79
:10A14000F6F758FF009B019C0A930B94002801D15D
:10A150000A960B97049A059B029803990024002500
:10A1600010F09EFB22002B0006900791F6F728FFC7
:10A1700000280FD000220D9B0C991C605D603F4BA6
:10A180000A604B60099B1C605D60089B1C605D6001
:10A1900011B0F0BD069A079B0098019910F0E4FEFB
:10A1A000069A079B0E900F913000390010F0DCFEEC
:10A1B0000E9A0F9B06000F001000190011F018FBFB
:10A1C00032003B000E900F913000390011F010FB6F
:10A1D00002000B000E980F9910F062FB0EF02AFFA0
:10A1E00002000B000698079911F002FB22000600FE
:10A1F0000F000A980B992B00F6F7E8FE002803D011
:10A20000802109067B181F000098019932003B004D
:10A2100010F0AAFE0C9B32001860596008993B00B0
:10A220000868496810F0A0FE04000D000298039928
:10A230000D9B1C605D60049A059BF6F7DBFE002811
:10A2400012D10C9B00221C685D68002320002900AD
:10A25000F6F7B6FE00280ED122002B000020074999
:10A2600010F082FE04000D00089B1C605D60099BDD
:10A270001E605F608CE70024004DF5E70000F03FB2
:10A28000F0B58BB000903D481218D3000293029AAB
:10A29000009B09189C182268636806920793CB00FC
:10A2A0000593059A009B069807999D18109A119B93
:10A2B00011F09EFA2E686F68129A139B089009910C
:10A2C0003000390011F094FA02000B000898099947
:10A2D00011F056FD109A119B20606160300039002A
:10A2E00011F086FA129A139B06000F000698079940
:10A2F00011F07EFA02000B003000390010F0D0FAA5
:10A3000028606960029D009B059C08355D19083432
:10A310001C192A686B680092019300980199109AA1
:10A32000119B11F065FA26686768129A139B0290D8
:10A3300003913000390011F05BFA02000B00029823
:10A34000039911F01DFD28606960109A119B30007F
:10A35000390011F04DFA129A139B06000F00009875
:10A36000019911F045FA02000B003000390010F09D
:10A3700097FA206061600BB0F0BDC046FFFFFF1F81
:10A38000F0B50F4E9219D20089198618B446776835
:10A390003668C90043181C685D681E605F606346CC
:10A3A0001C605D6008320831411880180C684D68E7
:10A3B000026843680A604B6004604560F0BDC046B7
:10A3C000FFFFFF1F30B502684368046945690460F8
:10A3D00045608469C569026143618268C3688460BD
:10A3E000C5608261C36130BD37B500250400694690
:10A3F0001348009506F070F90098124B2100C01820
:10A400000422800006F096F900990131092900D94B
:10A41000290004220A48009106F08CF900230193D8
:10A42000094B01A9E418A400200006F055F9019990
:10A43000042201312000019106F07CF937BDC046AD
:10A44000644400000F11000001110000AB4BAC4A46
:10A45000F0B51A6001221A71AA4A8FB09A6007F00B
:10A460002FFAA94DA94C2900070020000EF088FC06
:10A470000DF054FFA64B010018000EF081FC3900CE
:10A48000A4480EF07DFCA4480EF07AFC06F016F904
:10A49000002800D0A0E006F01AF9061E00D09BE0CC
:10A4A0003800FFF7A1FF882006A9C001069606F034
:10A4B00013F907A9994806F00FF9079E07A99848CC
:10A4C00006F00AF9301C12F0A7F8964A964BF6F7F8
:10A4D00091FD964F002814D0FF21301C8905F6F716
:10A4E000AFFD00280DD092490798F6F7A9FD002886
:10A4F00007D03900894806F0EFF88E49884806F001
:10A50000EBF88D4938680FF03BFE10F01BF9894BD2
:10A510000700894918680FF033FE10F013F929007D
:10A52000059020000EF02CFC0DF0F8FE784E010096
:10A5300030000EF025FC390080480EF021FC764FEB
:10A5400038000EF01DFC290020000EF019FC0DF063
:10A55000E5FE010030000EF013FC059978480EF07E
:10A560000FFC38000EF00CFC764F069BBB422AD045
:10A570001222754909A812F039F900261C2102AAF5
:10A5800073005218D05A00210422013606F0D2F886
:10A59000092EF3D16D4E30000422002106F0CAF8D6
:10A5A0005E4B04369E42F6D1882004226549C001E4
:10A5B00006F0C0F8882006A9C00106F08DF8069BB9
:10A5C000BB4200D084E000F06BFD614F38703B78F7
:10A5D0000B3BDBB2F32B1DD801F062FB0E215D4873
:10A5E00007F097F8290020000EF0CAFB0DF096FE48
:10A5F000474B010018000EF0C3FB57480EF0C0FB9C
:10A6000045480EF0BDFBFA2080000DF079FE07F002
:10A61000FBF95DE000F0FEF900F04CFD061E5BD199
:10A6200000F0A6FF00F0E4FC4C4B30001E7000F080
:10A630002FFD08A94A48089606F04EF80899494B9C
:10A640000131042246481960089106F073F809A9FF
:10A650004548099606F040F809984449F6F798FBF2
:10A66000434B89B2198007F0CDF8012808D1099928
:10A67000042201313C48099106F05CF807F0C6F865
:10A680003C4B002203933C4B110002933B4B502068
:10A6900001936A230093693B0DF0E4FE002802D089
:10A6A0000022374B1A70F6F75BFD002811D1344BAE
:10A6B0001B78002B07D0334968300DF019FF6A2052
:10A6C00031490DF015FFF6F75FFD002801D0C046B7
:10A6D000012630000FB0F0BD38780A2806D10020DE
:10A6E00000F0D6FC01221D4B1A70F1E70130C0B218
:10A6F000387000F0CDFC01F0B1F968E7200B0020C4
:10A7000003060411740E660101CC010016C8010095
:10A7100023C8010078CB01003AC80100D8400000EE
:10A72000DC4000009A9999999999E93F38FEFF1FFA
:10A730000000C84234FEFF1F00007A448BCB0100AA
:10A7400096CB010074DB1665FEC70100B040000027
:10A75000340B002080F00F403BC80100350B002077
:10A7600004440000300B002024400000FFFF0000E4
:10A770002C0B00205D18010039180100151801008C
:10A7800053FEFF1FA3CB010063C80100F7B5324B96
:10A790001D78002D5FD1FDF787F814222F4B30492B
:10A7A0001A60304B304C1A600222304BFF321A8054
:10A7B0000A002F4BC1CBC1C243CB43C243CB43C2E0
:10A7C00003CB03C22B4A2C4BC1CBC1C2110045CBDA
:10A7D00045C145CB45C105CB05C1284E2849706907
:10A7E0000FF0CEFC274B2849D867230072794033FD
:10A7F0001A702200254BA4321B78254813702300C1
:10A8000022009C331D700F23AF3213702200B03230
:10A8100011602200B43213701E4A1370537093708B
:10A82000D370137153712300B5331D7023001A4A7E
:10A83000BC331A606B46DD7123009F331D706B467D
:10A84000A034D91D257005F05DFF6B46DB79692BBF
:10A8500001D1683B2370F7BD350B0020F0070020C5
:10A860003808002064070020F40700209608002024
:10A87000D8FDFF1F6408002004FEFF1FA00B00206E
:10A8800000BA5B4A380C00200F0F0F0F360B002068
:10A89000E8400000140C002070FEFFFF10B5234CB0
:10A8A0002268531C0A2A04D90121214806F03AFFE4
:10A8B000002323601F4B1B78002B14D01E491F4818
:10A8C0000EF05EFA0DF02AFD1D4B010018000EF08F
:10A8D00057FA1C480EF054FA1B480EF051FA642047
:10A8E0000DF00EFD10BD194B1B78002B13D1124932
:10A8F00012480EF045FA0DF011FD114B0100180041
:10A900000EF03EFA124B13481978C9B20EF038FA1D
:10A910000D480EF035FA104B1B78002BE2D10F4B8F
:10A920001B78002BDED103F0F7FEDBE71C0B0020C9
:10A9300080F00F40350B0020F1CB010016C801005C
:10A9400023C80100A5CB01003AC801003D0B00203F
:10A950003C0B0020B5CB0100BC130020BD13002030
:10A9600010B501F09DF90E210D4806F0D2FE0D49FB
:10A970000D480EF005FA0DF0D1FC0C4B010018004B
:10A980000EF0FEF90A480EF0FBF90A480EF0F8F94D
:10A99000FA2080000DF0B4FC07F036F810BDC04678
:10A9A00080F00F40DCCB010016C8010023C8010075
:10A9B0003BC801003AC80100F0B5002787B0077016
:10A9C0000590012002F096FA114EFC2533780124FF
:10A9D00002930823AD051A00022138000195009466
:10A9E00001F080FE022133780700029308220C2335
:10A9F00020000195009101F075FE3843C0B2002897
:10AA000001D1059B1C70431E9841C0B207B0F0BD38
:10AA10000D0D002010B5002002F06CFA040001209A
:10AA200002F068FA2043C0B210BD0000F7B5002064
:10AA300001F002FE0400012001F0FEFD0443E3B238
:10AA400000931F4C002B0CD121001E4AAF315378CC
:10AA5000DB07DB0F0B70537822005B07DB0FAE3296
:10AA60001370194F194E390030000EF089F90DF0AE
:10AA700055FC174D010028000EF082F92300AF337A
:10AA800019781448C9B20EF07BF9134BAE34180094
:10AA900001930EF075F9390030000EF071F90DF0E8
:10AAA0003DFC010028000EF06BF921780B48C9B27B
:10AAB0000EF066F901980EF063F90098FEBDC046ED
:10AAC000300C0020400D0020F2CC010016C801001F
:10AAD00023C801000ACC01003AC801001ACC0100C9
:10AAE00037B50025694601200095019501F092FBDC
:10AAF00001A90400280001F08DFB2043C0B2A84248
:10AB000004D1019A009B9B18014A93643EBDC04644
:10AB1000300C0020002307B5012001A9019301F0AA
:10AB200099FB002802D1019A014B9A620EBDC046E2
:10AB3000300C0020002307B5012001A9019301F08A
:10AB4000A9FB002802D1019A014BDA620EBDC04672
:10AB5000300C002073B500266B4600209D1D2A0096
:10AB6000F1B2288001F032FB041E06D12988144B73
:10AB700072000136D152082EEED1002600232A00A1
:10AB800001202B80F1B201F021FB0443E4B2002C40
:10AB900008D1320029880A4B083252000136D152BE
:10ABA0000C2EEBD1FFF7B6FF0443FFF7C3FFE4B26F
:10ABB0000443FFF795FFE4B22043C0B276BDC04620
:10ABC000300C002073B50026284C00236A46D38041
:10ABD0006B4622786078991D01F092FB051E11D119
:10ABE0006B460620185E224A00280DD1012128005C
:10ABF0001378994268411B18DBB213708B4201D95C
:10AC00001C4B1970280076BD157011F0B3FC0022A2
:10AC1000194B11F0B5F811F071FC2278174900B208
:10AC2000092A0AD16278012A18D1154AC8871080EA
:10AC3000013602340B2EC8D1E4E7042A06D162782B
:10AC4000012A0BD102310F4AC887F0E7002A05D14B
:10AC50006278203252008A185080E9E732001832B8
:10AC600052008852084972008852E1E73CFEFF1FFB
:10AC70003E0B0020700B00200057A540300C002038
:10AC80008C0B00207C0B00207E0B00200020F0B5F8
:10AC900085B003A9039001F01DFB204D041E11D1C6
:10ACA000039800280CD00FF06DFD1D4B19680FF0B4
:10ACB00067FA1C4B19680EF0F3FE0FF043FD03908A
:10ACC000039BEB6406F014FD174F184E3B68C01A47
:10ACD000306006F00DFD33683860002B02DAFA238D
:10ACE0005B003360EB6C3068019311F043FC0600AD
:10ACF00001980F0011F03EFC02000B0030003900FB
:10AD000010F076FD00220A4B10F02EF911F0CCFC69
:10AD1000084D2860200005B0F0BDC046300C002072
:10AD200038FEFF1F34FEFF1F740B0020780B00203D
:10AD300000408F40940B0020002110B5080001F066
:10AD400081FD00210400012001F07CFD2043C0B200
:10AD500010BD000070B50C4D00242B78DB09012BD1
:10AD600005D121002000072201F024FE0400A8786C
:10AD7000C009012805D10722002101F01BFE044370
:10AD8000E4B2200070BDC0464A0D002010B501217C
:10AD9000002001F067FB00282CD10121080001F000
:10ADA00061FB002826D1144A137851781B07090744
:10ADB000C90FDB0F5B18591E8B411049DBB28B7238
:10ADC000137854785B076407E40FDB0F1B195C1ED4
:10ADD000A341DBB2CB7213789B06DB0FCB731378E6
:10ADE000DB06DB0F8B731378DB094B7213785B0682
:10ADF000DB0F0B7410BDC046560D00201A0C00204E
:10AE000010B50121002001F089FB002852D1012159
:10AE1000080001F083FB00284CD1274B1A785978A1
:10AE200092068906C90FD20F5218511E8A41234932
:10AE3000D2B24A711A785C78D206E406E40FD20FD7
:10AE40001219541EA241D2B28A711A785C78520645
:10AE50006406E40FD20F1219541EA241D2B2CA7175
:10AE60001A785C789207A407E40FD20F1219541EC7
:10AE7000A241D2B28A701A785C78D207E407E40F54
:10AE8000D20F1219541EA241D2B2CA701A785C783D
:10AE900052076407E40FD20F1219541EA241D2B216
:10AEA0000A711A785B78D209DB09D3185A1E9341CC
:10AEB000DBB20B7310BDC046520D00201A0C0020EF
:10AEC00010B50121002001F08BFB002803D10121E6
:10AED000080001F085FB10BD10B50400FFF72CFF42
:10AEE000002805D1034B1A789B781340DB092370A7
:10AEF00010BDC0464A0D002010B5FFF747FF040003
:10AF0000FFF77EFF0443FFF7DBFFE4B22043C0B24C
:10AF100010BD000070B50500074C012804D1AC3409
:10AF200001F094F8257070BD002001F08FF8002327
:10AF3000AC342370F7E7C046300C002070B51449DC
:10AF4000050014480DF01CFF0DF0E8F9124B01004C
:10AF500018000DF015FF290010480DF011FF1048E2
:10AF60000DF00EFF032400262900012001F06CFEE5
:10AF70000C4B06435B78F6B2DB07DB0FAB4204D029
:10AF8000C046013CE4B2002CEED1300070BDC0469A
:10AF9000DDCC010016C8010023C8010092CB0100DE
:10AFA0003AC80100400D002010B50C4904000C48BF
:10AFB0000DF0E6FE0DF0B2F90A4B010018000DF09D
:10AFC000DFFE210008480DF0DBFE08480DF0D8FE3A
:10AFD0002100012001F09EFD10BDC046C8CC01003B
:10AFE00016C8010023C8010092CB01003AC8010035
:10AFF00010B588B01422002103A811F0E1FB08224B
:10B00000002101A811F0DCFB002403AB19191A4B35
:10B01000E018043405F060FB142CF6D101A91748A0
:10B0200005F05AFB164802A905F056FB049B002BBD
:10B0300001D1144B0493144C1422200003A911F0E5
:10B04000D5FB039B002B0FD10333237003336370B5
:10B05000023BA3700D33E370083B2371143363711B
:10B060000F3BA371013BE371082201A9074811F0CE
:10B07000BDFB08B010BDC04684400000A4400000E5
:10B08000A8400000740E6601D80B0020D00B0020F1
:10B090000100812010B50422C00105F04BFB10BD5A
:10B0A00007B58120002301A9C001019305F014FB1D
:10B0B00001980EBD10B50821002001F07DF8002890
:10B0C00006D00821012001F077F8431E9841C0B254
:10B0D00010BD000037B500240F4D0023280001A942
:10B0E000019305F0F9FA019B013B033306D90B4BA1
:10B0F0000422996A2800019105F01CFB201C01998B
:10B100000EF0CEFC064B0435041C9D42E5D10549EA
:10B110000EF050FE3EBDC046B0400000A00B002027
:10B12000D84000000000204170B598B004005422BF
:10B13000002103A811F044FB002503AB5919842317
:10B14000DB01E818043505F0C7FA542DF5D10023CA
:10B150007B4801A9019305F0BFFA019BDBB2002BEC
:10B1600000D13C33774D03A92A002E3213702800FA
:10B170000122754E06F090FB0122744804A906F0E6
:10B180008BFB0122724805A906F086FB012271485B
:10B1900006A906F081FB01226F4807A906F07CFB97
:10B1A00001226E4808A906F077FB01226C4809A924
:10B1B00006F072FB02226B480AA906F06DFB6A4B8F
:10B1C000AA8D6A481A800BA9022206F065FB0222AA
:10B1D00067480CA906F060FB022266480DA906F03C
:10B1E0005BFB022230000EA906F056FB02226248E9
:10B1F0000FA906F051FB0422604810A906F04CFB91
:10B200005F4968690EF0BCFF0EF0F6FA5C490EF07B
:10B21000D1FD0222686111A95A4806F03DFB0222C5
:10B22000594812A906F038FB0222584813A906F023
:10B2300033FB0222564814A906F02EFB042255487F
:10B2400015A906F029FB0422534816A906F024FB91
:10B25000022C00D06EE0514968690EF091FF0400A5
:10B260004F4EA86230000422210005F063FA4D4BD6
:10B2700004369E42F6D1FFF72DFF00234A4E02A965
:10B2800030604A48029305F027FA029A484C494B2D
:10B2900002A949481A6005F01FFA2300029A943364
:10B2A0001A6030683D4926000EF084FD9836306003
:10B2B000306869690EF07EFD306030683F490EF0FD
:10B2C0005FFF0EF0EBFAFA2180B278342080AB8970
:10B2D0003B4C643B9BB223802388686A19339BB242
:10B2E00063802B89890064339BB2A380A3887D3B54
:10B2F0009BB2E380F5F750FD053080B220813149E3
:10B30000286AF5F749FDBE233C220A3080B2A081AD
:10B3100063817D3BE38122820A326282A382533AB7
:10B320004C3BE28223836283A3830C33A377C04622
:10B3300018B070BD0422244817A906F0ADFA9AE7A8
:10B3400054420000A00B0020AE0B0020A10B0020F7
:10B35000A20B0020A30B0020A40B0020A50B0020B3
:10B36000A60B0020CC0B00208E0B0020A80B002089
:10B37000AA0B0020AC0B0020B00B0020B40B002067
:10B380000000C842B80B0020BA0B0020BC0B002004
:10B39000BE0B0020C00B0020C40B002000BA5B4A8B
:10B3A000B0400000D8400000900B00209C400000FE
:10B3B000300C0020C00C00209840000000D0224536
:10B3C0001C0D002018FCFFFFC80B002073B5842063
:10B3D0000023022478213C250122C0010193009121
:10B3E00005F0C0F9210001224148009405F0BAF9A6
:10B3F000290001223F48009505F0B4F929000122F7
:10B400003D48009505F0AEF90A2101223B4800268F
:10B41000009105F0A7F90C2101223948009105F0AF
:10B42000A1F9310001223748009605F09BF9E1218E
:10B43000220009013448009105F094F933492200B3
:10B440003348009105F08EF93249220032480091CC
:10B4500005F088F9314922003148009105F082F960
:10B46000304922003048009105F07CF92F49220034
:10B470002F48009105F076F92E4B684601A9042269
:10B48000019306F014FA009904222B4805F06AF99A
:10B490002A4922002A48009105F064F9294922002E
:10B4A0002948009105F05EF93100220027480096F6
:10B4B00005F058F91E2122002548009105F052F9A7
:10B4C000244904222448009105F04CF92349042220
:10B4D0002348009105F046F92249042222480091B0
:10B4E00005F040F929000422204805F023F973BD36
:10B4F00004420000084200000C420000104200001C
:10B5000014420000184200001C42000068100000B5
:10B510002042000004100000244200004E0C0000F5
:10B5200028420000B20C00002C4200008C0A0000EF
:10B53000304200000000F04134420000520300009D
:10B5400038420000260200003C4200004042000059
:10B5500044420000B03CFFFF484200002477000056
:10B560004C42000060FECD4C5042000054420000AE
:10B57000F7B56B460027991D23489F71DF7105F0D1
:10B58000C1F86B462148D91D05F0BCF86B46DD7942
:10B590001F4E012D24D19C79022C0CD12000FFF7E5
:10B5A000C3FD3570C04618482A00290005F0C2F8CE
:10B5B000184B1D70F7BD012C09D122002100124843
:10B5C00005F0B8F82000FFF7AFFD3470F2E7124B3A
:10B5D0001C70FFF7FBFE0220FFF7A6FD3770E9E7BE
:10B5E000FFF7F4FE01220948110005F0A3F801223B
:10B5F0000548110005F09EF80123064A0220337029
:10B600001370FFF791FDD5E77C4000002C4000004F
:10B610003D0B00200D0D00203C0B0020002313B536
:10B62000064C01A92000019305F056F80199042267
:10B6300001312000019105F07DF813BD204000008C
:10B64000002313B5064C01A92000019305F044F82E
:10B650000199042201312000019105F06BF813BD1E
:10B66000A040000070B515000E1C042201000E4819
:10B6700005F060F80422040031000C4805F05AF887
:10B680000422044329000A4805F054F8E4B2204398
:10B69000C0B2002804D104220721064805F04AF868
:10B6A000431E9841C0B270BD5042000008400000E7
:10B6B0000C4000000440000037B500250400694636
:10B6C0001848009505F008F8009B022B0ED8164A82
:10B6D00021009B189800042205F02CF80422009900
:10B6E000013100910F4805F025F837BD01A90F4839
:10B6F000019504F0F1FF042201990D4805F01AF8B4
:10B7000001A90C4804F0E8FF04220199074805F05C
:10B7100011F804222100074805F00CF804220099D2
:10B72000E0E7C0463C4000000C1000003440000040
:10B73000304000003840000037B5041E12D00A4BDC
:10B7400001A9C5180023AD002800019304F0C4FF2F
:10B750000199042201312800019104F0EBFF20003F
:10B76000FFF7AAFF37BDC0460F10000007B56A46B5
:10B77000FF230748D11DD37104F0C4FF6B46DB796A
:10B78000002B04D101229621014804F0D3FF07BD0C
:10B79000E440000007B56A46FF230748D11DD37176
:10B7A00004F0B0FF6B46DB79002B04D10122692144
:10B7B000014804F0BFFF07BDE840000037B5012590
:10B7C000040069460E486D42009504F085FF009B19
:10B7D000002B0DD104222100094804F0ABFF0848DA
:10B7E00001A9019504F078FF019B9C4201D1C0465C
:10B7F00037BD04222100024804F09CFFF8E7C04650
:10B80000EC4000000120014B18707047F00B002045
:10B810000120014B18707047EF0B00200120014BF5
:10B8200018707047EE0B00200120014B1870704714
:10B83000ED0B002010B503F09BF8431E9841C0B2F9
:10B8400010BD0000010010B5034804F045FF431E81
:10B850009841C0B210BDC04610400000010010B5B4
:10B86000034804F039FF431E9841C0B210BDC046E2
:10B8700014400000002337B5050001A906480193D4
:10B8800004F02AFF0400631E9C412800042201A941
:10B8900010F0ACFFE0B23EBD18400000002337B509
:10B8A000050001A90648019304F016FF0400631E79
:10B8B0009C412800042201A910F098FFE0B23EBD8F
:10B8C0001C40000010B501000422024804F032FFC1
:10B8D00010BDC0461040000010B50100042202480F
:10B8E00004F028FF10BDC0461440000010B5011C34
:10B8F0000422024804F01EFF10BDC0461C40000098
:10B9000010B5011C0422024804F014FF10BDC0460B
:10B91000184000000021F0B58FB02822041C04A8B4
:10B92000039110F04DFF3B49201C0EF029FC3A4FCB
:10B930003A4D3B780190002B19D0394E04AC2100D0
:10B94000300004F0C9FE374B02CC286899510EF044
:10B95000A7F8354B043628609E42F0D133490EF0EB
:10B9600029FA2C490EF026FA002328603B70304C4F
:10B970003048210004F0B0FE2F4F206803A9C01901
:10B98000800004F0A9FE20680199C01904228000FB
:10B99000039E039104F0CEFE2368591C092B00D1AD
:10B9A000002104222348216004F0C4FE1F49301CFA
:10B9B0000EF000FA17490EF0FDF9011C28680EF090
:10B9C0001DFD1A49041C01980EF0F4F911490EF0FE
:10B9D000F1F9011C201C0EF063F8184B286059691E
:10B9E000041C0EF0E7F9164F051C291C3868154E8B
:10B9F000F5F720FB002809D13D60386812490EF0A8
:10BA0000BFFB0DF04BFF783680B23080201C0FB0AA
:10BA1000F0BDC04600BA5B4A30FEFF1F680B002035
:10BA2000B040000090CAFF1FD84000000000204135
:10BA30006C0B0020AC4000002C100000A00B00207C
:10BA4000C80C0020300C002000D0224510B500F0BA
:10BA5000E9FA10BD10B500F0EFFA10BDF7B50025FA
:10BA600001A94A48019504F037FE019904220131E9
:10BA70004648019104F05EFE012001F0C1F9040086
:10BA8000280001F0BDF923000343DBB20500002BC1
:10BA900012D13F493F480DF073F90CF03FFC3E4B8B
:10BAA000010018000DF06CF93C480DF069F93C48B4
:10BAB0000DF066F90020FEBD002C26D1002D22D00D
:10BAC0000024002001F0CCF9002800D1C04600205D
:10BAD00001F010FA2E49031E2F4E2E48304D45D14D
:10BAE0000DF04EF90CF01AFC010030000DF048F991
:10BAF0002C480DF045F928000DF042F9C046631EB0
:10BB00009C41E0B2D7E7C046D4E7012001F0A8F994
:10BB1000002800D1C046012001F0ECF91C49031EA9
:10BB20001D4F1C481E4E0ED10DF02AF90CF0F6FBED
:10BB3000010038000DF024F91B480DF021F9300008
:10BB40000DF01EF9BAE70DF01BF90CF0E7FB010050
:10BB500038000DF015F915480DF012F930000DF010
:10BB60000FF9002DADD1C0460120A4E70DF008F972
:10BB70000CF0D4FB010030000DF002F90C480DF080
:10BB8000FFF828000DF0FCF8EDE7C0462840000063
:10BB9000B8CC010016C8010023C801002ACC01005E
:10BBA0003AC8010064CC010040CC010051CC010036
:10BBB00075CC0100002337B5094C051C01A92000F4
:10BBC000019304F089FD0199281C0DF069FF054BD4
:10BBD000011C186001900422200004F0ABFD37BD69
:10BBE0009C400000C00C0020002337B5094C051C08
:10BBF00001A92000019304F06FFD0199281C0DF0AC
:10BC00004FFF054B011C186001900422200004F036
:10BC100091FD37BD98400000C40C002010B50020F5
:10BC200000F0E8FE0400012000F0E4FE2043C0B272
:10BC300010BD000010B508220649002000F0F2FEF9
:10BC40000C2204000449012000F0ECFE2043C0B2A5
:10BC500010BDC046800C0020880C002010B50021CB
:10BC600068200CF071FC01216A200CF06DFC10BD05
:10BC700010B500200CF00AFC10BD10B501200CF02E
:10BC800005FCFFF7EBFF10BD10B50C0001006820AC
:10BC90000CF02EFC21006A200CF000FC10BD00000E
:10BCA00010B501220D21024805F02AFD10BDC04645
:10BCB00000F00F4070B5012001F06AF8C046FA2488
:10BCC0002D4968200CF014FC2C4D6A2029000CF042
:10BCD0000FFC640001200CF0D9FB200005F004FDEE
:10BCE00000200CF0D3FB002001F052F8200005F0FA
:10BCF000FBFC01200CF0CAFBC046200005F0F4FC60
:10BD000000200CF0C3FB200005F0EEFC1C4968206D
:10BD10000CF0EEFB29006A200CF0EAFB194D012023
:10BD20000CF0B4FB200005F0DFFC0022022128000B
:10BD300005F0E6FCC046200005F0D6FCFFF7B0FF9A
:10BD400028000E2105F0E5FC0F4910480DF018F809
:10BD50000CF0E4FA0E4B010018000DF011F80D483C
:10BD60000DF00EF80C480DF00BF8FA2080000CF0E6
:10BD7000C7FA05F049FE70BD61C8010088CC01001A
:10BD800067C8010080F00F40ABCC010016C801006D
:10BD900023C801003BC801003AC8010010B50022C9
:10BDA0000D21024805F0ACFC10BDC04600F00F406C
:10BDB00010B50020FFF7F8F80020FFF7BFF80CF0EF
:10BDC000ADFA04000CF0AAFA001BFA2827D8FEF7F7
:10BDD0002DFE134A134B1278002AF3D1AE331B7891
:10BDE000002BEFD1FFF75CFF0E210F4805F091FC0F
:10BDF0000E490F480CF0C4FF0CF090FA0D4B0100F7
:10BE000018000CF0BDFF0C480CF0BAFF0B480CF00A
:10BE1000B7FFFA2080000CF073FA05F0F5FD10BDB5
:10BE2000DF0C0020300C002080F00F409CCC010083
:10BE300016C8010023C801003BC801003AC8010030
:10BE4000002303700C4B10B50C4ADC6894420BD9EC
:10BE50009022DC68D201944206D28622DC68D201AC
:10BE6000944202D80123037010BDDB689342FBD9D2
:10BE70000029F7D0F8E7C046F40B0020034000008B
:10BE800070B5002401210500FFF7DAFFA5420BD1B0
:10BE900070BDD868195D2018C9B204F081FC434216
:10BEA000584101342870E4B2024B1A899442F0D30D
:10BEB000EEE7C046F40B002037B500240021050052
:10BEC000FFF7BEFFA5420DD137BD6A460023E868E3
:10BED000D11D2018D37104F015FC6B46DB792B556E
:10BEE0000134E4B2024D2B899C42EED3ECE7C0460C
:10BEF000F40B002070B50500002484230749DB0102
:10BF00006118E018013404F0FDFB502CF5D1022239
:10BF1000034B5A7101232B7070BDC046E90E0020FF
:10BF2000140C002010B501000122024804F002FCAC
:10BF300010BDC0467C40000010B5FFF7B1FE0E21D9
:10BF40000D4805F0E6FB0D490D480CF019FF0CF00B
:10BF5000E5F90C4B010018000CF012FF0A480CF038
:10BF60000FFF0A480CF00CFFFA2080000CF0C8F913
:10BF700005F04AFD10BDC04680F00F408ACC01009C
:10BF800016C8010023C801003BC801003AC80100DF
:10BF9000002807D1054A1378002B03D00121044B58
:10BFA00019701070034B18707047C046E80E0020DF
:10BFB000EC0B0020140C0020014B58707047C04659
:10BFC000140C0020014B98707047C046140C0020E0
:10BFD000014BD8707047C046140C0020014B1871FB
:10BFE0007047C046140C0020014B58717047C04682
:10BFF000140C00200F22084B5A709A70DA701A71D4
:10C000005A71064A1378002B04D00121044B197091
:10C01000002313707047C046140C0020E80E002067
:10C02000EC0B002010B50121024805F077FBC0B2EF
:10C0300010BDC04640F00F4010B50021024805F089
:10C040006DFBC0B210BDC04640F00F40102110B5CE
:10C05000002803D0034805F057FB10BD014805F048
:10C0600058FBFAE780F00F4010B502F0C1FBC0B2F8
:10C0700010BD000070B5050008001900012D0AD19F
:10C0800005F05EFB4442E4B2002C02D00122054BD5
:10C090001A70200070BD0624002DFAD105F07AFB3D
:10C0A000F0E7C046E013002070B50500080011005D
:10C0B000012D21D1049A05F04FFB4442E4B2002C3B
:10C0C00038D01F4A052153681E48013353602A00A7
:10C0D00005F016FB0A2005F007FB00220521194890
:10C0E00005F00EFB164BAD00EB58042B02D90122D4
:10C0F000154B1A70200070BD0624002DFAD1049A49
:10C1000005F054FB4442E4B2002C13D00C4A022147
:10C1100013680E48013313600D4A1368013313602E
:10C12000012205F0EDFA0A2005F0DEFA2A000221CC
:10C130000648D5E70024024BAD00EC50DAE7C046D4
:10C14000140D0020C0F00F40E013002040F00F401D
:10C15000100D0020030010B508000121002B04D0B1
:10C1600005F0E4FA4042C0B210BD05F009FBF9E762
:10C1700010B505F0C5FA10BD10B505F0B5FA10BD43
:10C1800010B505F0B5FA10BD7047000038234343E1
:10C19000084870B518180C0002F0FEF805000220DF
:10C1A0008443902C03D1FFF7E7FF280070BD0120E6
:10C1B000F9E7C046600D0020062310B5012802D81B
:10C1C000FFF7C8FF0300180010BD0000030010B502
:10C1D0000620012B18D80D48C45C0620002C13D073
:10C1E0000F2911D838245C4309480419A488013C5C
:10C1F0008C4200D10F21382463430A31C9B249006F
:10C20000C9B2C01802F040F810BDC0465E0D002053
:10C21000600D002013B503000C000620012B13D87D
:10C220000A4AD25C002A0FD06946002232305843B5
:10C23000074BCA80C0188A1D342102F025F86B46CE
:10C24000DA880A235343236016BDC0465E0D0020E2
:10C25000600D002013B503000C000620012B13D83D
:10C260000A4AD25C002A0FD0694600223230584375
:10C27000074BCA80C0188A1D362102F005F86B46AC
:10C28000DA880A235343236016BDC0465E0D0020A2
:10C29000600D002013B503000C000620012B13D8FD
:10C2A0000A4AD25C002A0FD000226946CA8038218F
:10C2B0004B43074818186B469A1D01F0E5FF6B4683
:10C2C000DA880A235343236016BDC0465E0D002062
:10C2D000600D002003000A00062010B5012B0AD8CB
:10C2E0000549C95C002906D032305843034B16215A
:10C2F000C01801F0F3FF10BD5E0D0020600D00209E
:10C3000013B503000C000620012B16D80B49C95C9D
:10C31000002912D0092A10D800216846C18038208F
:10C320005843074B5100C0186B4668319A1DC9B27B
:10C3300001F0BFFF6B46DB88238016BD5E0D002039
:10C34000600D0020F7B506000620012E00D982E01E
:10C35000414B9B5D002B7ED000236A4632307043F8
:10C36000D3803E4B911DC01801F028FF002872D1E8
:10C3700001216B468E40DA88394B1500F45C0D4084
:10C380008C432C43550802270D408D40F454F45C37
:10C39000BC432C4395080D40BD40F454F45CFF1998
:10C3A000BC432C43F454F45CD5080D400437ED0035
:10C3B000BC432C43F454F45C15090D4008372D019F
:10C3C000BC432C43F454F45C55090D4010376D0107
:10C3D000BC432C43F454F45C95090D402037AD0167
:10C3E000BC432C437F25F454F45CD7090F40FF0174
:10C3F0002C403C430327F4549B195E78140ABE4337
:10C400003C403700042627435F705C78970A0F4052
:10C41000BF00B4433C435C705C78D70A0F40B61948
:10C42000FF00B4433C435C705C78170B0F40083648
:10C430003F01B4433C435C705C78570B0F401036AF
:10C440007F01B4433C435C70D20B0A405978D2015F
:10C4500029400A435A70FEBD5E0D0020600D002089
:10C460005A0D0020F7B504000E00012815D8274BFF
:10C470001B5C002B11D06B463820DD1D0023604370
:10C48000234A2B7080180A00290001F04FFE002873
:10C4900004D1002E03D0012E05D00620FEBD1D4B79
:10C4A0002A781A55FAE704271B4B2D781A5DA9083C
:10C4B00031408900BA430A431A551A5DE908FF1949
:10C4C0003140C900BA430A431A551A5D2909083791
:10C4D00031400901BA430A431A551A5D69091037F8
:10C4E00031404901BA430A431A551A5DA90931403E
:10C4F00020378901BA430A437F211A551A5DED0995
:10C500003540ED010A402A43CBE7C0465E0D0020CE
:10C51000600D0020580D0020560D0020F7B50400D6
:10C520000E00012816D82A4B1B5C002B12D06B463C
:10C530003820DD1D002360432B70264B0A00C018F5
:10C540002900012301F0F2FD002804D1002E03D0C0
:10C55000012E05D00620FEBD1F4B2A781A55FAE79A
:10C560002D78022729001D4B31401A5DB2430A4342
:10C570001A551A5D690831404900BA430A43A908AF
:10C580003140B9401A551A5DFF19BA430A432909C7
:10C590003140B9401A551A5D0C37BA430A431A554F
:10C5A0001A5D6909103731404901BA430A431A55E7
:10C5B0001A5DA909314020378901BA430A437F2116
:10C5C0001A551A5DED093540ED010A402A43C5E7C9
:10C5D0005E0D0020600D0020540D0020520D002043
:10C5E00073B504000D00012816D80F4B1B5C002BFF
:10C5F00012D06B463820DE1D0023604333700B4B96
:10C600000A00C0183100022301F090FD002804D177
:10C61000002D03D0012D05D0062076BD044B3278C5
:10C620001A55FAE7034BFAE75E0D0020600D002073
:10C630004E0D0020500D0020F7B504000620012CFF
:10C6400049D8254B1B5D002B45D000236A4632306C
:10C650006043D371214BD11DC01801F001FE0028A9
:10C6600039D16B46DA79012116001D4B0E401D5D54
:10C6700002278D43354356080E408E401D551D5DE3
:10C68000BD43354396080E40BE401D551D5DFF1944
:10C69000BD4335431D551D5DD6080E400437F600D9
:10C6A000BD4335431D551D5D16090E400837360143
:10C6B000BD4335431D551D5D56090E4010377601AB
:10C6C000BD4335431D551D5D92090A403F3192011E
:10C6D0008D432A431A55FEBD5E0D0020600D0020DB
:10C6E000400D0020F0B585B001910AA90978050038
:10C6F0008C460624012840D80199033C02293CD8E5
:10C70000102B3AD80334082A37D138214143454EFB
:10C7100088557618B38033000021083371701900F2
:10C72000B270019A404BF2700A0091CB91C213CBC8
:10C7300013C213CB13C21B6813603300624630333D
:10C740001A700B980FF068FF02000B003748384949
:10C750000EF00AFC0FF0A8FF70632800FFF7F2FD4F
:10C760000123344F902128007B55FFF70FFD041E55
:10C77000029005D000210B1C7B55200005B0F0BDB8
:10C78000300000F009FE041E039001D0029BF3E785
:10C79000300000F041FF041E029001D0039BEBE744
:10C7A000300001F003F8041E0390EFD1300001F0D7
:10C7B0004BF8041EF2D1300001F0C8F8041E01D07D
:10C7C0000023D9E730001C4901F054F9041E0290FF
:10C7D000F6D1300001F040FC0400061ED6D19221B3
:10C7E0002800FFF7D3FC041E01D07E55C5E7019B4E
:10C7F000022BC2D1002DC0D19621FFF7C7FC220029
:10C8000008210E48FFF7B4FC0D4822000721FFF76E
:10C81000AFFC2000FFF710FF0028AED03C700400F2
:10C82000ABE7C046600D002010CD010063EE5A4218
:10C830003EE81D405E0D00201C0D002080F00F40E2
:10C8400000F00F40F7B506000D0001281AD8544B30
:10C850001B5C002B16D0C046382000236A4670436C
:10C86000D380504B0A00C0186B46991D01F0B9FCEB
:10C87000041E08D1012D00D184E0022D00D18AE0F0
:10C88000002D02D006242000FEBD6B46D98801256C
:10C8900073000E00444A2E40985C0227A8433043A0
:10C8A0004E082E40AE409854985CB84330438E08F2
:10C8B0002E40BE409854985CFF19B84330439854BA
:10C8C000985CCE0804372E40F600B84330439854A5
:10C8D000985C0E0908372E403601B843304398540F
:10C8E000985C4E0910372E407601B8433043985477
:10C8F000985C8E0920372E40B601B84330439854D7
:10C90000985CCE09BC462E403F37F6013840304394
:10C910009854480A02262840A840D2185378B343B6
:10C920000343880A2840B04053705378B619B34384
:10C93000034353705378C80A04362840C000B343F9
:10C94000034353705378080B083628400001B34363
:10C950000343537053781036B3436646480B284060
:10C960004001034353705378880B28408001B34340
:10C97000034353705378C90B2940C9013B400B4313
:10C98000537080E702220948760030186B46991DE3
:10C990000FF02CFF77E7064876002A003018F5E7FD
:10C9A0005E0D0020600D00204A0D0020460D002085
:10C9B000420D00201FB504000620012C13D80B4B9C
:10C9C0001B5D002B0FD0012393406A4612183230B2
:10C9D0009BB26043138003AA1380054B0A00C01862
:10C9E000039901F023FC04B010BDC0465E0D002089
:10C9F000600D0020030010B50620012B0CD8074A5B
:10CA0000D25C002A08D032305843054B0022C018AF
:10CA10008321022301F0CEFC10BDC0465E0D002034
:10CA2000600D0020E0B5060017000620012E07D893
:10CA300000250E4B2A009B5D781EAB4208D10620D4
:10CA4000E0BD4B5D85420FD1DB031A4392B2013545
:10CA5000EBB2BB42F5D338207043054B8321C0189D
:10CA6000022301F0A7FCEBE7AB40EEE75E0D0020F0
:10CA7000600D002070B5160004AA05001478062089
:10CA8000012D13D80A4A525D002A0FD062003230BD
:10CA90008900684332430A43DB001A43054B52B214
:10CAA000C0189721012392B201F084FC70BDC046EA
:10CAB0005E0D0020600D002073B5040006250128DE
:10CAC0001FD8114B1B5C002B1BD038200023604368
:10CAD00001AE33800D4B3200C0185721022301F004
:10CAE00060FC051E0CD16B467278991D084833789E
:10CAF000120264009B18201802220B800FF076FEB1
:10CB0000C046280076BDC0465E0D0020600D0020A6
:10CB10003C0D0020F0B504000D00062085B0012C6E
:10CB200025D8454B1B5D002B21D02000FFF784FD4D
:10CB30002000FFF7C1FF414B6200D35CDA06D60F3D
:10CB4000002A62DA002D14D193212000FFF71EFB8A
:10CB5000002809D12000FFF76FFD002804D1320022
:10CB600007213748FFF704FB2000FFF765FD05B0FC
:10CB7000F0BD0020FFF760FD0022072106003048CD
:10CB8000FFF7F6FA9627FFF7FBFA7F0003902D4D8B
:10CB90002B789B0609D50020FFF74EFD0600FFF716
:10CBA000EFFA039BC01AB842F1D32000FFF744FD0F
:10CBB000021E22D101272B5D2B5D2B5D2B5D2B5D92
:10CBC0002B5D2B5D295D2B5D285DC9079B07000749
:10CBD000C00FC90FDB0F7B40794047400097200012
:10CBE000FFF748FF002808D12000FFF725FD0028A7
:10CBF00003D12B5D5B0700D5C046C046002EB3D1E4
:10CC00002000FFF719FDC046AEE70E4E325D520719
:10CC1000D20FAA42A8D05B07DB0FAB42A4D02021E1
:10CC20002000FFF7B3FA335D1B079DD422212000BB
:10CC3000FFF7ACFA98E7C0465E0D00203C0D0020DF
:10CC400000F00F40400D0020F0B504000D0006205C
:10CC500087B0012C23D84A4B1B5D002B1FD020002E
:10CC6000FFF7EAFC2000FFF727FF464B6200D35C8A
:10CC70000700DA06D60F002A00DB67E0002D10D18E
:10CC800094212000FFF782FA3200070008213E4875
:10CC9000FFF76EFA2000FFF7CFFC3843C0B207B0B1
:10CCA000F0BD0020FFF7C8FC002208213648FFF73E
:10CCB0005FFA96204000FFF75FFA2000FFF7BCFC08
:10CCC000071E41D1314D2B5D2A5D2B5D2F5D0393F6
:10CCD000285D295D2B5D920704930423D20F520037
:10CCE00032430592039A1A401300059A134308220F
:10CCF000174092183B43104018432023049A1940D0
:10CD0000DB181340014319437F2337002A5D194084
:10CD10002B5D285D520700079B07C00F8F437040B3
:10CD2000D20FDB0F39000090734020007240FFF7F4
:10CD3000A1FE071E08D12000FFF77EFC071E03D1CD
:10CD40002B5DDB07A6D43700C046A3E70F4E325D4C
:10CD5000D207D20FAA429DD09B07DB0FAB4299D0DE
:10CD60001F212000FFF712FA335D07001B0700D5D3
:10CD700090E722212000FFF709FA07008AE7C04662
:10CD80005E0D00203C0D002080F00F40400D002083
:10CD9000F7B504000620012C27D810212000FFF74A
:10CDA000F5F9002803D110212000FFF7EFF9FFF774
:10CDB000E7F93827104E01903B006343F318200039
:10CDC0009978FFF7F9F90500012807D0FFF7D8F99E
:10CDD000019BC01AFA239B009842EDD3FFF7D0F9CC
:10CDE000C046002D02D1C0460120FEBDC046002035
:10CDF000024B1855F9E7C046600D00205E0D00207B
:10CE000010B504000620012C17D80122002C15D0E3
:10CE100005211048FFF7ACF96420FFF7ADF90022B7
:10CE200005210C48FFF7A4F9382262430A4B200081
:10CE30009B189978FFF7C0F9C04610BD022107483A
:10CE4000FFF796F96420FFF797F9220002210348C3
:10CE5000E8E7C046C0F00F40600D002040F00F40F2
:10CE6000F7B504000620012C2ED80122002C2CD06E
:10CE700005211C48FFF77CF99620C000FFF77CF9DC
:10CE8000002205211748FFF773F9FFF779F93827D2
:10CE9000154E01903B006343F31820009978FFF78B
:10CEA0008BF90500012807D0FFF76AF9019BC01A2A
:10CEB000FA239B009842EDD3FFF762F90120002D81
:10CEC00002D00020094B1855FEBD02210848FFF78B
:10CED0004FF99620C000FFF74FF9220002210448C5
:10CEE000D1E7C046C0F00F40600D00205E0D00206D
:10CEF00040F00F4070B505000624012828D8012213
:10CF000003211448FFF734F9C820FFF735F9002250
:10CF100003211048FFF72CF996204000FFF72CF969
:10CF200008212800FFF748F90400C0460A490B48C9
:10CF30000BF026FF0BF0F2F9094B010018000BF083
:10CF40001FFF210007480BF01BFF07480BF018FFDD
:10CF5000200070BD80F00F4004CD010016C8010014
:10CF600023C8010092CB01003AC8010000234118F8
:10CF7000884202D1D843C0B27047027801309B1872
:10CF8000DBB2F5E703004118002010B5034A1C7816
:10CF900001336040105C8B42F9D110BD38CD0100E7
:10CFA000F0B597B003900B20150002931CAB1E78D0
:10CFB00004AB3D220191C01800210FF001FC019B40
:10CFC00005A85B000370029B06AC1B78032145702B
:10CFD000257083706370FFF7D5FF27000125A070CF
:10CFE0000237AE420CD87200013223000199039837
:10CFF000D2B2FFF73FF8002800D0C04617B0F0BD0E
:10D00000029B04AA5B5D01217B70D01CD370FFF7EB
:10D01000B9FF0135B870E3E7F0B500240F00160042
:10D02000A9B005932EAB1B783C222100049009A8DF
:10D03000039308940FF0C4FB3C22210019A8189414
:10D040000FF0BEFB04ABDC72039B18AD5B0032003B
:10D0500039000498DBB20095FFF726F8A0421ED1F4
:10D0600007A8467001267F000770374387702F7826
:10D070000421C770FFF786FF6C78241A631E9C4159
:10D0800004AB1F743700039BB3420AD81A00631E17
:10D090009C41059808A90FF0A9FB6042C0B229B0D5
:10D0A000F0BD1021AB7804AA5218935504AAD3728C
:10D0B0000B239B1818003900FFF764FFEB7801364B
:10D0C0001B1A5A1E93410235E418DCE7F0B58BB009
:10D0D000059104934378040017000220002B31D1FE
:10D0E0002278A67808AC2F4903922000062207ADCB
:10D0F0002B800FF07BFB059B01202380A770FFF79F
:10D100003BF8049B022B1FD0042B32D003200700D6
:10D11000012B17D1009023003E2231000398FFF726
:10D120003FFF00280ED139002000FFF71FFF052325
:10D1300028706B70033B009360222B003100039832
:10D14000FFF72EFF0BB0F0BD3F0AE7700427230066
:10D150003E22310003980097FFF722FF0028F1D10B
:10D1600039002000FFF702FF062328706B70049B34
:10D17000E1E73B0AE3703B0C237106233F0E677126
:10D180003E220093310023000398FFF709FF002897
:10D19000D8D106212000FFF7E9FE082328706B7024
:10D1A000063BC8E710C801001FB50A00417803001C
:10D1B0000220002908D11C78997803AB1A800090CE
:10D1C0003E222000FFF7ECFE04B010BDF0B58FB09A
:10D1D0001D0014AB059204CB04001B780E000993CC
:10D1E000431E9841C0B20892FEF7CEFF6378022733
:10D1F000002B41D10BAA1380A2780D9303922278C1
:10D200000CAC2380F3B20693330A079308AB049265
:10D210009E82012D40D0BD425BD00137002D2BD125
:10D2200002263E220399049800960DABFFF7B8FE44
:10D23000071E21D1FEF7A4FF05900BAC23003E2270
:10D24000039904980096FFF7E7FE05000700FEF734
:10D2500097FF059BC01A05280ED82378FF2B02D113
:10D260006278FF2AE9D0069A9A4208D16378079A31
:10D27000934204D1002D05D038000FB0F0BDC04658
:10D280000127F9E7099B402200930399089B049822
:10D29000FFF7C2FE0700EFE70325059A08AB9A7572
:10D2A00003993E22049800950DABFFF779FE071E07
:10D2B000E2D129000DA8FFF759FE05236370033B57
:10D2C000207000932300602203990498FFF768FE02
:10D2D000E0E70426059A08ABDA8203993E22049817
:10D2E00000960DABFFF75CFE071EC5D131000DA8FF
:10D2F000FFF73CFE0623207063700095E2E7F0B56F
:10D3000087B01E000CAB029204CB04001F78431EB2
:10D310009841C0B20D000392FEF736FF63780220F9
:10D32000002B09D1029A05ABA17820781A80002E33
:10D3300004D0012E08D0032007B0F0BD2A00039BC3
:10D340000097FFF769FEF7E72A000097FFF728FE2E
:10D35000F2E770B51D1C14000E000DF013FA291C25
:10D360000CF028FD0CF048FA051C20000DF00AFA1C
:10D37000291CF3F765FE00280CD130000DF002FAED
:10D38000291CF3F771FE3400002803D1281C0DF08E
:10D39000D9F90400200070BD0300F0B530331E78C9
:10D3A00004008FB0012E00D1AFE0022E00D1C8E002
:10D3B0000220002E00D0FEE0C822804BD20109934B
:10D3C000B02394461B050A937D4B7E4D0B9309AB0E
:10D3D0000C951A8204AA83CB83C26346938064238C
:10D3E000156007250F270193593B03930095F233EE
:10D3F000029323000A2231331A7004AB1A882000EA
:10D4000002237149FFF762FE00287CD1012320002E
:10D41000029A6E49FFF75AFE002874D101232000BA
:10D420001A006B49FFF752FE00286CD1020001235D
:10D4300020006849FFF74AFE002864D1012332002A
:10D4400020006549FFF742FE00285CD1012332002D
:10D4500020006249FFF73AFE002854D10123200042
:10D46000039A5F49FFF732FE00284CD101232000C8
:10D47000009A5C49FFF72AFE002844D102000123EC
:10D4800020005949FFF722FE00283CD10123072242
:10D4900020005649FFF71AFE002834D193210123BA
:10D4A000072220000902FFF711FE00282BD10123DB
:10D4B0002A0020004E49FFF709FE002823D101234E
:10D4C0003A0020004B49FFF701FE00281BD1012341
:10D4D000062220004849FFF7F9FD002813D1A38850
:10D4E000102B66D849D102000E3B20004349FFF7BC
:10D4F000EDFD002807D101232000019A4049FFF7E4
:10D50000E5FD002857D00FB0F0BDA0203D4B3E4DAB
:10D5100009933E4B0C950A93294BC0000B9304AA28
:10D5200009AB1882C2CBC2C205231560908001935B
:10D5300002332A27009300233D0003930226ED3394
:10D5400056E7A022D20094462E4B1E4D0993304B35
:10D550000C950A932F4B0B9309AB1A8204AA83CB29
:10D5600083C2634693800523156007250193063324
:10D5700000930F270395E2333AE70320072BC2D924
:10D580001022DBB2591ED31A00221000C9B2DBB23E
:10D5900006000125002E09D15219013092B28342B2
:10D5A000F6DC8A40D243022392B29EE76D00013E30
:10D5B000F0E70320A7E7C046A5E7C0461004FD0139
:10D5C00007000707070F060034920000369200009C
:10D5D0003792000038920000FA920000FB9200009F
:10D5E000FC920000FD920000FE920000FF920000FD
:10D5F00001930000029300000393000004930000D5
:10D60000079300001004ED012A2A06000002020020
:10D61000000202070B00070730B5050089B00D2294
:10D62000002168460FF0CCF82B0030331B78012B1B
:10D6300006D0022B00D198E00220002B00D091E010
:10D640004B4B04934B4B04A905934B4B0D22069374
:10D65000752368460B730FF0C9F86B4628001A88CB
:10D6600046490223FFF732FD002800D07BE06B46DD
:10D670009B7804AC20802370280001232288404935
:10D68000FFF724FD00286ED16B46DB7820802370E5
:10D690002800012322883B49FFF718FD002862D1AA
:10D6A0006B461B792080237028000123228836498D
:10D6B000FFF70CFD002856D16B465B792080237064
:10D6C0002800012322883149FFF700FD00284AD1B4
:10D6D0006B469B79208023702800012322882C49E7
:10D6E000FFF7F4FC00283ED16B46DB7920802370E5
:10D6F0002800012322882749FFF7E8FC002832D1BF
:10D700006B461B7A2080237028000123228822493F
:10D71000FFF7DCFC002826D16B465B7A2080237063
:10D720002800012322881D49FFF7D0FC00281AD1C8
:10D730006B469B7A20802370280001232288184999
:10D74000FFF7C4FC00280ED10B21022269442000FF
:10D750000FF04CF80223280022881249FFF7B6FC8C
:10D76000002800D1C04609B030BD0F4B69E7C04664
:10D770000000FCF700989100E4A200305F920000E6
:10D7800061920000629200006392000065920000C6
:10D790006692000067920000699200006A920000A1
:10D7A0006B920000739200000000BCF7030070B59C
:10D7B00030331B780400012B07D0022B02D002204B
:10D7C000002B33D101252D2201E000250D2201235C
:10D7D00020001749FFF77AFC002828D101232A00EE
:10D7E00020001449FFF772FC002820D10200022318
:10D7F00020001149FFF76AFC002818D1020002231B
:10D8000020000E49FFF762FC002810D101230A22F4
:10D8100020000B49FFF75AFC002808D101231922E8
:10D8200020000849FFF752FC002800D1C04670BD17
:10D8300008930000099300000A9300000C93000075
:10D840000E9300000F930000030013B530331B78D4
:10D850000400012B0CD0022B58D00220002B53D1F6
:10D860002E4B01AA13806A4613800123012105E093
:10D870002B4A01A90A8069460A800021294AC90267
:10D880000A431B031A436B4627491B8820000B40A1
:10D890001A436B4625491A80022392B2FFF716FC01
:10D8A000002832D1FA220223200021495200FFF73A
:10D8B0000DFC002829D1FA22022320001D49520024
:10D8C000FFF704FC002820D10123052220001A497B
:10D8D000FFF7FCFB002818D1012310222000174974
:10D8E000FFF7F4FB002810D104232000626B1449D9
:10D8F000FFF7ECFB002808D10200012320001149AA
:10D90000FFF7E4FB002800D1C04616BD0E4B01AA6C
:10D9100013806A4613800023A8E7C04690DAFFFF11
:10D9200090D2FFFF90C2FFFF6F2500006D920000B4
:10D930001093000012930000149300004393000022
:10D94000A89100004492000090CAFFFF0300F7B5C1
:10D9500030331D780400012D09D0022D07D002209C
:10D96000002D68D13C234626344F019303E0502616
:10D97000CE25334F01960123082220003149FFF7BD
:10D98000A5FB002858D101232A0020002E49FFF7CB
:10D990009DFB002850D101232000019A2B49FFF75D
:10D9A00095FB002848D10123320020002849FFF7C9
:10D9B0008DFB002840D10123142220002549FFF7C8
:10D9C00085FB002838D10123082220002249FFF7D7
:10D9D0007DFB002830D102233A0020001F49FFF7C9
:10D9E00075FB002828D10123282220001C49FFF7BD
:10D9F0006DFB002820D10123142220001949FFF7D4
:10DA000065FB002818D102233A0020001649FFF7D1
:10DA10005DFB002810D10123282220001349FFF7C5
:10DA200055FB002808D10123142220001049FFF7DC
:10DA30004DFB002800D1C046FEBDC0463C0F000093
:10DA400088130000359300003693000037930000E0
:10DA500038930000399300003A9300003B93000094
:10DA60003D9300003E9300003F930000419300006F
:10DA700042930000F0B58B7F04000D008FB0002BA7
:10DA80001AD1E64B3C220B80E54B4B80E54B8B805B
:10DA9000E54BCB8023230B819B338A814B817D3BDC
:10DAA000CB810A820A324A828B82533A4C3BCA8229
:10DAB0000B834A838B83C046288850221421DB4B7A
:10DAC00080B2FFF746FC6F88AB8802009BB20193DF
:10DAD000EB8806009BB202932B8920009BB2039334
:10DAE0006B89D3499BB20493AB89BFB29BB20593B8
:10DAF000EB891BB206932B8A1BB207936B8A1BB26E
:10DB00000893AB8A1BB20993EB8A1BB20A932B8B47
:10DB10001BB20B936B8B1BB20C93AB8BFF251BB211
:10DB20000D932A400123FFF7D1FA002800D06FE2BD
:10DB300004232000BF4AC049FFF7C8FA002800D0DC
:10DB400066E250221421B94B3800FFF702FC821B19
:10DB500001232000B949D2B2FFF7B8FA002800D05B
:10DB600056E26E221421B14B0198FFF7F2FB02003E
:10DB7000060001232000B2492A40FFF7A7FA002837
:10DB800000D045E2F22204232000AE499200FFF7C4
:10DB90009DFA002800D03BE26E221421A34B02988C
:10DBA000FFF7D7FB321A01232000A749D2B2FFF7B3
:10DBB0008DFA002800D02BE203980EF0DBFC002247
:10DBC000A24B0DF015FE0EF099FC80233E2202219F
:10DBD000DB05FFF7BEFB0200012320009C492A4021
:10DBE000FFF774FA002800D012E204235922200023
:10DBF0009849FFF76BFA002800D009E202000223DF
:10DC000020009549FFF762FA002800D000E204984E
:10DC10000EF0B0FC00228D4B0DF0EAFD0EF06EFC14
:10DC2000802364220221DB05FFF793FB020001231E
:10DC300020008A492A40FFF749FA002800D0E7E18E
:10DC40000423012220008649FFF740FA002800D073
:10DC5000DEE105980EF08EFC00227C4B0DF0C8FD35
:10DC60000EF04CFC802364220221DB05FFF771FBE0
:10DC70000123C2B27B492000FFF728FA002800D018
:10DC8000C6E10423772220007749FFF71FFA002816
:10DC900000D0BDE101230B2220007449FFF716FAE2
:10DCA000002800D0B4E1012320001A007049FFF7DA
:10DCB0000DFA002800D0ABE1012320001A006D49C5
:10DCC000FFF704FA002800D0A2E1022320006A4AEC
:10DCD0006A49FFF7FBF9002800D099E101230222ED
:10DCE00020006749FFF7F2F9002800D090E1020018
:10DCF000022320006349FFF7E9F9002800D087E1FB
:10DD0000FE23282178229B0549420698FFF721FB34
:10DD1000012342B25C492000FFF7D8F9002800D067
:10DD200076E10123042220005849FFF7CFF90028AB
:10DD300000D06DE1FE23282178229B0549420798F7
:10DD4000FFF707FB012342B251492000FFF7BEF95C
:10DD5000002800D05CE1FE23282178229B0549425F
:10DD60000898FFF7F6FA012342B24A492000FFF76C
:10DD7000ADF9002800D04BE10123042220004649E0
:10DD8000FFF7A4F9002800D042E1FE2328217822E1
:10DD90009B0549420998FFF7DCFA012342B23F494B
:10DDA0002000FFF793F9002800D031E101236E2213
:10DDB00020003B49FFF78AF9002800D028E1012321
:10DDC000032220003749FFF781F9002800D01FE126
:10DDD0000123692220003449FFF778F9002800D098
:10DDE00016E10123552220003049FFF76FF9002882
:10DDF00000D00DE10123022220002D49FFF766F932
:10DE0000002800D004E10123502220002949FFF717
:10DE10005DF9002800D0FBE04EE0C046EA0B0000B0
:10DE2000350C0000CC1000004F10000066664A421E
:10DE30007592000055070000769200007B9200006A
:10DE400078920000799200007C9200000000E03F90
:10DE5000809200008192000088920000829200006F
:10DE60008392000084920000859200008692000058
:10DE70008792000094920000D8DCFFFF8A92000095
:10DE80008C9200008D9200009A9200009B920000FC
:10DE90009C9200009D9200009E9200009F920000C4
:10DEA000A0920000A1920000A2920000A3920000A4
:10DEB000A4920000A5920000FE23282178229B0551
:10DEC00049420A98FFF745FA012342B2514920001E
:10DED000FFF7FCF8002800D09AE00123042220007C
:10DEE0004D49FFF7F3F8002800D091E0FE232821E8
:10DEF00078229B0549420B98FFF72BFA012342B287
:10DF000046492000FFF7E2F8002800D080E0FE2319
:10DF1000282178229B0549420C98FFF71AFA012321
:10DF200042B23F492000FFF7D1F8002870D1012309
:10DF3000042220003B49FFF7C9F8002868D1FE23DE
:10DF4000282178229B0549420D98FFF702FA012308
:10DF500042B235492000FFF7B9F8002858D1142201
:10DF60000123200031495242FFF7B0F800284FD179
:10DF70000123022220002E49FFF7A8F8002847D1EC
:10DF80000F22012320002B495242FFF79FF800285F
:10DF90003ED10123022220002749FFF797F80028ED
:10DFA00036D102233C2220002449FFF78FF80028B5
:10DFB0002ED10200012320002149FFF787F8002815
:10DFC00026D10223012220001E49FFF77FF80028F6
:10DFD0001ED10223012220001B49FFF777F80028F9
:10DFE00016D10223FA2220001849FFF76FF8002803
:10DFF0000ED1E122022320001549D200FFF766F876
:10E00000002805D1022320001A001249FFF75EF80C
:10E010000FB0F0BDA6920000A7920000A8920000E9
:10E02000A9920000AA920000AB920000AC920000FE
:10E03000AD920000AE920000AF920000B2920000DC
:10E04000B4920000B5920000B6920000BA920000AF
:10E05000BC920000BE920000030010B52C331B7868
:10E0600004000220002B4ED11E23E25E264903004D
:10E070002000FFF72BF8002845D11C23E25E20008A
:10E0800002232249FFF722F800283CD11A23E25E3E
:10E09000200002231E49FFF719F8002833D1182366
:10E0A000E25E200002231B49FFF710F800282AD166
:10E0B0001623E25E200002231749FFF707F8002825
:10E0C00021D12623E25E200002231449FEF7FEFF41
:10E0D000002818D12423E25E200002231049FEF715
:10E0E000F5FF00280FD12223E25E200002230D4914
:10E0F000FEF7ECFF002806D12023E25E2000022379
:10E100000949FEF7E3FF10BDEA910000EC91000021
:10E11000EE910000F0910000F2910000F4910000F7
:10E12000F6910000F8910000FA9100007FB50F25EC
:10E130000E00110000226D442A70012B1DD0022B0D
:10E140002CD00624934203D1914204D001290FD050
:10E15000200004B070BD01230A0001930B000221CE
:10E160000095FFF7CCF8041EF2D12B783370EFE75F
:10E1700001911A0003210095F3E7002903D001293A
:10E1800007D00624E4E70A00019300950B00042160
:10E19000E7E70191130005210095E2E7002906D089
:10E1A0000129EED10191130007210095D9E7012340
:10E1B0000A00019300950B000621D2E700220223FA
:10E1C00030B585B003AD2A800C00019312211300F5
:10E1D0000095FFF794F8002801D12B88238005B023
:10E1E00030BD7FB51300002203AD0E002A80012B45
:10E1F00011D0022B15D00224934209D11A006221BA
:10E2000001940095FFF77BF8041E01D12B88338021
:10E21000200004B070BD0223642101930095130017
:10E22000F0E70193662113000095EBE730B587B066
:10E2300003AD2980002105AB1980023104008A4317
:10E240000620002A0AD12A881030684402800191F1
:10E250000093200001236031FFF751F807B030BD73
:10E2600030B50F250022012385B06D442A700C00C3
:10E2700001937F2113000095FFF741F8002801D199
:10E280002B78237005B030BD30B502231500002275
:10E2900085B003AC2280019300941300FFF72FF8A0
:10E2A000002804D16278237812029B182B8005B0D5
:10E2B00030BD30B502231500002285B003AC2280AA
:10E2C000019300941300FFF71AF8002804D1627834
:10E2D000237812029B182B8005B030BDF0B50024C6
:10E2E0002C4D87B002AB03910700160021002022BD
:10E2F00028009C810EF064FA039B162B18D03A2B51
:10E3000032D00620142B2DD1202322000193752119
:10E31000230038000095FEF759FF002822D16A7DBE
:10E320002B7D12021A433B0031331B7812B211E0ED
:10E330002023220001937521230038000095FEF769
:10E3400045FF00280ED1EB7DAA7D1B023137134318
:10E350003A781BB2534333603133622B01D8002328
:10E360003360002007B0F0BD0223019305AB00939A
:10E370002200230038000399FEF7C1FF0028F1D1E5
:10E3800002AB5B7B02AA127B1B02D21831373B78AF
:10E3900012B2DFE7D00D002010B589B2FEF704FFFE
:10E3A00010BD07B501930023009289B21A00FEF751
:10E3B0000DFF0EBD30B50F24002585B06C442570CF
:10E3C000012B04D0022B02D0062005B030BD89B24B
:10E3D00001930094FEF7FAFEF7E770477047704725
:10E3E0000022014B1A70704752FEFF1F7047000059
:10E3F000034B1878012802D1024802611971704755
:10E40000140C0020F40B0020034B59619A61012287
:10E41000024B5A717047C046F40B0020140C0020C8
:10E4200010B509F07BFF01F03BFC0122014B1A7093
:10E4300010BDC046EC0B002001280AD100220B4B76
:10E440001A700B4B1978914202D00A4908701A7061
:10E4500070470028FCD10122044B1A70054B197833
:10E460000029F5D01870024BF1E7C046140C0020CB
:10E47000E80E0020EC0B0020064810B50478012CB3
:10E4800006D1541E012C02D8034CE3602181427056
:10E4900010BDC046140C0020F40B0020094830B514
:10E4A0000378012B07D1084B084C197000238B42CD
:10E4B00002DB0123C37030BDD55CE55401335BB290
:10E4C000F5E7C046140C0020F40D0020F40B0020EA
:10E4D00010B5692801D054280AD10323094C80299A
:10E4E00007D1237009F01AFF2178C9B201F0A2FA0E
:10E4F00010BD0A001A40194201D02170F2E72270C3
:10E50000F0E7C04652FEFF1FEF2330B51B020C00A0
:10E5100087B0984200D1B3E016D8D8231B029842A6
:10E520000CD00BD8D6231B02984207D00133FF33FF
:10E53000984203D0D3231B0298426BD000232100C2
:10E540001A0001F03FF96EE0544B984200D16CE0A4
:10E5500034D8534B984200D19AE0524B9842EDD1B7
:10E560000022514B1A70130001F02CF90C224F4974
:10E5700003A80EF03BF94E4C03A90C2220000EF02C
:10E5800035F94C4B05224C4901A800930EF02EF9A9
:10E5900020001422494915300EF028F92000694660
:10E5A000042222300EF022F92000052201A9273092
:10E5B0000EF01CF9200001F01DFB27E0404B9842B3
:10E5C000BCD100231A0001F0FDF808223D4903A840
:10E5D0000EF00CF93C4C0822200003A90EF006F9BD
:10E5E000202301222375DF336375E3750023A275B1
:10E5F0003F326277303A22762000043A2377A377BD
:10E60000E3776276A376E37601F018FB2F4B187060
:10E610001B7808E000231A0001F0D4F801222C4BEB
:10E62000DC612C4B5A7107B030BD00231A0001F099
:10E63000C9F80B2328480E24037002338370053B6E
:10E64000C37015330371143B4371223B8371203334
:10E65000C371013B4372023B83720D3303220121DC
:10E660007425C3720023447084735834027201739A
:10E670004573C47301744274837401F0CFFAC5E723
:10E6800000231A0001F09EF8074B01221A70CAE716
:10E6900000231A0001F096F8104BF6E7DAFE0000AE
:10E6A00097F10000C5FD0000EC0B002038CE010002
:10E6B0009B0E00204261740044CE0100D80B002064
:10E6C0000FFF00004ACE0100C80E0020FE0D002002
:10E6D000F40B0020140C0020790E0020FD0D00200A
:10E6E00010B503F073F8002808D10F22054B1A70FB
:10E6F0005A709A70DA701A715A7110BD0120404236
:10E70000FBE7C046140C002010B503F067F8431E69
:10E710009841404210BD0000F7B509F0FFFD00F040
:10E72000A5FE051E32D12E4CA378D8B2052B0DD8EC
:10E73000F2F79EFA032E0C0C3134FF220021232025
:10E7400001F0FAF90F23A370002840D1E378022BDF
:10E7500027D06379022B19D101210023FF262148FC
:10E76000214D4942EF5C0A0A31407940890009583D
:10E7700001335140502BF5D11C4BC943D8690022BD
:10E78000C0B201F007FA0F23050063712800FEBD37
:10E79000FF220121D3E7FF220421D0E7FF22052138
:10E7A000CDE700260322310001A800960EF008F8FC
:10E7B00031000E4B1A8991420BDB1A8969462320DE
:10E7C000D2B201F0D3F90F23E3700028C1D00500C5
:10E7D000DCE768465A5C4254013149B2EAE7C04678
:10E7E000140C002054CE0100E90E0020F40B002090
:10E7F00010B50A4B0A4C1B78002B09D1094B1B782A
:10E80000002B05D1084B1878C0B201F0DDF920705B
:10E8100000232370207840B210BDC046BC130020F6
:10E82000FE0D0020BD130020EC0B002010B50248A7
:10E8300000F00CFE10BDC04654FEFF1F70B50C006A
:10E84000CF210906051CF2F719FC00280BD09E21E8
:10E85000281CC905F2F7FEFB002804D0281C0BF089
:10E8600071FF206070BDCF21281C0906F2F7E8FB7C
:10E87000431E9841014BC018F3E7C046FFFFFF7FDE
:10E88000F0B5294B85B000931B78284FDAB201927E
:10E89000012B44D10025264C0222264920000DF0F0
:10E8A000A5FF0222244925480DF0A0FF0422244997
:10E8B00024480DF09BFF0222234924480DF096FFC7
:10E8C0000222234923480DF091FF022222492348C6
:10E8D0000DF08CFF224B03A918680395FFF7AEFFDC
:10E8E000042203A91F480DF081FF1F4E70690AF032
:10E8F000D5FF022202AB991858801C480DF076FF14
:10E90000142323757379200063750723A37501F021
:10E9100099F83870019802F0E7FE009B1D70387876
:10E9200040B205B0F0BDC046FD0D0020FE0D002038
:10E93000FF0D0020A80B0020AC0B0020010E0020D2
:10E94000C40B0020030E0020CC0B0020070E00207B
:10E95000B80B0020090E0020BC0B00200B0E00207D
:10E96000B80C00200D0E0020A00B0020110E00207E
:10E970000022F0B58B4B91B01B780192DEB2012BD7
:10E9800031D109F0CBFC884D0422069006A928005D
:10E990000DF02CFF854C07A9E36C1A0A2B716A71E4
:10E9A0001A0C1B0EEB710023079323008C3318689D
:10E9B000AA71FFF743FF042207A97D480DF016FF57
:10E9C000280001F071F87B4D2870300002F08CFEB9
:10E9D0002B785AB2002B00D10AE12B7800225BB2CF
:10E9E0000193704B1A70744B03931B78DEB2012BAA
:10E9F00049D109F093FCFF22704C05AB1A800690B8
:10EA0000FB3A200006A90DF0F1FE684D0422AB6C24
:10EA100006A96B4806930DF0E9FE26720024202219
:10EA2000210008A807940DF0CBFE07AA6300E85A5E
:10EA30000134D052142CF9D10024604D614EA0193C
:10EA4000022205A902340DF0D1FE242CF7D107AF24
:10EA50002200390030000DF0C9FE280000F0FEFF52
:10EA6000544C2070012002F03FFE23785AB2002B54
:10EA700000D1A3E2C0462378019A5BB21A43002377
:10EA80000192039A1370504B4A4C02931B78DFB2E9
:10EA9000012B29D109F042FC4C4B07901B88434DB8
:10EAA00007AEB3802B006C331B883000F3802B0043
:10EAB0006E331B8833812B0070331B88738101F008
:10EAC0000BF82070237838005BB2237002F00CFE44
:10EAD0002378002B00D115E32378019A5BB21A4307
:10EAE00000230192029A1370394F3B78012B52D1C7
:10EAF00009F014FC374E0422059005A930000DF0F2
:10EB000075FE354B294DDB6F042206A93348069369
:10EB10000DF06CFE2B00883508332868D96F0BF098
:10EB200049F92F490BF02CFB0AF01EFE2C49051C5D
:10EB3000F2F79AFA002800D0294D2B0A3572737229
:10EB400030002B0C2D0EB372F57200F0B9FF20705F
:10EB5000012002F0C9FD09F0E1FB224A079012787A
:10EB600007AB1A71204A180012785A711F4A12789E
:10EB70009A71FF22DA7100F0D3FF20702378012010
:10EB80005BB2237002F0B0FD2378019A5BB21A43A6
:10EB9000002301923B702378019B1800237011B071
:10EBA000F0BDC046F00B00206D0E0020300C0020A0
:10EBB000750E0020FE0D0020EF0B0020400E0020FF
:10EBC000440E0020490E0020EE0B00209A0C00207D
:10EBD000ED0B0020160E0020340C00201A0E002031
:10EBE0000000C842E00C0020E10C00203A0F002099
:10EBF0002300EB4EAF333270032219787378114043
:10EC000093430B43737023000C20AE331978737851
:10EC10001140890083430B4373702300C3331B7877
:10EC2000AC34012B00D0C2E02378013B5A4253415F
:10EC30000233032230210125134072781B018A43DD
:10EC400013437370D74B10311A7873782A40D64C1F
:10EC500092018B431343737023007F20BD331A78D6
:10EC60007378D2010340134373702300B7331A78CB
:10EC70002300CC331B7802271A43B3782A40AB43D6
:10EC80001343B3702300B4331A78B3782A40AA40F0
:10EC9000BB431343B3702300C1331A78B3782A40BF
:10ECA000BA40FF19BB431343B3702300C0331A7833
:10ECB000B37877382A40D20083431343B3702300DC
:10ECC000BB331A78B3782A40BA40083083431343E1
:10ECD000B3702300BE331A78B37810302A40520143
:10ECE00083431343B3702300BF331A78B3782A40A9
:10ECF00092018B431343B3702300C4331A78B37863
:10ED00005F30D20103401343B3702300B9331A7844
:10ED1000F3782A40AB431343F3702300B6331A78D9
:10ED2000F3782A40AA403E398B431343F370220004
:10ED30002300CD32B8331B781278773813432B4039
:10ED40008B40F2780D31BA431343F3702300B5338F
:10ED50001A78F3782A40D20083431343F3702300D8
:10ED6000B2331A782300C7331B7890481A434023E4
:10ED7000BA405B421343F2780A40134331003A0031
:10ED8000F3700DF033FD8A4B310018003A00019307
:10ED90000DF02CFD019800F07BFE864E30702800AF
:10EDA00002F0A2FC3378002B07D0337816E62378E4
:10EDB000013B59424B4113403BE723007E4950330E
:10EDC0000D701A784B782A40AB4313434B702300E5
:10EDD000022051331A784B782A4052008343134360
:10EDE0004B70230052331A784B782A408240BB4341
:10EDF00013434B70230053331A784B7806302A4064
:10EE0000D200834313434B70230054331A784B785A
:10EE100008302A401201834313434B7023005533BB
:10EE20001A784B7810302A405201834313434B70B9
:10EE3000230056331A784B7820302A4092018343BE
:10EE400013434B70230057331A784B783F30D2016D
:10EE5000034013434B70230058331A788B782A40B1
:10EE6000AB4313438B70230059331A788B787D386A
:10EE70002A405200834313438B7023005A331A787D
:10EE80008B782A408240BB4313438B7023005B3353
:10EE90001A788B7806302A40D200834313438B7054
:10EEA00023005C331A788B7808302A4012018343A0
:10EEB00013438B7023005D331A788B7810302A400F
:10EEC0005201834313438B7023005E331A788B788F
:10EED00020302A409201834313438B7023005F3319
:10EEE0001A788B783F30D201034013438B70230094
:10EEF00060331A78CB782A40AB431343CB7023009E
:10EF000061331A78CB787D382A405200834313430B
:10EF1000CB70230062331A78CB782A408240BB43FF
:10EF20001343CB70230063331A78CB7806302A4022
:10EF3000D20083431343CB70230064331A78CB7819
:10EF400008302A40120183431343CB7023006533FA
:10EF50001A78CB7810302A40520183431343CB7088
:10EF6000230066331A78CB7820302A4092018343FD
:10EF70001343CB70673422783F30DBB2D2010340B9
:10EF8000134301983A00CB700DF030FC019800F06B
:10EF90007FFD3070280002F0A7FB337805E7C046FC
:10EFA000F90D0020EC0C0020300C00203C0E00205D
:10EFB000F00D0020FE0D0020F50D002002232B7225
:10EFC0001500A819022205A902350DF00FFC242D09
:10EFD000F7D1042210A98D480DF008FC8C4800F0F0
:10EFE0003DFD2070012002F07FFB23785DB2002BF5
:10EFF00000D040E509F092F9864E069004223000D8
:10F0000006A90DF0F3FB01233371834B02932B0010
:10F01000029A18335B009A5A6B000135FA52072D99
:10F02000F5D1FF230E22FB813B8239007B480DF096
:10F03000DDFB300000F01EFD2070012002F054FBCB
:10F0400023785DB2002B00D015E509F067F90422A2
:10F05000069006A930000DF0C9FB122004AB0C226B
:10F060002900C01835710DF0ABFB029B07AD0233D0
:10F07000DB8F3B80029BDB8F7B80694B1A880A23E6
:10F080005343BB800323FF215A0001335153092B03
:10F09000F9D1644EF539F08F5F4C00B2F1F762FFA1
:10F0A000F08F09B200B2052922DC0A21F1F774FEC3
:10F0B00040B2E8710634E08F0A2100B2F1F752FF46
:10F0C000E08F09B200B2052917DC0A21F1F764FECE
:10F0D00040B212222900287250480DF087FB4D489B
:10F0E00000F0C8FC504C2070012002F0FDFAC2E490
:10F0F0000A21F1F751FE0130DAE70A21F1F74CFE5F
:10F100000130E5E709F00AF90790E86F0BF086FB9C
:10F1100046490AF04FFE2B007833071C188880B24E
:10F120000BF030FB011C381C0AF044FE40490BF088
:10F1300027F83F49071CF1F797FF64230390002845
:10F140000AD10021381CF1F77BFF039B002803D173
:10F15000381C0AF0A3FBC3B233712B0011227833A1
:10F160001B8804A9521813701B0A5370696F314A27
:10F170001300914205DC00236A6F9A4201DB6B6F3A
:10F180009BB2132204A9521813701B0A537030004B
:10F1900000F0AEFC2070237801205BB2237002F0F7
:10F1A000A3FA2378002B00D096E409F0B7F82B00DF
:10F1B000E1219C33079009011868F1F763FD2B00EA
:10F1C000E121A033090170601868F1F75BFD2B00A5
:10F1D0009433B06018680AF061FB2B00A433F06030
:10F1E00018680AF05BFBA835306128680AF056FB06
:10F1F0007061300000F088FC2070237801205BB241
:10F20000237002F071FA237866E4C046490E0020AC
:10F21000400E0020220E0020300C0020270E00207F
:10F22000380B0020340C0020FE0D0020000061454A
:10F230000000C8429411000010B5064B802806D18A
:10F2400001221A7009F06AF8034B186010BD002201
:10F250001A70FBE73B0F0020F813002010B50028C0
:10F2600006D0054B1960054B186000F08DF810BDF5
:10F2700001204042FBE7C046081000200C1000208F
:10F28000F0B59BB003AD280000F09CF8011E1ED124
:10F290002B7AAF79AE7A039C0193224B224DE21870
:10F2A000224B1A4215D12B0094331C602B00A23341
:10F2B0001F702B00A3331E70019BA0352B800F23E2
:10F2C00002A95B180822190019480DF08FFA1BB02B
:10F2D000F0BD38220BA80DF073FA5F2302AA9B1829
:10F2E0001F705E239B181E701E239B18019A02A993
:10F2F000DA870F235B181900082209A808940DF07B
:10F3000075FAE82301211B029C4204D0094BE41842
:10F3100063425C4161002B00CC3328001B6808AAC3
:10F320009847D4E70015FFFF400F0020FFFEFFFFC6
:10F33000D80F00200016FFFFF0B5124E03003478FE
:10F340007578B778052085B0651BBD4218D000934D
:10F35000FF23002501936B4601A8039502951A73BC
:10F360000DF044FA7068230110226946C018013478
:10F370000DF03CFA3900E0B2F1F70AFD28003170D7
:10F3800005B0F0BD98FEFF1F10B5FFF7A9F910BD3D
:10F39000010010B503684A7A180AC0B28C7A487125
:10F3A0009206EF2809D888791443184300022043B5
:10F3B0000A7A0B31FFF7A8F910BD18022043104359
:10F3C000F6E700007FB51B4E040075783378062001
:10F3D000AB422CD071682B01C91810220135684648
:10F3E0000DF004FAB178E8B2F1F7D2FC6B462000D8
:10F3F00071701D7B01A92A000B300DF0F7F9009BFD
:10F400002572DA00520F6272A3721A0C1B0A99035A
:10F41000D2B2890B62712160A371EF2A02D8064A29
:10F4200013402360002023689B039B0F237104B0CB
:10F4300070BDC04698FEFF1F00FF030010B5FFF728
:10F440000DFF10BD10B5FFF71BFF10BD10B5040078
:10F4500000F0AEFB034B002103485C60FFF7EEFFBA
:10F4600010BDC0461012002051F6000010B5FFF785
:10F47000E9FF002010BD0000F0B5060004000023E5
:10F48000463635786E4985B0CA5CAA4228D1D92261
:10F4900023681202934200D176E038D8D722694F10
:10F4A0001202934200D182E01FD8D322120293426B
:10F4B00000D1A1E0D6221202934200D18AE0206856
:10F4C000604B010AC9B25B68EF2900D9ADE05D6904
:10F4D000002D08D0A21D3378D28F211DA84702E04D
:10F4E0000133072BD0D105B0F0BDD82212029342D0
:10F4F000E5D1702362792079D10019400143786801
:10F500001207A379520F446A2800A047EBE74E4A3E
:10F51000934278D020D8DF221202934227D0EF22E4
:10F5200012029342CBD1230047331B782179232B3E
:10F53000D9D1A379A0680F241A092340102912D029
:10F540001829D0D1290000F097FB0028CBD13D4BE2
:10F550005B681B699847C6E73C4A9342AFD1207964
:10F56000FFF76AFEABE7290000F07CFBBBE72379DD
:10F5700001201F2B03D03F3B5A1E93415800314BB3
:10F580005B68DB699847AEE71F2023896179E288D1
:10F590001B0413430A0781432079648901432948E6
:10F5A000520F40680094046A2800A0479BE700219E
:10F5B0002679032203A802910DF002F93200611DA1
:10F5C00002A80DF013F931007B6802AA9B6A28009B
:10F5D000984788E72179FF228B1E012B09D8A27951
:10F5E000637912021A43E3791B041343227A120649
:10F5F0001A437B68DB6AEAE77B6828001B6BA2681A
:10F60000616898476FE70F4B5B689B68002B00D1E0
:10F6100069E72179802902D12800984763E7617959
:10F620004A1E022AF8D90021F6E79D69002D00D173
:10F6300059E7A31D221D3478DB8F0094A84752E7B9
:10F6400090FEFF1F101200208CFF00008DFF0000B5
:10F6500073B50800140006295ED8F1F709FB6F5E48
:10F6600053805D5D800015788D4251D1C046607930
:10F67000A37900021B04184323791843424B984294
:10F680001ED02CD8D9231B02984219D020D8D723BA
:10F690001B02984214D019D8D3231B0298420FD0D2
:10F6A000D6231B0298420BD011780023012200F0D0
:10F6B00089F831E0354BC118354BCB40DB07F3D52A
:10F6C000344B11785B685B6B984725E0D823E8E7FB
:10F6D000314B3249C3180B42F2D0314BE2E7314B88
:10F6E00098420DD8304B9842E4D8304B9842E7D03E
:10F6F00004D82F4B9842E3D02E4BD3E72E4BD1E7C3
:10F700002E4BCFE700232E484632C15C0029AAD1F8
:10F710000133072BF9D1C04673BD137A232BFBD1DC
:10F72000A07AE37A00021B041843637A52791843E3
:10F73000184B21795B689B6B9847EDE71068154B78
:10F74000010AC9B25B68EF2911D85D69002D0AD0A2
:10F750002300063246331B78D28F211DA847200094
:10F76000FFF78AFED8E72000FFF786FEF7E79D69DE
:10F77000002DF8D0260046363678931DDB8F0432F4
:10F780000096A847EBE7C046F5FB00005000FFFFDE
:10F7900021008000101200200021FFFFFFEFFFFF7B
:10F7A00097F10000C7FF0000AFFF00000FFF00004F
:10F7B000C5FD0000DAFE00007EFF0000FCFF000037
:10F7C00090FEFF1FF0B51E00E82389B01B020393D3
:10F7D0000E4B050004930E4B1120059300231700D8
:10F7E000079302AB02220191C018FF210CF0E8FF41
:10F7F00003AC019B258220002D0CE7722673E37376
:10F80000A574FFF7C5FD09B0F0BDC04600E8FF00D4
:10F8100008002300F0B5050A8DB00393EBB2060093
:10F82000129F01910292EF2B5ED8030CDBB2009382
:10F83000C3B20493FBB2EDB2059307AC082F35D9E0
:10F84000EC231B0207932A4BA27138000993A7816E
:10F850000CF0BEFE274B00220BF086FB09F06CFE7D
:10F860000AF034F81025009BA073A3742000E57300
:10F870002682FFF78DFD431C16D01F4B1F4A0299AD
:10F8800015709A1DD7871A0047321170019A1E60B1
:10F8900046331A7003993A0019480CF0A7FF19482B
:10F8A000194908F03FFF00200DB0F0BD0B2006AB5A
:10F8B0000D220021C0180CF083FF009B07962371D6
:10F8C000049B0F20A371FBB22372019B3A00637269
:10F8D0002323A37206AB03996571C0180CF086FF51
:10F8E0002000FFF755FDDFE701204042DCE7C0467E
:10F8F0000807231000001C40400F0020880F002044
:10F90000440F002000100020E2040000F0B50600C3
:10F910008BB01000019203910CF05AFE2E4B002286
:10F920000BF022FB09F008FE09F0D0FFC3B20293EE
:10F93000EC231B020593FF230025FF271B040693DE
:10F94000264B05AC0793019B0995A381029B268258
:10F950002000360CA373E773A674FFF719FD01307E
:10F9600003D1012040420BB0F0BD1022290006A8AF
:10F970000CF026FFEB231B020593E123DB00238120
:10F980002323A771A37207210198F1F701FA072435
:10F990000F00029BAB4201DC0020E4E70F2004AB28
:10F9A0000822FF21C0180CF00BFF2B0063430399C2
:10F9B00001986A1C05AEC91807331500F2723A00A7
:10F9C000984200D3220008A80CF010FF3000FFF787
:10F9D000DFFC0130DDD1C4E700001C400807232014
:10F9E00070B505000E0019002B0ADCB21000049A55
:10F9F000EF2C17D92843082A02D9FFF787FF70BDDB
:10FA00000A4C2D0C637123232060257122726672CB
:10FA1000A372002A02D006480CF0E8FE2000FFF78F
:10FA2000B7FCECE701204042E9E7C046181200208D
:10FA3000231200206922024B1A60586099607047B7
:10FA4000A0FEFF1F07B517220300009206210248FF
:10FA50008032FFF7C5FF0EBD97F1000007B52D22DC
:10FA600003000092062102489A32FFF7B9FF0EBD4B
:10FA7000C7FF000007B5FF22C275E73A03000092F6
:10FA8000062102486632FFF7ABFF0EBD7EFF000085
:10FA900007B504220300009206210248F132FFF765
:10FAA0009FFF0EBDF5FB000007B50C22030000927E
:10FAB00006210248A432FFF793FF0EBDB0FF0000FD
:10FAC00007B50C220300009206210248A932FFF775
:10FAD00087FF0EBDB5FF000007B50C2203000092A2
:10FAE00006210248C532FFF77BFF0EBDD1FF0000A3
:10FAF00007B509220300009206210248C932FFF728
:10FB00006FFF0EBDD2FF000007B518220300009260
:10FB100006210248BB32FFF763FF0EBDD3FF000092
:10FB200007B508220300009206210248CC32FFF7F5
:10FB300057FF0EBDD4FF000030B54C00112185B039
:10FB400002AB9A70FF2208252143D824DA70064AB6
:10FB500059701D7003920621020000952002FFF7E4
:10FB600059FE05B030BDC046FFFFF1F27FB505007C
:10FB70000920140002AE684432700CF037FED72022
:10FB8000013433002A00062100940002FFF742FEF0
:10FB900004B070BD1FB5D3240823029103920093D3
:10FBA0000200062102AB2002FFF734FE04B010BDB4
:10FBB000034B044A1A609A601A619A611A6270478C
:10FBC000ACFEFF1FFFFF000030B50400092085B028
:10FBD0000722002168440CF0F3FD0123FF2002AD51
:10FBE0002C70FC22009305212B000002FFF7F8FE89
:10FBF00005B030BD07B52A22811C0275CA77C11D28
:10FC0000CA7725310A7003320300009206210248A8
:10FC10009832FFF7E5FE0EBDC5FD000007B52A21AD
:10FC2000821CD1772222030000920348B832243983
:10FC3000FFF7D6FE0EBDC046DAFE000007B5FF2274
:10FC4000C27503001000DF3A00920621113A00024B
:10FC5000FFF7C6FE0EBD0000014B18607047C0469E
:10FC60002C12002010B5034C606021736373A273E3
:10FC700010BDC0462C12002030B5084C257B8D42AB
:10FC800008D1617B994205D1A37B934202D1A06048
:10FC9000002030BD01204042FBE7C0462C1200206E
:10FCA000034A1168536892689B185B1A18187047CA
:10FCB0002C120020F7B5060014001F00002806D102
:10FCC00080231B01994202D301204042FEBD002344
:10FCD0006A460F4D13809370137128000B002100AA
:10FCE000D67007F005FD0028EED13B002200310060
:10FCF000280007F097FD0028E6D114226243054B47
:10FD00002100D218280007F067FD431E9841DCE768
:10FD1000A4D201005012002003685B0700D5C04642
:10FD200003681B0700D5C04603685B0600D5C046C4
:10FD300003681B0600D5C0460368DB0500D5C04636
:10FD400003689B0500D5C04603685B0500D5C04627
:10FD50000368DB0400D5C04603689B0400D5C04699
:10FD600003685B0400D5C04603681B0400D5C04689
:10FD70000368DB0300D5C04603689B0300D5C0467B
:10FD800003685B0300D5C04603681B0300D5C0466B
:10FD900003689B0200D5C04670470000F0B50026FE
:10FDA00089B00C00150004900796B1420BD00129D0
:10FDB0004BD06B46187C03F023FF079007A8FFF792
:10FDC000ABFF09B0F0BD2A4F2A4A3B6811685B1AA5
:10FDD000012B00D0C0463B68274E1360274A2900FC
:10FDE000136827480133136014236B4302939B1954
:10FDF0001A00039307F0F0FC039B059059688023D9
:10FE00001B01994205D3802300249B05994264413C
:10FE1000013414235D43029A75190832B2182B7C01
:10FE200000200092220001F08DFB2B7A6A7A1B06DB
:10FE300012049B18AA7A12029B18EA7A9B183B605C
:10FE4000059B002BB5D0C046B3E70E4A13680133BB
:10FE5000136008F063FA0C4B1B68C01A0B4B186058
:10FE60000B4B5E550B4B1A689042A2D91860A0E765
:10FE7000481200204012002050120020441200209E
:10FE8000A4D201004C1200202813002024130020CB
:10FE9000181300202013002007B50122054B1A700B
:10FEA00003F0AEFE0190C04601A8FFF735FFC04643
:10FEB00007BDC0463C12002070B52F4E3368002BA2
:10FEC00002D00120404270BD2C4D2D49280007F082
:10FED00055FB041EF5D102002A49280007F0D8FC82
:10FEE0006868012522002849C0B203F097FE02216C
:10FEF0000B20356005F0F0FD02210A2005F0ECFD35
:10FF000001230922162120005B42FFF7D3FE0028BF
:10FF100001D0C046D5E70423C02108225B42C900B6
:10FF2000FFF7C8FE0028F4D1FF238C210722280008
:10FF30001B028901FFF7BEFE0028C2D1062228005D
:10FF4000124B1349FFF7B6FE0028BAD1FF238C21CC
:10FF5000052228001B028901FFF7ACFE0028B0D162
:10FF60000123042228000B495B42FFF7A3FE00286F
:10FF7000A7D1C046A7E7C0461C130020A4D20100A9
:10FF800070D201009DFD000099FE0000FFFEFFFF02
:10FF9000698CFF18548CFF1870B50A4D2B68012B23
:10FFA00002D00120404270BD074807F051FB041EFB
:10FFB000F7D10222210005480CF002FC20002C6041
:10FFC000F1E7C0461C130020A4D201001813002042
:10FFD000F0B514000D008DB007AE1422002103907F
:10FFE00030000CF0EDFB039B2200290009A8736090
:10FFF00034740CF0FBFB032302933A4B1D78002D65
:020000021000EC
:1000000003D05A78002A3CD10125012159550023FB
:1000100080211800039C09018C42584105AA1380D5
:1000200093701371304BD07029001800019307F0C2
:1000300027FB32002900019807F094FB08F06EF9C5
:100040002A4F38602900019807F004FC041E15D1DE
:100050002749284808F094FE08F060F9264B010073
:10006000180008F08DFE2100244808F089FE24487D
:1000700008F086FEC04620000DB0F0BD012829D151
:10008000C046029B013BDBB20293002BB5D11D4C55
:100090002378012B07D101F09DFB002801D101F04D
:1000A00095FB00232370C0461149124808F068FEF2
:1000B00008F034F9104B0100180008F061FE01212E
:1000C0001148494208F05CFE0D4808F059FE012035
:1000D0004042D1E708F022F93B68C01A0128B1D9A3
:1000E000CEE7C04618130020A4D201002813002038
:1000F0005AD2010016C8010023C80100D6CB010066
:100100003AC801003C12002054D20100074B10B540
:100110001C68002C07D10122202005491A6007F035
:10012000D0F8200010BD01204042FBE72C13002036
:10013000E4FFFF1F10B5D2B207F0E0F810BD10B514
:100140000C0007F0E6F80123E040184010BD012341
:100150008B4010B5190007F0DAF810BD284B70B5C8
:100160005A68284D8A4227D11B78834224D1012224
:100170000321254807F0B5F801220321234807F0A1
:10018000B4F8002203212148FFF7D4FF00242B7884
:100190009C4205D3032211001B4807F0A2F870BD52
:1001A00001220321194807F0A9F80022032117486A
:1001B00007F0A4F80134EAE701220221144807F00D
:1001C00090F801220221134807F08FF80022022143
:1001D0001048FFF7AFFF00242B789C4203D3052281
:1001E00002210B48D9E7012202210A4807F086F8CC
:1001F00000220221074807F081F80134ECE7C046ED
:1002000074130020D4FEFF1F0090044000F00F4044
:1002100000C00440C0F00F4013B50B4C2368002B06
:1002200001D0002016BD094A094901AB09481A80CE
:100230004B6107F067FB002802D001204042F1E744
:1002400001232360EDE7C0463413002006070000B9
:10025000C4FFFF1FDCFFFF1F10B5084C2368012BF4
:1002600001D0002010BD064807F006FC002801D18F
:100270002060F6E701204042F4E7C0463413002036
:10028000DCFFFF1F10B5094C2368002B01D00020B4
:1002900010BD0749074807F035FB002802D10123AC
:1002A0002360F4E701204042F2E7C0463813002003
:1002B000ACFFFF1F7413002010B5084C2368012BFE
:1002C00001D0002010BD064807F0D6FB002801D160
:1002D0002060F6E701204042F4E7C04638130020D2
:1002E000741300200F4B73B55A680C00C5B29142CD
:1002F0000DD11E78AE420AD1FFF7DEFF002803D1F0
:1003000021003000FFF72AFFFFF7BCFF76BDFFF7A3
:10031000A3FF002803D121002800FFF71FFFFFF7EC
:100320007BFFF3E774130020F0B5160087B000934D
:100330000CAB1B88029003910022310002A80193AC
:10034000032407F0C9FB0123019A009902A807F0D2
:1003500053FB0023144D0593288007F0DFFF2B8803
:100360000700002B10D003990298013CFFF7BAFF59
:10037000E4B20022310002A807F0AEFB002CE2D16B
:100380000120404207B0F0BD05A902A807F0C0FB5C
:100390002880022804D107F0C1FFC01B6328F3D9CD
:1003A00028880028DFD1EDE730130020F0B51726AC
:1003B0000024012789B01D0004900591039207F0E5
:1003C000ADFF02ABF6183470AC4202D301204042BC
:1003D0000AE001343300039A049805990097E4B2C7
:1003E000FFF7A2FF0028EFD109B0F0BDF0B58DB046
:1003F000039312AB1B880192049314AB1B880690E5
:1004000007910022019906A80593032707F064FBD2
:100410000AAC06AD23002A0003CA03C30A21039BCA
:1004200049190B80049A0023200007F0E5FA214BBC
:1004300018800023099307F071FF0600200009A926
:1004400007F066FB1B4B1880022804D107F066FFFB
:10045000801B6328F2D90123059A1399200007F025
:10046000EBFA144B18800023099307F057FF029012
:10047000200009A907F04CFB0E4E3080022805D160
:1004800007F04CFF029BC01A6328F1D9308800287E
:100490000ED069680698013FFFF724FFFFB20022E3
:1004A0002800019907F018FB002FB2D1012040422B
:1004B0000DB0F0BD301300201A4B01229B68590883
:1004C0000800104011422CD199080220114228D175
:1004D000D9088018114224D119098018114220D15D
:1004E0005909801811421CD199098018114218D15C
:1004F000D9098018114214D1190A8018114210D15B
:10050000590A801811420CD1110080185A0508D4DC
:10051000DA0A40180A4204D15B0B0B400230C01AC1
:10052000C0B2704700F0074070B50F4D2E68002E26
:1005300001D0002070BD01211A2005F0CDFA0B4931
:100540000B4807F021FB0123040032000321094876
:1005500006F0DEF80443A4B2002C02D101232B6084
:10056000E7E701204042E5E740130020E4020020D5
:100570007C13002000C00240F0B5042585B0019036
:1005800002910392154F039B029A0199380007F0DC
:1005900043FB134C208007F0C1FE23880600002B8C
:1005A00007D0013DEDB2002DECD10120404205B055
:1005B000F0BD380007F050FB208007F0AFFE801B35
:1005C000632806D8380007F047FB20800028F4D1C4
:1005D000C04620880028E4D1E9E7C0467C1300200B
:1005E0003C13002070B50A4D2C68002C0AD1032161
:1005F0000C2005F071FA0749074807F055FC012364
:10060000002802D001240023644220002B6070BD2A
:100610004413002000030020ACD2010010B500F00C
:10062000F7F910BD37B5002300220D4D009201935C
:1006300000216A46280007F059FD041E0CD1009ADB
:10064000019B00210748F0F723FD05210200280047
:1006500007F0F6FC20003EBD01204042FBE7C0460B
:10066000ACD2010000E1F50510B5084C2368002B61
:1006700002D00120404210BD0549064807F0F0FDB8
:100680000028F6D101232360F5E7C0464813002077
:10069000B4D20100C0D2010010B5024807F00AFE32
:1006A000002010BDC0D20100024B98688006C00F28
:1006B0007047C04600F00740C046704710B50020A4
:1006C00000F02AF90338431E9841C0B210BD10B59E
:1006D000002000F081F810BD37B50024084B0D0054
:1006E00001AAC11820000423019400F0BDF8041EE3
:1006F00004D10422280001A90CF078F820003EBDA6
:1007000000C0FFFF13B56A46084B0C001B7813713D
:10071000074B01AAC1180123002000F0A5F800280A
:1007200002D16B461B79237016BDC0463BC8010041
:1007300000C0FFFF7FB500260400150001200191D5
:100740000396042A0AD801A903A80CF04FF8044B19
:100750003000E11803AA2B0000F0A3F804B070BD2C
:1007600000C0FFFF30B5002485B005001300012054
:1007700001910394042A0AD801AAD11803AA0139C5
:100780009C4206DB05490020691800F08AF805B094
:1007900030BD087810550134F1E7C04600C0FFFFB6
:1007A00037B5012205000C00FFF7C4FF002801D077
:1007B00001203EBD6A46074B28001B7801A9137132
:1007C000FFF7A0FF0028F4D16B461B79A342EFD1BD
:1007D000EFE7C0463BC80100034B185C0138431EDD
:1007E0009841C0B27047C0464C130020F0B5134F7B
:1007F00006012021F059C1B008F041FB002405009A
:10080000BB19DB6800219C4205D3080001E0C0460B
:10081000012041B0F0BDFC2201A800910BF0D0FFF7
:10082000802269462002520008F05AFB05436DB24F
:10083000002DECD10134E4B2E2E7C04650130020B1
:10084000084B00011B1810B55C6802208C4208D8C8
:100850009B688B4205D3521801339342804140423A
:10086000400010BD50130020F8B51D0006000C001C
:100870001700FFF7B1FF03000120002B07D12A006A
:1008800021003000FFF7DCFF002801D0C046F8BD92
:100890002A003900200008F097FB431E9841C0B29F
:1008A000F5E7F0B506000C000021C3B0019203A8E3
:1008B000FC221D0002910BF083FF3000FFF78CFF3C
:1008C00003000120002B07D12A0021003000FFF790
:1008D000B7FF002802D0C04643B0F0BDFF27260076
:1008E0008022BE43520002A9300008F06DFB3C405C
:1008F00002ABE0182A0001990BF078FF812130004B
:1009000008F0BDFA80223000520002A908F0E8FA8F
:10091000431E9841C0B2DFE7F0B585B0002802D091
:10092000042005B0F0BD354D354B0122AB601023DE
:10093000EB6002AB190018802860686008F044FB87
:10094000012202AB04009918A86808F03DFB04439B
:1009500064B2002CE4D102AB1B78AA2B0FD102ABFE
:100960005B78552B0BD10122264B1A702B689A18F5
:10097000254903205B1821494A608B60D1E700209C
:10098000FFF734FF061ECBD10125204B03AA1B4FD6
:1009900013801C4B396801931D702B00FFF781FFFA
:1009A00002AA04002B003000B9680532FFF779FF76
:1009B000019B0443E4B21E70002CB1D102AB1900BC
:1009C0002A0038681C8008F0FFFA02AB04002A00F5
:1009D000B868591908F0F8FA044364B2002C9FD1A2
:1009E00002AB1B78AA2B9BD102AB5B78552B97D11E
:1009F000019B1D703B685A19BAE7C046501300208E
:100A0000FF0F00004C130020FE0F0000AA5500004D
:100A1000F0B5F6498FB0F64808F0B2F907F07EFC61
:100A2000F44B0100180008F0ABF9F34808F0A8F9FE
:100A3000F24808F0A5F9002607F070FCF04BF14DE4
:100A40001E70049000F0DAFEEF4BF04C1A78F04B79
:100A50001A702200663212785A70220062321278BE
:100A60009A70220064321278DA70220065321278AD
:100A70001A712200633212785A712200773212788A
:100A80009A71220076321278DA713300E14E5A0000
:100A9000915B0133A952142BF9D12A00DE4BAF32FE
:100AA0001978DE4F11702A005978B03211702A007F
:100AB0009978B13211702A00D978B23211702A00B7
:100AC0001979B33211702A005B79B4321370D44BA8
:100AD0001B785A1E93412A00A5321370D14B1A7805
:100AE0002B00B6331A703B78012B09D100F000FEC1
:100AF000CD4B1B68C01ACD4B984201D900233B70E7
:100B00002B003A78B5331A7023005D331A78C84B3E
:100B1000C84F1A70C84B1A782B00A1331A702A00DC
:100B20000023A63213702A00B73213702A00C34B79
:100B3000AE321B7813703300AE331A782B009D331E
:100B40001A703300AF331A782B009E331A70BC4BE7
:100B50003A7801930123002A02D1019B1B78DBB272
:100B60002A00AD321370B74A019B197813780B43F2
:100B70001370B54A397813780B43591E8B41DBB299
:100B80001370B24A3B7811780B4313703300B04AAC
:100B9000C3331B7811780B431370F6F755F9B36C18
:100BA000002B00D149E2B26CAA4B9A4200D944E230
:100BB0003121B06CF0F766F80BF00AFDA64AA74B9E
:100BC0000AF016FE0022A64B09F06AFE802302906E
:100BD0000391029A1B061000039AD1180BF08EFCA9
:100BE0000023BC3528608B4DE15CEA18503201339C
:100BF0001170142BF8D15E222B00A256B0331A705C
:100C00005F222B00A256B1331A702A00954B6A322C
:100C1000198A606A11802A00598A6C321180242254
:100C2000995E2A006E32118022229A5E2B00703368
:100C30001A8009F087FD8C4B2A1D1B686867D367F3
:100C40008A4B19682B0088331960A16AE967D06F55
:100C5000196809F095FA864909F0ACF82B008C3335
:100C600018602B00226D9C331A602B00626DA0333C
:100C70001A602B00A26DA4331A602B00E26CA8331B
:100C80001A6023002C331B785A1E93412A00DBB2D2
:100C9000B232137023002D331B785A1E93412A0061
:100CA000DBB2B332137023002E331B785A1E9341EC
:100CB0002A00DBB2B432137023002F331B785A1E84
:100CC00093412A00DBB2B5321370230030331B7816
:100CD0005A1E93412A00DBB2B7321370230031331E
:100CE0001B785A1E93412A00DBB2B83213702300DE
:100CF00032331A782B00BA331A70230033331B783F
:100D00005A1E93412A00DBB2BB32137023003433E6
:100D10001B785A1E93412A00DBB2BC3213702300A9
:100D200035331B785A1E93412A00DBB2BD32137053
:100D3000230036331B785A1E93412A00DBB2BE32A1
:100D40001370230037331B785A1E93412A00DBB2FD
:100D5000BF321370230038331B785A1E93412A0088
:100D6000DBB2C0321370230039331B785A1E934113
:100D70002A00DBB2C1321370631CDA7F2B00C3334D
:100D80001A702A00019BC4321B78DBB213703B78C7
:100D90005A1E93412A00DBB2C532137023002A0089
:100DA00060331B78C6321370230078331B78591ECA
:100DB0008B412900DBB2C7310B70230079331B78DC
:100DC000591E8B412900DBB2C8310B7023007A33E6
:100DD0001B78591E8B412900DBB2C9310B702300EF
:100DE0007B331B78591E8B4144E0C046E9D2010099
:100DF00016C8010023C80100C8D201003AC801008A
:100E0000A0080020F4070020C90700206807002080
:100E1000D8130020300C0020140C00203B0F0020C1
:100E20003D0B0020BC130020F81300203F9C000065
:100E30003A0F0020E0130020EC0B0020B21300203A
:100E4000700B00203D0F00203C0F0020A713002056
:100E5000A61300208F5F0100EC51B81E85EBC13F47
:100E600000006940E00800209C0B0020980B002047
:100E70000000C8422900DBB2CA310B7023007C336A
:100E80001B78591E8B412900DBB2CC310B7023003B
:100E90007D331B78591E8B412900DBB2CD310B709D
:100EA00023007E3319782B00CF33197023007F3352
:100EB0001B78591E8B412900DBB2D0310B70230007
:100EC00080331B78591E8B412900DBB2D1310B7066
:100ED000230081331B78591E8B412900DBB2D231AC
:100EE0000B70230082331B78591E8B412900DBB223
:100EF000D3310B70230083331B78591E8B4129009B
:100F0000DBB2D4310B70230084331B788534591E37
:100F10008B412900DBB2D5310B702378591E8B41F0
:100F20002900DBB2D6310B7011784C4A13780B4391
:100F30001370FDF7A5FC07F0F1F9494E494C3368F1
:100F4000C01A494B1A78FA239B005343984205D99B
:100F50000122464B1A6007F0E1F93060444B4549E5
:100F60001A78454E0191012A10D100221A70F0F72B
:100F700099F9424B1860019B1B78012B06D03378FE
:100F8000012B03D02E342178F0F7AAF9C04633782C
:100F90003B4C012B1BD100211E2206A821700BF017
:100FA0000FFC384F354B39681B68994247D80029E8
:100FB00045D02B00B0331B78002B47D0C046324BB6
:100FC0001868F0F79BF90023337001332370019BFD
:100FD0002D4A1B7800210592012B00D091E21E22A0
:100FE00006A821700BF0ECFB274F284E3A683368B7
:100FF0009A4200D98AE0264B1C78264B1B78029334
:10100000012B0AD1244B1868F0F720F9013000D0E9
:10101000029400221F4B029C1A70184A336812680F
:10102000934201D8002B3BD1C046B0352B78002B22
:1010300000D0C046C046386858E01848D0E5C046E1
:101040002B00B0331B78002BB8D1B8E706A8F0F717
:10105000D7F8396806A8F0F735F9B0E7390F00205E
:10106000D0130020A00B0020CE0B0020D4130020B2
:10107000CC130020BC130020BD130020C41300209B
:101080001C030020C0130020B8130020C813002048
:10109000A9130020B0130020AC13002070FEFFFF46
:1010A0002B00B0331B78002BC3D1002C00D016E2EC
:1010B0001E22210006A80BF083FB06A8F0F78EF88D
:1010C000E54B06A8196801311960F0F7FBF8E34B0E
:1010D000002800D0F0E11A6801321A60E04A14706A
:1010E000C04618683368984200D201E2F0F706F96A
:1010F0000023059A1360DB4A1360019A1370D64AE5
:101100001360F0F7BFF80122D74B1A70D64B1B784B
:10111000012B00D070E1D54B1E68012E00D06BE191
:101120000022D34C1A6000211E3220000BF048FB35
:10113000E121D04D0901E86FEFF7A4FD09F06EFB46
:101140002B007833071C188880B209F01BFB011CA8
:10115000381C08F02FFEC84909F012F82B00029045
:10116000B2331A78637D3240B343134363752B0067
:101170000227B3331A78637D32405200BB431343D6
:1011800063752B00B4331A7804213240BA40637D72
:1011900008208B43134363752B00B5331A78637DA6
:1011A0003240D2008343134363752B00B7331A7860
:1011B000637D32408A400C318B431343AF4A6375E1
:1011C0002B001278B833511E8A411B7892015B01C3
:1011D0001A43AB4B01931B78591E8B411F21DB0136
:1011E0001343627D0A40134363752B00BA331A78A8
:1011F0001B39531E9A41A37DB3431343A3752B00A0
:10120000BB331A78A37D32405200BB431343A3750E
:101210002B00BC331A78A37D3240BA408B43134372
:10122000A3752B00BD331A78A37D3240D2008343CF
:101230001343A3752B00BE331A78A37D32408A4036
:101240000C318B431343A3752B00BF331A78A37D56
:101250001031324052018B431343A3752B00C0332E
:101260001A78A37D2031324092018B431343A3753A
:101270002B00C1331A78A37D3F31D2010B401343B9
:10128000A37507F04BF8FA21030A20706370030C72
:10129000000EA370E0708900E86CEFF77DFD83B26B
:1012A0001B0A63742B0020746A331B880421A3710A
:1012B0001B0AE3712B006C331B8823711B0A6371BB
:1012C0002B006E331B88A3721B0AE3722B00703352
:1012D0001B8823721B0A6372EB8F23731B0A6373D1
:1012E000EB19DB8FA3731B0AE3732B00AE331A7861
:1012F000E37D3240B3431343E3752B00AF331A78D9
:10130000E37D32405200BB431343E3752B00AC3303
:101310001A78E37D3240BA408B431343E3756B1870
:10132000D86F08F0BBFA2B002A0008338832A0746B
:101330001068D96F08F03EFD4F4908F021FF08F012
:10134000ADFAE074029808F0A9FAFA212075890034
:10135000A86CEFF797FC83B21B0A63760023207614
:10136000A676E676A27E5800013A52002E5AAA5A74
:10137000591CC9B2964201D2A176C046E27E285AD3
:10138000013A5200AA5A904201D9E176C04601338F
:10139000142BE7D1133B63772377002334481900DC
:1013A00018314A00AF5A627F3FB217325200AE5A2C
:1013B0005A1C36B2D2B2B74201DD6277C04649004C
:1013C0006E5A017F36B217314900695A09B28E420E
:1013D00001DA0277C0460133072BE0D1C046EFF7B0
:1013E000EBFE284B002800D198E001221A70264A13
:1013F000137801331370C04606F090FF049B234A14
:10140000C41A1168224B1C60224B8C4203D9196804
:10141000002900D11460204A186811688C4202D952
:10142000032800D914601D4A11688C4200D2146050
:10143000461C1B4D1E6009F0F1F9296808F0A0FE5A
:10144000071C200009F0EAF9011C381C08F028FBF1
:10145000041C300026E0C046B4130020B81300205E
:10146000A8130020C81300201C030020D413002060
:1014700088130020300C00200000C842A613002072
:10148000A7130020B2130020B1130020F013002096
:10149000E8130020E4130020F413002020030020B0
:1014A000EC13002009F0BAF9011C201C08F082FCA2
:1014B0002860C0460FB0F0BD1D4930680A780A2484
:1014C0000132D2B20A70642800D8093C1949A242FC
:1014D00001DB1860C046C04618680B6803E6C046CA
:1014E00038683368984200D300E6012C00D1FDE54E
:1014F00006F014FF049BC01A5A2800D874E5C046B1
:1015000004E6059B19600B4B1960019B19700A4B8F
:101510001960EFF7B7FE01232370F7E5019A187001
:101520001070064A1070064A13680133136063E7AF
:10153000A8130020C8130020B4130020A613002015
:1015400084130020F7B50D004848494916001F00D4
:10155000089C07F015FC06F0E1FE464B0100180060
:1015600007F00EFC2900444807F00AFC434807F046
:1015700007FC00233A0021006846009301930BF01A
:1015800035F9EF223E4B12042B40934210D16B46AB
:101590001B78102B07D0012E04D1082269462800A1
:1015A000FDF7CAFEF7BD06F0B9FEFEF755FBF2E700
:1015B000012E04D1082269462800FDF7BDFE314BFB
:1015C000E81803284DD8EFF753FB020A38472E4B93
:1015D0001B78002BE6D12D4B01221A70E2E72A4B33
:1015E0001B78002BDED1C046294D042221002800A3
:1015F0000BF0FCF8274E04223000211D0BF0F6F80A
:1016000033682A689342CDD801219942A4412248E7
:10161000644201701D48017020480470002B00D105
:101620000B000132D21A336000232A601C4A136077
:101630001C4A13601C4A1370B4E7C046164B1B7853
:10164000002B09D10422210018480BF0CFF8012209
:10165000174B1A700D4B1A70E379FF2BA2D1124B66
:10166000BAE7162D9ED1134BB6E7C04616C8010047
:10167000D3D2010023C80100CDD201003AC8010035
:101680000000FF0300FAFFFFE00C0020CC13002055
:10169000C8130020AC130020BC130020B01300209E
:1016A000B4130020B8130020A9130020C013002099
:1016B000BD1300200C0D002010B500230121044AA9
:1016C000044801F029F80021080001F031F810BDAC
:1016D00070130020D8FEFF1F10B5FFF7EDFF0120AB
:1016E00006F00EFE002010BD10B506F009FE10BD7C
:1016F00010B506F013FE10BD10B5FEF707FD10BDC6
:1017000010B5FEF717FD10BD10B50122FEF712FD52
:1017100010BD10B50022FEF70DFD10BD10B5FEF78F
:101720000EFD10BD10B5FEF712FD10BD10B5034C37
:1017300002000B0003CCFEF739FE10BDDCFFFF1FDB
:1017400013B5044C00920B00020003CCFEF7ECFD35
:1017500016BDC046DCFFFF1F1FB502930123054CD9
:101760000192009302000B0003CCFEF73FFE04B091
:1017700010BDC046DCFFFF1F10B5FEF783FD10BD96
:1017800010B5034C02000B0003CCFEF70FFE10BD9A
:101790007413002013B5044C00920B00020003CC1C
:1017A000FEF7C2FD16BDC046741300201FB502939C
:1017B0000123054C0192009302000B0003CCFEF7BD
:1017C00015FE04B010BDC0467413002010B5FEF71E
:1017D00073FB10BD10B5FEF7DFFB10BD10B5FEF7B3
:1017E000F7FB10BD10B5FEF7FDFE10BD10B5FEF7FE
:1017F00019FF10BD10B5FEF737FF10BD10B5FEF78D
:101800004BFF10BD10B5FEF74FFF10BD10B5FEF732
:1018100053FF10BD10B5002804D10B210548FFF778
:1018200078FF10BD0128FCD10B210248FFF76CFFA7
:10183000F7E7C04600F00F4010B5002804D10C2196
:101840000548FFF766FF10BD0128FCD10C210248B6
:10185000FFF75AFFF7E7C04600F00F4070B5094D9B
:10186000002228000B2105F040FD28000B21FEF787
:1018700066FC0400012228000B2105F036FDE0B2D1
:1018800070BDC04600F00F4010B5FEF74DFE10BD14
:1018900010B5FEF771FE10BD002310B5891801398F
:1018A0009A4200DC10BD0C78C4540133F7E70023E2
:1018B00010B59A4200DC10BDCC5CC4540133F8E78B
:1018C00010B5FEF7F9FD10BD70B51B4CFFF704FF16
:1018D000FFF790FFFFF710FF200001220221FFF722
:1018E0000FFF002201211548FFF70AFF0122052101
:1018F0001348FFF705FF134D012209211248FFF796
:10190000FFFE200000220821FFF7FAFE2800002237
:101910000721FFF7F5FE200001220E21FFF7F0FE60
:1019200000220D212800FFF7EBFEFFF725FFFFF750
:1019300059FFFFF7A9FF70BD80F00F40C0F00F40C6
:1019400040F00F4000F00F4000F10F4010B5FFF7DE
:101950004DFF10BD10B5FCF769FF10BD1249134AC9
:1019600070B5521A12480AF041FF1249124A134840
:10197000521A0AF03BFF124A12480021121A0AF0CA
:101980001FFF1149114A1248521A0AF02FFF114C39
:101990001149124D8C4205D0114A20009208920044
:1019A0000AF024FF2C6070BD68D60100A0DC0100A5
:1019B000C0FDFF1FA0DC0100A0DC0100F803002037
:1019C000781C002060050020A0DC010048DD01003B
:1019D00000FCFF1F00FDFF1F0008000008ED00E0F5
:1019E000C0000000044B054A5A605A68044A1A6055
:1019F000044A9A607047C0460020054020C528D997
:101A000020210000FFFF000003480449044B425816
:101A100092B213434350704700E000E00C0D000009
:101A20000400FA05064B02205B69DBB2042B06D0EA
:101A30000130802B03D01800012B00D00420704708
:101A400000E00740054B5A68802310005B041840F3
:101A50001A4201D0024B18687047C046FC4006404D
:101A6000FC1300208022094B920099588022080024
:101A700052041040114208D0822292009A58012349
:101A8000100018401A4200D001487047004006403C
:101A900000127A00C022074B920099588022080059
:101AA00052041040114203D0C22292009B580248B7
:101AB0007047C04600400640006CDC0270B5144C14
:101AC000050023691B011B0F022B12D0032B13D01F
:101AD0000020012B01D1FFF7B5FF0F262169090C6A
:101AE00031400131EFF7CEF8012D08D0022D0DD095
:101AF00070BDFFF7B7FFF0E7FFF7CCFFEDE7216917
:101B0000090931400131EFF7BDF8F1E72169F8E744
:101B10000040064010B501291ED0052807D0062830
:101B200014D0FFF79FFF81230200184904E0FFF75C
:101B3000B1FFC123020015499B00C8580723184074
:101B4000002802D00138C240100010BDFFF77AFF14
:101B50000F4B02009868F1E7052807D006280FD040
:101B6000FFF780FF81230200084904E0FFF792FF9E
:101B7000C123020005499B00CB585B05580FDFE7E6
:101B8000FFF760FF024B02009B68F6E7004006404B
:101B9000FC4006400C4A13691B079B0F022B07D021
:101BA000032B0DD00020002B09D1FA20400206E0C3
:101BB0001269100018401A4201D0FA20C001704783
:101BC00002231269F5E7C046008004400C4B002058
:101BD0001B6A10B51B011B0F032B07D81800EFF76A
:101BE00047F80206090C0220FFF768FF10BDFFF757
:101BF00029FFFBE7FFF736FFF8E7FFF74BFFF5E7B5
:101C0000004006400F4A10B513699B069B0F022B3C
:101C100011D0032B12D0012B04D000210620FFF796
:101C200079FF07E012690223100018401A4201D020
:101C3000FA20C00110BD044B1868FBE70021052005
:101C4000EDE7C046008004400014002010B51E4C93
:101C5000802362681B01100018401A4216D0606889
:101C60000006000F0E282CD8EFF702F8112B142BCA
:101C7000192B1C1F2B23082B252B2800FA20400290
:101C800061684905490F0131EEF7FCFF10BDFFF710
:101C90009DFFF5E701210620FFF73CFFF0E701215A
:101CA0000420F9E701210520F6E70020FFF706FFF1
:101CB000E6E70120FAE7FFF76DFFE1E7FFF7A2FF94
:101CC000DEE70020DCE7C04600800440154B400002
:101CD000C35A154A9B0070B59B1801260F221C6839
:101CE0001D682409002034401540A54214D31A6809
:101CF000920F324210D01B685B015B0F022B0CD09D
:101D0000032B0CD0B34202D10630FFF703FF691C4E
:101D1000EEF7B8FF0134604370BD0420F5E70520FD
:101D2000F3E7C046E2D3010000500640F0B50600DC
:101D300085B000290AD16B4619732F4B6A46009370
:101D40002E4B694601930223FF3313812C4B012450
:101D50005A680220520E1700274022420BD15A68BF
:101D60002848294D02405A608022D2045A602F60D0
:101D7000002E02D1002005B0F0BDE02007264A7AEF
:101D8000C00012020240087A3040024330209A60BC
:101D9000CA790136120102408879C00030400243FE
:101DA0004879043E800030400243DA600A79012A13
:101DB00012D0022A16D0002A03D10A7BD20514437E
:101DC0005C600B68114C2B60FFF73CFE00280FD1C4
:101DD000002C0BD10330CEE7087B0D4AC00502432F
:101DE0005A60EEE7087B0B4AC005F8E7013CEBE7D9
:101DF000002CBFD10320BEE700127A0000010002D0
:101E0000FC400640FFFF7FFFFC13002088E7300006
:101E10000100010001000300F7B5060000290BD105
:101E200080236A465B009380022391716946FF33E9
:101E30001380013BFF3B937080221F4B92009D5803
:101E400001246D0E2F0002202740254207D198580B
:101E50001A4D284098509F50002E01D10020FEBD01
:101E6000E02007258A78C000120202404878284006
:101E70000243812080001A500A78043022401A5010
:101E800048798A790979002900D003248021D20574
:101E9000800002432243642489005A50FFF7E2FD88
:101EA000002805D1002C01D10330D8E7013CF5E72B
:101EB000002CD3D10320D2E700400640FFFF7FFF74
:101EC00037B50400002908D16A4601239171537186
:101ED0008022694652000A808B70C0221E4B9200FD
:101EE0009D580220AD0109D498581C4D28409850A7
:101EF0008020C0049850002C01D100203EBDE0207D
:101F000007248A78C0001202024048782040024329
:101F1000C12080001A5003200A780240C2208000AD
:101F20001A5048798A790921002800D00839D20549
:101F30000A43C021142489005A50FFF7ABFD002842
:101F400005D1002C01D10330D8E7013CF5E7002C86
:101F5000D3D10320D2E7C04600400640FFFF7FFFF9
:101F6000F0B585B001930AAB1C78019B07005E1C9D
:101F700013000133734302934B1C73430D00009213
:101F80000393022C3ED0032C3FD0012C06D0012815
:101F900056D00020022F10D0002049E0FFF752FD5C
:101FA0000009012F34D0022FF6D10C2262432F4BAF
:101FB000D3581B095E43B04239D80C2262432B4BE5
:101FC00002999B185A681209514381422FD39B688A
:101FD000039A1B095A43824229D3F02324061B0586
:101FE0001C400F23FF221D40009B2C431B0113406C
:101FF000F0221C43019B12031B0413401C431C4B87
:102000009C61C9E7FFF72EFDCAE7FFF743FDC7E76D
:102010000C216143174BCA5812097243904206D8EB
:102020005B185A68029912095143884202D901206B
:1020300005B0F0BD9B68039A1B095A439042F6D83D
:10204000F02324061B051C400F23FF222B401C43BA
:10205000009B1B011340F0221C43019B12031B0435
:1020600013401C43024B5C6196E7C046F4D201006A
:102070000040064048D3010037B50400FFF7D2FC0A
:10208000E578A378627821780095FFF769FF00284A
:102090000FD10A220F25E178064C2369013A1B0E65
:1020A0002B408B4203D0002AF7D1032001E0002A05
:1020B000FBD03EBD00400640F0B50700A7B00028A9
:1020C00023D0CE4E3C0033691B011B0F032B0FD0D6
:1020D000FFF7E0FC011E04D10120FFF7F1FE051E11
:1020E00010D1C74B07A80793FFF7C6FF051E09D1FC
:1020F000FB78210018000393FFF78EFE051E4ED0DB
:10210000FFF790FC280027B0F0BD8024012208AB27
:10211000640009949C83BB4C14AD0C94BA4C2A7097
:102120000D9412AC22700AACE777C02424031094FB
:10213000B64C04AD1594B64C02211694B54CFF3143
:102140009C87B54C9A812494162423943D346419B9
:102150002270B24C9A731A941BAC22707B246419BF
:1021600022701CAC1992227021AA11807622AC48F0
:10217000521913971D971E971F970890198119835D
:1021800099842090118022AA17807A225219177000
:1021900025AA11808622521917701F0091E7390075
:1021A0007B7F103118000493FFF7C0FD3C00050051
:1021B0000590FFF737FC3634012803D00434022899
:1021C00000D00024059B002B9CD1E378032B00D08A
:1021D00001E1049B002B00D0EFE0039B0125002BC5
:1021E00000D18FE78F4B07A80793FFF745FF050046
:1021F000002D00D086E7B87BF91DFFF761FE051EB4
:1022000000D07FE7032307A8C370A37883706378A7
:10221000437023780370FFF72FFF051E00D071E78E
:102220003B0030331B78002B02D07F4BFA6A1A60D8
:102230003B0035331B78002B0BD0326A7B4BF021EF
:102240001A403B0034331B7809051B060B4013432F
:1022500033623B0043331B78002B00D0F4E03B6F2C
:10226000002B00D017E13B0044331A78002A12D02B
:10227000FF246F486F4A416811405A78D2020A43DE
:10228000997809012140E0241143DA78E400120230
:1022900022400A4342601A79002A13D03F210C24BD
:1022A000634802698A43197A1143DA7952000A4372
:1022B00099798900214011435A792434120122402E
:1022C0000A4302611A7F002A26D00121584A106C65
:1022D0008843597F014311640221106C8843997F20
:1022E0004900014311640421106C8843D97F89009F
:1022F000014311640821106C884339004531C97FBE
:10230000C900014311641021106C88433900463123
:10231000C97F0901014311641B7B002B06D0464B8A
:102320007A6D1A60BA6D5A60FA6D9A603B00473355
:10233000DB7F002B23D000203D4A8024936E9066E3
:1023400051683E4B640119403B004933DB7F1B035E
:1023500023400B4353603B0090664833DB7F83424E
:102360000DD03B000E214A33DB7F5B000B40390070
:102370004B31C97F0B43802149050B4393663800DD
:1023800074300378002B00D1BCE67F212C4A4478BE
:1023900093780B407E396140C9010B43DBB29370E7
:1023A0000223C356002B01DA20335BB21F201179C0
:1023B000034081430B431371A4E6224B07A8079304
:1023C000FFF75AFE039B0500002B00D110E7012800
:1023D00000D00DE706E707A8C370A3788370637881
:1023E000437023780370FFF747FE051E00D089E68F
:1023F000B87BF91DFFF764FD0FE7C04600400640BB
:102400000301000300127A00000100020301010130
:10241000000303000102000024030020010000016A
:10242000010101010100000200140020FFFFFFF084
:10243000008004400FF0FFFF04140020FFEFFFFFB7
:1024400000D007400101000138003B003A0039008C
:10245000393000783833373236311B7812780978C2
:1024600000900120FFF77CFD002812D138003B00CE
:102470003A0039003D3000783C333B323A311B782A
:102480001278097800900220FFF76AFD002800D139
:10249000E5E6050036E605211026FA6E4A439A184D
:1024A0009446114A03929C4500D1DCE61A780399C0
:1024B0005200515A0D4A890089180A680C48E024D4
:1024C00002400F200A601A79E4040240587880071D
:1024D00002439878000620400243D8780533000173
:1024E000304002430A60DEE7E2D3010000500640BC
:1024F000FFFFFFBFF8B506000D00112835D80F28E3
:1025000000D9ABE0EEF7B4FB080D0F55111417AA74
:102510001A1D2025272A2C2F0020FFF7CFFA002490
:102520003EE00120F9E70220F7E7FFF79BFAF6E724
:10253000FFF7B0FAF3E7FFF785FAF0E76E4B18689C
:10254000EDE7FFF743FBEAE700210420FFF7E2FA9B
:10255000E5E70121F9E700210520F7E70121FBE785
:1025600000210620F2E70121FBE7212800D978E0CD
:1025700015380C2800D971E0EEF77AFB07171B1EFF
:10258000212B3D4F596165696D005C4BDB689B01F8
:1025900000209B0F0400032B02D0594A9B0098583F
:1025A000002D00D028602000F8BD544BDB681B01D3
:1025B000EEE7FFF74BFBB2E7FFF724FBAFE70020A6
:1025C000504B04009B78DB09012BE9D0FFF7E2FABE
:1025D000E6E700204B4B04009B78DB09012BDFD0A2
:1025E000464B1A6901231000184004001A42D7D044
:1025F000FA20800093E70020424B04009B78DB091F
:10260000012BCDD03D4B1A690223100018401A420D
:1026100000D184E7FA20C00181E70020394B040093
:102620009B78DB09012BBBD0FA204002B8E7334B83
:102630001B6C1B0901249C4300202402B0E72F4B94
:102640001B6CDB08F6E72D4B1B6C9B08F2E72B4B52
:102650001B6C5B08EEE7294B1B6CEBE700200424A6
:102660009EE7042443289ED80020222E98D03200D2
:10267000323AD2B2112A04D8234BD340DB0700D51B
:102680008EE7224B7200D35A214A9B009B585B0075
:1026900003D480240020640082E71E4B9F5D20232A
:1026A000380018401F4218D00120FFF707FA002811
:1026B000EFD01823380018401F4200D12FE7102414
:1026C0003C403F0710D4002CE3D001213000FFF73D
:1026D000FDFA44424441240262E77B06E5D47BB222
:1026E000002BE6DA0220E0E700213000FFF7EEFAE7
:1026F000002CEED0E9E7C046001400200080044022
:102700000414002000D0074029010200E2D3010098
:10271000005006409CD3010010B5044C206021718C
:102720000020A2602373637310BDC0461014002004
:10273000F0B585B003AE009001913070717003F078
:10274000C3F92E4D00242B7B6B730123B3702B7BBD
